{
	"data": {
		"bytecode": {
			"linkReferences": {
				"remix_accounts.sol": {
					"TestsAccounts": [
						{
							"length": 20,
							"start": 963
						}
					]
				},
				"remix_tests.sol": {
					"Assert": [
						{
							"length": 20,
							"start": 285
						},
						{
							"length": 20,
							"start": 412
						},
						{
							"length": 20,
							"start": 540
						},
						{
							"length": 20,
							"start": 678
						},
						{
							"length": 20,
							"start": 807
						},
						{
							"length": 20,
							"start": 936
						},
						{
							"length": 20,
							"start": 1185
						},
						{
							"length": 20,
							"start": 1462
						}
					]
				}
			},
			"object": "608060405234801561000f575f80fd5b5061231d8061001d5f395ff3fe6080604052600436106200005b575f3560e01c8063011e6492146200005f57806312d487ea146200007857806336c0065614620000a75780637fea0d4b14620000c05780639074416d14620000d95780639181f4e814620000e5575b5f80fd5b3480156200006b575f80fd5b5062000076620000fe565b005b34801562000084575f80fd5b506200008f6200027f565b6040516200009e9190620006b2565b60405180910390f35b348015620000b3575f80fd5b50620000be62000287565b005b348015620000cc575f80fd5b50620000d762000308565b005b620000e362000389565b005b348015620000f1575f80fd5b50620000fc62000503565b005b73__$acbfb1c35000d78352310b16a054a6b106$__6339df137f600280146040518263ffffffff1660e01b81526004016200013a91906200073c565b602060405180830381865af415801562000156573d5f803e3d5ffd5b505050506040513d601f19601f820116820180604052508101906200017c91906200079f565b5073__$acbfb1c35000d78352310b16a054a6b106$__63a079f1a3600260016040518363ffffffff1660e01b8152600401620001ba92919062000837565b602060405180830381865af4158015620001d6573d5f803e3d5ffd5b505050506040513d601f19601f82011682018060405250810190620001fc91906200079f565b5073__$acbfb1c35000d78352310b16a054a6b106$__63aea88952600260036040518363ffffffff1660e01b81526004016200023a929190620008c5565b602060405180830381865af415801562000256573d5f803e3d5ffd5b505050506040513d601f19601f820116820180604052508101906200027c91906200079f565b50565b5f6001905090565b73__$acbfb1c35000d78352310b16a054a6b106$__63abcd79606001806040518363ffffffff1660e01b8152600401620002c392919062000953565b602060405180830381865af4158015620002df573d5f803e3d5ffd5b505050506040513d601f19601f820116820180604052508101906200030591906200079f565b50565b73__$acbfb1c35000d78352310b16a054a6b106$__63abcd79606001806040518363ffffffff1660e01b815260040162000344929190620009e1565b602060405180830381865af415801562000360573d5f803e3d5ffd5b505050506040513d601f19601f820116820180604052508101906200038691906200079f565b50565b73__$acbfb1c35000d78352310b16a054a6b106$__63bfba5dd63373__$1068a87eb54ed04c4e435de35b2ebf536f$__63ce88b14560016040518263ffffffff1660e01b8152600401620003de919062000a6b565b602060405180830381865af4158015620003fa573d5f803e3d5ffd5b505050506040513d601f19601f8201168201806040525081019062000420919062000ae7565b6040518363ffffffff1660e01b81526004016200043f92919062000b76565b602060405180830381865af41580156200045b573d5f803e3d5ffd5b505050506040513d601f19601f820116820180604052508101906200048191906200079f565b5073__$acbfb1c35000d78352310b16a054a6b106$__63abcd79603460646040518363ffffffff1660e01b8152600401620004be92919062000c45565b602060405180830381865af4158015620004da573d5f803e3d5ffd5b505050506040513d601f19601f820116820180604052508101906200050091906200079f565b50565b5f604051620005129062000688565b604051809103905ff0801580156200052c573d5f803e3d5ffd5b5090508073ffffffffffffffffffffffffffffffffffffffff16635fa520bb6040518163ffffffff1660e01b8152600401620005689062000ce3565b5f604051808303815f87803b15801562000580575f80fd5b505af115801562000593573d5f803e3d5ffd5b5050505073__$acbfb1c35000d78352310b16a054a6b106$__63abcd79608273ffffffffffffffffffffffffffffffffffffffff1663251760b76040518163ffffffff1660e01b8152600401602060405180830381865afa158015620005fb573d5f803e3d5ffd5b505050506040513d601f19601f8201168201806040525081019062000621919062000d32565b60056040518363ffffffff1660e01b81526004016200064292919062000db0565b602060405180830381865af41580156200065e573d5f803e3d5ffd5b505050506040513d601f19601f820116820180604052508101906200068491906200079f565b5050565b6114f78062000df183390190565b5f8115159050919050565b620006ac8162000696565b82525050565b5f602082019050620006c75f830184620006a1565b92915050565b620006d88162000696565b82525050565b5f82825260208201905092915050565b7f73686f756c6420626520747275650000000000000000000000000000000000005f82015250565b5f62000724600e83620006de565b91506200073182620006ee565b602082019050919050565b5f604082019050620007515f830184620006cd565b8181036020830152620007648162000716565b905092915050565b5f80fd5b6200077b8162000696565b811462000786575f80fd5b50565b5f81519050620007998162000770565b92915050565b5f60208284031215620007b757620007b66200076c565b5b5f620007c68482850162000789565b91505092915050565b5f819050919050565b620007e381620007cf565b82525050565b7f322073686f756c642062652067726561746572207468616e20746f20310000005f82015250565b5f6200081f601d83620006de565b91506200082c82620007e9565b602082019050919050565b5f6060820190506200084c5f830185620007d8565b6200085b6020830184620007d8565b81810360408301526200086e8162000811565b90509392505050565b7f322073686f756c64206265206c6573736572207468616e20746f2033000000005f82015250565b5f620008ad601c83620006de565b9150620008ba8262000877565b602082019050919050565b5f606082019050620008da5f830185620007d8565b620008e96020830184620007d8565b8181036040830152620008fc816200089f565b90509392505050565b7f312073686f756c64206e6f7420626520657175616c20746f20310000000000005f82015250565b5f6200093b601a83620006de565b9150620009488262000905565b602082019050919050565b5f606082019050620009685f830185620007d8565b620009776020830184620007d8565b81810360408301526200098a816200092d565b90509392505050565b7f312073686f756c6420626520657175616c20746f2031000000000000000000005f82015250565b5f620009c9601683620006de565b9150620009d68262000993565b602082019050919050565b5f606082019050620009f65f830185620007d8565b62000a056020830184620007d8565b818103604083015262000a1881620009bb565b90509392505050565b5f819050919050565b5f819050919050565b5f62000a5362000a4d62000a478462000a21565b62000a2a565b620007cf565b9050919050565b62000a658162000a33565b82525050565b5f60208201905062000a805f83018462000a5a565b92915050565b5f73ffffffffffffffffffffffffffffffffffffffff82169050919050565b5f62000ab18262000a86565b9050919050565b62000ac38162000aa5565b811462000ace575f80fd5b50565b5f8151905062000ae18162000ab8565b92915050565b5f6020828403121562000aff5762000afe6200076c565b5b5f62000b0e8482850162000ad1565b91505092915050565b62000b228162000aa5565b82525050565b7f496e76616c69642073656e6465720000000000000000000000000000000000005f82015250565b5f62000b5e600e83620006de565b915062000b6b8262000b28565b602082019050919050565b5f60608201905062000b8b5f83018562000b17565b62000b9a602083018462000b17565b818103604083015262000bad8162000b50565b90509392505050565b5f819050919050565b5f62000bdf62000bd962000bd38462000bb6565b62000a2a565b620007cf565b9050919050565b62000bf18162000bbf565b82525050565b7f496e76616c69642076616c7565000000000000000000000000000000000000005f82015250565b5f62000c2d600d83620006de565b915062000c3a8262000bf7565b602082019050919050565b5f60608201905062000c5a5f830185620007d8565b62000c69602083018462000be6565b818103604083015262000c7c8162000c1f565b90509392505050565b5f82825260208201905092915050565b7f74657374310000000000000000000000000000000000000000000000000000005f82015250565b5f62000ccb60058362000c85565b915062000cd88262000c95565b602082019050919050565b5f6020820190508181035f83015262000cfc8162000cbd565b9050919050565b62000d0e81620007cf565b811462000d19575f80fd5b50565b5f8151905062000d2c8162000d03565b92915050565b5f6020828403121562000d4a5762000d496200076c565b5b5f62000d598482850162000d1c565b91505092915050565b7f43686f696365206e6f74206164646564000000000000000000000000000000005f82015250565b5f62000d98601083620006de565b915062000da58262000d62565b602082019050919050565b5f60608201905062000dc55f830185620007d8565b62000dd46020830184620007d8565b818103604083015262000de78162000d8a565b9050939250505056fe608060405234801562000010575f80fd5b50620000576040518060400160405280600781526020017f43656c73697573000000000000000000000000000000000000000000000000008152506200012f60201b60201c565b6200009d6040518060400160405280600481526020017f42616e67000000000000000000000000000000000000000000000000000000008152506200012f60201b60201c565b620000e36040518060400160405280600781526020017f52656462756c6c000000000000000000000000000000000000000000000000008152506200012f60201b60201c565b620001296040518060400160405280600581526020017f5072696d650000000000000000000000000000000000000000000000000000008152506200012f60201b60201c565b62000598565b604051806060016040528060025481526020018281526020015f81525060015f60025481526020019081526020015f205f820151815f015560208201518160010190816200017e91906200043b565b50604082015181600201559050506002547f8c289382d6fd42a02a06e885da5a69cb0f21294bbfc7acc91d5cf3ced61ca0c460405160405180910390a260025f815480929190620001cf906200054c565b919050555050565b5f81519050919050565b7f4e487b71000000000000000000000000000000000000000000000000000000005f52604160045260245ffd5b7f4e487b71000000000000000000000000000000000000000000000000000000005f52602260045260245ffd5b5f60028204905060018216806200025357607f821691505b6020821081036200026957620002686200020e565b5b50919050565b5f819050815f5260205f209050919050565b5f6020601f8301049050919050565b5f82821b905092915050565b5f60088302620002cd7fffffffffffffffffffffffffffffffffffffffffffffffffffffffffffffffff8262000290565b620002d9868362000290565b95508019841693508086168417925050509392505050565b5f819050919050565b5f819050919050565b5f620003236200031d6200031784620002f1565b620002fa565b620002f1565b9050919050565b5f819050919050565b6200033e8362000303565b620003566200034d826200032a565b8484546200029c565b825550505050565b5f90565b6200036c6200035e565b6200037981848462000333565b505050565b5b81811015620003a057620003945f8262000362565b6001810190506200037f565b5050565b601f821115620003ef57620003b9816200026f565b620003c48462000281565b81016020851015620003d4578190505b620003ec620003e38562000281565b8301826200037e565b50505b505050565b5f82821c905092915050565b5f620004115f1984600802620003f4565b1980831691505092915050565b5f6200042b838362000400565b9150826002028217905092915050565b6200044682620001d7565b67ffffffffffffffff811115620004625762000461620001e1565b5b6200046e82546200023b565b6200047b828285620003a4565b5f60209050601f831160018114620004b1575f84156200049c578287015190505b620004a885826200041e565b86555062000517565b601f198416620004c1866200026f565b5f5b82811015620004ea57848901518255600182019150602085019450602081019050620004c3565b868310156200050a578489015162000506601f89168262000400565b8355505b6001600288020188555050505b505050505050565b7f4e487b71000000000000000000000000000000000000000000000000000000005f52601160045260245ffd5b5f6200055882620002f1565b91507fffffffffffffffffffffffffffffffffffffffffffffffffffffffffffffffff82036200058d576200058c6200051f565b5b600182019050919050565b610f5180620005a65f395ff3fe608060405234801561000f575f80fd5b5060043610610086575f3560e01c806370740aab1161005957806370740aab14610110578063aec2ccae1461012e578063dc899a071461015e578063f6fd7fde1461017c57610086565b80630121b93f1461008a57806301ffc9a7146100a6578063251760b7146100d65780635fa520bb146100f4575b5f80fd5b6100a4600480360381019061009f9190610680565b6101ac565b005b6100c060048036038101906100bb9190610700565b610332565b6040516100cd9190610745565b60405180910390f35b6100de6103cb565b6040516100eb919061076d565b60405180910390f35b61010e600480360381019061010991906108c2565b6103d1565b005b610118610475565b6040516101259190610983565b60405180910390f35b610148600480360381019061014391906109fd565b610491565b6040516101559190610745565b60405180910390f35b6101666104ad565b6040516101739190610983565b60405180910390f35b61019660048036038101906101919190610680565b61054f565b6040516101a39190610acc565b60405180910390f35b5f803373ffffffffffffffffffffffffffffffffffffffff1673ffffffffffffffffffffffffffffffffffffffff1681526020019081526020015f205f9054906101000a900460ff1615610235576040517f08c379a000000000000000000000000000000000000000000000000000000000815260040161022c90610b36565b60405180910390fd5b5f8110158015610246575060025481105b610285576040517f08c379a000000000000000000000000000000000000000000000000000000000815260040161027c90610b9e565b60405180910390fd5b60015f803373ffffffffffffffffffffffffffffffffffffffff1673ffffffffffffffffffffffffffffffffffffffff1681526020019081526020015f205f6101000a81548160ff02191690831515021790555060015f8281526020019081526020015f206002015f8154809291906102fd90610be9565b9190505550807ffff3c900d938d21d0990d786e819f29b8d05c1ef587b462b939609625b684b1660405160405180910390a250565b5f7f5227894f000000000000000000000000000000000000000000000000000000007bffffffffffffffffffffffffffffffffffffffffffffffffffffffff1916827bffffffffffffffffffffffffffffffffffffffffffffffffffffffff191614806103c457506301ffc9a760e01b827bffffffffffffffffffffffffffffffffffffffffffffffffffffffff1916145b9050919050565b60025481565b604051806060016040528060025481526020018281526020015f81525060015f60025481526020019081526020015f205f820151815f0155602082015181600101908161041e9190610e2a565b50604082015181600201559050506002547f8c289382d6fd42a02a06e885da5a69cb0f21294bbfc7acc91d5cf3ced61ca0c460405160405180910390a260025f81548092919061046d90610be9565b919050555050565b604051806060016040528060228152602001610efa6022913981565b5f602052805f5260405f205f915054906101000a900460ff1681565b606060015f8081526020019081526020015f2060010180546104ce90610c5d565b80601f01602080910402602001604051908101604052809291908181526020018280546104fa90610c5d565b80156105455780601f1061051c57610100808354040283529160200191610545565b820191905f5260205f20905b81548152906001019060200180831161052857829003601f168201915b5050505050905090565b61055761061d565b60015f8381526020019081526020015f206040518060600160405290815f820154815260200160018201805461058c90610c5d565b80601f01602080910402602001604051908101604052809291908181526020018280546105b890610c5d565b80156106035780601f106105da57610100808354040283529160200191610603565b820191905f5260205f20905b8154815290600101906020018083116105e657829003601f168201915b505050505081526020016002820154815250509050919050565b60405180606001604052805f8152602001606081526020015f81525090565b5f604051905090565b5f80fd5b5f80fd5b5f819050919050565b61065f8161064d565b8114610669575f80fd5b50565b5f8135905061067a81610656565b92915050565b5f6020828403121561069557610694610645565b5b5f6106a28482850161066c565b91505092915050565b5f7fffffffff0000000000000000000000000000000000000000000000000000000082169050919050565b6106df816106ab565b81146106e9575f80fd5b50565b5f813590506106fa816106d6565b92915050565b5f6020828403121561071557610714610645565b5b5f610722848285016106ec565b91505092915050565b5f8115159050919050565b61073f8161072b565b82525050565b5f6020820190506107585f830184610736565b92915050565b6107678161064d565b82525050565b5f6020820190506107805f83018461075e565b92915050565b5f80fd5b5f80fd5b5f601f19601f8301169050919050565b7f4e487b71000000000000000000000000000000000000000000000000000000005f52604160045260245ffd5b6107d48261078e565b810181811067ffffffffffffffff821117156107f3576107f261079e565b5b80604052505050565b5f61080561063c565b905061081182826107cb565b919050565b5f67ffffffffffffffff8211156108305761082f61079e565b5b6108398261078e565b9050602081019050919050565b828183375f83830152505050565b5f61086661086184610816565b6107fc565b9050828152602081018484840111156108825761088161078a565b5b61088d848285610846565b509392505050565b5f82601f8301126108a9576108a8610786565b5b81356108b9848260208601610854565b91505092915050565b5f602082840312156108d7576108d6610645565b5b5f82013567ffffffffffffffff8111156108f4576108f3610649565b5b61090084828501610895565b91505092915050565b5f81519050919050565b5f82825260208201905092915050565b5f5b83811015610940578082015181840152602081019050610925565b5f8484015250505050565b5f61095582610909565b61095f8185610913565b935061096f818560208601610923565b6109788161078e565b840191505092915050565b5f6020820190508181035f83015261099b818461094b565b905092915050565b5f73ffffffffffffffffffffffffffffffffffffffff82169050919050565b5f6109cc826109a3565b9050919050565b6109dc816109c2565b81146109e6575f80fd5b50565b5f813590506109f7816109d3565b92915050565b5f60208284031215610a1257610a11610645565b5b5f610a1f848285016109e9565b91505092915050565b610a318161064d565b82525050565b5f82825260208201905092915050565b5f610a5182610909565b610a5b8185610a37565b9350610a6b818560208601610923565b610a748161078e565b840191505092915050565b5f606083015f830151610a945f860182610a28565b5060208301518482036020860152610aac8282610a47565b9150506040830151610ac16040860182610a28565b508091505092915050565b5f6020820190508181035f830152610ae48184610a7f565b905092915050565b7f73656e6465722068617320616c726561647920766f74656400000000000000005f82015250565b5f610b20601883610913565b9150610b2b82610aec565b602082019050919050565b5f6020820190508181035f830152610b4d81610b14565b9050919050565b7f696e76616c696420766f74652073656c656374696f6e000000000000000000005f82015250565b5f610b88601683610913565b9150610b9382610b54565b602082019050919050565b5f6020820190508181035f830152610bb581610b7c565b9050919050565b7f4e487b71000000000000000000000000000000000000000000000000000000005f52601160045260245ffd5b5f610bf38261064d565b91507fffffffffffffffffffffffffffffffffffffffffffffffffffffffffffffffff8203610c2557610c24610bbc565b5b600182019050919050565b7f4e487b71000000000000000000000000000000000000000000000000000000005f52602260045260245ffd5b5f6002820490506001821680610c7457607f821691505b602082108103610c8757610c86610c30565b5b50919050565b5f819050815f5260205f209050919050565b5f6020601f8301049050919050565b5f82821b905092915050565b5f60088302610ce97fffffffffffffffffffffffffffffffffffffffffffffffffffffffffffffffff82610cae565b610cf38683610cae565b95508019841693508086168417925050509392505050565b5f819050919050565b5f610d2e610d29610d248461064d565b610d0b565b61064d565b9050919050565b5f819050919050565b610d4783610d14565b610d5b610d5382610d35565b848454610cba565b825550505050565b5f90565b610d6f610d63565b610d7a818484610d3e565b505050565b5b81811015610d9d57610d925f82610d67565b600181019050610d80565b5050565b601f821115610de257610db381610c8d565b610dbc84610c9f565b81016020851015610dcb578190505b610ddf610dd785610c9f565b830182610d7f565b50505b505050565b5f82821c905092915050565b5f610e025f1984600802610de7565b1980831691505092915050565b5f610e1a8383610df3565b9150826002028217905092915050565b610e3382610909565b67ffffffffffffffff811115610e4c57610e4b61079e565b5b610e568254610c5d565b610e61828285610da1565b5f60209050601f831160018114610e92575f8415610e80578287015190505b610e8a8582610e0f565b865550610ef1565b601f198416610ea086610c8d565b5f5b82811015610ec757848901518255600182019150602085019450602081019050610ea2565b86831015610ee45784890151610ee0601f891682610df3565b8355505b6001600288020188555050505b50505050505056fe566f7465206f6e20796f7572206661766f7269746520656e65726779206472696e6ba26469706673582212203e3cc46f250887528510e623aa71837a6fdfebc5281bd01f1d370ea2d9aba30a64736f6c63430008150033a264697066735822122000735e9d09f0b612c7658970231689d2503828cdacc3135a9e4bbe9c558f209c64736f6c63430008150033",
			"opcodes": "PUSH1 0x80 PUSH1 0x40 MSTORE CALLVALUE DUP1 ISZERO PUSH2 0xF JUMPI PUSH0 DUP1 REVERT JUMPDEST POP PUSH2 0x231D DUP1 PUSH2 0x1D PUSH0 CODECOPY PUSH0 RETURN INVALID PUSH1 0x80 PUSH1 0x40 MSTORE PUSH1 0x4 CALLDATASIZE LT PUSH3 0x5B JUMPI PUSH0 CALLDATALOAD PUSH1 0xE0 SHR DUP1 PUSH4 0x11E6492 EQ PUSH3 0x5F JUMPI DUP1 PUSH4 0x12D487EA EQ PUSH3 0x78 JUMPI DUP1 PUSH4 0x36C00656 EQ PUSH3 0xA7 JUMPI DUP1 PUSH4 0x7FEA0D4B EQ PUSH3 0xC0 JUMPI DUP1 PUSH4 0x9074416D EQ PUSH3 0xD9 JUMPI DUP1 PUSH4 0x9181F4E8 EQ PUSH3 0xE5 JUMPI JUMPDEST PUSH0 DUP1 REVERT JUMPDEST CALLVALUE DUP1 ISZERO PUSH3 0x6B JUMPI PUSH0 DUP1 REVERT JUMPDEST POP PUSH3 0x76 PUSH3 0xFE JUMP JUMPDEST STOP JUMPDEST CALLVALUE DUP1 ISZERO PUSH3 0x84 JUMPI PUSH0 DUP1 REVERT JUMPDEST POP PUSH3 0x8F PUSH3 0x27F JUMP JUMPDEST PUSH1 0x40 MLOAD PUSH3 0x9E SWAP2 SWAP1 PUSH3 0x6B2 JUMP JUMPDEST PUSH1 0x40 MLOAD DUP1 SWAP2 SUB SWAP1 RETURN JUMPDEST CALLVALUE DUP1 ISZERO PUSH3 0xB3 JUMPI PUSH0 DUP1 REVERT JUMPDEST POP PUSH3 0xBE PUSH3 0x287 JUMP JUMPDEST STOP JUMPDEST CALLVALUE DUP1 ISZERO PUSH3 0xCC JUMPI PUSH0 DUP1 REVERT JUMPDEST POP PUSH3 0xD7 PUSH3 0x308 JUMP JUMPDEST STOP JUMPDEST PUSH3 0xE3 PUSH3 0x389 JUMP JUMPDEST STOP JUMPDEST CALLVALUE DUP1 ISZERO PUSH3 0xF1 JUMPI PUSH0 DUP1 REVERT JUMPDEST POP PUSH3 0xFC PUSH3 0x503 JUMP JUMPDEST STOP JUMPDEST PUSH20 0x0 PUSH4 0x39DF137F PUSH1 0x2 DUP1 EQ PUSH1 0x40 MLOAD DUP3 PUSH4 0xFFFFFFFF AND PUSH1 0xE0 SHL DUP2 MSTORE PUSH1 0x4 ADD PUSH3 0x13A SWAP2 SWAP1 PUSH3 0x73C JUMP JUMPDEST PUSH1 0x20 PUSH1 0x40 MLOAD DUP1 DUP4 SUB DUP2 DUP7 GAS DELEGATECALL ISZERO DUP1 ISZERO PUSH3 0x156 JUMPI RETURNDATASIZE PUSH0 DUP1 RETURNDATACOPY RETURNDATASIZE PUSH0 REVERT JUMPDEST POP POP POP POP PUSH1 0x40 MLOAD RETURNDATASIZE PUSH1 0x1F NOT PUSH1 0x1F DUP3 ADD AND DUP3 ADD DUP1 PUSH1 0x40 MSTORE POP DUP2 ADD SWAP1 PUSH3 0x17C SWAP2 SWAP1 PUSH3 0x79F JUMP JUMPDEST POP PUSH20 0x0 PUSH4 0xA079F1A3 PUSH1 0x2 PUSH1 0x1 PUSH1 0x40 MLOAD DUP4 PUSH4 0xFFFFFFFF AND PUSH1 0xE0 SHL DUP2 MSTORE PUSH1 0x4 ADD PUSH3 0x1BA SWAP3 SWAP2 SWAP1 PUSH3 0x837 JUMP JUMPDEST PUSH1 0x20 PUSH1 0x40 MLOAD DUP1 DUP4 SUB DUP2 DUP7 GAS DELEGATECALL ISZERO DUP1 ISZERO PUSH3 0x1D6 JUMPI RETURNDATASIZE PUSH0 DUP1 RETURNDATACOPY RETURNDATASIZE PUSH0 REVERT JUMPDEST POP POP POP POP PUSH1 0x40 MLOAD RETURNDATASIZE PUSH1 0x1F NOT PUSH1 0x1F DUP3 ADD AND DUP3 ADD DUP1 PUSH1 0x40 MSTORE POP DUP2 ADD SWAP1 PUSH3 0x1FC SWAP2 SWAP1 PUSH3 0x79F JUMP JUMPDEST POP PUSH20 0x0 PUSH4 0xAEA88952 PUSH1 0x2 PUSH1 0x3 PUSH1 0x40 MLOAD DUP4 PUSH4 0xFFFFFFFF AND PUSH1 0xE0 SHL DUP2 MSTORE PUSH1 0x4 ADD PUSH3 0x23A SWAP3 SWAP2 SWAP1 PUSH3 0x8C5 JUMP JUMPDEST PUSH1 0x20 PUSH1 0x40 MLOAD DUP1 DUP4 SUB DUP2 DUP7 GAS DELEGATECALL ISZERO DUP1 ISZERO PUSH3 0x256 JUMPI RETURNDATASIZE PUSH0 DUP1 RETURNDATACOPY RETURNDATASIZE PUSH0 REVERT JUMPDEST POP POP POP POP PUSH1 0x40 MLOAD RETURNDATASIZE PUSH1 0x1F NOT PUSH1 0x1F DUP3 ADD AND DUP3 ADD DUP1 PUSH1 0x40 MSTORE POP DUP2 ADD SWAP1 PUSH3 0x27C SWAP2 SWAP1 PUSH3 0x79F JUMP JUMPDEST POP JUMP JUMPDEST PUSH0 PUSH1 0x1 SWAP1 POP SWAP1 JUMP JUMPDEST PUSH20 0x0 PUSH4 0xABCD7960 PUSH1 0x1 DUP1 PUSH1 0x40 MLOAD DUP4 PUSH4 0xFFFFFFFF AND PUSH1 0xE0 SHL DUP2 MSTORE PUSH1 0x4 ADD PUSH3 0x2C3 SWAP3 SWAP2 SWAP1 PUSH3 0x953 JUMP JUMPDEST PUSH1 0x20 PUSH1 0x40 MLOAD DUP1 DUP4 SUB DUP2 DUP7 GAS DELEGATECALL ISZERO DUP1 ISZERO PUSH3 0x2DF JUMPI RETURNDATASIZE PUSH0 DUP1 RETURNDATACOPY RETURNDATASIZE PUSH0 REVERT JUMPDEST POP POP POP POP PUSH1 0x40 MLOAD RETURNDATASIZE PUSH1 0x1F NOT PUSH1 0x1F DUP3 ADD AND DUP3 ADD DUP1 PUSH1 0x40 MSTORE POP DUP2 ADD SWAP1 PUSH3 0x305 SWAP2 SWAP1 PUSH3 0x79F JUMP JUMPDEST POP JUMP JUMPDEST PUSH20 0x0 PUSH4 0xABCD7960 PUSH1 0x1 DUP1 PUSH1 0x40 MLOAD DUP4 PUSH4 0xFFFFFFFF AND PUSH1 0xE0 SHL DUP2 MSTORE PUSH1 0x4 ADD PUSH3 0x344 SWAP3 SWAP2 SWAP1 PUSH3 0x9E1 JUMP JUMPDEST PUSH1 0x20 PUSH1 0x40 MLOAD DUP1 DUP4 SUB DUP2 DUP7 GAS DELEGATECALL ISZERO DUP1 ISZERO PUSH3 0x360 JUMPI RETURNDATASIZE PUSH0 DUP1 RETURNDATACOPY RETURNDATASIZE PUSH0 REVERT JUMPDEST POP POP POP POP PUSH1 0x40 MLOAD RETURNDATASIZE PUSH1 0x1F NOT PUSH1 0x1F DUP3 ADD AND DUP3 ADD DUP1 PUSH1 0x40 MSTORE POP DUP2 ADD SWAP1 PUSH3 0x386 SWAP2 SWAP1 PUSH3 0x79F JUMP JUMPDEST POP JUMP JUMPDEST PUSH20 0x0 PUSH4 0xBFBA5DD6 CALLER PUSH20 0x0 PUSH4 0xCE88B145 PUSH1 0x1 PUSH1 0x40 MLOAD DUP3 PUSH4 0xFFFFFFFF AND PUSH1 0xE0 SHL DUP2 MSTORE PUSH1 0x4 ADD PUSH3 0x3DE SWAP2 SWAP1 PUSH3 0xA6B JUMP JUMPDEST PUSH1 0x20 PUSH1 0x40 MLOAD DUP1 DUP4 SUB DUP2 DUP7 GAS DELEGATECALL ISZERO DUP1 ISZERO PUSH3 0x3FA JUMPI RETURNDATASIZE PUSH0 DUP1 RETURNDATACOPY RETURNDATASIZE PUSH0 REVERT JUMPDEST POP POP POP POP PUSH1 0x40 MLOAD RETURNDATASIZE PUSH1 0x1F NOT PUSH1 0x1F DUP3 ADD AND DUP3 ADD DUP1 PUSH1 0x40 MSTORE POP DUP2 ADD SWAP1 PUSH3 0x420 SWAP2 SWAP1 PUSH3 0xAE7 JUMP JUMPDEST PUSH1 0x40 MLOAD DUP4 PUSH4 0xFFFFFFFF AND PUSH1 0xE0 SHL DUP2 MSTORE PUSH1 0x4 ADD PUSH3 0x43F SWAP3 SWAP2 SWAP1 PUSH3 0xB76 JUMP JUMPDEST PUSH1 0x20 PUSH1 0x40 MLOAD DUP1 DUP4 SUB DUP2 DUP7 GAS DELEGATECALL ISZERO DUP1 ISZERO PUSH3 0x45B JUMPI RETURNDATASIZE PUSH0 DUP1 RETURNDATACOPY RETURNDATASIZE PUSH0 REVERT JUMPDEST POP POP POP POP PUSH1 0x40 MLOAD RETURNDATASIZE PUSH1 0x1F NOT PUSH1 0x1F DUP3 ADD AND DUP3 ADD DUP1 PUSH1 0x40 MSTORE POP DUP2 ADD SWAP1 PUSH3 0x481 SWAP2 SWAP1 PUSH3 0x79F JUMP JUMPDEST POP PUSH20 0x0 PUSH4 0xABCD7960 CALLVALUE PUSH1 0x64 PUSH1 0x40 MLOAD DUP4 PUSH4 0xFFFFFFFF AND PUSH1 0xE0 SHL DUP2 MSTORE PUSH1 0x4 ADD PUSH3 0x4BE SWAP3 SWAP2 SWAP1 PUSH3 0xC45 JUMP JUMPDEST PUSH1 0x20 PUSH1 0x40 MLOAD DUP1 DUP4 SUB DUP2 DUP7 GAS DELEGATECALL ISZERO DUP1 ISZERO PUSH3 0x4DA JUMPI RETURNDATASIZE PUSH0 DUP1 RETURNDATACOPY RETURNDATASIZE PUSH0 REVERT JUMPDEST POP POP POP POP PUSH1 0x40 MLOAD RETURNDATASIZE PUSH1 0x1F NOT PUSH1 0x1F DUP3 ADD AND DUP3 ADD DUP1 PUSH1 0x40 MSTORE POP DUP2 ADD SWAP1 PUSH3 0x500 SWAP2 SWAP1 PUSH3 0x79F JUMP JUMPDEST POP JUMP JUMPDEST PUSH0 PUSH1 0x40 MLOAD PUSH3 0x512 SWAP1 PUSH3 0x688 JUMP JUMPDEST PUSH1 0x40 MLOAD DUP1 SWAP2 SUB SWAP1 PUSH0 CREATE DUP1 ISZERO DUP1 ISZERO PUSH3 0x52C JUMPI RETURNDATASIZE PUSH0 DUP1 RETURNDATACOPY RETURNDATASIZE PUSH0 REVERT JUMPDEST POP SWAP1 POP DUP1 PUSH20 0xFFFFFFFFFFFFFFFFFFFFFFFFFFFFFFFFFFFFFFFF AND PUSH4 0x5FA520BB PUSH1 0x40 MLOAD DUP2 PUSH4 0xFFFFFFFF AND PUSH1 0xE0 SHL DUP2 MSTORE PUSH1 0x4 ADD PUSH3 0x568 SWAP1 PUSH3 0xCE3 JUMP JUMPDEST PUSH0 PUSH1 0x40 MLOAD DUP1 DUP4 SUB DUP2 PUSH0 DUP8 DUP1 EXTCODESIZE ISZERO DUP1 ISZERO PUSH3 0x580 JUMPI PUSH0 DUP1 REVERT JUMPDEST POP GAS CALL ISZERO DUP1 ISZERO PUSH3 0x593 JUMPI RETURNDATASIZE PUSH0 DUP1 RETURNDATACOPY RETURNDATASIZE PUSH0 REVERT JUMPDEST POP POP POP POP PUSH20 0x0 PUSH4 0xABCD7960 DUP3 PUSH20 0xFFFFFFFFFFFFFFFFFFFFFFFFFFFFFFFFFFFFFFFF AND PUSH4 0x251760B7 PUSH1 0x40 MLOAD DUP2 PUSH4 0xFFFFFFFF AND PUSH1 0xE0 SHL DUP2 MSTORE PUSH1 0x4 ADD PUSH1 0x20 PUSH1 0x40 MLOAD DUP1 DUP4 SUB DUP2 DUP7 GAS STATICCALL ISZERO DUP1 ISZERO PUSH3 0x5FB JUMPI RETURNDATASIZE PUSH0 DUP1 RETURNDATACOPY RETURNDATASIZE PUSH0 REVERT JUMPDEST POP POP POP POP PUSH1 0x40 MLOAD RETURNDATASIZE PUSH1 0x1F NOT PUSH1 0x1F DUP3 ADD AND DUP3 ADD DUP1 PUSH1 0x40 MSTORE POP DUP2 ADD SWAP1 PUSH3 0x621 SWAP2 SWAP1 PUSH3 0xD32 JUMP JUMPDEST PUSH1 0x5 PUSH1 0x40 MLOAD DUP4 PUSH4 0xFFFFFFFF AND PUSH1 0xE0 SHL DUP2 MSTORE PUSH1 0x4 ADD PUSH3 0x642 SWAP3 SWAP2 SWAP1 PUSH3 0xDB0 JUMP JUMPDEST PUSH1 0x20 PUSH1 0x40 MLOAD DUP1 DUP4 SUB DUP2 DUP7 GAS DELEGATECALL ISZERO DUP1 ISZERO PUSH3 0x65E JUMPI RETURNDATASIZE PUSH0 DUP1 RETURNDATACOPY RETURNDATASIZE PUSH0 REVERT JUMPDEST POP POP POP POP PUSH1 0x40 MLOAD RETURNDATASIZE PUSH1 0x1F NOT PUSH1 0x1F DUP3 ADD AND DUP3 ADD DUP1 PUSH1 0x40 MSTORE POP DUP2 ADD SWAP1 PUSH3 0x684 SWAP2 SWAP1 PUSH3 0x79F JUMP JUMPDEST POP POP JUMP JUMPDEST PUSH2 0x14F7 DUP1 PUSH3 0xDF1 DUP4 CODECOPY ADD SWAP1 JUMP JUMPDEST PUSH0 DUP2 ISZERO ISZERO SWAP1 POP SWAP2 SWAP1 POP JUMP JUMPDEST PUSH3 0x6AC DUP2 PUSH3 0x696 JUMP JUMPDEST DUP3 MSTORE POP POP JUMP JUMPDEST PUSH0 PUSH1 0x20 DUP3 ADD SWAP1 POP PUSH3 0x6C7 PUSH0 DUP4 ADD DUP5 PUSH3 0x6A1 JUMP JUMPDEST SWAP3 SWAP2 POP POP JUMP JUMPDEST PUSH3 0x6D8 DUP2 PUSH3 0x696 JUMP JUMPDEST DUP3 MSTORE POP POP JUMP JUMPDEST PUSH0 DUP3 DUP3 MSTORE PUSH1 0x20 DUP3 ADD SWAP1 POP SWAP3 SWAP2 POP POP JUMP JUMPDEST PUSH32 0x73686F756C642062652074727565000000000000000000000000000000000000 PUSH0 DUP3 ADD MSTORE POP JUMP JUMPDEST PUSH0 PUSH3 0x724 PUSH1 0xE DUP4 PUSH3 0x6DE JUMP JUMPDEST SWAP2 POP PUSH3 0x731 DUP3 PUSH3 0x6EE JUMP JUMPDEST PUSH1 0x20 DUP3 ADD SWAP1 POP SWAP2 SWAP1 POP JUMP JUMPDEST PUSH0 PUSH1 0x40 DUP3 ADD SWAP1 POP PUSH3 0x751 PUSH0 DUP4 ADD DUP5 PUSH3 0x6CD JUMP JUMPDEST DUP2 DUP2 SUB PUSH1 0x20 DUP4 ADD MSTORE PUSH3 0x764 DUP2 PUSH3 0x716 JUMP JUMPDEST SWAP1 POP SWAP3 SWAP2 POP POP JUMP JUMPDEST PUSH0 DUP1 REVERT JUMPDEST PUSH3 0x77B DUP2 PUSH3 0x696 JUMP JUMPDEST DUP2 EQ PUSH3 0x786 JUMPI PUSH0 DUP1 REVERT JUMPDEST POP JUMP JUMPDEST PUSH0 DUP2 MLOAD SWAP1 POP PUSH3 0x799 DUP2 PUSH3 0x770 JUMP JUMPDEST SWAP3 SWAP2 POP POP JUMP JUMPDEST PUSH0 PUSH1 0x20 DUP3 DUP5 SUB SLT ISZERO PUSH3 0x7B7 JUMPI PUSH3 0x7B6 PUSH3 0x76C JUMP JUMPDEST JUMPDEST PUSH0 PUSH3 0x7C6 DUP5 DUP3 DUP6 ADD PUSH3 0x789 JUMP JUMPDEST SWAP2 POP POP SWAP3 SWAP2 POP POP JUMP JUMPDEST PUSH0 DUP2 SWAP1 POP SWAP2 SWAP1 POP JUMP JUMPDEST PUSH3 0x7E3 DUP2 PUSH3 0x7CF JUMP JUMPDEST DUP3 MSTORE POP POP JUMP JUMPDEST PUSH32 0x322073686F756C642062652067726561746572207468616E20746F2031000000 PUSH0 DUP3 ADD MSTORE POP JUMP JUMPDEST PUSH0 PUSH3 0x81F PUSH1 0x1D DUP4 PUSH3 0x6DE JUMP JUMPDEST SWAP2 POP PUSH3 0x82C DUP3 PUSH3 0x7E9 JUMP JUMPDEST PUSH1 0x20 DUP3 ADD SWAP1 POP SWAP2 SWAP1 POP JUMP JUMPDEST PUSH0 PUSH1 0x60 DUP3 ADD SWAP1 POP PUSH3 0x84C PUSH0 DUP4 ADD DUP6 PUSH3 0x7D8 JUMP JUMPDEST PUSH3 0x85B PUSH1 0x20 DUP4 ADD DUP5 PUSH3 0x7D8 JUMP JUMPDEST DUP2 DUP2 SUB PUSH1 0x40 DUP4 ADD MSTORE PUSH3 0x86E DUP2 PUSH3 0x811 JUMP JUMPDEST SWAP1 POP SWAP4 SWAP3 POP POP POP JUMP JUMPDEST PUSH32 0x322073686F756C64206265206C6573736572207468616E20746F203300000000 PUSH0 DUP3 ADD MSTORE POP JUMP JUMPDEST PUSH0 PUSH3 0x8AD PUSH1 0x1C DUP4 PUSH3 0x6DE JUMP JUMPDEST SWAP2 POP PUSH3 0x8BA DUP3 PUSH3 0x877 JUMP JUMPDEST PUSH1 0x20 DUP3 ADD SWAP1 POP SWAP2 SWAP1 POP JUMP JUMPDEST PUSH0 PUSH1 0x60 DUP3 ADD SWAP1 POP PUSH3 0x8DA PUSH0 DUP4 ADD DUP6 PUSH3 0x7D8 JUMP JUMPDEST PUSH3 0x8E9 PUSH1 0x20 DUP4 ADD DUP5 PUSH3 0x7D8 JUMP JUMPDEST DUP2 DUP2 SUB PUSH1 0x40 DUP4 ADD MSTORE PUSH3 0x8FC DUP2 PUSH3 0x89F JUMP JUMPDEST SWAP1 POP SWAP4 SWAP3 POP POP POP JUMP JUMPDEST PUSH32 0x312073686F756C64206E6F7420626520657175616C20746F2031000000000000 PUSH0 DUP3 ADD MSTORE POP JUMP JUMPDEST PUSH0 PUSH3 0x93B PUSH1 0x1A DUP4 PUSH3 0x6DE JUMP JUMPDEST SWAP2 POP PUSH3 0x948 DUP3 PUSH3 0x905 JUMP JUMPDEST PUSH1 0x20 DUP3 ADD SWAP1 POP SWAP2 SWAP1 POP JUMP JUMPDEST PUSH0 PUSH1 0x60 DUP3 ADD SWAP1 POP PUSH3 0x968 PUSH0 DUP4 ADD DUP6 PUSH3 0x7D8 JUMP JUMPDEST PUSH3 0x977 PUSH1 0x20 DUP4 ADD DUP5 PUSH3 0x7D8 JUMP JUMPDEST DUP2 DUP2 SUB PUSH1 0x40 DUP4 ADD MSTORE PUSH3 0x98A DUP2 PUSH3 0x92D JUMP JUMPDEST SWAP1 POP SWAP4 SWAP3 POP POP POP JUMP JUMPDEST PUSH32 0x312073686F756C6420626520657175616C20746F203100000000000000000000 PUSH0 DUP3 ADD MSTORE POP JUMP JUMPDEST PUSH0 PUSH3 0x9C9 PUSH1 0x16 DUP4 PUSH3 0x6DE JUMP JUMPDEST SWAP2 POP PUSH3 0x9D6 DUP3 PUSH3 0x993 JUMP JUMPDEST PUSH1 0x20 DUP3 ADD SWAP1 POP SWAP2 SWAP1 POP JUMP JUMPDEST PUSH0 PUSH1 0x60 DUP3 ADD SWAP1 POP PUSH3 0x9F6 PUSH0 DUP4 ADD DUP6 PUSH3 0x7D8 JUMP JUMPDEST PUSH3 0xA05 PUSH1 0x20 DUP4 ADD DUP5 PUSH3 0x7D8 JUMP JUMPDEST DUP2 DUP2 SUB PUSH1 0x40 DUP4 ADD MSTORE PUSH3 0xA18 DUP2 PUSH3 0x9BB JUMP JUMPDEST SWAP1 POP SWAP4 SWAP3 POP POP POP JUMP JUMPDEST PUSH0 DUP2 SWAP1 POP SWAP2 SWAP1 POP JUMP JUMPDEST PUSH0 DUP2 SWAP1 POP SWAP2 SWAP1 POP JUMP JUMPDEST PUSH0 PUSH3 0xA53 PUSH3 0xA4D PUSH3 0xA47 DUP5 PUSH3 0xA21 JUMP JUMPDEST PUSH3 0xA2A JUMP JUMPDEST PUSH3 0x7CF JUMP JUMPDEST SWAP1 POP SWAP2 SWAP1 POP JUMP JUMPDEST PUSH3 0xA65 DUP2 PUSH3 0xA33 JUMP JUMPDEST DUP3 MSTORE POP POP JUMP JUMPDEST PUSH0 PUSH1 0x20 DUP3 ADD SWAP1 POP PUSH3 0xA80 PUSH0 DUP4 ADD DUP5 PUSH3 0xA5A JUMP JUMPDEST SWAP3 SWAP2 POP POP JUMP JUMPDEST PUSH0 PUSH20 0xFFFFFFFFFFFFFFFFFFFFFFFFFFFFFFFFFFFFFFFF DUP3 AND SWAP1 POP SWAP2 SWAP1 POP JUMP JUMPDEST PUSH0 PUSH3 0xAB1 DUP3 PUSH3 0xA86 JUMP JUMPDEST SWAP1 POP SWAP2 SWAP1 POP JUMP JUMPDEST PUSH3 0xAC3 DUP2 PUSH3 0xAA5 JUMP JUMPDEST DUP2 EQ PUSH3 0xACE JUMPI PUSH0 DUP1 REVERT JUMPDEST POP JUMP JUMPDEST PUSH0 DUP2 MLOAD SWAP1 POP PUSH3 0xAE1 DUP2 PUSH3 0xAB8 JUMP JUMPDEST SWAP3 SWAP2 POP POP JUMP JUMPDEST PUSH0 PUSH1 0x20 DUP3 DUP5 SUB SLT ISZERO PUSH3 0xAFF JUMPI PUSH3 0xAFE PUSH3 0x76C JUMP JUMPDEST JUMPDEST PUSH0 PUSH3 0xB0E DUP5 DUP3 DUP6 ADD PUSH3 0xAD1 JUMP JUMPDEST SWAP2 POP POP SWAP3 SWAP2 POP POP JUMP JUMPDEST PUSH3 0xB22 DUP2 PUSH3 0xAA5 JUMP JUMPDEST DUP3 MSTORE POP POP JUMP JUMPDEST PUSH32 0x496E76616C69642073656E646572000000000000000000000000000000000000 PUSH0 DUP3 ADD MSTORE POP JUMP JUMPDEST PUSH0 PUSH3 0xB5E PUSH1 0xE DUP4 PUSH3 0x6DE JUMP JUMPDEST SWAP2 POP PUSH3 0xB6B DUP3 PUSH3 0xB28 JUMP JUMPDEST PUSH1 0x20 DUP3 ADD SWAP1 POP SWAP2 SWAP1 POP JUMP JUMPDEST PUSH0 PUSH1 0x60 DUP3 ADD SWAP1 POP PUSH3 0xB8B PUSH0 DUP4 ADD DUP6 PUSH3 0xB17 JUMP JUMPDEST PUSH3 0xB9A PUSH1 0x20 DUP4 ADD DUP5 PUSH3 0xB17 JUMP JUMPDEST DUP2 DUP2 SUB PUSH1 0x40 DUP4 ADD MSTORE PUSH3 0xBAD DUP2 PUSH3 0xB50 JUMP JUMPDEST SWAP1 POP SWAP4 SWAP3 POP POP POP JUMP JUMPDEST PUSH0 DUP2 SWAP1 POP SWAP2 SWAP1 POP JUMP JUMPDEST PUSH0 PUSH3 0xBDF PUSH3 0xBD9 PUSH3 0xBD3 DUP5 PUSH3 0xBB6 JUMP JUMPDEST PUSH3 0xA2A JUMP JUMPDEST PUSH3 0x7CF JUMP JUMPDEST SWAP1 POP SWAP2 SWAP1 POP JUMP JUMPDEST PUSH3 0xBF1 DUP2 PUSH3 0xBBF JUMP JUMPDEST DUP3 MSTORE POP POP JUMP JUMPDEST PUSH32 0x496E76616C69642076616C756500000000000000000000000000000000000000 PUSH0 DUP3 ADD MSTORE POP JUMP JUMPDEST PUSH0 PUSH3 0xC2D PUSH1 0xD DUP4 PUSH3 0x6DE JUMP JUMPDEST SWAP2 POP PUSH3 0xC3A DUP3 PUSH3 0xBF7 JUMP JUMPDEST PUSH1 0x20 DUP3 ADD SWAP1 POP SWAP2 SWAP1 POP JUMP JUMPDEST PUSH0 PUSH1 0x60 DUP3 ADD SWAP1 POP PUSH3 0xC5A PUSH0 DUP4 ADD DUP6 PUSH3 0x7D8 JUMP JUMPDEST PUSH3 0xC69 PUSH1 0x20 DUP4 ADD DUP5 PUSH3 0xBE6 JUMP JUMPDEST DUP2 DUP2 SUB PUSH1 0x40 DUP4 ADD MSTORE PUSH3 0xC7C DUP2 PUSH3 0xC1F JUMP JUMPDEST SWAP1 POP SWAP4 SWAP3 POP POP POP JUMP JUMPDEST PUSH0 DUP3 DUP3 MSTORE PUSH1 0x20 DUP3 ADD SWAP1 POP SWAP3 SWAP2 POP POP JUMP JUMPDEST PUSH32 0x7465737431000000000000000000000000000000000000000000000000000000 PUSH0 DUP3 ADD MSTORE POP JUMP JUMPDEST PUSH0 PUSH3 0xCCB PUSH1 0x5 DUP4 PUSH3 0xC85 JUMP JUMPDEST SWAP2 POP PUSH3 0xCD8 DUP3 PUSH3 0xC95 JUMP JUMPDEST PUSH1 0x20 DUP3 ADD SWAP1 POP SWAP2 SWAP1 POP JUMP JUMPDEST PUSH0 PUSH1 0x20 DUP3 ADD SWAP1 POP DUP2 DUP2 SUB PUSH0 DUP4 ADD MSTORE PUSH3 0xCFC DUP2 PUSH3 0xCBD JUMP JUMPDEST SWAP1 POP SWAP2 SWAP1 POP JUMP JUMPDEST PUSH3 0xD0E DUP2 PUSH3 0x7CF JUMP JUMPDEST DUP2 EQ PUSH3 0xD19 JUMPI PUSH0 DUP1 REVERT JUMPDEST POP JUMP JUMPDEST PUSH0 DUP2 MLOAD SWAP1 POP PUSH3 0xD2C DUP2 PUSH3 0xD03 JUMP JUMPDEST SWAP3 SWAP2 POP POP JUMP JUMPDEST PUSH0 PUSH1 0x20 DUP3 DUP5 SUB SLT ISZERO PUSH3 0xD4A JUMPI PUSH3 0xD49 PUSH3 0x76C JUMP JUMPDEST JUMPDEST PUSH0 PUSH3 0xD59 DUP5 DUP3 DUP6 ADD PUSH3 0xD1C JUMP JUMPDEST SWAP2 POP POP SWAP3 SWAP2 POP POP JUMP JUMPDEST PUSH32 0x43686F696365206E6F7420616464656400000000000000000000000000000000 PUSH0 DUP3 ADD MSTORE POP JUMP JUMPDEST PUSH0 PUSH3 0xD98 PUSH1 0x10 DUP4 PUSH3 0x6DE JUMP JUMPDEST SWAP2 POP PUSH3 0xDA5 DUP3 PUSH3 0xD62 JUMP JUMPDEST PUSH1 0x20 DUP3 ADD SWAP1 POP SWAP2 SWAP1 POP JUMP JUMPDEST PUSH0 PUSH1 0x60 DUP3 ADD SWAP1 POP PUSH3 0xDC5 PUSH0 DUP4 ADD DUP6 PUSH3 0x7D8 JUMP JUMPDEST PUSH3 0xDD4 PUSH1 0x20 DUP4 ADD DUP5 PUSH3 0x7D8 JUMP JUMPDEST DUP2 DUP2 SUB PUSH1 0x40 DUP4 ADD MSTORE PUSH3 0xDE7 DUP2 PUSH3 0xD8A JUMP JUMPDEST SWAP1 POP SWAP4 SWAP3 POP POP POP JUMP INVALID PUSH1 0x80 PUSH1 0x40 MSTORE CALLVALUE DUP1 ISZERO PUSH3 0x10 JUMPI PUSH0 DUP1 REVERT JUMPDEST POP PUSH3 0x57 PUSH1 0x40 MLOAD DUP1 PUSH1 0x40 ADD PUSH1 0x40 MSTORE DUP1 PUSH1 0x7 DUP2 MSTORE PUSH1 0x20 ADD PUSH32 0x43656C7369757300000000000000000000000000000000000000000000000000 DUP2 MSTORE POP PUSH3 0x12F PUSH1 0x20 SHL PUSH1 0x20 SHR JUMP JUMPDEST PUSH3 0x9D PUSH1 0x40 MLOAD DUP1 PUSH1 0x40 ADD PUSH1 0x40 MSTORE DUP1 PUSH1 0x4 DUP2 MSTORE PUSH1 0x20 ADD PUSH32 0x42616E6700000000000000000000000000000000000000000000000000000000 DUP2 MSTORE POP PUSH3 0x12F PUSH1 0x20 SHL PUSH1 0x20 SHR JUMP JUMPDEST PUSH3 0xE3 PUSH1 0x40 MLOAD DUP1 PUSH1 0x40 ADD PUSH1 0x40 MSTORE DUP1 PUSH1 0x7 DUP2 MSTORE PUSH1 0x20 ADD PUSH32 0x52656462756C6C00000000000000000000000000000000000000000000000000 DUP2 MSTORE POP PUSH3 0x12F PUSH1 0x20 SHL PUSH1 0x20 SHR JUMP JUMPDEST PUSH3 0x129 PUSH1 0x40 MLOAD DUP1 PUSH1 0x40 ADD PUSH1 0x40 MSTORE DUP1 PUSH1 0x5 DUP2 MSTORE PUSH1 0x20 ADD PUSH32 0x5072696D65000000000000000000000000000000000000000000000000000000 DUP2 MSTORE POP PUSH3 0x12F PUSH1 0x20 SHL PUSH1 0x20 SHR JUMP JUMPDEST PUSH3 0x598 JUMP JUMPDEST PUSH1 0x40 MLOAD DUP1 PUSH1 0x60 ADD PUSH1 0x40 MSTORE DUP1 PUSH1 0x2 SLOAD DUP2 MSTORE PUSH1 0x20 ADD DUP3 DUP2 MSTORE PUSH1 0x20 ADD PUSH0 DUP2 MSTORE POP PUSH1 0x1 PUSH0 PUSH1 0x2 SLOAD DUP2 MSTORE PUSH1 0x20 ADD SWAP1 DUP2 MSTORE PUSH1 0x20 ADD PUSH0 KECCAK256 PUSH0 DUP3 ADD MLOAD DUP2 PUSH0 ADD SSTORE PUSH1 0x20 DUP3 ADD MLOAD DUP2 PUSH1 0x1 ADD SWAP1 DUP2 PUSH3 0x17E SWAP2 SWAP1 PUSH3 0x43B JUMP JUMPDEST POP PUSH1 0x40 DUP3 ADD MLOAD DUP2 PUSH1 0x2 ADD SSTORE SWAP1 POP POP PUSH1 0x2 SLOAD PUSH32 0x8C289382D6FD42A02A06E885DA5A69CB0F21294BBFC7ACC91D5CF3CED61CA0C4 PUSH1 0x40 MLOAD PUSH1 0x40 MLOAD DUP1 SWAP2 SUB SWAP1 LOG2 PUSH1 0x2 PUSH0 DUP2 SLOAD DUP1 SWAP3 SWAP2 SWAP1 PUSH3 0x1CF SWAP1 PUSH3 0x54C JUMP JUMPDEST SWAP2 SWAP1 POP SSTORE POP POP JUMP JUMPDEST PUSH0 DUP2 MLOAD SWAP1 POP SWAP2 SWAP1 POP JUMP JUMPDEST PUSH32 0x4E487B7100000000000000000000000000000000000000000000000000000000 PUSH0 MSTORE PUSH1 0x41 PUSH1 0x4 MSTORE PUSH1 0x24 PUSH0 REVERT JUMPDEST PUSH32 0x4E487B7100000000000000000000000000000000000000000000000000000000 PUSH0 MSTORE PUSH1 0x22 PUSH1 0x4 MSTORE PUSH1 0x24 PUSH0 REVERT JUMPDEST PUSH0 PUSH1 0x2 DUP3 DIV SWAP1 POP PUSH1 0x1 DUP3 AND DUP1 PUSH3 0x253 JUMPI PUSH1 0x7F DUP3 AND SWAP2 POP JUMPDEST PUSH1 0x20 DUP3 LT DUP2 SUB PUSH3 0x269 JUMPI PUSH3 0x268 PUSH3 0x20E JUMP JUMPDEST JUMPDEST POP SWAP2 SWAP1 POP JUMP JUMPDEST PUSH0 DUP2 SWAP1 POP DUP2 PUSH0 MSTORE PUSH1 0x20 PUSH0 KECCAK256 SWAP1 POP SWAP2 SWAP1 POP JUMP JUMPDEST PUSH0 PUSH1 0x20 PUSH1 0x1F DUP4 ADD DIV SWAP1 POP SWAP2 SWAP1 POP JUMP JUMPDEST PUSH0 DUP3 DUP3 SHL SWAP1 POP SWAP3 SWAP2 POP POP JUMP JUMPDEST PUSH0 PUSH1 0x8 DUP4 MUL PUSH3 0x2CD PUSH32 0xFFFFFFFFFFFFFFFFFFFFFFFFFFFFFFFFFFFFFFFFFFFFFFFFFFFFFFFFFFFFFFFF DUP3 PUSH3 0x290 JUMP JUMPDEST PUSH3 0x2D9 DUP7 DUP4 PUSH3 0x290 JUMP JUMPDEST SWAP6 POP DUP1 NOT DUP5 AND SWAP4 POP DUP1 DUP7 AND DUP5 OR SWAP3 POP POP POP SWAP4 SWAP3 POP POP POP JUMP JUMPDEST PUSH0 DUP2 SWAP1 POP SWAP2 SWAP1 POP JUMP JUMPDEST PUSH0 DUP2 SWAP1 POP SWAP2 SWAP1 POP JUMP JUMPDEST PUSH0 PUSH3 0x323 PUSH3 0x31D PUSH3 0x317 DUP5 PUSH3 0x2F1 JUMP JUMPDEST PUSH3 0x2FA JUMP JUMPDEST PUSH3 0x2F1 JUMP JUMPDEST SWAP1 POP SWAP2 SWAP1 POP JUMP JUMPDEST PUSH0 DUP2 SWAP1 POP SWAP2 SWAP1 POP JUMP JUMPDEST PUSH3 0x33E DUP4 PUSH3 0x303 JUMP JUMPDEST PUSH3 0x356 PUSH3 0x34D DUP3 PUSH3 0x32A JUMP JUMPDEST DUP5 DUP5 SLOAD PUSH3 0x29C JUMP JUMPDEST DUP3 SSTORE POP POP POP POP JUMP JUMPDEST PUSH0 SWAP1 JUMP JUMPDEST PUSH3 0x36C PUSH3 0x35E JUMP JUMPDEST PUSH3 0x379 DUP2 DUP5 DUP5 PUSH3 0x333 JUMP JUMPDEST POP POP POP JUMP JUMPDEST JUMPDEST DUP2 DUP2 LT ISZERO PUSH3 0x3A0 JUMPI PUSH3 0x394 PUSH0 DUP3 PUSH3 0x362 JUMP JUMPDEST PUSH1 0x1 DUP2 ADD SWAP1 POP PUSH3 0x37F JUMP JUMPDEST POP POP JUMP JUMPDEST PUSH1 0x1F DUP3 GT ISZERO PUSH3 0x3EF JUMPI PUSH3 0x3B9 DUP2 PUSH3 0x26F JUMP JUMPDEST PUSH3 0x3C4 DUP5 PUSH3 0x281 JUMP JUMPDEST DUP2 ADD PUSH1 0x20 DUP6 LT ISZERO PUSH3 0x3D4 JUMPI DUP2 SWAP1 POP JUMPDEST PUSH3 0x3EC PUSH3 0x3E3 DUP6 PUSH3 0x281 JUMP JUMPDEST DUP4 ADD DUP3 PUSH3 0x37E JUMP JUMPDEST POP POP JUMPDEST POP POP POP JUMP JUMPDEST PUSH0 DUP3 DUP3 SHR SWAP1 POP SWAP3 SWAP2 POP POP JUMP JUMPDEST PUSH0 PUSH3 0x411 PUSH0 NOT DUP5 PUSH1 0x8 MUL PUSH3 0x3F4 JUMP JUMPDEST NOT DUP1 DUP4 AND SWAP2 POP POP SWAP3 SWAP2 POP POP JUMP JUMPDEST PUSH0 PUSH3 0x42B DUP4 DUP4 PUSH3 0x400 JUMP JUMPDEST SWAP2 POP DUP3 PUSH1 0x2 MUL DUP3 OR SWAP1 POP SWAP3 SWAP2 POP POP JUMP JUMPDEST PUSH3 0x446 DUP3 PUSH3 0x1D7 JUMP JUMPDEST PUSH8 0xFFFFFFFFFFFFFFFF DUP2 GT ISZERO PUSH3 0x462 JUMPI PUSH3 0x461 PUSH3 0x1E1 JUMP JUMPDEST JUMPDEST PUSH3 0x46E DUP3 SLOAD PUSH3 0x23B JUMP JUMPDEST PUSH3 0x47B DUP3 DUP3 DUP6 PUSH3 0x3A4 JUMP JUMPDEST PUSH0 PUSH1 0x20 SWAP1 POP PUSH1 0x1F DUP4 GT PUSH1 0x1 DUP2 EQ PUSH3 0x4B1 JUMPI PUSH0 DUP5 ISZERO PUSH3 0x49C JUMPI DUP3 DUP8 ADD MLOAD SWAP1 POP JUMPDEST PUSH3 0x4A8 DUP6 DUP3 PUSH3 0x41E JUMP JUMPDEST DUP7 SSTORE POP PUSH3 0x517 JUMP JUMPDEST PUSH1 0x1F NOT DUP5 AND PUSH3 0x4C1 DUP7 PUSH3 0x26F JUMP JUMPDEST PUSH0 JUMPDEST DUP3 DUP2 LT ISZERO PUSH3 0x4EA JUMPI DUP5 DUP10 ADD MLOAD DUP3 SSTORE PUSH1 0x1 DUP3 ADD SWAP2 POP PUSH1 0x20 DUP6 ADD SWAP5 POP PUSH1 0x20 DUP2 ADD SWAP1 POP PUSH3 0x4C3 JUMP JUMPDEST DUP7 DUP4 LT ISZERO PUSH3 0x50A JUMPI DUP5 DUP10 ADD MLOAD PUSH3 0x506 PUSH1 0x1F DUP10 AND DUP3 PUSH3 0x400 JUMP JUMPDEST DUP4 SSTORE POP JUMPDEST PUSH1 0x1 PUSH1 0x2 DUP9 MUL ADD DUP9 SSTORE POP POP POP JUMPDEST POP POP POP POP POP POP JUMP JUMPDEST PUSH32 0x4E487B7100000000000000000000000000000000000000000000000000000000 PUSH0 MSTORE PUSH1 0x11 PUSH1 0x4 MSTORE PUSH1 0x24 PUSH0 REVERT JUMPDEST PUSH0 PUSH3 0x558 DUP3 PUSH3 0x2F1 JUMP JUMPDEST SWAP2 POP PUSH32 0xFFFFFFFFFFFFFFFFFFFFFFFFFFFFFFFFFFFFFFFFFFFFFFFFFFFFFFFFFFFFFFFF DUP3 SUB PUSH3 0x58D JUMPI PUSH3 0x58C PUSH3 0x51F JUMP JUMPDEST JUMPDEST PUSH1 0x1 DUP3 ADD SWAP1 POP SWAP2 SWAP1 POP JUMP JUMPDEST PUSH2 0xF51 DUP1 PUSH3 0x5A6 PUSH0 CODECOPY PUSH0 RETURN INVALID PUSH1 0x80 PUSH1 0x40 MSTORE CALLVALUE DUP1 ISZERO PUSH2 0xF JUMPI PUSH0 DUP1 REVERT JUMPDEST POP PUSH1 0x4 CALLDATASIZE LT PUSH2 0x86 JUMPI PUSH0 CALLDATALOAD PUSH1 0xE0 SHR DUP1 PUSH4 0x70740AAB GT PUSH2 0x59 JUMPI DUP1 PUSH4 0x70740AAB EQ PUSH2 0x110 JUMPI DUP1 PUSH4 0xAEC2CCAE EQ PUSH2 0x12E JUMPI DUP1 PUSH4 0xDC899A07 EQ PUSH2 0x15E JUMPI DUP1 PUSH4 0xF6FD7FDE EQ PUSH2 0x17C JUMPI PUSH2 0x86 JUMP JUMPDEST DUP1 PUSH4 0x121B93F EQ PUSH2 0x8A JUMPI DUP1 PUSH4 0x1FFC9A7 EQ PUSH2 0xA6 JUMPI DUP1 PUSH4 0x251760B7 EQ PUSH2 0xD6 JUMPI DUP1 PUSH4 0x5FA520BB EQ PUSH2 0xF4 JUMPI JUMPDEST PUSH0 DUP1 REVERT JUMPDEST PUSH2 0xA4 PUSH1 0x4 DUP1 CALLDATASIZE SUB DUP2 ADD SWAP1 PUSH2 0x9F SWAP2 SWAP1 PUSH2 0x680 JUMP JUMPDEST PUSH2 0x1AC JUMP JUMPDEST STOP JUMPDEST PUSH2 0xC0 PUSH1 0x4 DUP1 CALLDATASIZE SUB DUP2 ADD SWAP1 PUSH2 0xBB SWAP2 SWAP1 PUSH2 0x700 JUMP JUMPDEST PUSH2 0x332 JUMP JUMPDEST PUSH1 0x40 MLOAD PUSH2 0xCD SWAP2 SWAP1 PUSH2 0x745 JUMP JUMPDEST PUSH1 0x40 MLOAD DUP1 SWAP2 SUB SWAP1 RETURN JUMPDEST PUSH2 0xDE PUSH2 0x3CB JUMP JUMPDEST PUSH1 0x40 MLOAD PUSH2 0xEB SWAP2 SWAP1 PUSH2 0x76D JUMP JUMPDEST PUSH1 0x40 MLOAD DUP1 SWAP2 SUB SWAP1 RETURN JUMPDEST PUSH2 0x10E PUSH1 0x4 DUP1 CALLDATASIZE SUB DUP2 ADD SWAP1 PUSH2 0x109 SWAP2 SWAP1 PUSH2 0x8C2 JUMP JUMPDEST PUSH2 0x3D1 JUMP JUMPDEST STOP JUMPDEST PUSH2 0x118 PUSH2 0x475 JUMP JUMPDEST PUSH1 0x40 MLOAD PUSH2 0x125 SWAP2 SWAP1 PUSH2 0x983 JUMP JUMPDEST PUSH1 0x40 MLOAD DUP1 SWAP2 SUB SWAP1 RETURN JUMPDEST PUSH2 0x148 PUSH1 0x4 DUP1 CALLDATASIZE SUB DUP2 ADD SWAP1 PUSH2 0x143 SWAP2 SWAP1 PUSH2 0x9FD JUMP JUMPDEST PUSH2 0x491 JUMP JUMPDEST PUSH1 0x40 MLOAD PUSH2 0x155 SWAP2 SWAP1 PUSH2 0x745 JUMP JUMPDEST PUSH1 0x40 MLOAD DUP1 SWAP2 SUB SWAP1 RETURN JUMPDEST PUSH2 0x166 PUSH2 0x4AD JUMP JUMPDEST PUSH1 0x40 MLOAD PUSH2 0x173 SWAP2 SWAP1 PUSH2 0x983 JUMP JUMPDEST PUSH1 0x40 MLOAD DUP1 SWAP2 SUB SWAP1 RETURN JUMPDEST PUSH2 0x196 PUSH1 0x4 DUP1 CALLDATASIZE SUB DUP2 ADD SWAP1 PUSH2 0x191 SWAP2 SWAP1 PUSH2 0x680 JUMP JUMPDEST PUSH2 0x54F JUMP JUMPDEST PUSH1 0x40 MLOAD PUSH2 0x1A3 SWAP2 SWAP1 PUSH2 0xACC JUMP JUMPDEST PUSH1 0x40 MLOAD DUP1 SWAP2 SUB SWAP1 RETURN JUMPDEST PUSH0 DUP1 CALLER PUSH20 0xFFFFFFFFFFFFFFFFFFFFFFFFFFFFFFFFFFFFFFFF AND PUSH20 0xFFFFFFFFFFFFFFFFFFFFFFFFFFFFFFFFFFFFFFFF AND DUP2 MSTORE PUSH1 0x20 ADD SWAP1 DUP2 MSTORE PUSH1 0x20 ADD PUSH0 KECCAK256 PUSH0 SWAP1 SLOAD SWAP1 PUSH2 0x100 EXP SWAP1 DIV PUSH1 0xFF AND ISZERO PUSH2 0x235 JUMPI PUSH1 0x40 MLOAD PUSH32 0x8C379A000000000000000000000000000000000000000000000000000000000 DUP2 MSTORE PUSH1 0x4 ADD PUSH2 0x22C SWAP1 PUSH2 0xB36 JUMP JUMPDEST PUSH1 0x40 MLOAD DUP1 SWAP2 SUB SWAP1 REVERT JUMPDEST PUSH0 DUP2 LT ISZERO DUP1 ISZERO PUSH2 0x246 JUMPI POP PUSH1 0x2 SLOAD DUP2 LT JUMPDEST PUSH2 0x285 JUMPI PUSH1 0x40 MLOAD PUSH32 0x8C379A000000000000000000000000000000000000000000000000000000000 DUP2 MSTORE PUSH1 0x4 ADD PUSH2 0x27C SWAP1 PUSH2 0xB9E JUMP JUMPDEST PUSH1 0x40 MLOAD DUP1 SWAP2 SUB SWAP1 REVERT JUMPDEST PUSH1 0x1 PUSH0 DUP1 CALLER PUSH20 0xFFFFFFFFFFFFFFFFFFFFFFFFFFFFFFFFFFFFFFFF AND PUSH20 0xFFFFFFFFFFFFFFFFFFFFFFFFFFFFFFFFFFFFFFFF AND DUP2 MSTORE PUSH1 0x20 ADD SWAP1 DUP2 MSTORE PUSH1 0x20 ADD PUSH0 KECCAK256 PUSH0 PUSH2 0x100 EXP DUP2 SLOAD DUP2 PUSH1 0xFF MUL NOT AND SWAP1 DUP4 ISZERO ISZERO MUL OR SWAP1 SSTORE POP PUSH1 0x1 PUSH0 DUP3 DUP2 MSTORE PUSH1 0x20 ADD SWAP1 DUP2 MSTORE PUSH1 0x20 ADD PUSH0 KECCAK256 PUSH1 0x2 ADD PUSH0 DUP2 SLOAD DUP1 SWAP3 SWAP2 SWAP1 PUSH2 0x2FD SWAP1 PUSH2 0xBE9 JUMP JUMPDEST SWAP2 SWAP1 POP SSTORE POP DUP1 PUSH32 0xFFF3C900D938D21D0990D786E819F29B8D05C1EF587B462B939609625B684B16 PUSH1 0x40 MLOAD PUSH1 0x40 MLOAD DUP1 SWAP2 SUB SWAP1 LOG2 POP JUMP JUMPDEST PUSH0 PUSH32 0x5227894F00000000000000000000000000000000000000000000000000000000 PUSH28 0xFFFFFFFFFFFFFFFFFFFFFFFFFFFFFFFFFFFFFFFFFFFFFFFFFFFFFFFF NOT AND DUP3 PUSH28 0xFFFFFFFFFFFFFFFFFFFFFFFFFFFFFFFFFFFFFFFFFFFFFFFFFFFFFFFF NOT AND EQ DUP1 PUSH2 0x3C4 JUMPI POP PUSH4 0x1FFC9A7 PUSH1 0xE0 SHL DUP3 PUSH28 0xFFFFFFFFFFFFFFFFFFFFFFFFFFFFFFFFFFFFFFFFFFFFFFFFFFFFFFFF NOT AND EQ JUMPDEST SWAP1 POP SWAP2 SWAP1 POP JUMP JUMPDEST PUSH1 0x2 SLOAD DUP2 JUMP JUMPDEST PUSH1 0x40 MLOAD DUP1 PUSH1 0x60 ADD PUSH1 0x40 MSTORE DUP1 PUSH1 0x2 SLOAD DUP2 MSTORE PUSH1 0x20 ADD DUP3 DUP2 MSTORE PUSH1 0x20 ADD PUSH0 DUP2 MSTORE POP PUSH1 0x1 PUSH0 PUSH1 0x2 SLOAD DUP2 MSTORE PUSH1 0x20 ADD SWAP1 DUP2 MSTORE PUSH1 0x20 ADD PUSH0 KECCAK256 PUSH0 DUP3 ADD MLOAD DUP2 PUSH0 ADD SSTORE PUSH1 0x20 DUP3 ADD MLOAD DUP2 PUSH1 0x1 ADD SWAP1 DUP2 PUSH2 0x41E SWAP2 SWAP1 PUSH2 0xE2A JUMP JUMPDEST POP PUSH1 0x40 DUP3 ADD MLOAD DUP2 PUSH1 0x2 ADD SSTORE SWAP1 POP POP PUSH1 0x2 SLOAD PUSH32 0x8C289382D6FD42A02A06E885DA5A69CB0F21294BBFC7ACC91D5CF3CED61CA0C4 PUSH1 0x40 MLOAD PUSH1 0x40 MLOAD DUP1 SWAP2 SUB SWAP1 LOG2 PUSH1 0x2 PUSH0 DUP2 SLOAD DUP1 SWAP3 SWAP2 SWAP1 PUSH2 0x46D SWAP1 PUSH2 0xBE9 JUMP JUMPDEST SWAP2 SWAP1 POP SSTORE POP POP JUMP JUMPDEST PUSH1 0x40 MLOAD DUP1 PUSH1 0x60 ADD PUSH1 0x40 MSTORE DUP1 PUSH1 0x22 DUP2 MSTORE PUSH1 0x20 ADD PUSH2 0xEFA PUSH1 0x22 SWAP2 CODECOPY DUP2 JUMP JUMPDEST PUSH0 PUSH1 0x20 MSTORE DUP1 PUSH0 MSTORE PUSH1 0x40 PUSH0 KECCAK256 PUSH0 SWAP2 POP SLOAD SWAP1 PUSH2 0x100 EXP SWAP1 DIV PUSH1 0xFF AND DUP2 JUMP JUMPDEST PUSH1 0x60 PUSH1 0x1 PUSH0 DUP1 DUP2 MSTORE PUSH1 0x20 ADD SWAP1 DUP2 MSTORE PUSH1 0x20 ADD PUSH0 KECCAK256 PUSH1 0x1 ADD DUP1 SLOAD PUSH2 0x4CE SWAP1 PUSH2 0xC5D JUMP JUMPDEST DUP1 PUSH1 0x1F ADD PUSH1 0x20 DUP1 SWAP2 DIV MUL PUSH1 0x20 ADD PUSH1 0x40 MLOAD SWAP1 DUP2 ADD PUSH1 0x40 MSTORE DUP1 SWAP3 SWAP2 SWAP1 DUP2 DUP2 MSTORE PUSH1 0x20 ADD DUP3 DUP1 SLOAD PUSH2 0x4FA SWAP1 PUSH2 0xC5D JUMP JUMPDEST DUP1 ISZERO PUSH2 0x545 JUMPI DUP1 PUSH1 0x1F LT PUSH2 0x51C JUMPI PUSH2 0x100 DUP1 DUP4 SLOAD DIV MUL DUP4 MSTORE SWAP2 PUSH1 0x20 ADD SWAP2 PUSH2 0x545 JUMP JUMPDEST DUP3 ADD SWAP2 SWAP1 PUSH0 MSTORE PUSH1 0x20 PUSH0 KECCAK256 SWAP1 JUMPDEST DUP2 SLOAD DUP2 MSTORE SWAP1 PUSH1 0x1 ADD SWAP1 PUSH1 0x20 ADD DUP1 DUP4 GT PUSH2 0x528 JUMPI DUP3 SWAP1 SUB PUSH1 0x1F AND DUP3 ADD SWAP2 JUMPDEST POP POP POP POP POP SWAP1 POP SWAP1 JUMP JUMPDEST PUSH2 0x557 PUSH2 0x61D JUMP JUMPDEST PUSH1 0x1 PUSH0 DUP4 DUP2 MSTORE PUSH1 0x20 ADD SWAP1 DUP2 MSTORE PUSH1 0x20 ADD PUSH0 KECCAK256 PUSH1 0x40 MLOAD DUP1 PUSH1 0x60 ADD PUSH1 0x40 MSTORE SWAP1 DUP2 PUSH0 DUP3 ADD SLOAD DUP2 MSTORE PUSH1 0x20 ADD PUSH1 0x1 DUP3 ADD DUP1 SLOAD PUSH2 0x58C SWAP1 PUSH2 0xC5D JUMP JUMPDEST DUP1 PUSH1 0x1F ADD PUSH1 0x20 DUP1 SWAP2 DIV MUL PUSH1 0x20 ADD PUSH1 0x40 MLOAD SWAP1 DUP2 ADD PUSH1 0x40 MSTORE DUP1 SWAP3 SWAP2 SWAP1 DUP2 DUP2 MSTORE PUSH1 0x20 ADD DUP3 DUP1 SLOAD PUSH2 0x5B8 SWAP1 PUSH2 0xC5D JUMP JUMPDEST DUP1 ISZERO PUSH2 0x603 JUMPI DUP1 PUSH1 0x1F LT PUSH2 0x5DA JUMPI PUSH2 0x100 DUP1 DUP4 SLOAD DIV MUL DUP4 MSTORE SWAP2 PUSH1 0x20 ADD SWAP2 PUSH2 0x603 JUMP JUMPDEST DUP3 ADD SWAP2 SWAP1 PUSH0 MSTORE PUSH1 0x20 PUSH0 KECCAK256 SWAP1 JUMPDEST DUP2 SLOAD DUP2 MSTORE SWAP1 PUSH1 0x1 ADD SWAP1 PUSH1 0x20 ADD DUP1 DUP4 GT PUSH2 0x5E6 JUMPI DUP3 SWAP1 SUB PUSH1 0x1F AND DUP3 ADD SWAP2 JUMPDEST POP POP POP POP POP DUP2 MSTORE PUSH1 0x20 ADD PUSH1 0x2 DUP3 ADD SLOAD DUP2 MSTORE POP POP SWAP1 POP SWAP2 SWAP1 POP JUMP JUMPDEST PUSH1 0x40 MLOAD DUP1 PUSH1 0x60 ADD PUSH1 0x40 MSTORE DUP1 PUSH0 DUP2 MSTORE PUSH1 0x20 ADD PUSH1 0x60 DUP2 MSTORE PUSH1 0x20 ADD PUSH0 DUP2 MSTORE POP SWAP1 JUMP JUMPDEST PUSH0 PUSH1 0x40 MLOAD SWAP1 POP SWAP1 JUMP JUMPDEST PUSH0 DUP1 REVERT JUMPDEST PUSH0 DUP1 REVERT JUMPDEST PUSH0 DUP2 SWAP1 POP SWAP2 SWAP1 POP JUMP JUMPDEST PUSH2 0x65F DUP2 PUSH2 0x64D JUMP JUMPDEST DUP2 EQ PUSH2 0x669 JUMPI PUSH0 DUP1 REVERT JUMPDEST POP JUMP JUMPDEST PUSH0 DUP2 CALLDATALOAD SWAP1 POP PUSH2 0x67A DUP2 PUSH2 0x656 JUMP JUMPDEST SWAP3 SWAP2 POP POP JUMP JUMPDEST PUSH0 PUSH1 0x20 DUP3 DUP5 SUB SLT ISZERO PUSH2 0x695 JUMPI PUSH2 0x694 PUSH2 0x645 JUMP JUMPDEST JUMPDEST PUSH0 PUSH2 0x6A2 DUP5 DUP3 DUP6 ADD PUSH2 0x66C JUMP JUMPDEST SWAP2 POP POP SWAP3 SWAP2 POP POP JUMP JUMPDEST PUSH0 PUSH32 0xFFFFFFFF00000000000000000000000000000000000000000000000000000000 DUP3 AND SWAP1 POP SWAP2 SWAP1 POP JUMP JUMPDEST PUSH2 0x6DF DUP2 PUSH2 0x6AB JUMP JUMPDEST DUP2 EQ PUSH2 0x6E9 JUMPI PUSH0 DUP1 REVERT JUMPDEST POP JUMP JUMPDEST PUSH0 DUP2 CALLDATALOAD SWAP1 POP PUSH2 0x6FA DUP2 PUSH2 0x6D6 JUMP JUMPDEST SWAP3 SWAP2 POP POP JUMP JUMPDEST PUSH0 PUSH1 0x20 DUP3 DUP5 SUB SLT ISZERO PUSH2 0x715 JUMPI PUSH2 0x714 PUSH2 0x645 JUMP JUMPDEST JUMPDEST PUSH0 PUSH2 0x722 DUP5 DUP3 DUP6 ADD PUSH2 0x6EC JUMP JUMPDEST SWAP2 POP POP SWAP3 SWAP2 POP POP JUMP JUMPDEST PUSH0 DUP2 ISZERO ISZERO SWAP1 POP SWAP2 SWAP1 POP JUMP JUMPDEST PUSH2 0x73F DUP2 PUSH2 0x72B JUMP JUMPDEST DUP3 MSTORE POP POP JUMP JUMPDEST PUSH0 PUSH1 0x20 DUP3 ADD SWAP1 POP PUSH2 0x758 PUSH0 DUP4 ADD DUP5 PUSH2 0x736 JUMP JUMPDEST SWAP3 SWAP2 POP POP JUMP JUMPDEST PUSH2 0x767 DUP2 PUSH2 0x64D JUMP JUMPDEST DUP3 MSTORE POP POP JUMP JUMPDEST PUSH0 PUSH1 0x20 DUP3 ADD SWAP1 POP PUSH2 0x780 PUSH0 DUP4 ADD DUP5 PUSH2 0x75E JUMP JUMPDEST SWAP3 SWAP2 POP POP JUMP JUMPDEST PUSH0 DUP1 REVERT JUMPDEST PUSH0 DUP1 REVERT JUMPDEST PUSH0 PUSH1 0x1F NOT PUSH1 0x1F DUP4 ADD AND SWAP1 POP SWAP2 SWAP1 POP JUMP JUMPDEST PUSH32 0x4E487B7100000000000000000000000000000000000000000000000000000000 PUSH0 MSTORE PUSH1 0x41 PUSH1 0x4 MSTORE PUSH1 0x24 PUSH0 REVERT JUMPDEST PUSH2 0x7D4 DUP3 PUSH2 0x78E JUMP JUMPDEST DUP2 ADD DUP2 DUP2 LT PUSH8 0xFFFFFFFFFFFFFFFF DUP3 GT OR ISZERO PUSH2 0x7F3 JUMPI PUSH2 0x7F2 PUSH2 0x79E JUMP JUMPDEST JUMPDEST DUP1 PUSH1 0x40 MSTORE POP POP POP JUMP JUMPDEST PUSH0 PUSH2 0x805 PUSH2 0x63C JUMP JUMPDEST SWAP1 POP PUSH2 0x811 DUP3 DUP3 PUSH2 0x7CB JUMP JUMPDEST SWAP2 SWAP1 POP JUMP JUMPDEST PUSH0 PUSH8 0xFFFFFFFFFFFFFFFF DUP3 GT ISZERO PUSH2 0x830 JUMPI PUSH2 0x82F PUSH2 0x79E JUMP JUMPDEST JUMPDEST PUSH2 0x839 DUP3 PUSH2 0x78E JUMP JUMPDEST SWAP1 POP PUSH1 0x20 DUP2 ADD SWAP1 POP SWAP2 SWAP1 POP JUMP JUMPDEST DUP3 DUP2 DUP4 CALLDATACOPY PUSH0 DUP4 DUP4 ADD MSTORE POP POP POP JUMP JUMPDEST PUSH0 PUSH2 0x866 PUSH2 0x861 DUP5 PUSH2 0x816 JUMP JUMPDEST PUSH2 0x7FC JUMP JUMPDEST SWAP1 POP DUP3 DUP2 MSTORE PUSH1 0x20 DUP2 ADD DUP5 DUP5 DUP5 ADD GT ISZERO PUSH2 0x882 JUMPI PUSH2 0x881 PUSH2 0x78A JUMP JUMPDEST JUMPDEST PUSH2 0x88D DUP5 DUP3 DUP6 PUSH2 0x846 JUMP JUMPDEST POP SWAP4 SWAP3 POP POP POP JUMP JUMPDEST PUSH0 DUP3 PUSH1 0x1F DUP4 ADD SLT PUSH2 0x8A9 JUMPI PUSH2 0x8A8 PUSH2 0x786 JUMP JUMPDEST JUMPDEST DUP2 CALLDATALOAD PUSH2 0x8B9 DUP5 DUP3 PUSH1 0x20 DUP7 ADD PUSH2 0x854 JUMP JUMPDEST SWAP2 POP POP SWAP3 SWAP2 POP POP JUMP JUMPDEST PUSH0 PUSH1 0x20 DUP3 DUP5 SUB SLT ISZERO PUSH2 0x8D7 JUMPI PUSH2 0x8D6 PUSH2 0x645 JUMP JUMPDEST JUMPDEST PUSH0 DUP3 ADD CALLDATALOAD PUSH8 0xFFFFFFFFFFFFFFFF DUP2 GT ISZERO PUSH2 0x8F4 JUMPI PUSH2 0x8F3 PUSH2 0x649 JUMP JUMPDEST JUMPDEST PUSH2 0x900 DUP5 DUP3 DUP6 ADD PUSH2 0x895 JUMP JUMPDEST SWAP2 POP POP SWAP3 SWAP2 POP POP JUMP JUMPDEST PUSH0 DUP2 MLOAD SWAP1 POP SWAP2 SWAP1 POP JUMP JUMPDEST PUSH0 DUP3 DUP3 MSTORE PUSH1 0x20 DUP3 ADD SWAP1 POP SWAP3 SWAP2 POP POP JUMP JUMPDEST PUSH0 JUMPDEST DUP4 DUP2 LT ISZERO PUSH2 0x940 JUMPI DUP1 DUP3 ADD MLOAD DUP2 DUP5 ADD MSTORE PUSH1 0x20 DUP2 ADD SWAP1 POP PUSH2 0x925 JUMP JUMPDEST PUSH0 DUP5 DUP5 ADD MSTORE POP POP POP POP JUMP JUMPDEST PUSH0 PUSH2 0x955 DUP3 PUSH2 0x909 JUMP JUMPDEST PUSH2 0x95F DUP2 DUP6 PUSH2 0x913 JUMP JUMPDEST SWAP4 POP PUSH2 0x96F DUP2 DUP6 PUSH1 0x20 DUP7 ADD PUSH2 0x923 JUMP JUMPDEST PUSH2 0x978 DUP2 PUSH2 0x78E JUMP JUMPDEST DUP5 ADD SWAP2 POP POP SWAP3 SWAP2 POP POP JUMP JUMPDEST PUSH0 PUSH1 0x20 DUP3 ADD SWAP1 POP DUP2 DUP2 SUB PUSH0 DUP4 ADD MSTORE PUSH2 0x99B DUP2 DUP5 PUSH2 0x94B JUMP JUMPDEST SWAP1 POP SWAP3 SWAP2 POP POP JUMP JUMPDEST PUSH0 PUSH20 0xFFFFFFFFFFFFFFFFFFFFFFFFFFFFFFFFFFFFFFFF DUP3 AND SWAP1 POP SWAP2 SWAP1 POP JUMP JUMPDEST PUSH0 PUSH2 0x9CC DUP3 PUSH2 0x9A3 JUMP JUMPDEST SWAP1 POP SWAP2 SWAP1 POP JUMP JUMPDEST PUSH2 0x9DC DUP2 PUSH2 0x9C2 JUMP JUMPDEST DUP2 EQ PUSH2 0x9E6 JUMPI PUSH0 DUP1 REVERT JUMPDEST POP JUMP JUMPDEST PUSH0 DUP2 CALLDATALOAD SWAP1 POP PUSH2 0x9F7 DUP2 PUSH2 0x9D3 JUMP JUMPDEST SWAP3 SWAP2 POP POP JUMP JUMPDEST PUSH0 PUSH1 0x20 DUP3 DUP5 SUB SLT ISZERO PUSH2 0xA12 JUMPI PUSH2 0xA11 PUSH2 0x645 JUMP JUMPDEST JUMPDEST PUSH0 PUSH2 0xA1F DUP5 DUP3 DUP6 ADD PUSH2 0x9E9 JUMP JUMPDEST SWAP2 POP POP SWAP3 SWAP2 POP POP JUMP JUMPDEST PUSH2 0xA31 DUP2 PUSH2 0x64D JUMP JUMPDEST DUP3 MSTORE POP POP JUMP JUMPDEST PUSH0 DUP3 DUP3 MSTORE PUSH1 0x20 DUP3 ADD SWAP1 POP SWAP3 SWAP2 POP POP JUMP JUMPDEST PUSH0 PUSH2 0xA51 DUP3 PUSH2 0x909 JUMP JUMPDEST PUSH2 0xA5B DUP2 DUP6 PUSH2 0xA37 JUMP JUMPDEST SWAP4 POP PUSH2 0xA6B DUP2 DUP6 PUSH1 0x20 DUP7 ADD PUSH2 0x923 JUMP JUMPDEST PUSH2 0xA74 DUP2 PUSH2 0x78E JUMP JUMPDEST DUP5 ADD SWAP2 POP POP SWAP3 SWAP2 POP POP JUMP JUMPDEST PUSH0 PUSH1 0x60 DUP4 ADD PUSH0 DUP4 ADD MLOAD PUSH2 0xA94 PUSH0 DUP7 ADD DUP3 PUSH2 0xA28 JUMP JUMPDEST POP PUSH1 0x20 DUP4 ADD MLOAD DUP5 DUP3 SUB PUSH1 0x20 DUP7 ADD MSTORE PUSH2 0xAAC DUP3 DUP3 PUSH2 0xA47 JUMP JUMPDEST SWAP2 POP POP PUSH1 0x40 DUP4 ADD MLOAD PUSH2 0xAC1 PUSH1 0x40 DUP7 ADD DUP3 PUSH2 0xA28 JUMP JUMPDEST POP DUP1 SWAP2 POP POP SWAP3 SWAP2 POP POP JUMP JUMPDEST PUSH0 PUSH1 0x20 DUP3 ADD SWAP1 POP DUP2 DUP2 SUB PUSH0 DUP4 ADD MSTORE PUSH2 0xAE4 DUP2 DUP5 PUSH2 0xA7F JUMP JUMPDEST SWAP1 POP SWAP3 SWAP2 POP POP JUMP JUMPDEST PUSH32 0x73656E6465722068617320616C726561647920766F7465640000000000000000 PUSH0 DUP3 ADD MSTORE POP JUMP JUMPDEST PUSH0 PUSH2 0xB20 PUSH1 0x18 DUP4 PUSH2 0x913 JUMP JUMPDEST SWAP2 POP PUSH2 0xB2B DUP3 PUSH2 0xAEC JUMP JUMPDEST PUSH1 0x20 DUP3 ADD SWAP1 POP SWAP2 SWAP1 POP JUMP JUMPDEST PUSH0 PUSH1 0x20 DUP3 ADD SWAP1 POP DUP2 DUP2 SUB PUSH0 DUP4 ADD MSTORE PUSH2 0xB4D DUP2 PUSH2 0xB14 JUMP JUMPDEST SWAP1 POP SWAP2 SWAP1 POP JUMP JUMPDEST PUSH32 0x696E76616C696420766F74652073656C656374696F6E00000000000000000000 PUSH0 DUP3 ADD MSTORE POP JUMP JUMPDEST PUSH0 PUSH2 0xB88 PUSH1 0x16 DUP4 PUSH2 0x913 JUMP JUMPDEST SWAP2 POP PUSH2 0xB93 DUP3 PUSH2 0xB54 JUMP JUMPDEST PUSH1 0x20 DUP3 ADD SWAP1 POP SWAP2 SWAP1 POP JUMP JUMPDEST PUSH0 PUSH1 0x20 DUP3 ADD SWAP1 POP DUP2 DUP2 SUB PUSH0 DUP4 ADD MSTORE PUSH2 0xBB5 DUP2 PUSH2 0xB7C JUMP JUMPDEST SWAP1 POP SWAP2 SWAP1 POP JUMP JUMPDEST PUSH32 0x4E487B7100000000000000000000000000000000000000000000000000000000 PUSH0 MSTORE PUSH1 0x11 PUSH1 0x4 MSTORE PUSH1 0x24 PUSH0 REVERT JUMPDEST PUSH0 PUSH2 0xBF3 DUP3 PUSH2 0x64D JUMP JUMPDEST SWAP2 POP PUSH32 0xFFFFFFFFFFFFFFFFFFFFFFFFFFFFFFFFFFFFFFFFFFFFFFFFFFFFFFFFFFFFFFFF DUP3 SUB PUSH2 0xC25 JUMPI PUSH2 0xC24 PUSH2 0xBBC JUMP JUMPDEST JUMPDEST PUSH1 0x1 DUP3 ADD SWAP1 POP SWAP2 SWAP1 POP JUMP JUMPDEST PUSH32 0x4E487B7100000000000000000000000000000000000000000000000000000000 PUSH0 MSTORE PUSH1 0x22 PUSH1 0x4 MSTORE PUSH1 0x24 PUSH0 REVERT JUMPDEST PUSH0 PUSH1 0x2 DUP3 DIV SWAP1 POP PUSH1 0x1 DUP3 AND DUP1 PUSH2 0xC74 JUMPI PUSH1 0x7F DUP3 AND SWAP2 POP JUMPDEST PUSH1 0x20 DUP3 LT DUP2 SUB PUSH2 0xC87 JUMPI PUSH2 0xC86 PUSH2 0xC30 JUMP JUMPDEST JUMPDEST POP SWAP2 SWAP1 POP JUMP JUMPDEST PUSH0 DUP2 SWAP1 POP DUP2 PUSH0 MSTORE PUSH1 0x20 PUSH0 KECCAK256 SWAP1 POP SWAP2 SWAP1 POP JUMP JUMPDEST PUSH0 PUSH1 0x20 PUSH1 0x1F DUP4 ADD DIV SWAP1 POP SWAP2 SWAP1 POP JUMP JUMPDEST PUSH0 DUP3 DUP3 SHL SWAP1 POP SWAP3 SWAP2 POP POP JUMP JUMPDEST PUSH0 PUSH1 0x8 DUP4 MUL PUSH2 0xCE9 PUSH32 0xFFFFFFFFFFFFFFFFFFFFFFFFFFFFFFFFFFFFFFFFFFFFFFFFFFFFFFFFFFFFFFFF DUP3 PUSH2 0xCAE JUMP JUMPDEST PUSH2 0xCF3 DUP7 DUP4 PUSH2 0xCAE JUMP JUMPDEST SWAP6 POP DUP1 NOT DUP5 AND SWAP4 POP DUP1 DUP7 AND DUP5 OR SWAP3 POP POP POP SWAP4 SWAP3 POP POP POP JUMP JUMPDEST PUSH0 DUP2 SWAP1 POP SWAP2 SWAP1 POP JUMP JUMPDEST PUSH0 PUSH2 0xD2E PUSH2 0xD29 PUSH2 0xD24 DUP5 PUSH2 0x64D JUMP JUMPDEST PUSH2 0xD0B JUMP JUMPDEST PUSH2 0x64D JUMP JUMPDEST SWAP1 POP SWAP2 SWAP1 POP JUMP JUMPDEST PUSH0 DUP2 SWAP1 POP SWAP2 SWAP1 POP JUMP JUMPDEST PUSH2 0xD47 DUP4 PUSH2 0xD14 JUMP JUMPDEST PUSH2 0xD5B PUSH2 0xD53 DUP3 PUSH2 0xD35 JUMP JUMPDEST DUP5 DUP5 SLOAD PUSH2 0xCBA JUMP JUMPDEST DUP3 SSTORE POP POP POP POP JUMP JUMPDEST PUSH0 SWAP1 JUMP JUMPDEST PUSH2 0xD6F PUSH2 0xD63 JUMP JUMPDEST PUSH2 0xD7A DUP2 DUP5 DUP5 PUSH2 0xD3E JUMP JUMPDEST POP POP POP JUMP JUMPDEST JUMPDEST DUP2 DUP2 LT ISZERO PUSH2 0xD9D JUMPI PUSH2 0xD92 PUSH0 DUP3 PUSH2 0xD67 JUMP JUMPDEST PUSH1 0x1 DUP2 ADD SWAP1 POP PUSH2 0xD80 JUMP JUMPDEST POP POP JUMP JUMPDEST PUSH1 0x1F DUP3 GT ISZERO PUSH2 0xDE2 JUMPI PUSH2 0xDB3 DUP2 PUSH2 0xC8D JUMP JUMPDEST PUSH2 0xDBC DUP5 PUSH2 0xC9F JUMP JUMPDEST DUP2 ADD PUSH1 0x20 DUP6 LT ISZERO PUSH2 0xDCB JUMPI DUP2 SWAP1 POP JUMPDEST PUSH2 0xDDF PUSH2 0xDD7 DUP6 PUSH2 0xC9F JUMP JUMPDEST DUP4 ADD DUP3 PUSH2 0xD7F JUMP JUMPDEST POP POP JUMPDEST POP POP POP JUMP JUMPDEST PUSH0 DUP3 DUP3 SHR SWAP1 POP SWAP3 SWAP2 POP POP JUMP JUMPDEST PUSH0 PUSH2 0xE02 PUSH0 NOT DUP5 PUSH1 0x8 MUL PUSH2 0xDE7 JUMP JUMPDEST NOT DUP1 DUP4 AND SWAP2 POP POP SWAP3 SWAP2 POP POP JUMP JUMPDEST PUSH0 PUSH2 0xE1A DUP4 DUP4 PUSH2 0xDF3 JUMP JUMPDEST SWAP2 POP DUP3 PUSH1 0x2 MUL DUP3 OR SWAP1 POP SWAP3 SWAP2 POP POP JUMP JUMPDEST PUSH2 0xE33 DUP3 PUSH2 0x909 JUMP JUMPDEST PUSH8 0xFFFFFFFFFFFFFFFF DUP2 GT ISZERO PUSH2 0xE4C JUMPI PUSH2 0xE4B PUSH2 0x79E JUMP JUMPDEST JUMPDEST PUSH2 0xE56 DUP3 SLOAD PUSH2 0xC5D JUMP JUMPDEST PUSH2 0xE61 DUP3 DUP3 DUP6 PUSH2 0xDA1 JUMP JUMPDEST PUSH0 PUSH1 0x20 SWAP1 POP PUSH1 0x1F DUP4 GT PUSH1 0x1 DUP2 EQ PUSH2 0xE92 JUMPI PUSH0 DUP5 ISZERO PUSH2 0xE80 JUMPI DUP3 DUP8 ADD MLOAD SWAP1 POP JUMPDEST PUSH2 0xE8A DUP6 DUP3 PUSH2 0xE0F JUMP JUMPDEST DUP7 SSTORE POP PUSH2 0xEF1 JUMP JUMPDEST PUSH1 0x1F NOT DUP5 AND PUSH2 0xEA0 DUP7 PUSH2 0xC8D JUMP JUMPDEST PUSH0 JUMPDEST DUP3 DUP2 LT ISZERO PUSH2 0xEC7 JUMPI DUP5 DUP10 ADD MLOAD DUP3 SSTORE PUSH1 0x1 DUP3 ADD SWAP2 POP PUSH1 0x20 DUP6 ADD SWAP5 POP PUSH1 0x20 DUP2 ADD SWAP1 POP PUSH2 0xEA2 JUMP JUMPDEST DUP7 DUP4 LT ISZERO PUSH2 0xEE4 JUMPI DUP5 DUP10 ADD MLOAD PUSH2 0xEE0 PUSH1 0x1F DUP10 AND DUP3 PUSH2 0xDF3 JUMP JUMPDEST DUP4 SSTORE POP JUMPDEST PUSH1 0x1 PUSH1 0x2 DUP9 MUL ADD DUP9 SSTORE POP POP POP JUMPDEST POP POP POP POP POP POP JUMP INVALID JUMP PUSH16 0x7465206F6E20796F7572206661766F72 PUSH10 0x746520656E6572677920 PUSH5 0x72696E6BA2 PUSH5 0x6970667358 0x22 SLT KECCAK256 RETURNDATACOPY EXTCODECOPY 0xC4 PUSH16 0x250887528510E623AA71837A6FDFEBC5 0x28 SHL 0xD0 0x1F SAR CALLDATACOPY 0xE LOG2 0xD9 0xAB LOG3 EXP PUSH5 0x736F6C6343 STOP ADDMOD ISZERO STOP CALLER LOG2 PUSH5 0x6970667358 0x22 SLT KECCAK256 STOP PUSH20 0x5E9D09F0B612C7658970231689D2503828CDACC3 SGT GAS SWAP15 0x4B 0xBE SWAP13 SSTORE DUP16 KECCAK256 SWAP13 PUSH5 0x736F6C6343 STOP ADDMOD ISZERO STOP CALLER "
		},
		"gasEstimates": {
			"creation": {
				"codeDepositCost": "1797800",
				"executionCost": "1889",
				"totalCost": "1799689"
			},
			"external": {
				"beforeAll()": "infinite",
				"checkChioceCreation()": "infinite",
				"checkFailure()": "infinite",
				"checkSenderAndValue()": "infinite",
				"checkSuccess()": "infinite",
				"checkSuccess2()": "338"
			}
		},
		"methodIdentifiers": {
			"beforeAll()": "7fea0d4b",
			"checkChioceCreation()": "9181f4e8",
			"checkFailure()": "36c00656",
			"checkSenderAndValue()": "9074416d",
			"checkSuccess()": "011e6492",
			"checkSuccess2()": "12d487ea"
		}
	},
	"abi": [
		{
			"inputs": [],
			"name": "beforeAll",
			"outputs": [],
			"stateMutability": "nonpayable",
			"type": "function"
		},
		{
			"inputs": [],
			"name": "checkChioceCreation",
			"outputs": [],
			"stateMutability": "nonpayable",
			"type": "function"
		},
		{
			"inputs": [],
			"name": "checkFailure",
			"outputs": [],
			"stateMutability": "nonpayable",
			"type": "function"
		},
		{
			"inputs": [],
			"name": "checkSenderAndValue",
			"outputs": [],
			"stateMutability": "payable",
			"type": "function"
		},
		{
			"inputs": [],
			"name": "checkSuccess",
			"outputs": [],
			"stateMutability": "nonpayable",
			"type": "function"
		},
		{
			"inputs": [],
			"name": "checkSuccess2",
			"outputs": [
				{
					"internalType": "bool",
					"name": "",
					"type": "bool"
				}
			],
			"stateMutability": "pure",
			"type": "function"
		}
	]
}