{
	"data": {
		"bytecode": {
			"linkReferences": {},
			"object": "608060405260008054906101000a900473ffffffffffffffffffffffffffffffffffffffff16600260006101000a81548173ffffffffffffffffffffffffffffffffffffffff021916908373ffffffffffffffffffffffffffffffffffffffff1602179055503480156200007257600080fd5b5033600960006101000a81548173ffffffffffffffffffffffffffffffffffffffff021916908373ffffffffffffffffffffffffffffffffffffffff160217905550604051620000c2906200065b565b604051809103906000f080158015620000df573d6000803e3d6000fd5b506000806101000a81548173ffffffffffffffffffffffffffffffffffffffff021916908373ffffffffffffffffffffffffffffffffffffffff1602179055506040518060400160405280600e81526020017f49732053616e7461207265616c3f00000000000000000000000000000000000081525060039081620001659190620008e3565b506040518060400160405280601b81526020017f42616b6520736f6d65206368726973746d617320636f6f6b696573000000000081525060079081620001ac9190620008e3565b506000620001f6620001e6600960009054906101000a900473ffffffffffffffffffffffffffffffffffffffff16620002c560201b60201c565b60026022620002fa60201b60201c565b905060008054906101000a900473ffffffffffffffffffffffffffffffffffffffff1673ffffffffffffffffffffffffffffffffffffffff16630e980602600960009054906101000a900473ffffffffffffffffffffffffffffffffffffffff16836040518363ffffffff1660e01b81526004016200027792919062000a9e565b6020604051808303816000875af115801562000297573d6000803e3d6000fd5b505050506040513d601f19601f82011682018060405250810190620002bd919062000b08565b505062000cf9565b6060620002f38273ffffffffffffffffffffffffffffffffffffffff16601460ff166200040060201b60201c565b9050919050565b606060008490506000848462000311919062000b69565b67ffffffffffffffff8111156200032d576200032c62000674565b5b6040519080825280601f01601f191660200182016040528015620003605781602001600182028036833780820191505090505b50905060008590505b84811015620003f35782818151811062000388576200038762000ba4565b5b602001015160f81c60f81b828783620003a2919062000b69565b81518110620003b657620003b562000ba4565b5b60200101907effffffffffffffffffffffffffffffffffffffffffffffffffffffffffffff1916908160001a905350808060010191505062000369565b5080925050509392505050565b60606000600283600262000415919062000bd3565b62000421919062000c1e565b67ffffffffffffffff8111156200043d576200043c62000674565b5b6040519080825280601f01601f191660200182016040528015620004705781602001600182028036833780820191505090505b5090507f300000000000000000000000000000000000000000000000000000000000000081600081518110620004ab57620004aa62000ba4565b5b60200101907effffffffffffffffffffffffffffffffffffffffffffffffffffffffffffff1916908160001a9053507f78000000000000000000000000000000000000000000000000000000000000008160018151811062000512576200051162000ba4565b5b60200101907effffffffffffffffffffffffffffffffffffffffffffffffffffffffffffff1916908160001a9053506000600184600262000554919062000bd3565b62000560919062000c1e565b90505b60018111156200060a577f3031323334353637383961626364656600000000000000000000000000000000600f861660108110620005a657620005a562000ba4565b5b1a60f81b828281518110620005c057620005bf62000ba4565b5b60200101907effffffffffffffffffffffffffffffffffffffffffffffffffffffffffffff1916908160001a905350600485901c945080620006029062000c59565b905062000563565b506000841462000651576040517f08c379a0000000000000000000000000000000000000000000000000000000008152600401620006489062000cd7565b60405180910390fd5b8091505092915050565b612efb806200377a83390190565b600081519050919050565b7f4e487b7100000000000000000000000000000000000000000000000000000000600052604160045260246000fd5b7f4e487b7100000000000000000000000000000000000000000000000000000000600052602260045260246000fd5b60006002820490506001821680620006eb57607f821691505b602082108103620007015762000700620006a3565b5b50919050565b60008190508160005260206000209050919050565b60006020601f8301049050919050565b600082821b905092915050565b6000600883026200076b7fffffffffffffffffffffffffffffffffffffffffffffffffffffffffffffffff826200072c565b6200077786836200072c565b95508019841693508086168417925050509392505050565b6000819050919050565b6000819050919050565b6000620007c4620007be620007b8846200078f565b62000799565b6200078f565b9050919050565b6000819050919050565b620007e083620007a3565b620007f8620007ef82620007cb565b84845462000739565b825550505050565b600090565b6200080f62000800565b6200081c818484620007d5565b505050565b5b8181101562000844576200083860008262000805565b60018101905062000822565b5050565b601f82111562000893576200085d8162000707565b62000868846200071c565b8101602085101562000878578190505b6200089062000887856200071c565b83018262000821565b50505b505050565b600082821c905092915050565b6000620008b86000198460080262000898565b1980831691505092915050565b6000620008d38383620008a5565b9150826002028217905092915050565b620008ee8262000669565b67ffffffffffffffff8111156200090a576200090962000674565b5b620009168254620006d2565b6200092382828562000848565b600060209050601f8311600181146200095b576000841562000946578287015190505b620009528582620008c5565b865550620009c2565b601f1984166200096b8662000707565b60005b8281101562000995578489015182556001820191506020850194506020810190506200096e565b86831015620009b55784890151620009b1601f891682620008a5565b8355505b6001600288020188555050505b505050505050565b600073ffffffffffffffffffffffffffffffffffffffff82169050919050565b6000620009f782620009ca565b9050919050565b62000a0981620009ea565b82525050565b600082825260208201905092915050565b60005b8381101562000a4057808201518184015260208101905062000a23565b60008484015250505050565b6000601f19601f8301169050919050565b600062000a6a8262000669565b62000a76818562000a0f565b935062000a8881856020860162000a20565b62000a938162000a4c565b840191505092915050565b600060408201905062000ab56000830185620009fe565b818103602083015262000ac9818462000a5d565b90509392505050565b600080fd5b62000ae2816200078f565b811462000aee57600080fd5b50565b60008151905062000b028162000ad7565b92915050565b60006020828403121562000b215762000b2062000ad2565b5b600062000b318482850162000af1565b91505092915050565b7f4e487b7100000000000000000000000000000000000000000000000000000000600052601160045260246000fd5b600062000b76826200078f565b915062000b83836200078f565b925082820390508181111562000b9e5762000b9d62000b3a565b5b92915050565b7f4e487b7100000000000000000000000000000000000000000000000000000000600052603260045260246000fd5b600062000be0826200078f565b915062000bed836200078f565b925082820262000bfd816200078f565b9150828204841483151762000c175762000c1662000b3a565b5b5092915050565b600062000c2b826200078f565b915062000c38836200078f565b925082820190508082111562000c535762000c5262000b3a565b5b92915050565b600062000c66826200078f565b91506000820362000c7c5762000c7b62000b3a565b5b600182039050919050565b7f537472696e67733a20686578206c656e67746820696e73756666696369656e74600082015250565b600062000cbf60208362000a0f565b915062000ccc8262000c87565b602082019050919050565b6000602082019050818103600083015262000cf28162000cb0565b9050919050565b612a718062000d096000396000f3fe6080604052600436106101185760003560e01c80638d7af473116100a0578063ca6d56dc11610064578063ca6d56dc146103cd578063d6b78768146103f6578063e66f53b714610421578063ea3fad661461044c578063eb38603f146104895761011f565b80638d7af473146102e65780639d63848a14610311578063a230c5241461033c578063c65c90cc14610379578063c9d27afe146103a45761011f565b80631dcd9b55116100e75780631dcd9b551461020c578063237b2197146102495780632e6fb0971461027457806370740aab146102a45780637b10b293146102cf5761011f565b8063013cf08b1461012457806301ffc9a7146101695780630386a016146101a65780631a384287146101cf5761011f565b3661011f57005b600080fd5b34801561013057600080fd5b5061014b60048036038101906101469190611912565b6104b4565b60405161016099989796959493929190611a3a565b60405180910390f35b34801561017557600080fd5b50610190600480360381019061018b9190611b26565b6105e4565b60405161019d9190611b53565b60405180910390f35b3480156101b257600080fd5b506101cd60048036038101906101c89190611912565b6106b6565b005b3480156101db57600080fd5b506101f660048036038101906101f19190611b9a565b6109d0565b6040516102039190611b53565b60405180910390f35b34801561021857600080fd5b50610233600480360381019061022e9190611d0f565b6109ff565b6040516102409190611d7e565b60405180910390f35b34801561025557600080fd5b5061025e610af5565b60405161026b9190611da0565b60405180910390f35b61028e60048036038101906102899190611dbb565b610afb565b60405161029b9190611da0565b60405180910390f35b3480156102b057600080fd5b506102b9610dd6565b6040516102c69190611d7e565b60405180910390f35b3480156102db57600080fd5b506102e4610e64565b005b3480156102f257600080fd5b506102fb610f6e565b6040516103089190611da0565b60405180910390f35b34801561031d57600080fd5b50610326610f74565b6040516103339190611e3e565b60405180910390f35b34801561034857600080fd5b50610363600480360381019061035e9190611e59565b610f9a565b6040516103709190611b53565b60405180910390f35b34801561038557600080fd5b5061038e611050565b60405161039b9190611d7e565b60405180910390f35b3480156103b057600080fd5b506103cb60048036038101906103c69190611eb2565b6110de565b005b3480156103d957600080fd5b506103f460048036038101906103ef9190611e59565b611486565b005b34801561040257600080fd5b5061040b6115e0565b6040516104189190611da0565b60405180910390f35b34801561042d57600080fd5b506104366115e6565b6040516104439190611e3e565b60405180910390f35b34801561045857600080fd5b50610473600480360381019061046e9190611b9a565b61160c565b6040516104809190611b53565b60405180910390f35b34801561049557600080fd5b5061049e61163b565b6040516104ab9190611e3e565b60405180910390f35b60016020528060005260406000206000915090508060000160009054906101000a900473ffffffffffffffffffffffffffffffffffffffff169080600101549080600201805461050390611f21565b80601f016020809104026020016040519081016040528092919081815260200182805461052f90611f21565b801561057c5780601f106105515761010080835404028352916020019161057c565b820191906000526020600020905b81548152906001019060200180831161055f57829003601f168201915b5050505050908060030154908060040160009054906101000a900460ff16908060040160019054906101000a900460ff16908060050154908060060154908060070160009054906101000a900473ffffffffffffffffffffffffffffffffffffffff16905089565b60007fb3df4ba8000000000000000000000000000000000000000000000000000000007bffffffffffffffffffffffffffffffffffffffffffffffffffffffff1916827bffffffffffffffffffffffffffffffffffffffffffffffffffffffff191614806106af57507f01ffc9a7000000000000000000000000000000000000000000000000000000007bffffffffffffffffffffffffffffffffffffffffffffffffffffffff1916827bffffffffffffffffffffffffffffffffffffffffffffffffffffffff1916145b9050919050565b6001600082815260200190815260200160002060030154421161070e576040517f08c379a000000000000000000000000000000000000000000000000000000000815260040161070590611fc4565b60405180910390fd5b61071733610f9a565b610756576040517f08c379a000000000000000000000000000000000000000000000000000000000815260040161074d90612030565b60405180910390fd5b600115156001600083815260200190815260200160002060040160009054906101000a900460ff161515146107c0576040517f08c379a00000000000000000000000000000000000000000000000000000000081526004016107b79061209c565b60405180910390fd5b60006001600083815260200190815260200160002060040160006101000a81548160ff02191690831515021790555060016000828152602001908152602001600020600601546001600083815260200190815260200160002060050154111561094b57600180600083815260200190815260200160002060040160016101000a81548160ff02191690831515021790555060006001600083815260200190815260200160002060000160009054906101000a900473ffffffffffffffffffffffffffffffffffffffff1673ffffffffffffffffffffffffffffffffffffffff1660016000848152602001908152602001600020600101546040516108c3906120ed565b60006040518083038185875af1925050503d8060008114610900576040519150601f19603f3d011682016040523d82523d6000602084013e610905565b606091505b5050905080610949576040517f08c379a00000000000000000000000000000000000000000000000000000000081526004016109409061214e565b60405180910390fd5b505b600160008281526020019081526020016000206001015460086000828254610973919061219d565b925050819055506001600082815260200190815260200160002060040160019054906101000a900460ff161515817faffed5d901d9fbe9106721fa52653ede403c09699f9f810f6d378acc51fb50fa60405160405180910390a350565b60056020528160005260406000206020528060005260406000206000915091509054906101000a900460ff1681565b6060600084905060008484610a14919061219d565b67ffffffffffffffff811115610a2d57610a2c611be4565b5b6040519080825280601f01601f191660200182016040528015610a5f5781602001600182028036833780820191505090505b50905060008590505b84811015610ae857828181518110610a8357610a826121d1565b5b602001015160f81c60f81b828783610a9b919061219d565b81518110610aac57610aab6121d1565b5b60200101907effffffffffffffffffffffffffffffffffffffffffffffffffffffffffffff1916908160001a9053508080600101915050610a68565b5080925050509392505050565b60085481565b6000610258821015610b42576040517f08c379a0000000000000000000000000000000000000000000000000000000008152600401610b3990612272565b60405180910390fd5b610b4b33610f9a565b610b8a576040517f08c379a0000000000000000000000000000000000000000000000000000000008152600401610b81906122de565b60405180910390fd5b6040518061012001604052808673ffffffffffffffffffffffffffffffffffffffff1681526020018581526020018481526020018342610bca91906122fe565b815260200160011515815260200160001515815260200160008152602001600081526020013373ffffffffffffffffffffffffffffffffffffffff1681525060016000600654815260200190815260200160002060008201518160000160006101000a81548173ffffffffffffffffffffffffffffffffffffffff021916908373ffffffffffffffffffffffffffffffffffffffff160217905550602082015181600101556040820151816002019081610c8491906124de565b506060820151816003015560808201518160040160006101000a81548160ff02191690831515021790555060a08201518160040160016101000a81548160ff02191690831515021790555060c0820151816005015560e082015181600601556101008201518160070160006101000a81548173ffffffffffffffffffffffffffffffffffffffff021916908373ffffffffffffffffffffffffffffffffffffffff16021790555090505060066000815480929190610d41906125b0565b91905055508360086000828254610d5891906122fe565b92505081905550838573ffffffffffffffffffffffffffffffffffffffff166001600654610d86919061219d565b7f0de8596bb26a876fd85351415cd7f8ea047829757b6ce0c3e8f6d5ae325c4b2186604051610db59190611d7e565b60405180910390a46001600654610dcc919061219d565b9050949350505050565b60038054610de390611f21565b80601f0160208091040260200160405190810160405280929190818152602001828054610e0f90611f21565b8015610e5c5780601f10610e3157610100808354040283529160200191610e5c565b820191906000526020600020905b815481529060010190602001808311610e3f57829003601f168201915b505050505081565b60001515610e7133610f9a565b151514610eb3576040517f08c379a0000000000000000000000000000000000000000000000000000000008152600401610eaa90612644565b60405180910390fd5b6000610eca610ec13361165f565b600260226109ff565b905060008054906101000a900473ffffffffffffffffffffffffffffffffffffffff1673ffffffffffffffffffffffffffffffffffffffff16630e98060233836040518363ffffffff1660e01b8152600401610f27929190612664565b6020604051808303816000875af1158015610f46573d6000803e3d6000fd5b505050506040513d601f19601f82011682018060405250810190610f6a91906126a9565b5050565b60065481565b600260009054906101000a900473ffffffffffffffffffffffffffffffffffffffff1681565b60008060008054906101000a900473ffffffffffffffffffffffffffffffffffffffff1673ffffffffffffffffffffffffffffffffffffffff166370a08231846040518263ffffffff1660e01b8152600401610ff69190611e3e565b602060405180830381865afa158015611013573d6000803e3d6000fd5b505050506040513d601f19601f8201168201806040525081019061103791906126a9565b1115611046576001905061104b565b600090505b919050565b6007805461105d90611f21565b80601f016020809104026020016040519081016040528092919081815260200182805461108990611f21565b80156110d65780601f106110ab576101008083540402835291602001916110d6565b820191906000526020600020905b8154815290600101906020018083116110b957829003601f168201915b505050505081565b6110e733610f9a565b611126576040517f08c379a000000000000000000000000000000000000000000000000000000000815260040161111d90612748565b60405180910390fd5b60001515600460003373ffffffffffffffffffffffffffffffffffffffff1673ffffffffffffffffffffffffffffffffffffffff168152602001908152602001600020600084815260200190815260200160002060009054906101000a900460ff1615151480156111f8575060001515600560003373ffffffffffffffffffffffffffffffffffffffff1673ffffffffffffffffffffffffffffffffffffffff168152602001908152602001600020600084815260200190815260200160002060009054906101000a900460ff161515145b611237576040517f08c379a000000000000000000000000000000000000000000000000000000000815260040161122e906127b4565b60405180910390fd5b600115156001600084815260200190815260200160002060040160009054906101000a900460ff161515146112a1576040517f08c379a000000000000000000000000000000000000000000000000000000000815260040161129890612846565b60405180910390fd5b60004260016000858152602001908152602001600020600301546112c5919061219d565b11611305576040517f08c379a00000000000000000000000000000000000000000000000000000000081526004016112fc906128b2565b60405180910390fd5b80156113a557600160008381526020019081526020016000206005016000815480929190611332906125b0565b91905055506001600460003373ffffffffffffffffffffffffffffffffffffffff1673ffffffffffffffffffffffffffffffffffffffff168152602001908152602001600020600084815260200190815260200160002060006101000a81548160ff02191690831515021790555061143b565b6001600083815260200190815260200160002060060160008154809291906113cc906125b0565b91905055506001600560003373ffffffffffffffffffffffffffffffffffffffff1673ffffffffffffffffffffffffffffffffffffffff168152602001908152602001600020600084815260200190815260200160002060006101000a81548160ff0219169083151502179055505b3373ffffffffffffffffffffffffffffffffffffffff16811515837f86abfce99b7dd908bec0169288797f85049ec73cbe046ed9de818fab3a497ae060405160405180910390a45050565b6000151561149382610f9a565b1515146114d5576040517f08c379a00000000000000000000000000000000000000000000000000000000081526004016114cc90612644565b60405180910390fd5b600115156114e233610f9a565b151514611524576040517f08c379a000000000000000000000000000000000000000000000000000000000815260040161151b90612944565b60405180910390fd5b600061153b6115328361165f565b600260226109ff565b905060008054906101000a900473ffffffffffffffffffffffffffffffffffffffff1673ffffffffffffffffffffffffffffffffffffffff16630e98060283836040518363ffffffff1660e01b8152600401611598929190612664565b6020604051808303816000875af11580156115b7573d6000803e3d6000fd5b505050506040513d601f19601f820116820180604052508101906115db91906126a9565b505050565b61025881565b600960009054906101000a900473ffffffffffffffffffffffffffffffffffffffff1681565b60046020528160005260406000206020528060005260406000206000915091509054906101000a900460ff1681565b60008054906101000a900473ffffffffffffffffffffffffffffffffffffffff1681565b60606116858273ffffffffffffffffffffffffffffffffffffffff16601460ff1661168c565b9050919050565b60606000600283600261169f9190612964565b6116a991906122fe565b67ffffffffffffffff8111156116c2576116c1611be4565b5b6040519080825280601f01601f1916602001820160405280156116f45781602001600182028036833780820191505090505b5090507f30000000000000000000000000000000000000000000000000000000000000008160008151811061172c5761172b6121d1565b5b60200101907effffffffffffffffffffffffffffffffffffffffffffffffffffffffffffff1916908160001a9053507f7800000000000000000000000000000000000000000000000000000000000000816001815181106117905761178f6121d1565b5b60200101907effffffffffffffffffffffffffffffffffffffffffffffffffffffffffffff1916908160001a905350600060018460026117d09190612964565b6117da91906122fe565b90505b600181111561187a577f3031323334353637383961626364656600000000000000000000000000000000600f86166010811061181c5761181b6121d1565b5b1a60f81b828281518110611833576118326121d1565b5b60200101907effffffffffffffffffffffffffffffffffffffffffffffffffffffffffffff1916908160001a905350600485901c945080611873906129a6565b90506117dd565b50600084146118be576040517f08c379a00000000000000000000000000000000000000000000000000000000081526004016118b590612a1b565b60405180910390fd5b8091505092915050565b6000604051905090565b600080fd5b600080fd5b6000819050919050565b6118ef816118dc565b81146118fa57600080fd5b50565b60008135905061190c816118e6565b92915050565b600060208284031215611928576119276118d2565b5b6000611936848285016118fd565b91505092915050565b600073ffffffffffffffffffffffffffffffffffffffff82169050919050565b600061196a8261193f565b9050919050565b61197a8161195f565b82525050565b611989816118dc565b82525050565b600081519050919050565b600082825260208201905092915050565b60005b838110156119c95780820151818401526020810190506119ae565b60008484015250505050565b6000601f19601f8301169050919050565b60006119f18261198f565b6119fb818561199a565b9350611a0b8185602086016119ab565b611a14816119d5565b840191505092915050565b60008115159050919050565b611a3481611a1f565b82525050565b600061012082019050611a50600083018c611971565b611a5d602083018b611980565b8181036040830152611a6f818a6119e6565b9050611a7e6060830189611980565b611a8b6080830188611a2b565b611a9860a0830187611a2b565b611aa560c0830186611980565b611ab260e0830185611980565b611ac0610100830184611971565b9a9950505050505050505050565b60007fffffffff0000000000000000000000000000000000000000000000000000000082169050919050565b611b0381611ace565b8114611b0e57600080fd5b50565b600081359050611b2081611afa565b92915050565b600060208284031215611b3c57611b3b6118d2565b5b6000611b4a84828501611b11565b91505092915050565b6000602082019050611b686000830184611a2b565b92915050565b611b778161195f565b8114611b8257600080fd5b50565b600081359050611b9481611b6e565b92915050565b60008060408385031215611bb157611bb06118d2565b5b6000611bbf85828601611b85565b9250506020611bd0858286016118fd565b9150509250929050565b600080fd5b600080fd5b7f4e487b7100000000000000000000000000000000000000000000000000000000600052604160045260246000fd5b611c1c826119d5565b810181811067ffffffffffffffff82111715611c3b57611c3a611be4565b5b80604052505050565b6000611c4e6118c8565b9050611c5a8282611c13565b919050565b600067ffffffffffffffff821115611c7a57611c79611be4565b5b611c83826119d5565b9050602081019050919050565b82818337600083830152505050565b6000611cb2611cad84611c5f565b611c44565b905082815260208101848484011115611cce57611ccd611bdf565b5b611cd9848285611c90565b509392505050565b600082601f830112611cf657611cf5611bda565b5b8135611d06848260208601611c9f565b91505092915050565b600080600060608486031215611d2857611d276118d2565b5b600084013567ffffffffffffffff811115611d4657611d456118d7565b5b611d5286828701611ce1565b9350506020611d63868287016118fd565b9250506040611d74868287016118fd565b9150509250925092565b60006020820190508181036000830152611d9881846119e6565b905092915050565b6000602082019050611db56000830184611980565b92915050565b60008060008060808587031215611dd557611dd46118d2565b5b6000611de387828801611b85565b9450506020611df4878288016118fd565b935050604085013567ffffffffffffffff811115611e1557611e146118d7565b5b611e2187828801611ce1565b9250506060611e32878288016118fd565b91505092959194509250565b6000602082019050611e536000830184611971565b92915050565b600060208284031215611e6f57611e6e6118d2565b5b6000611e7d84828501611b85565b91505092915050565b611e8f81611a1f565b8114611e9a57600080fd5b50565b600081359050611eac81611e86565b92915050565b60008060408385031215611ec957611ec86118d2565b5b6000611ed7858286016118fd565b9250506020611ee885828601611e9d565b9150509250929050565b7f4e487b7100000000000000000000000000000000000000000000000000000000600052602260045260246000fd5b60006002820490506001821680611f3957607f821691505b602082108103611f4c57611f4b611ef2565b5b50919050565b7f54686520766f74696e6720646561646c696e6520686173206e6f74207061737360008201527f6564207965742e00000000000000000000000000000000000000000000000000602082015250565b6000611fae60278361199a565b9150611fb982611f52565b604082019050919050565b60006020820190508181036000830152611fdd81611fa1565b9050919050565b7f6f6e6c79206d656d626572732063616e20636c6f73652070726f706f73616c73600082015250565b600061201a60208361199a565b915061202582611fe4565b602082019050919050565b600060208201905081810360008301526120498161200d565b9050919050565b7f5468652070726f706f73616c20697320616c726561647920636c6f7365640000600082015250565b6000612086601e8361199a565b915061209182612050565b602082019050919050565b600060208201905081810360008301526120b581612079565b9050919050565b600081905092915050565b50565b60006120d76000836120bc565b91506120e2826120c7565b600082019050919050565b60006120f8826120ca565b9150819050919050565b7f5061796d656e74206661696c65642e0000000000000000000000000000000000600082015250565b6000612138600f8361199a565b915061214382612102565b602082019050919050565b600060208201905081810360008301526121678161212b565b9050919050565b7f4e487b7100000000000000000000000000000000000000000000000000000000600052601160045260246000fd5b60006121a8826118dc565b91506121b3836118dc565b92508282039050818111156121cb576121ca61216e565b5b92915050565b7f4e487b7100000000000000000000000000000000000000000000000000000000600052603260045260246000fd5b7f546865206465626174696e6720706572696f64206d757374206265206772656160008201527f746572207468616e20746865206d696e696d756d2e0000000000000000000000602082015250565b600061225c60358361199a565b915061226782612200565b604082019050919050565b6000602082019050818103600083015261228b8161224f565b9050919050565b7f4f6e6c79206d656d626572732063616e206f70656e2070726f706f73616c732e600082015250565b60006122c860208361199a565b91506122d382612292565b602082019050919050565b600060208201905081810360008301526122f7816122bb565b9050919050565b6000612309826118dc565b9150612314836118dc565b925082820190508082111561232c5761232b61216e565b5b92915050565b60008190508160005260206000209050919050565b60006020601f8301049050919050565b600082821b905092915050565b6000600883026123947fffffffffffffffffffffffffffffffffffffffffffffffffffffffffffffffff82612357565b61239e8683612357565b95508019841693508086168417925050509392505050565b6000819050919050565b60006123db6123d66123d1846118dc565b6123b6565b6118dc565b9050919050565b6000819050919050565b6123f5836123c0565b612409612401826123e2565b848454612364565b825550505050565b600090565b61241e612411565b6124298184846123ec565b505050565b5b8181101561244d57612442600082612416565b60018101905061242f565b5050565b601f8211156124925761246381612332565b61246c84612347565b8101602085101561247b578190505b61248f61248785612347565b83018261242e565b50505b505050565b600082821c905092915050565b60006124b560001984600802612497565b1980831691505092915050565b60006124ce83836124a4565b9150826002028217905092915050565b6124e78261198f565b67ffffffffffffffff811115612500576124ff611be4565b5b61250a8254611f21565b612515828285612451565b600060209050601f8311600181146125485760008415612536578287015190505b61254085826124c2565b8655506125a8565b601f19841661255686612332565b60005b8281101561257e57848901518255600182019150602085019450602081019050612559565b8683101561259b5784890151612597601f8916826124a4565b8355505b6001600288020188555050505b505050505050565b60006125bb826118dc565b91507fffffffffffffffffffffffffffffffffffffffffffffffffffffffffffffffff82036125ed576125ec61216e565b5b600182019050919050565b7f4d656d62657220697320616c726561647920696e207468652044414f2e000000600082015250565b600061262e601d8361199a565b9150612639826125f8565b602082019050919050565b6000602082019050818103600083015261265d81612621565b9050919050565b60006040820190506126796000830185611971565b818103602083015261268b81846119e6565b90509392505050565b6000815190506126a3816118e6565b92915050565b6000602082840312156126bf576126be6118d2565b5b60006126cd84828501612694565b91505092915050565b7f6f6e6c79206d656d626572732063616e20766f7465206f6e2070726f706f736160008201527f6c732e0000000000000000000000000000000000000000000000000000000000602082015250565b600061273260238361199a565b915061273d826126d6565b604082019050919050565b6000602082019050818103600083015261276181612725565b9050919050565b7f5468652073656e6465722068617320616c726561647920766f7465642e000000600082015250565b600061279e601d8361199a565b91506127a982612768565b602082019050919050565b600060208201905081810360008301526127cd81612791565b9050919050565b7f5468652070726f706f73616c206973206e6f74206f70656e20746f20766f746960008201527f6e67000000000000000000000000000000000000000000000000000000000000602082015250565b600061283060228361199a565b915061283b826127d4565b604082019050919050565b6000602082019050818103600083015261285f81612823565b9050919050565b7f54686520766f74696e6720646561646c696e6520686173207061737365642e00600082015250565b600061289c601f8361199a565b91506128a782612866565b602082019050919050565b600060208201905081810360008301526128cb8161288f565b9050919050565b7f4f6e6c792044414f206d656d626572732063616e20616464206e6577206d656d60008201527f626572732e000000000000000000000000000000000000000000000000000000602082015250565b600061292e60258361199a565b9150612939826128d2565b604082019050919050565b6000602082019050818103600083015261295d81612921565b9050919050565b600061296f826118dc565b915061297a836118dc565b9250828202612988816118dc565b9150828204841483151761299f5761299e61216e565b5b5092915050565b60006129b1826118dc565b9150600082036129c4576129c361216e565b5b600182039050919050565b7f537472696e67733a20686578206c656e67746820696e73756666696369656e74600082015250565b6000612a0560208361199a565b9150612a10826129cf565b602082019050919050565b60006020820190508181036000830152612a34816129f8565b905091905056fea26469706673582212208f9bb4fb521f61b1eca3bdf0b5e16d12ad68daa109f8ed9b5a960fbf4fb1067a64736f6c63430008160033608060405260405180606001604052806031815260200162002eca60319139600890816200002e91906200034f565b503480156200003c57600080fd5b506040518060400160405280600881526020017f52657074696c65730000000000000000000000000000000000000000000000008152506040518060400160405280600381526020017f52455000000000000000000000000000000000000000000000000000000000008152508160009081620000ba91906200034f565b508060019081620000cc91906200034f565b50505062000436565b600081519050919050565b7f4e487b7100000000000000000000000000000000000000000000000000000000600052604160045260246000fd5b7f4e487b7100000000000000000000000000000000000000000000000000000000600052602260045260246000fd5b600060028204905060018216806200015757607f821691505b6020821081036200016d576200016c6200010f565b5b50919050565b60008190508160005260206000209050919050565b60006020601f8301049050919050565b600082821b905092915050565b600060088302620001d77fffffffffffffffffffffffffffffffffffffffffffffffffffffffffffffffff8262000198565b620001e3868362000198565b95508019841693508086168417925050509392505050565b6000819050919050565b6000819050919050565b6000620002306200022a6200022484620001fb565b62000205565b620001fb565b9050919050565b6000819050919050565b6200024c836200020f565b620002646200025b8262000237565b848454620001a5565b825550505050565b600090565b6200027b6200026c565b6200028881848462000241565b505050565b5b81811015620002b057620002a460008262000271565b6001810190506200028e565b5050565b601f821115620002ff57620002c98162000173565b620002d48462000188565b81016020851015620002e4578190505b620002fc620002f38562000188565b8301826200028d565b50505b505050565b600082821c905092915050565b6000620003246000198460080262000304565b1980831691505092915050565b60006200033f838362000311565b9150826002028217905092915050565b6200035a82620000d5565b67ffffffffffffffff811115620003765762000375620000e0565b5b6200038282546200013e565b6200038f828285620002b4565b600060209050601f831160018114620003c75760008415620003b2578287015190505b620003be858262000331565b8655506200042e565b601f198416620003d78662000173565b60005b828110156200040157848901518255600182019150602085019450602081019050620003da565b868310156200042157848901516200041d601f89168262000311565b8355505b6001600288020188555050505b505050505050565b612a8480620004466000396000f3fe608060405234801561001057600080fd5b50600436106101005760003560e01c80636352211e11610097578063a22cb46511610066578063a22cb465146102d3578063b88d4fde146102ef578063c87b56dd1461030b578063e985e9c51461033b57610100565b80636352211e1461022557806370a0823114610255578063947b59ae1461028557806395d89b41146102b557610100565b8063095ea7b3116100d3578063095ea7b3146101a15780630e980602146101bd57806323b872dd146101ed57806342842e0e1461020957610100565b806301ffc9a71461010557806306661abd1461013557806306fdde0314610153578063081812fc14610171575b600080fd5b61011f600480360381019061011a9190611790565b61036b565b60405161012c91906117d8565b60405180910390f35b61013d61050d565b60405161014a919061180c565b60405180910390f35b61015b610513565b60405161016891906118b7565b60405180910390f35b61018b60048036038101906101869190611905565b6105a5565b6040516101989190611973565b60405180910390f35b6101bb60048036038101906101b691906119ba565b6105eb565b005b6101d760048036038101906101d29190611b2f565b610702565b6040516101e4919061180c565b60405180910390f35b61020760048036038101906102029190611b8b565b6107ea565b005b610223600480360381019061021e9190611b8b565b61084a565b005b61023f600480360381019061023a9190611905565b61086a565b60405161024c9190611973565b60405180910390f35b61026f600480360381019061026a9190611bde565b6108f0565b60405161027c919061180c565b60405180910390f35b61029f600480360381019061029a9190611c0b565b6109a7565b6040516102ac919061180c565b60405180910390f35b6102bd6109ba565b6040516102ca91906118b7565b60405180910390f35b6102ed60048036038101906102e89190611c80565b610a4c565b005b61030960048036038101906103049190611d61565b610a62565b005b61032560048036038101906103209190611905565b610ac4565b60405161033291906118b7565b60405180910390f35b61035560048036038101906103509190611de4565b610b64565b60405161036291906117d8565b60405180910390f35b60007f80ac58cd000000000000000000000000000000000000000000000000000000007bffffffffffffffffffffffffffffffffffffffffffffffffffffffff1916827bffffffffffffffffffffffffffffffffffffffffffffffffffffffff1916148061043657507f5b5e139f000000000000000000000000000000000000000000000000000000007bffffffffffffffffffffffffffffffffffffffffffffffffffffffff1916827bffffffffffffffffffffffffffffffffffffffffffffffffffffffff1916145b8061049e57507f01ffc9a7000000000000000000000000000000000000000000000000000000007bffffffffffffffffffffffffffffffffffffffffffffffffffffffff1916827bffffffffffffffffffffffffffffffffffffffffffffffffffffffff1916145b8061050657507f9c854511000000000000000000000000000000000000000000000000000000007bffffffffffffffffffffffffffffffffffffffffffffffffffffffff1916827bffffffffffffffffffffffffffffffffffffffffffffffffffffffff1916145b9050919050565b60075481565b60606000805461052290611e53565b80601f016020809104026020016040519081016040528092919081815260200182805461054e90611e53565b801561059b5780601f106105705761010080835404028352916020019161059b565b820191906000526020600020905b81548152906001019060200180831161057e57829003601f168201915b5050505050905090565b60006105b082610bf8565b6004600083815260200190815260200160002060009054906101000a900473ffffffffffffffffffffffffffffffffffffffff169050919050565b60006105f68261086a565b90508073ffffffffffffffffffffffffffffffffffffffff168373ffffffffffffffffffffffffffffffffffffffff1603610666576040517f08c379a000000000000000000000000000000000000000000000000000000000815260040161065d90611ef6565b60405180910390fd5b8073ffffffffffffffffffffffffffffffffffffffff16610685610c43565b73ffffffffffffffffffffffffffffffffffffffff1614806106b457506106b3816106ae610c43565b610b64565b5b6106f3576040517f08c379a00000000000000000000000000000000000000000000000000000000081526004016106ea90611f88565b60405180910390fd5b6106fd8383610c4b565b505050565b600080600090505b6007548110156107915782805190602001206006600083815260200190815260200160002060405161073c919061204b565b604051809103902003610784576040517f08c379a000000000000000000000000000000000000000000000000000000000815260040161077b906120ae565b60405180910390fd5b808060010191505061070a565b50600060075490506107a584600754610d04565b8260066000600754815260200190815260200160002090816107c7919061227a565b50600760008154809291906107db9061237b565b91905055508091505092915050565b6107fb6107f5610c43565b82610d22565b61083a576040517f08c379a000000000000000000000000000000000000000000000000000000000815260040161083190612435565b60405180910390fd5b610845838383610db7565b505050565b61086583838360405180602001604052806000815250610a62565b505050565b600080610876836110b0565b9050600073ffffffffffffffffffffffffffffffffffffffff168173ffffffffffffffffffffffffffffffffffffffff16036108e7576040517f08c379a00000000000000000000000000000000000000000000000000000000081526004016108de906124a1565b60405180910390fd5b80915050919050565b60008073ffffffffffffffffffffffffffffffffffffffff168273ffffffffffffffffffffffffffffffffffffffff1603610960576040517f08c379a000000000000000000000000000000000000000000000000000000000815260040161095790612533565b60405180910390fd5b600360008373ffffffffffffffffffffffffffffffffffffffff1673ffffffffffffffffffffffffffffffffffffffff168152602001908152602001600020549050919050565b60006109b33383610702565b9050919050565b6060600180546109c990611e53565b80601f01602080910402602001604051908101604052809291908181526020018280546109f590611e53565b8015610a425780601f10610a1757610100808354040283529160200191610a42565b820191906000526020600020905b815481529060010190602001808311610a2557829003601f168201915b5050505050905090565b610a5e610a57610c43565b83836110ed565b5050565b610a73610a6d610c43565b83610d22565b610ab2576040517f08c379a0000000000000000000000000000000000000000000000000000000008152600401610aa990612435565b60405180910390fd5b610abe84848484611259565b50505050565b60606000600660008481526020019081526020016000208054610ae690611e53565b905011610b28576040517f08c379a0000000000000000000000000000000000000000000000000000000008152600401610b1f9061259f565b60405180910390fd5b600860066000848152602001908152602001600020604051602001610b4e92919061264d565b6040516020818303038152906040529050919050565b6000600560008473ffffffffffffffffffffffffffffffffffffffff1673ffffffffffffffffffffffffffffffffffffffff16815260200190815260200160002060008373ffffffffffffffffffffffffffffffffffffffff1673ffffffffffffffffffffffffffffffffffffffff16815260200190815260200160002060009054906101000a900460ff16905092915050565b610c01816112b5565b610c40576040517f08c379a0000000000000000000000000000000000000000000000000000000008152600401610c37906124a1565b60405180910390fd5b50565b600033905090565b816004600083815260200190815260200160002060006101000a81548173ffffffffffffffffffffffffffffffffffffffff021916908373ffffffffffffffffffffffffffffffffffffffff160217905550808273ffffffffffffffffffffffffffffffffffffffff16610cbe8361086a565b73ffffffffffffffffffffffffffffffffffffffff167f8c5be1e5ebec7d5bd14f71427d1e84f3dd0314c0f7b2291e5b200ac8c7c3b92560405160405180910390a45050565b610d1e8282604051806020016040528060008152506112f6565b5050565b600080610d2e8361086a565b90508073ffffffffffffffffffffffffffffffffffffffff168473ffffffffffffffffffffffffffffffffffffffff161480610d705750610d6f8185610b64565b5b80610dae57508373ffffffffffffffffffffffffffffffffffffffff16610d96846105a5565b73ffffffffffffffffffffffffffffffffffffffff16145b91505092915050565b8273ffffffffffffffffffffffffffffffffffffffff16610dd78261086a565b73ffffffffffffffffffffffffffffffffffffffff1614610e2d576040517f08c379a0000000000000000000000000000000000000000000000000000000008152600401610e24906126e3565b60405180910390fd5b600073ffffffffffffffffffffffffffffffffffffffff168273ffffffffffffffffffffffffffffffffffffffff1603610e9c576040517f08c379a0000000000000000000000000000000000000000000000000000000008152600401610e9390612775565b60405180910390fd5b610ea98383836001611351565b8273ffffffffffffffffffffffffffffffffffffffff16610ec98261086a565b73ffffffffffffffffffffffffffffffffffffffff1614610f1f576040517f08c379a0000000000000000000000000000000000000000000000000000000008152600401610f16906126e3565b60405180910390fd5b6004600082815260200190815260200160002060006101000a81549073ffffffffffffffffffffffffffffffffffffffff02191690556001600360008573ffffffffffffffffffffffffffffffffffffffff1673ffffffffffffffffffffffffffffffffffffffff168152602001908152602001600020600082825403925050819055506001600360008473ffffffffffffffffffffffffffffffffffffffff1673ffffffffffffffffffffffffffffffffffffffff16815260200190815260200160002060008282540192505081905550816002600083815260200190815260200160002060006101000a81548173ffffffffffffffffffffffffffffffffffffffff021916908373ffffffffffffffffffffffffffffffffffffffff160217905550808273ffffffffffffffffffffffffffffffffffffffff168473ffffffffffffffffffffffffffffffffffffffff167fddf252ad1be2c89b69c2b068fc378daa952ba7f163c4a11628f55a4df523b3ef60405160405180910390a46110ab8383836001611357565b505050565b60006002600083815260200190815260200160002060009054906101000a900473ffffffffffffffffffffffffffffffffffffffff169050919050565b8173ffffffffffffffffffffffffffffffffffffffff168373ffffffffffffffffffffffffffffffffffffffff160361115b576040517f08c379a0000000000000000000000000000000000000000000000000000000008152600401611152906127e1565b60405180910390fd5b80600560008573ffffffffffffffffffffffffffffffffffffffff1673ffffffffffffffffffffffffffffffffffffffff16815260200190815260200160002060008473ffffffffffffffffffffffffffffffffffffffff1673ffffffffffffffffffffffffffffffffffffffff16815260200190815260200160002060006101000a81548160ff0219169083151502179055508173ffffffffffffffffffffffffffffffffffffffff168373ffffffffffffffffffffffffffffffffffffffff167f17307eab39ab6107e8899845ad3d59bd9653f200f220920489ca2b5937696c318360405161124c91906117d8565b60405180910390a3505050565b611264848484610db7565b6112708484848461135d565b6112af576040517f08c379a00000000000000000000000000000000000000000000000000000000081526004016112a690612873565b60405180910390fd5b50505050565b60008073ffffffffffffffffffffffffffffffffffffffff166112d7836110b0565b73ffffffffffffffffffffffffffffffffffffffff1614159050919050565b61130083836114e4565b61130d600084848461135d565b61134c576040517f08c379a000000000000000000000000000000000000000000000000000000000815260040161134390612873565b60405180910390fd5b505050565b50505050565b50505050565b600061137e8473ffffffffffffffffffffffffffffffffffffffff16611701565b156114d7578373ffffffffffffffffffffffffffffffffffffffff1663150b7a026113a7610c43565b8786866040518563ffffffff1660e01b81526004016113c994939291906128e8565b6020604051808303816000875af192505050801561140557506040513d601f19601f820116820180604052508101906114029190612949565b60015b611487573d8060008114611435576040519150601f19603f3d011682016040523d82523d6000602084013e61143a565b606091505b50600081510361147f576040517f08c379a000000000000000000000000000000000000000000000000000000000815260040161147690612873565b60405180910390fd5b805181602001fd5b63150b7a0260e01b7bffffffffffffffffffffffffffffffffffffffffffffffffffffffff1916817bffffffffffffffffffffffffffffffffffffffffffffffffffffffff1916149150506114dc565b600190505b949350505050565b600073ffffffffffffffffffffffffffffffffffffffff168273ffffffffffffffffffffffffffffffffffffffff1603611553576040517f08c379a000000000000000000000000000000000000000000000000000000000815260040161154a906129c2565b60405180910390fd5b61155c816112b5565b1561159c576040517f08c379a000000000000000000000000000000000000000000000000000000000815260040161159390612a2e565b60405180910390fd5b6115aa600083836001611351565b6115b3816112b5565b156115f3576040517f08c379a00000000000000000000000000000000000000000000000000000000081526004016115ea90612a2e565b60405180910390fd5b6001600360008473ffffffffffffffffffffffffffffffffffffffff1673ffffffffffffffffffffffffffffffffffffffff16815260200190815260200160002060008282540192505081905550816002600083815260200190815260200160002060006101000a81548173ffffffffffffffffffffffffffffffffffffffff021916908373ffffffffffffffffffffffffffffffffffffffff160217905550808273ffffffffffffffffffffffffffffffffffffffff16600073ffffffffffffffffffffffffffffffffffffffff167fddf252ad1be2c89b69c2b068fc378daa952ba7f163c4a11628f55a4df523b3ef60405160405180910390a46116fd600083836001611357565b5050565b6000808273ffffffffffffffffffffffffffffffffffffffff163b119050919050565b6000604051905090565b600080fd5b600080fd5b60007fffffffff0000000000000000000000000000000000000000000000000000000082169050919050565b61176d81611738565b811461177857600080fd5b50565b60008135905061178a81611764565b92915050565b6000602082840312156117a6576117a561172e565b5b60006117b48482850161177b565b91505092915050565b60008115159050919050565b6117d2816117bd565b82525050565b60006020820190506117ed60008301846117c9565b92915050565b6000819050919050565b611806816117f3565b82525050565b600060208201905061182160008301846117fd565b92915050565b600081519050919050565b600082825260208201905092915050565b60005b83811015611861578082015181840152602081019050611846565b60008484015250505050565b6000601f19601f8301169050919050565b600061188982611827565b6118938185611832565b93506118a3818560208601611843565b6118ac8161186d565b840191505092915050565b600060208201905081810360008301526118d1818461187e565b905092915050565b6118e2816117f3565b81146118ed57600080fd5b50565b6000813590506118ff816118d9565b92915050565b60006020828403121561191b5761191a61172e565b5b6000611929848285016118f0565b91505092915050565b600073ffffffffffffffffffffffffffffffffffffffff82169050919050565b600061195d82611932565b9050919050565b61196d81611952565b82525050565b60006020820190506119886000830184611964565b92915050565b61199781611952565b81146119a257600080fd5b50565b6000813590506119b48161198e565b92915050565b600080604083850312156119d1576119d061172e565b5b60006119df858286016119a5565b92505060206119f0858286016118f0565b9150509250929050565b600080fd5b600080fd5b7f4e487b7100000000000000000000000000000000000000000000000000000000600052604160045260246000fd5b611a3c8261186d565b810181811067ffffffffffffffff82111715611a5b57611a5a611a04565b5b80604052505050565b6000611a6e611724565b9050611a7a8282611a33565b919050565b600067ffffffffffffffff821115611a9a57611a99611a04565b5b611aa38261186d565b9050602081019050919050565b82818337600083830152505050565b6000611ad2611acd84611a7f565b611a64565b905082815260208101848484011115611aee57611aed6119ff565b5b611af9848285611ab0565b509392505050565b600082601f830112611b1657611b156119fa565b5b8135611b26848260208601611abf565b91505092915050565b60008060408385031215611b4657611b4561172e565b5b6000611b54858286016119a5565b925050602083013567ffffffffffffffff811115611b7557611b74611733565b5b611b8185828601611b01565b9150509250929050565b600080600060608486031215611ba457611ba361172e565b5b6000611bb2868287016119a5565b9350506020611bc3868287016119a5565b9250506040611bd4868287016118f0565b9150509250925092565b600060208284031215611bf457611bf361172e565b5b6000611c02848285016119a5565b91505092915050565b600060208284031215611c2157611c2061172e565b5b600082013567ffffffffffffffff811115611c3f57611c3e611733565b5b611c4b84828501611b01565b91505092915050565b611c5d816117bd565b8114611c6857600080fd5b50565b600081359050611c7a81611c54565b92915050565b60008060408385031215611c9757611c9661172e565b5b6000611ca5858286016119a5565b9250506020611cb685828601611c6b565b9150509250929050565b600067ffffffffffffffff821115611cdb57611cda611a04565b5b611ce48261186d565b9050602081019050919050565b6000611d04611cff84611cc0565b611a64565b905082815260208101848484011115611d2057611d1f6119ff565b5b611d2b848285611ab0565b509392505050565b600082601f830112611d4857611d476119fa565b5b8135611d58848260208601611cf1565b91505092915050565b60008060008060808587031215611d7b57611d7a61172e565b5b6000611d89878288016119a5565b9450506020611d9a878288016119a5565b9350506040611dab878288016118f0565b925050606085013567ffffffffffffffff811115611dcc57611dcb611733565b5b611dd887828801611d33565b91505092959194509250565b60008060408385031215611dfb57611dfa61172e565b5b6000611e09858286016119a5565b9250506020611e1a858286016119a5565b9150509250929050565b7f4e487b7100000000000000000000000000000000000000000000000000000000600052602260045260246000fd5b60006002820490506001821680611e6b57607f821691505b602082108103611e7e57611e7d611e24565b5b50919050565b7f4552433732313a20617070726f76616c20746f2063757272656e74206f776e6560008201527f7200000000000000000000000000000000000000000000000000000000000000602082015250565b6000611ee0602183611832565b9150611eeb82611e84565b604082019050919050565b60006020820190508181036000830152611f0f81611ed3565b9050919050565b7f4552433732313a20617070726f76652063616c6c6572206973206e6f7420746f60008201527f6b656e206f776e6572206f7220617070726f76656420666f7220616c6c000000602082015250565b6000611f72603d83611832565b9150611f7d82611f16565b604082019050919050565b60006020820190508181036000830152611fa181611f65565b9050919050565b600081905092915050565b60008190508160005260206000209050919050565b60008154611fd581611e53565b611fdf8186611fa8565b94506001821660008114611ffa576001811461200f57612042565b60ff1983168652811515820286019350612042565b61201885611fb3565b60005b8381101561203a5781548189015260018201915060208101905061201b565b838801955050505b50505092915050565b60006120578284611fc8565b915081905092915050565b7f4475706c69636174652055524900000000000000000000000000000000000000600082015250565b6000612098600d83611832565b91506120a382612062565b602082019050919050565b600060208201905081810360008301526120c78161208b565b9050919050565b60008190508160005260206000209050919050565b60006020601f8301049050919050565b600082821b905092915050565b6000600883026121307fffffffffffffffffffffffffffffffffffffffffffffffffffffffffffffffff826120f3565b61213a86836120f3565b95508019841693508086168417925050509392505050565b6000819050919050565b600061217761217261216d846117f3565b612152565b6117f3565b9050919050565b6000819050919050565b6121918361215c565b6121a561219d8261217e565b848454612100565b825550505050565b600090565b6121ba6121ad565b6121c5818484612188565b505050565b5b818110156121e9576121de6000826121b2565b6001810190506121cb565b5050565b601f82111561222e576121ff816120ce565b612208846120e3565b81016020851015612217578190505b61222b612223856120e3565b8301826121ca565b50505b505050565b600082821c905092915050565b600061225160001984600802612233565b1980831691505092915050565b600061226a8383612240565b9150826002028217905092915050565b61228382611827565b67ffffffffffffffff81111561229c5761229b611a04565b5b6122a68254611e53565b6122b18282856121ed565b600060209050601f8311600181146122e457600084156122d2578287015190505b6122dc858261225e565b865550612344565b601f1984166122f2866120ce565b60005b8281101561231a578489015182556001820191506020850194506020810190506122f5565b868310156123375784890151612333601f891682612240565b8355505b6001600288020188555050505b505050505050565b7f4e487b7100000000000000000000000000000000000000000000000000000000600052601160045260246000fd5b6000612386826117f3565b91507fffffffffffffffffffffffffffffffffffffffffffffffffffffffffffffffff82036123b8576123b761234c565b5b600182019050919050565b7f4552433732313a2063616c6c6572206973206e6f7420746f6b656e206f776e6560008201527f72206f7220617070726f76656400000000000000000000000000000000000000602082015250565b600061241f602d83611832565b915061242a826123c3565b604082019050919050565b6000602082019050818103600083015261244e81612412565b9050919050565b7f4552433732313a20696e76616c696420746f6b656e2049440000000000000000600082015250565b600061248b601883611832565b915061249682612455565b602082019050919050565b600060208201905081810360008301526124ba8161247e565b9050919050565b7f4552433732313a2061646472657373207a65726f206973206e6f74206120766160008201527f6c6964206f776e65720000000000000000000000000000000000000000000000602082015250565b600061251d602983611832565b9150612528826124c1565b604082019050919050565b6000602082019050818103600083015261254c81612510565b9050919050565b7f496e76616c696420746f6b656e20494400000000000000000000000000000000600082015250565b6000612589601083611832565b915061259482612553565b602082019050919050565b600060208201905081810360008301526125b88161257c565b9050919050565b600081905092915050565b600081546125d781611e53565b6125e181866125bf565b945060018216600081146125fc576001811461261157612644565b60ff1983168652811515820286019350612644565b61261a856120ce565b60005b8381101561263c5781548189015260018201915060208101905061261d565b838801955050505b50505092915050565b600061265982856125ca565b915061266582846125ca565b91508190509392505050565b7f4552433732313a207472616e736665722066726f6d20696e636f72726563742060008201527f6f776e6572000000000000000000000000000000000000000000000000000000602082015250565b60006126cd602583611832565b91506126d882612671565b604082019050919050565b600060208201905081810360008301526126fc816126c0565b9050919050565b7f4552433732313a207472616e7366657220746f20746865207a65726f2061646460008201527f7265737300000000000000000000000000000000000000000000000000000000602082015250565b600061275f602483611832565b915061276a82612703565b604082019050919050565b6000602082019050818103600083015261278e81612752565b9050919050565b7f4552433732313a20617070726f766520746f2063616c6c657200000000000000600082015250565b60006127cb601983611832565b91506127d682612795565b602082019050919050565b600060208201905081810360008301526127fa816127be565b9050919050565b7f4552433732313a207472616e7366657220746f206e6f6e20455243373231526560008201527f63656976657220696d706c656d656e7465720000000000000000000000000000602082015250565b600061285d603283611832565b915061286882612801565b604082019050919050565b6000602082019050818103600083015261288c81612850565b9050919050565b600081519050919050565b600082825260208201905092915050565b60006128ba82612893565b6128c4818561289e565b93506128d4818560208601611843565b6128dd8161186d565b840191505092915050565b60006080820190506128fd6000830187611964565b61290a6020830186611964565b61291760408301856117fd565b818103606083015261292981846128af565b905095945050505050565b60008151905061294381611764565b92915050565b60006020828403121561295f5761295e61172e565b5b600061296d84828501612934565b91505092915050565b7f4552433732313a206d696e7420746f20746865207a65726f2061646472657373600082015250565b60006129ac602083611832565b91506129b782612976565b602082019050919050565b600060208201905081810360008301526129db8161299f565b9050919050565b7f4552433732313a20746f6b656e20616c7265616479206d696e74656400000000600082015250565b6000612a18601c83611832565b9150612a23826129e2565b602082019050919050565b60006020820190508181036000830152612a4781612a0b565b905091905056fea2646970667358221220b053494c8f52022a35b2034fa41fd0dd62c7d925879f12131b46d69b82eaaff164736f6c6343000816003368747470733a2f2f616e64726f6d6564612e63732e76697267696e69612e6564752f6363632f697066732f66696c65732f",
			"opcodes": "PUSH1 0x80 PUSH1 0x40 MSTORE PUSH1 0x0 DUP1 SLOAD SWAP1 PUSH2 0x100 EXP SWAP1 DIV PUSH20 0xFFFFFFFFFFFFFFFFFFFFFFFFFFFFFFFFFFFFFFFF AND PUSH1 0x2 PUSH1 0x0 PUSH2 0x100 EXP DUP2 SLOAD DUP2 PUSH20 0xFFFFFFFFFFFFFFFFFFFFFFFFFFFFFFFFFFFFFFFF MUL NOT AND SWAP1 DUP4 PUSH20 0xFFFFFFFFFFFFFFFFFFFFFFFFFFFFFFFFFFFFFFFF AND MUL OR SWAP1 SSTORE POP CALLVALUE DUP1 ISZERO PUSH3 0x72 JUMPI PUSH1 0x0 DUP1 REVERT JUMPDEST POP CALLER PUSH1 0x9 PUSH1 0x0 PUSH2 0x100 EXP DUP2 SLOAD DUP2 PUSH20 0xFFFFFFFFFFFFFFFFFFFFFFFFFFFFFFFFFFFFFFFF MUL NOT AND SWAP1 DUP4 PUSH20 0xFFFFFFFFFFFFFFFFFFFFFFFFFFFFFFFFFFFFFFFF AND MUL OR SWAP1 SSTORE POP PUSH1 0x40 MLOAD PUSH3 0xC2 SWAP1 PUSH3 0x65B JUMP JUMPDEST PUSH1 0x40 MLOAD DUP1 SWAP2 SUB SWAP1 PUSH1 0x0 CREATE DUP1 ISZERO DUP1 ISZERO PUSH3 0xDF JUMPI RETURNDATASIZE PUSH1 0x0 DUP1 RETURNDATACOPY RETURNDATASIZE PUSH1 0x0 REVERT JUMPDEST POP PUSH1 0x0 DUP1 PUSH2 0x100 EXP DUP2 SLOAD DUP2 PUSH20 0xFFFFFFFFFFFFFFFFFFFFFFFFFFFFFFFFFFFFFFFF MUL NOT AND SWAP1 DUP4 PUSH20 0xFFFFFFFFFFFFFFFFFFFFFFFFFFFFFFFFFFFFFFFF AND MUL OR SWAP1 SSTORE POP PUSH1 0x40 MLOAD DUP1 PUSH1 0x40 ADD PUSH1 0x40 MSTORE DUP1 PUSH1 0xE DUP2 MSTORE PUSH1 0x20 ADD PUSH32 0x49732053616E7461207265616C3F000000000000000000000000000000000000 DUP2 MSTORE POP PUSH1 0x3 SWAP1 DUP2 PUSH3 0x165 SWAP2 SWAP1 PUSH3 0x8E3 JUMP JUMPDEST POP PUSH1 0x40 MLOAD DUP1 PUSH1 0x40 ADD PUSH1 0x40 MSTORE DUP1 PUSH1 0x1B DUP2 MSTORE PUSH1 0x20 ADD PUSH32 0x42616B6520736F6D65206368726973746D617320636F6F6B6965730000000000 DUP2 MSTORE POP PUSH1 0x7 SWAP1 DUP2 PUSH3 0x1AC SWAP2 SWAP1 PUSH3 0x8E3 JUMP JUMPDEST POP PUSH1 0x0 PUSH3 0x1F6 PUSH3 0x1E6 PUSH1 0x9 PUSH1 0x0 SWAP1 SLOAD SWAP1 PUSH2 0x100 EXP SWAP1 DIV PUSH20 0xFFFFFFFFFFFFFFFFFFFFFFFFFFFFFFFFFFFFFFFF AND PUSH3 0x2C5 PUSH1 0x20 SHL PUSH1 0x20 SHR JUMP JUMPDEST PUSH1 0x2 PUSH1 0x22 PUSH3 0x2FA PUSH1 0x20 SHL PUSH1 0x20 SHR JUMP JUMPDEST SWAP1 POP PUSH1 0x0 DUP1 SLOAD SWAP1 PUSH2 0x100 EXP SWAP1 DIV PUSH20 0xFFFFFFFFFFFFFFFFFFFFFFFFFFFFFFFFFFFFFFFF AND PUSH20 0xFFFFFFFFFFFFFFFFFFFFFFFFFFFFFFFFFFFFFFFF AND PUSH4 0xE980602 PUSH1 0x9 PUSH1 0x0 SWAP1 SLOAD SWAP1 PUSH2 0x100 EXP SWAP1 DIV PUSH20 0xFFFFFFFFFFFFFFFFFFFFFFFFFFFFFFFFFFFFFFFF AND DUP4 PUSH1 0x40 MLOAD DUP4 PUSH4 0xFFFFFFFF AND PUSH1 0xE0 SHL DUP2 MSTORE PUSH1 0x4 ADD PUSH3 0x277 SWAP3 SWAP2 SWAP1 PUSH3 0xA9E JUMP JUMPDEST PUSH1 0x20 PUSH1 0x40 MLOAD DUP1 DUP4 SUB DUP2 PUSH1 0x0 DUP8 GAS CALL ISZERO DUP1 ISZERO PUSH3 0x297 JUMPI RETURNDATASIZE PUSH1 0x0 DUP1 RETURNDATACOPY RETURNDATASIZE PUSH1 0x0 REVERT JUMPDEST POP POP POP POP PUSH1 0x40 MLOAD RETURNDATASIZE PUSH1 0x1F NOT PUSH1 0x1F DUP3 ADD AND DUP3 ADD DUP1 PUSH1 0x40 MSTORE POP DUP2 ADD SWAP1 PUSH3 0x2BD SWAP2 SWAP1 PUSH3 0xB08 JUMP JUMPDEST POP POP PUSH3 0xCF9 JUMP JUMPDEST PUSH1 0x60 PUSH3 0x2F3 DUP3 PUSH20 0xFFFFFFFFFFFFFFFFFFFFFFFFFFFFFFFFFFFFFFFF AND PUSH1 0x14 PUSH1 0xFF AND PUSH3 0x400 PUSH1 0x20 SHL PUSH1 0x20 SHR JUMP JUMPDEST SWAP1 POP SWAP2 SWAP1 POP JUMP JUMPDEST PUSH1 0x60 PUSH1 0x0 DUP5 SWAP1 POP PUSH1 0x0 DUP5 DUP5 PUSH3 0x311 SWAP2 SWAP1 PUSH3 0xB69 JUMP JUMPDEST PUSH8 0xFFFFFFFFFFFFFFFF DUP2 GT ISZERO PUSH3 0x32D JUMPI PUSH3 0x32C PUSH3 0x674 JUMP JUMPDEST JUMPDEST PUSH1 0x40 MLOAD SWAP1 DUP1 DUP3 MSTORE DUP1 PUSH1 0x1F ADD PUSH1 0x1F NOT AND PUSH1 0x20 ADD DUP3 ADD PUSH1 0x40 MSTORE DUP1 ISZERO PUSH3 0x360 JUMPI DUP2 PUSH1 0x20 ADD PUSH1 0x1 DUP3 MUL DUP1 CALLDATASIZE DUP4 CALLDATACOPY DUP1 DUP3 ADD SWAP2 POP POP SWAP1 POP JUMPDEST POP SWAP1 POP PUSH1 0x0 DUP6 SWAP1 POP JUMPDEST DUP5 DUP2 LT ISZERO PUSH3 0x3F3 JUMPI DUP3 DUP2 DUP2 MLOAD DUP2 LT PUSH3 0x388 JUMPI PUSH3 0x387 PUSH3 0xBA4 JUMP JUMPDEST JUMPDEST PUSH1 0x20 ADD ADD MLOAD PUSH1 0xF8 SHR PUSH1 0xF8 SHL DUP3 DUP8 DUP4 PUSH3 0x3A2 SWAP2 SWAP1 PUSH3 0xB69 JUMP JUMPDEST DUP2 MLOAD DUP2 LT PUSH3 0x3B6 JUMPI PUSH3 0x3B5 PUSH3 0xBA4 JUMP JUMPDEST JUMPDEST PUSH1 0x20 ADD ADD SWAP1 PUSH31 0xFFFFFFFFFFFFFFFFFFFFFFFFFFFFFFFFFFFFFFFFFFFFFFFFFFFFFFFFFFFFFF NOT AND SWAP1 DUP2 PUSH1 0x0 BYTE SWAP1 MSTORE8 POP DUP1 DUP1 PUSH1 0x1 ADD SWAP2 POP POP PUSH3 0x369 JUMP JUMPDEST POP DUP1 SWAP3 POP POP POP SWAP4 SWAP3 POP POP POP JUMP JUMPDEST PUSH1 0x60 PUSH1 0x0 PUSH1 0x2 DUP4 PUSH1 0x2 PUSH3 0x415 SWAP2 SWAP1 PUSH3 0xBD3 JUMP JUMPDEST PUSH3 0x421 SWAP2 SWAP1 PUSH3 0xC1E JUMP JUMPDEST PUSH8 0xFFFFFFFFFFFFFFFF DUP2 GT ISZERO PUSH3 0x43D JUMPI PUSH3 0x43C PUSH3 0x674 JUMP JUMPDEST JUMPDEST PUSH1 0x40 MLOAD SWAP1 DUP1 DUP3 MSTORE DUP1 PUSH1 0x1F ADD PUSH1 0x1F NOT AND PUSH1 0x20 ADD DUP3 ADD PUSH1 0x40 MSTORE DUP1 ISZERO PUSH3 0x470 JUMPI DUP2 PUSH1 0x20 ADD PUSH1 0x1 DUP3 MUL DUP1 CALLDATASIZE DUP4 CALLDATACOPY DUP1 DUP3 ADD SWAP2 POP POP SWAP1 POP JUMPDEST POP SWAP1 POP PUSH32 0x3000000000000000000000000000000000000000000000000000000000000000 DUP2 PUSH1 0x0 DUP2 MLOAD DUP2 LT PUSH3 0x4AB JUMPI PUSH3 0x4AA PUSH3 0xBA4 JUMP JUMPDEST JUMPDEST PUSH1 0x20 ADD ADD SWAP1 PUSH31 0xFFFFFFFFFFFFFFFFFFFFFFFFFFFFFFFFFFFFFFFFFFFFFFFFFFFFFFFFFFFFFF NOT AND SWAP1 DUP2 PUSH1 0x0 BYTE SWAP1 MSTORE8 POP PUSH32 0x7800000000000000000000000000000000000000000000000000000000000000 DUP2 PUSH1 0x1 DUP2 MLOAD DUP2 LT PUSH3 0x512 JUMPI PUSH3 0x511 PUSH3 0xBA4 JUMP JUMPDEST JUMPDEST PUSH1 0x20 ADD ADD SWAP1 PUSH31 0xFFFFFFFFFFFFFFFFFFFFFFFFFFFFFFFFFFFFFFFFFFFFFFFFFFFFFFFFFFFFFF NOT AND SWAP1 DUP2 PUSH1 0x0 BYTE SWAP1 MSTORE8 POP PUSH1 0x0 PUSH1 0x1 DUP5 PUSH1 0x2 PUSH3 0x554 SWAP2 SWAP1 PUSH3 0xBD3 JUMP JUMPDEST PUSH3 0x560 SWAP2 SWAP1 PUSH3 0xC1E JUMP JUMPDEST SWAP1 POP JUMPDEST PUSH1 0x1 DUP2 GT ISZERO PUSH3 0x60A JUMPI PUSH32 0x3031323334353637383961626364656600000000000000000000000000000000 PUSH1 0xF DUP7 AND PUSH1 0x10 DUP2 LT PUSH3 0x5A6 JUMPI PUSH3 0x5A5 PUSH3 0xBA4 JUMP JUMPDEST JUMPDEST BYTE PUSH1 0xF8 SHL DUP3 DUP3 DUP2 MLOAD DUP2 LT PUSH3 0x5C0 JUMPI PUSH3 0x5BF PUSH3 0xBA4 JUMP JUMPDEST JUMPDEST PUSH1 0x20 ADD ADD SWAP1 PUSH31 0xFFFFFFFFFFFFFFFFFFFFFFFFFFFFFFFFFFFFFFFFFFFFFFFFFFFFFFFFFFFFFF NOT AND SWAP1 DUP2 PUSH1 0x0 BYTE SWAP1 MSTORE8 POP PUSH1 0x4 DUP6 SWAP1 SHR SWAP5 POP DUP1 PUSH3 0x602 SWAP1 PUSH3 0xC59 JUMP JUMPDEST SWAP1 POP PUSH3 0x563 JUMP JUMPDEST POP PUSH1 0x0 DUP5 EQ PUSH3 0x651 JUMPI PUSH1 0x40 MLOAD PUSH32 0x8C379A000000000000000000000000000000000000000000000000000000000 DUP2 MSTORE PUSH1 0x4 ADD PUSH3 0x648 SWAP1 PUSH3 0xCD7 JUMP JUMPDEST PUSH1 0x40 MLOAD DUP1 SWAP2 SUB SWAP1 REVERT JUMPDEST DUP1 SWAP2 POP POP SWAP3 SWAP2 POP POP JUMP JUMPDEST PUSH2 0x2EFB DUP1 PUSH3 0x377A DUP4 CODECOPY ADD SWAP1 JUMP JUMPDEST PUSH1 0x0 DUP2 MLOAD SWAP1 POP SWAP2 SWAP1 POP JUMP JUMPDEST PUSH32 0x4E487B7100000000000000000000000000000000000000000000000000000000 PUSH1 0x0 MSTORE PUSH1 0x41 PUSH1 0x4 MSTORE PUSH1 0x24 PUSH1 0x0 REVERT JUMPDEST PUSH32 0x4E487B7100000000000000000000000000000000000000000000000000000000 PUSH1 0x0 MSTORE PUSH1 0x22 PUSH1 0x4 MSTORE PUSH1 0x24 PUSH1 0x0 REVERT JUMPDEST PUSH1 0x0 PUSH1 0x2 DUP3 DIV SWAP1 POP PUSH1 0x1 DUP3 AND DUP1 PUSH3 0x6EB JUMPI PUSH1 0x7F DUP3 AND SWAP2 POP JUMPDEST PUSH1 0x20 DUP3 LT DUP2 SUB PUSH3 0x701 JUMPI PUSH3 0x700 PUSH3 0x6A3 JUMP JUMPDEST JUMPDEST POP SWAP2 SWAP1 POP JUMP JUMPDEST PUSH1 0x0 DUP2 SWAP1 POP DUP2 PUSH1 0x0 MSTORE PUSH1 0x20 PUSH1 0x0 KECCAK256 SWAP1 POP SWAP2 SWAP1 POP JUMP JUMPDEST PUSH1 0x0 PUSH1 0x20 PUSH1 0x1F DUP4 ADD DIV SWAP1 POP SWAP2 SWAP1 POP JUMP JUMPDEST PUSH1 0x0 DUP3 DUP3 SHL SWAP1 POP SWAP3 SWAP2 POP POP JUMP JUMPDEST PUSH1 0x0 PUSH1 0x8 DUP4 MUL PUSH3 0x76B PUSH32 0xFFFFFFFFFFFFFFFFFFFFFFFFFFFFFFFFFFFFFFFFFFFFFFFFFFFFFFFFFFFFFFFF DUP3 PUSH3 0x72C JUMP JUMPDEST PUSH3 0x777 DUP7 DUP4 PUSH3 0x72C JUMP JUMPDEST SWAP6 POP DUP1 NOT DUP5 AND SWAP4 POP DUP1 DUP7 AND DUP5 OR SWAP3 POP POP POP SWAP4 SWAP3 POP POP POP JUMP JUMPDEST PUSH1 0x0 DUP2 SWAP1 POP SWAP2 SWAP1 POP JUMP JUMPDEST PUSH1 0x0 DUP2 SWAP1 POP SWAP2 SWAP1 POP JUMP JUMPDEST PUSH1 0x0 PUSH3 0x7C4 PUSH3 0x7BE PUSH3 0x7B8 DUP5 PUSH3 0x78F JUMP JUMPDEST PUSH3 0x799 JUMP JUMPDEST PUSH3 0x78F JUMP JUMPDEST SWAP1 POP SWAP2 SWAP1 POP JUMP JUMPDEST PUSH1 0x0 DUP2 SWAP1 POP SWAP2 SWAP1 POP JUMP JUMPDEST PUSH3 0x7E0 DUP4 PUSH3 0x7A3 JUMP JUMPDEST PUSH3 0x7F8 PUSH3 0x7EF DUP3 PUSH3 0x7CB JUMP JUMPDEST DUP5 DUP5 SLOAD PUSH3 0x739 JUMP JUMPDEST DUP3 SSTORE POP POP POP POP JUMP JUMPDEST PUSH1 0x0 SWAP1 JUMP JUMPDEST PUSH3 0x80F PUSH3 0x800 JUMP JUMPDEST PUSH3 0x81C DUP2 DUP5 DUP5 PUSH3 0x7D5 JUMP JUMPDEST POP POP POP JUMP JUMPDEST JUMPDEST DUP2 DUP2 LT ISZERO PUSH3 0x844 JUMPI PUSH3 0x838 PUSH1 0x0 DUP3 PUSH3 0x805 JUMP JUMPDEST PUSH1 0x1 DUP2 ADD SWAP1 POP PUSH3 0x822 JUMP JUMPDEST POP POP JUMP JUMPDEST PUSH1 0x1F DUP3 GT ISZERO PUSH3 0x893 JUMPI PUSH3 0x85D DUP2 PUSH3 0x707 JUMP JUMPDEST PUSH3 0x868 DUP5 PUSH3 0x71C JUMP JUMPDEST DUP2 ADD PUSH1 0x20 DUP6 LT ISZERO PUSH3 0x878 JUMPI DUP2 SWAP1 POP JUMPDEST PUSH3 0x890 PUSH3 0x887 DUP6 PUSH3 0x71C JUMP JUMPDEST DUP4 ADD DUP3 PUSH3 0x821 JUMP JUMPDEST POP POP JUMPDEST POP POP POP JUMP JUMPDEST PUSH1 0x0 DUP3 DUP3 SHR SWAP1 POP SWAP3 SWAP2 POP POP JUMP JUMPDEST PUSH1 0x0 PUSH3 0x8B8 PUSH1 0x0 NOT DUP5 PUSH1 0x8 MUL PUSH3 0x898 JUMP JUMPDEST NOT DUP1 DUP4 AND SWAP2 POP POP SWAP3 SWAP2 POP POP JUMP JUMPDEST PUSH1 0x0 PUSH3 0x8D3 DUP4 DUP4 PUSH3 0x8A5 JUMP JUMPDEST SWAP2 POP DUP3 PUSH1 0x2 MUL DUP3 OR SWAP1 POP SWAP3 SWAP2 POP POP JUMP JUMPDEST PUSH3 0x8EE DUP3 PUSH3 0x669 JUMP JUMPDEST PUSH8 0xFFFFFFFFFFFFFFFF DUP2 GT ISZERO PUSH3 0x90A JUMPI PUSH3 0x909 PUSH3 0x674 JUMP JUMPDEST JUMPDEST PUSH3 0x916 DUP3 SLOAD PUSH3 0x6D2 JUMP JUMPDEST PUSH3 0x923 DUP3 DUP3 DUP6 PUSH3 0x848 JUMP JUMPDEST PUSH1 0x0 PUSH1 0x20 SWAP1 POP PUSH1 0x1F DUP4 GT PUSH1 0x1 DUP2 EQ PUSH3 0x95B JUMPI PUSH1 0x0 DUP5 ISZERO PUSH3 0x946 JUMPI DUP3 DUP8 ADD MLOAD SWAP1 POP JUMPDEST PUSH3 0x952 DUP6 DUP3 PUSH3 0x8C5 JUMP JUMPDEST DUP7 SSTORE POP PUSH3 0x9C2 JUMP JUMPDEST PUSH1 0x1F NOT DUP5 AND PUSH3 0x96B DUP7 PUSH3 0x707 JUMP JUMPDEST PUSH1 0x0 JUMPDEST DUP3 DUP2 LT ISZERO PUSH3 0x995 JUMPI DUP5 DUP10 ADD MLOAD DUP3 SSTORE PUSH1 0x1 DUP3 ADD SWAP2 POP PUSH1 0x20 DUP6 ADD SWAP5 POP PUSH1 0x20 DUP2 ADD SWAP1 POP PUSH3 0x96E JUMP JUMPDEST DUP7 DUP4 LT ISZERO PUSH3 0x9B5 JUMPI DUP5 DUP10 ADD MLOAD PUSH3 0x9B1 PUSH1 0x1F DUP10 AND DUP3 PUSH3 0x8A5 JUMP JUMPDEST DUP4 SSTORE POP JUMPDEST PUSH1 0x1 PUSH1 0x2 DUP9 MUL ADD DUP9 SSTORE POP POP POP JUMPDEST POP POP POP POP POP POP JUMP JUMPDEST PUSH1 0x0 PUSH20 0xFFFFFFFFFFFFFFFFFFFFFFFFFFFFFFFFFFFFFFFF DUP3 AND SWAP1 POP SWAP2 SWAP1 POP JUMP JUMPDEST PUSH1 0x0 PUSH3 0x9F7 DUP3 PUSH3 0x9CA JUMP JUMPDEST SWAP1 POP SWAP2 SWAP1 POP JUMP JUMPDEST PUSH3 0xA09 DUP2 PUSH3 0x9EA JUMP JUMPDEST DUP3 MSTORE POP POP JUMP JUMPDEST PUSH1 0x0 DUP3 DUP3 MSTORE PUSH1 0x20 DUP3 ADD SWAP1 POP SWAP3 SWAP2 POP POP JUMP JUMPDEST PUSH1 0x0 JUMPDEST DUP4 DUP2 LT ISZERO PUSH3 0xA40 JUMPI DUP1 DUP3 ADD MLOAD DUP2 DUP5 ADD MSTORE PUSH1 0x20 DUP2 ADD SWAP1 POP PUSH3 0xA23 JUMP JUMPDEST PUSH1 0x0 DUP5 DUP5 ADD MSTORE POP POP POP POP JUMP JUMPDEST PUSH1 0x0 PUSH1 0x1F NOT PUSH1 0x1F DUP4 ADD AND SWAP1 POP SWAP2 SWAP1 POP JUMP JUMPDEST PUSH1 0x0 PUSH3 0xA6A DUP3 PUSH3 0x669 JUMP JUMPDEST PUSH3 0xA76 DUP2 DUP6 PUSH3 0xA0F JUMP JUMPDEST SWAP4 POP PUSH3 0xA88 DUP2 DUP6 PUSH1 0x20 DUP7 ADD PUSH3 0xA20 JUMP JUMPDEST PUSH3 0xA93 DUP2 PUSH3 0xA4C JUMP JUMPDEST DUP5 ADD SWAP2 POP POP SWAP3 SWAP2 POP POP JUMP JUMPDEST PUSH1 0x0 PUSH1 0x40 DUP3 ADD SWAP1 POP PUSH3 0xAB5 PUSH1 0x0 DUP4 ADD DUP6 PUSH3 0x9FE JUMP JUMPDEST DUP2 DUP2 SUB PUSH1 0x20 DUP4 ADD MSTORE PUSH3 0xAC9 DUP2 DUP5 PUSH3 0xA5D JUMP JUMPDEST SWAP1 POP SWAP4 SWAP3 POP POP POP JUMP JUMPDEST PUSH1 0x0 DUP1 REVERT JUMPDEST PUSH3 0xAE2 DUP2 PUSH3 0x78F JUMP JUMPDEST DUP2 EQ PUSH3 0xAEE JUMPI PUSH1 0x0 DUP1 REVERT JUMPDEST POP JUMP JUMPDEST PUSH1 0x0 DUP2 MLOAD SWAP1 POP PUSH3 0xB02 DUP2 PUSH3 0xAD7 JUMP JUMPDEST SWAP3 SWAP2 POP POP JUMP JUMPDEST PUSH1 0x0 PUSH1 0x20 DUP3 DUP5 SUB SLT ISZERO PUSH3 0xB21 JUMPI PUSH3 0xB20 PUSH3 0xAD2 JUMP JUMPDEST JUMPDEST PUSH1 0x0 PUSH3 0xB31 DUP5 DUP3 DUP6 ADD PUSH3 0xAF1 JUMP JUMPDEST SWAP2 POP POP SWAP3 SWAP2 POP POP JUMP JUMPDEST PUSH32 0x4E487B7100000000000000000000000000000000000000000000000000000000 PUSH1 0x0 MSTORE PUSH1 0x11 PUSH1 0x4 MSTORE PUSH1 0x24 PUSH1 0x0 REVERT JUMPDEST PUSH1 0x0 PUSH3 0xB76 DUP3 PUSH3 0x78F JUMP JUMPDEST SWAP2 POP PUSH3 0xB83 DUP4 PUSH3 0x78F JUMP JUMPDEST SWAP3 POP DUP3 DUP3 SUB SWAP1 POP DUP2 DUP2 GT ISZERO PUSH3 0xB9E JUMPI PUSH3 0xB9D PUSH3 0xB3A JUMP JUMPDEST JUMPDEST SWAP3 SWAP2 POP POP JUMP JUMPDEST PUSH32 0x4E487B7100000000000000000000000000000000000000000000000000000000 PUSH1 0x0 MSTORE PUSH1 0x32 PUSH1 0x4 MSTORE PUSH1 0x24 PUSH1 0x0 REVERT JUMPDEST PUSH1 0x0 PUSH3 0xBE0 DUP3 PUSH3 0x78F JUMP JUMPDEST SWAP2 POP PUSH3 0xBED DUP4 PUSH3 0x78F JUMP JUMPDEST SWAP3 POP DUP3 DUP3 MUL PUSH3 0xBFD DUP2 PUSH3 0x78F JUMP JUMPDEST SWAP2 POP DUP3 DUP3 DIV DUP5 EQ DUP4 ISZERO OR PUSH3 0xC17 JUMPI PUSH3 0xC16 PUSH3 0xB3A JUMP JUMPDEST JUMPDEST POP SWAP3 SWAP2 POP POP JUMP JUMPDEST PUSH1 0x0 PUSH3 0xC2B DUP3 PUSH3 0x78F JUMP JUMPDEST SWAP2 POP PUSH3 0xC38 DUP4 PUSH3 0x78F JUMP JUMPDEST SWAP3 POP DUP3 DUP3 ADD SWAP1 POP DUP1 DUP3 GT ISZERO PUSH3 0xC53 JUMPI PUSH3 0xC52 PUSH3 0xB3A JUMP JUMPDEST JUMPDEST SWAP3 SWAP2 POP POP JUMP JUMPDEST PUSH1 0x0 PUSH3 0xC66 DUP3 PUSH3 0x78F JUMP JUMPDEST SWAP2 POP PUSH1 0x0 DUP3 SUB PUSH3 0xC7C JUMPI PUSH3 0xC7B PUSH3 0xB3A JUMP JUMPDEST JUMPDEST PUSH1 0x1 DUP3 SUB SWAP1 POP SWAP2 SWAP1 POP JUMP JUMPDEST PUSH32 0x537472696E67733A20686578206C656E67746820696E73756666696369656E74 PUSH1 0x0 DUP3 ADD MSTORE POP JUMP JUMPDEST PUSH1 0x0 PUSH3 0xCBF PUSH1 0x20 DUP4 PUSH3 0xA0F JUMP JUMPDEST SWAP2 POP PUSH3 0xCCC DUP3 PUSH3 0xC87 JUMP JUMPDEST PUSH1 0x20 DUP3 ADD SWAP1 POP SWAP2 SWAP1 POP JUMP JUMPDEST PUSH1 0x0 PUSH1 0x20 DUP3 ADD SWAP1 POP DUP2 DUP2 SUB PUSH1 0x0 DUP4 ADD MSTORE PUSH3 0xCF2 DUP2 PUSH3 0xCB0 JUMP JUMPDEST SWAP1 POP SWAP2 SWAP1 POP JUMP JUMPDEST PUSH2 0x2A71 DUP1 PUSH3 0xD09 PUSH1 0x0 CODECOPY PUSH1 0x0 RETURN INVALID PUSH1 0x80 PUSH1 0x40 MSTORE PUSH1 0x4 CALLDATASIZE LT PUSH2 0x118 JUMPI PUSH1 0x0 CALLDATALOAD PUSH1 0xE0 SHR DUP1 PUSH4 0x8D7AF473 GT PUSH2 0xA0 JUMPI DUP1 PUSH4 0xCA6D56DC GT PUSH2 0x64 JUMPI DUP1 PUSH4 0xCA6D56DC EQ PUSH2 0x3CD JUMPI DUP1 PUSH4 0xD6B78768 EQ PUSH2 0x3F6 JUMPI DUP1 PUSH4 0xE66F53B7 EQ PUSH2 0x421 JUMPI DUP1 PUSH4 0xEA3FAD66 EQ PUSH2 0x44C JUMPI DUP1 PUSH4 0xEB38603F EQ PUSH2 0x489 JUMPI PUSH2 0x11F JUMP JUMPDEST DUP1 PUSH4 0x8D7AF473 EQ PUSH2 0x2E6 JUMPI DUP1 PUSH4 0x9D63848A EQ PUSH2 0x311 JUMPI DUP1 PUSH4 0xA230C524 EQ PUSH2 0x33C JUMPI DUP1 PUSH4 0xC65C90CC EQ PUSH2 0x379 JUMPI DUP1 PUSH4 0xC9D27AFE EQ PUSH2 0x3A4 JUMPI PUSH2 0x11F JUMP JUMPDEST DUP1 PUSH4 0x1DCD9B55 GT PUSH2 0xE7 JUMPI DUP1 PUSH4 0x1DCD9B55 EQ PUSH2 0x20C JUMPI DUP1 PUSH4 0x237B2197 EQ PUSH2 0x249 JUMPI DUP1 PUSH4 0x2E6FB097 EQ PUSH2 0x274 JUMPI DUP1 PUSH4 0x70740AAB EQ PUSH2 0x2A4 JUMPI DUP1 PUSH4 0x7B10B293 EQ PUSH2 0x2CF JUMPI PUSH2 0x11F JUMP JUMPDEST DUP1 PUSH4 0x13CF08B EQ PUSH2 0x124 JUMPI DUP1 PUSH4 0x1FFC9A7 EQ PUSH2 0x169 JUMPI DUP1 PUSH4 0x386A016 EQ PUSH2 0x1A6 JUMPI DUP1 PUSH4 0x1A384287 EQ PUSH2 0x1CF JUMPI PUSH2 0x11F JUMP JUMPDEST CALLDATASIZE PUSH2 0x11F JUMPI STOP JUMPDEST PUSH1 0x0 DUP1 REVERT JUMPDEST CALLVALUE DUP1 ISZERO PUSH2 0x130 JUMPI PUSH1 0x0 DUP1 REVERT JUMPDEST POP PUSH2 0x14B PUSH1 0x4 DUP1 CALLDATASIZE SUB DUP2 ADD SWAP1 PUSH2 0x146 SWAP2 SWAP1 PUSH2 0x1912 JUMP JUMPDEST PUSH2 0x4B4 JUMP JUMPDEST PUSH1 0x40 MLOAD PUSH2 0x160 SWAP10 SWAP9 SWAP8 SWAP7 SWAP6 SWAP5 SWAP4 SWAP3 SWAP2 SWAP1 PUSH2 0x1A3A JUMP JUMPDEST PUSH1 0x40 MLOAD DUP1 SWAP2 SUB SWAP1 RETURN JUMPDEST CALLVALUE DUP1 ISZERO PUSH2 0x175 JUMPI PUSH1 0x0 DUP1 REVERT JUMPDEST POP PUSH2 0x190 PUSH1 0x4 DUP1 CALLDATASIZE SUB DUP2 ADD SWAP1 PUSH2 0x18B SWAP2 SWAP1 PUSH2 0x1B26 JUMP JUMPDEST PUSH2 0x5E4 JUMP JUMPDEST PUSH1 0x40 MLOAD PUSH2 0x19D SWAP2 SWAP1 PUSH2 0x1B53 JUMP JUMPDEST PUSH1 0x40 MLOAD DUP1 SWAP2 SUB SWAP1 RETURN JUMPDEST CALLVALUE DUP1 ISZERO PUSH2 0x1B2 JUMPI PUSH1 0x0 DUP1 REVERT JUMPDEST POP PUSH2 0x1CD PUSH1 0x4 DUP1 CALLDATASIZE SUB DUP2 ADD SWAP1 PUSH2 0x1C8 SWAP2 SWAP1 PUSH2 0x1912 JUMP JUMPDEST PUSH2 0x6B6 JUMP JUMPDEST STOP JUMPDEST CALLVALUE DUP1 ISZERO PUSH2 0x1DB JUMPI PUSH1 0x0 DUP1 REVERT JUMPDEST POP PUSH2 0x1F6 PUSH1 0x4 DUP1 CALLDATASIZE SUB DUP2 ADD SWAP1 PUSH2 0x1F1 SWAP2 SWAP1 PUSH2 0x1B9A JUMP JUMPDEST PUSH2 0x9D0 JUMP JUMPDEST PUSH1 0x40 MLOAD PUSH2 0x203 SWAP2 SWAP1 PUSH2 0x1B53 JUMP JUMPDEST PUSH1 0x40 MLOAD DUP1 SWAP2 SUB SWAP1 RETURN JUMPDEST CALLVALUE DUP1 ISZERO PUSH2 0x218 JUMPI PUSH1 0x0 DUP1 REVERT JUMPDEST POP PUSH2 0x233 PUSH1 0x4 DUP1 CALLDATASIZE SUB DUP2 ADD SWAP1 PUSH2 0x22E SWAP2 SWAP1 PUSH2 0x1D0F JUMP JUMPDEST PUSH2 0x9FF JUMP JUMPDEST PUSH1 0x40 MLOAD PUSH2 0x240 SWAP2 SWAP1 PUSH2 0x1D7E JUMP JUMPDEST PUSH1 0x40 MLOAD DUP1 SWAP2 SUB SWAP1 RETURN JUMPDEST CALLVALUE DUP1 ISZERO PUSH2 0x255 JUMPI PUSH1 0x0 DUP1 REVERT JUMPDEST POP PUSH2 0x25E PUSH2 0xAF5 JUMP JUMPDEST PUSH1 0x40 MLOAD PUSH2 0x26B SWAP2 SWAP1 PUSH2 0x1DA0 JUMP JUMPDEST PUSH1 0x40 MLOAD DUP1 SWAP2 SUB SWAP1 RETURN JUMPDEST PUSH2 0x28E PUSH1 0x4 DUP1 CALLDATASIZE SUB DUP2 ADD SWAP1 PUSH2 0x289 SWAP2 SWAP1 PUSH2 0x1DBB JUMP JUMPDEST PUSH2 0xAFB JUMP JUMPDEST PUSH1 0x40 MLOAD PUSH2 0x29B SWAP2 SWAP1 PUSH2 0x1DA0 JUMP JUMPDEST PUSH1 0x40 MLOAD DUP1 SWAP2 SUB SWAP1 RETURN JUMPDEST CALLVALUE DUP1 ISZERO PUSH2 0x2B0 JUMPI PUSH1 0x0 DUP1 REVERT JUMPDEST POP PUSH2 0x2B9 PUSH2 0xDD6 JUMP JUMPDEST PUSH1 0x40 MLOAD PUSH2 0x2C6 SWAP2 SWAP1 PUSH2 0x1D7E JUMP JUMPDEST PUSH1 0x40 MLOAD DUP1 SWAP2 SUB SWAP1 RETURN JUMPDEST CALLVALUE DUP1 ISZERO PUSH2 0x2DB JUMPI PUSH1 0x0 DUP1 REVERT JUMPDEST POP PUSH2 0x2E4 PUSH2 0xE64 JUMP JUMPDEST STOP JUMPDEST CALLVALUE DUP1 ISZERO PUSH2 0x2F2 JUMPI PUSH1 0x0 DUP1 REVERT JUMPDEST POP PUSH2 0x2FB PUSH2 0xF6E JUMP JUMPDEST PUSH1 0x40 MLOAD PUSH2 0x308 SWAP2 SWAP1 PUSH2 0x1DA0 JUMP JUMPDEST PUSH1 0x40 MLOAD DUP1 SWAP2 SUB SWAP1 RETURN JUMPDEST CALLVALUE DUP1 ISZERO PUSH2 0x31D JUMPI PUSH1 0x0 DUP1 REVERT JUMPDEST POP PUSH2 0x326 PUSH2 0xF74 JUMP JUMPDEST PUSH1 0x40 MLOAD PUSH2 0x333 SWAP2 SWAP1 PUSH2 0x1E3E JUMP JUMPDEST PUSH1 0x40 MLOAD DUP1 SWAP2 SUB SWAP1 RETURN JUMPDEST CALLVALUE DUP1 ISZERO PUSH2 0x348 JUMPI PUSH1 0x0 DUP1 REVERT JUMPDEST POP PUSH2 0x363 PUSH1 0x4 DUP1 CALLDATASIZE SUB DUP2 ADD SWAP1 PUSH2 0x35E SWAP2 SWAP1 PUSH2 0x1E59 JUMP JUMPDEST PUSH2 0xF9A JUMP JUMPDEST PUSH1 0x40 MLOAD PUSH2 0x370 SWAP2 SWAP1 PUSH2 0x1B53 JUMP JUMPDEST PUSH1 0x40 MLOAD DUP1 SWAP2 SUB SWAP1 RETURN JUMPDEST CALLVALUE DUP1 ISZERO PUSH2 0x385 JUMPI PUSH1 0x0 DUP1 REVERT JUMPDEST POP PUSH2 0x38E PUSH2 0x1050 JUMP JUMPDEST PUSH1 0x40 MLOAD PUSH2 0x39B SWAP2 SWAP1 PUSH2 0x1D7E JUMP JUMPDEST PUSH1 0x40 MLOAD DUP1 SWAP2 SUB SWAP1 RETURN JUMPDEST CALLVALUE DUP1 ISZERO PUSH2 0x3B0 JUMPI PUSH1 0x0 DUP1 REVERT JUMPDEST POP PUSH2 0x3CB PUSH1 0x4 DUP1 CALLDATASIZE SUB DUP2 ADD SWAP1 PUSH2 0x3C6 SWAP2 SWAP1 PUSH2 0x1EB2 JUMP JUMPDEST PUSH2 0x10DE JUMP JUMPDEST STOP JUMPDEST CALLVALUE DUP1 ISZERO PUSH2 0x3D9 JUMPI PUSH1 0x0 DUP1 REVERT JUMPDEST POP PUSH2 0x3F4 PUSH1 0x4 DUP1 CALLDATASIZE SUB DUP2 ADD SWAP1 PUSH2 0x3EF SWAP2 SWAP1 PUSH2 0x1E59 JUMP JUMPDEST PUSH2 0x1486 JUMP JUMPDEST STOP JUMPDEST CALLVALUE DUP1 ISZERO PUSH2 0x402 JUMPI PUSH1 0x0 DUP1 REVERT JUMPDEST POP PUSH2 0x40B PUSH2 0x15E0 JUMP JUMPDEST PUSH1 0x40 MLOAD PUSH2 0x418 SWAP2 SWAP1 PUSH2 0x1DA0 JUMP JUMPDEST PUSH1 0x40 MLOAD DUP1 SWAP2 SUB SWAP1 RETURN JUMPDEST CALLVALUE DUP1 ISZERO PUSH2 0x42D JUMPI PUSH1 0x0 DUP1 REVERT JUMPDEST POP PUSH2 0x436 PUSH2 0x15E6 JUMP JUMPDEST PUSH1 0x40 MLOAD PUSH2 0x443 SWAP2 SWAP1 PUSH2 0x1E3E JUMP JUMPDEST PUSH1 0x40 MLOAD DUP1 SWAP2 SUB SWAP1 RETURN JUMPDEST CALLVALUE DUP1 ISZERO PUSH2 0x458 JUMPI PUSH1 0x0 DUP1 REVERT JUMPDEST POP PUSH2 0x473 PUSH1 0x4 DUP1 CALLDATASIZE SUB DUP2 ADD SWAP1 PUSH2 0x46E SWAP2 SWAP1 PUSH2 0x1B9A JUMP JUMPDEST PUSH2 0x160C JUMP JUMPDEST PUSH1 0x40 MLOAD PUSH2 0x480 SWAP2 SWAP1 PUSH2 0x1B53 JUMP JUMPDEST PUSH1 0x40 MLOAD DUP1 SWAP2 SUB SWAP1 RETURN JUMPDEST CALLVALUE DUP1 ISZERO PUSH2 0x495 JUMPI PUSH1 0x0 DUP1 REVERT JUMPDEST POP PUSH2 0x49E PUSH2 0x163B JUMP JUMPDEST PUSH1 0x40 MLOAD PUSH2 0x4AB SWAP2 SWAP1 PUSH2 0x1E3E JUMP JUMPDEST PUSH1 0x40 MLOAD DUP1 SWAP2 SUB SWAP1 RETURN JUMPDEST PUSH1 0x1 PUSH1 0x20 MSTORE DUP1 PUSH1 0x0 MSTORE PUSH1 0x40 PUSH1 0x0 KECCAK256 PUSH1 0x0 SWAP2 POP SWAP1 POP DUP1 PUSH1 0x0 ADD PUSH1 0x0 SWAP1 SLOAD SWAP1 PUSH2 0x100 EXP SWAP1 DIV PUSH20 0xFFFFFFFFFFFFFFFFFFFFFFFFFFFFFFFFFFFFFFFF AND SWAP1 DUP1 PUSH1 0x1 ADD SLOAD SWAP1 DUP1 PUSH1 0x2 ADD DUP1 SLOAD PUSH2 0x503 SWAP1 PUSH2 0x1F21 JUMP JUMPDEST DUP1 PUSH1 0x1F ADD PUSH1 0x20 DUP1 SWAP2 DIV MUL PUSH1 0x20 ADD PUSH1 0x40 MLOAD SWAP1 DUP2 ADD PUSH1 0x40 MSTORE DUP1 SWAP3 SWAP2 SWAP1 DUP2 DUP2 MSTORE PUSH1 0x20 ADD DUP3 DUP1 SLOAD PUSH2 0x52F SWAP1 PUSH2 0x1F21 JUMP JUMPDEST DUP1 ISZERO PUSH2 0x57C JUMPI DUP1 PUSH1 0x1F LT PUSH2 0x551 JUMPI PUSH2 0x100 DUP1 DUP4 SLOAD DIV MUL DUP4 MSTORE SWAP2 PUSH1 0x20 ADD SWAP2 PUSH2 0x57C JUMP JUMPDEST DUP3 ADD SWAP2 SWAP1 PUSH1 0x0 MSTORE PUSH1 0x20 PUSH1 0x0 KECCAK256 SWAP1 JUMPDEST DUP2 SLOAD DUP2 MSTORE SWAP1 PUSH1 0x1 ADD SWAP1 PUSH1 0x20 ADD DUP1 DUP4 GT PUSH2 0x55F JUMPI DUP3 SWAP1 SUB PUSH1 0x1F AND DUP3 ADD SWAP2 JUMPDEST POP POP POP POP POP SWAP1 DUP1 PUSH1 0x3 ADD SLOAD SWAP1 DUP1 PUSH1 0x4 ADD PUSH1 0x0 SWAP1 SLOAD SWAP1 PUSH2 0x100 EXP SWAP1 DIV PUSH1 0xFF AND SWAP1 DUP1 PUSH1 0x4 ADD PUSH1 0x1 SWAP1 SLOAD SWAP1 PUSH2 0x100 EXP SWAP1 DIV PUSH1 0xFF AND SWAP1 DUP1 PUSH1 0x5 ADD SLOAD SWAP1 DUP1 PUSH1 0x6 ADD SLOAD SWAP1 DUP1 PUSH1 0x7 ADD PUSH1 0x0 SWAP1 SLOAD SWAP1 PUSH2 0x100 EXP SWAP1 DIV PUSH20 0xFFFFFFFFFFFFFFFFFFFFFFFFFFFFFFFFFFFFFFFF AND SWAP1 POP DUP10 JUMP JUMPDEST PUSH1 0x0 PUSH32 0xB3DF4BA800000000000000000000000000000000000000000000000000000000 PUSH28 0xFFFFFFFFFFFFFFFFFFFFFFFFFFFFFFFFFFFFFFFFFFFFFFFFFFFFFFFF NOT AND DUP3 PUSH28 0xFFFFFFFFFFFFFFFFFFFFFFFFFFFFFFFFFFFFFFFFFFFFFFFFFFFFFFFF NOT AND EQ DUP1 PUSH2 0x6AF JUMPI POP PUSH32 0x1FFC9A700000000000000000000000000000000000000000000000000000000 PUSH28 0xFFFFFFFFFFFFFFFFFFFFFFFFFFFFFFFFFFFFFFFFFFFFFFFFFFFFFFFF NOT AND DUP3 PUSH28 0xFFFFFFFFFFFFFFFFFFFFFFFFFFFFFFFFFFFFFFFFFFFFFFFFFFFFFFFF NOT AND EQ JUMPDEST SWAP1 POP SWAP2 SWAP1 POP JUMP JUMPDEST PUSH1 0x1 PUSH1 0x0 DUP3 DUP2 MSTORE PUSH1 0x20 ADD SWAP1 DUP2 MSTORE PUSH1 0x20 ADD PUSH1 0x0 KECCAK256 PUSH1 0x3 ADD SLOAD TIMESTAMP GT PUSH2 0x70E JUMPI PUSH1 0x40 MLOAD PUSH32 0x8C379A000000000000000000000000000000000000000000000000000000000 DUP2 MSTORE PUSH1 0x4 ADD PUSH2 0x705 SWAP1 PUSH2 0x1FC4 JUMP JUMPDEST PUSH1 0x40 MLOAD DUP1 SWAP2 SUB SWAP1 REVERT JUMPDEST PUSH2 0x717 CALLER PUSH2 0xF9A JUMP JUMPDEST PUSH2 0x756 JUMPI PUSH1 0x40 MLOAD PUSH32 0x8C379A000000000000000000000000000000000000000000000000000000000 DUP2 MSTORE PUSH1 0x4 ADD PUSH2 0x74D SWAP1 PUSH2 0x2030 JUMP JUMPDEST PUSH1 0x40 MLOAD DUP1 SWAP2 SUB SWAP1 REVERT JUMPDEST PUSH1 0x1 ISZERO ISZERO PUSH1 0x1 PUSH1 0x0 DUP4 DUP2 MSTORE PUSH1 0x20 ADD SWAP1 DUP2 MSTORE PUSH1 0x20 ADD PUSH1 0x0 KECCAK256 PUSH1 0x4 ADD PUSH1 0x0 SWAP1 SLOAD SWAP1 PUSH2 0x100 EXP SWAP1 DIV PUSH1 0xFF AND ISZERO ISZERO EQ PUSH2 0x7C0 JUMPI PUSH1 0x40 MLOAD PUSH32 0x8C379A000000000000000000000000000000000000000000000000000000000 DUP2 MSTORE PUSH1 0x4 ADD PUSH2 0x7B7 SWAP1 PUSH2 0x209C JUMP JUMPDEST PUSH1 0x40 MLOAD DUP1 SWAP2 SUB SWAP1 REVERT JUMPDEST PUSH1 0x0 PUSH1 0x1 PUSH1 0x0 DUP4 DUP2 MSTORE PUSH1 0x20 ADD SWAP1 DUP2 MSTORE PUSH1 0x20 ADD PUSH1 0x0 KECCAK256 PUSH1 0x4 ADD PUSH1 0x0 PUSH2 0x100 EXP DUP2 SLOAD DUP2 PUSH1 0xFF MUL NOT AND SWAP1 DUP4 ISZERO ISZERO MUL OR SWAP1 SSTORE POP PUSH1 0x1 PUSH1 0x0 DUP3 DUP2 MSTORE PUSH1 0x20 ADD SWAP1 DUP2 MSTORE PUSH1 0x20 ADD PUSH1 0x0 KECCAK256 PUSH1 0x6 ADD SLOAD PUSH1 0x1 PUSH1 0x0 DUP4 DUP2 MSTORE PUSH1 0x20 ADD SWAP1 DUP2 MSTORE PUSH1 0x20 ADD PUSH1 0x0 KECCAK256 PUSH1 0x5 ADD SLOAD GT ISZERO PUSH2 0x94B JUMPI PUSH1 0x1 DUP1 PUSH1 0x0 DUP4 DUP2 MSTORE PUSH1 0x20 ADD SWAP1 DUP2 MSTORE PUSH1 0x20 ADD PUSH1 0x0 KECCAK256 PUSH1 0x4 ADD PUSH1 0x1 PUSH2 0x100 EXP DUP2 SLOAD DUP2 PUSH1 0xFF MUL NOT AND SWAP1 DUP4 ISZERO ISZERO MUL OR SWAP1 SSTORE POP PUSH1 0x0 PUSH1 0x1 PUSH1 0x0 DUP4 DUP2 MSTORE PUSH1 0x20 ADD SWAP1 DUP2 MSTORE PUSH1 0x20 ADD PUSH1 0x0 KECCAK256 PUSH1 0x0 ADD PUSH1 0x0 SWAP1 SLOAD SWAP1 PUSH2 0x100 EXP SWAP1 DIV PUSH20 0xFFFFFFFFFFFFFFFFFFFFFFFFFFFFFFFFFFFFFFFF AND PUSH20 0xFFFFFFFFFFFFFFFFFFFFFFFFFFFFFFFFFFFFFFFF AND PUSH1 0x1 PUSH1 0x0 DUP5 DUP2 MSTORE PUSH1 0x20 ADD SWAP1 DUP2 MSTORE PUSH1 0x20 ADD PUSH1 0x0 KECCAK256 PUSH1 0x1 ADD SLOAD PUSH1 0x40 MLOAD PUSH2 0x8C3 SWAP1 PUSH2 0x20ED JUMP JUMPDEST PUSH1 0x0 PUSH1 0x40 MLOAD DUP1 DUP4 SUB DUP2 DUP6 DUP8 GAS CALL SWAP3 POP POP POP RETURNDATASIZE DUP1 PUSH1 0x0 DUP2 EQ PUSH2 0x900 JUMPI PUSH1 0x40 MLOAD SWAP2 POP PUSH1 0x1F NOT PUSH1 0x3F RETURNDATASIZE ADD AND DUP3 ADD PUSH1 0x40 MSTORE RETURNDATASIZE DUP3 MSTORE RETURNDATASIZE PUSH1 0x0 PUSH1 0x20 DUP5 ADD RETURNDATACOPY PUSH2 0x905 JUMP JUMPDEST PUSH1 0x60 SWAP2 POP JUMPDEST POP POP SWAP1 POP DUP1 PUSH2 0x949 JUMPI PUSH1 0x40 MLOAD PUSH32 0x8C379A000000000000000000000000000000000000000000000000000000000 DUP2 MSTORE PUSH1 0x4 ADD PUSH2 0x940 SWAP1 PUSH2 0x214E JUMP JUMPDEST PUSH1 0x40 MLOAD DUP1 SWAP2 SUB SWAP1 REVERT JUMPDEST POP JUMPDEST PUSH1 0x1 PUSH1 0x0 DUP3 DUP2 MSTORE PUSH1 0x20 ADD SWAP1 DUP2 MSTORE PUSH1 0x20 ADD PUSH1 0x0 KECCAK256 PUSH1 0x1 ADD SLOAD PUSH1 0x8 PUSH1 0x0 DUP3 DUP3 SLOAD PUSH2 0x973 SWAP2 SWAP1 PUSH2 0x219D JUMP JUMPDEST SWAP3 POP POP DUP2 SWAP1 SSTORE POP PUSH1 0x1 PUSH1 0x0 DUP3 DUP2 MSTORE PUSH1 0x20 ADD SWAP1 DUP2 MSTORE PUSH1 0x20 ADD PUSH1 0x0 KECCAK256 PUSH1 0x4 ADD PUSH1 0x1 SWAP1 SLOAD SWAP1 PUSH2 0x100 EXP SWAP1 DIV PUSH1 0xFF AND ISZERO ISZERO DUP2 PUSH32 0xAFFED5D901D9FBE9106721FA52653EDE403C09699F9F810F6D378ACC51FB50FA PUSH1 0x40 MLOAD PUSH1 0x40 MLOAD DUP1 SWAP2 SUB SWAP1 LOG3 POP JUMP JUMPDEST PUSH1 0x5 PUSH1 0x20 MSTORE DUP2 PUSH1 0x0 MSTORE PUSH1 0x40 PUSH1 0x0 KECCAK256 PUSH1 0x20 MSTORE DUP1 PUSH1 0x0 MSTORE PUSH1 0x40 PUSH1 0x0 KECCAK256 PUSH1 0x0 SWAP2 POP SWAP2 POP SWAP1 SLOAD SWAP1 PUSH2 0x100 EXP SWAP1 DIV PUSH1 0xFF AND DUP2 JUMP JUMPDEST PUSH1 0x60 PUSH1 0x0 DUP5 SWAP1 POP PUSH1 0x0 DUP5 DUP5 PUSH2 0xA14 SWAP2 SWAP1 PUSH2 0x219D JUMP JUMPDEST PUSH8 0xFFFFFFFFFFFFFFFF DUP2 GT ISZERO PUSH2 0xA2D JUMPI PUSH2 0xA2C PUSH2 0x1BE4 JUMP JUMPDEST JUMPDEST PUSH1 0x40 MLOAD SWAP1 DUP1 DUP3 MSTORE DUP1 PUSH1 0x1F ADD PUSH1 0x1F NOT AND PUSH1 0x20 ADD DUP3 ADD PUSH1 0x40 MSTORE DUP1 ISZERO PUSH2 0xA5F JUMPI DUP2 PUSH1 0x20 ADD PUSH1 0x1 DUP3 MUL DUP1 CALLDATASIZE DUP4 CALLDATACOPY DUP1 DUP3 ADD SWAP2 POP POP SWAP1 POP JUMPDEST POP SWAP1 POP PUSH1 0x0 DUP6 SWAP1 POP JUMPDEST DUP5 DUP2 LT ISZERO PUSH2 0xAE8 JUMPI DUP3 DUP2 DUP2 MLOAD DUP2 LT PUSH2 0xA83 JUMPI PUSH2 0xA82 PUSH2 0x21D1 JUMP JUMPDEST JUMPDEST PUSH1 0x20 ADD ADD MLOAD PUSH1 0xF8 SHR PUSH1 0xF8 SHL DUP3 DUP8 DUP4 PUSH2 0xA9B SWAP2 SWAP1 PUSH2 0x219D JUMP JUMPDEST DUP2 MLOAD DUP2 LT PUSH2 0xAAC JUMPI PUSH2 0xAAB PUSH2 0x21D1 JUMP JUMPDEST JUMPDEST PUSH1 0x20 ADD ADD SWAP1 PUSH31 0xFFFFFFFFFFFFFFFFFFFFFFFFFFFFFFFFFFFFFFFFFFFFFFFFFFFFFFFFFFFFFF NOT AND SWAP1 DUP2 PUSH1 0x0 BYTE SWAP1 MSTORE8 POP DUP1 DUP1 PUSH1 0x1 ADD SWAP2 POP POP PUSH2 0xA68 JUMP JUMPDEST POP DUP1 SWAP3 POP POP POP SWAP4 SWAP3 POP POP POP JUMP JUMPDEST PUSH1 0x8 SLOAD DUP2 JUMP JUMPDEST PUSH1 0x0 PUSH2 0x258 DUP3 LT ISZERO PUSH2 0xB42 JUMPI PUSH1 0x40 MLOAD PUSH32 0x8C379A000000000000000000000000000000000000000000000000000000000 DUP2 MSTORE PUSH1 0x4 ADD PUSH2 0xB39 SWAP1 PUSH2 0x2272 JUMP JUMPDEST PUSH1 0x40 MLOAD DUP1 SWAP2 SUB SWAP1 REVERT JUMPDEST PUSH2 0xB4B CALLER PUSH2 0xF9A JUMP JUMPDEST PUSH2 0xB8A JUMPI PUSH1 0x40 MLOAD PUSH32 0x8C379A000000000000000000000000000000000000000000000000000000000 DUP2 MSTORE PUSH1 0x4 ADD PUSH2 0xB81 SWAP1 PUSH2 0x22DE JUMP JUMPDEST PUSH1 0x40 MLOAD DUP1 SWAP2 SUB SWAP1 REVERT JUMPDEST PUSH1 0x40 MLOAD DUP1 PUSH2 0x120 ADD PUSH1 0x40 MSTORE DUP1 DUP7 PUSH20 0xFFFFFFFFFFFFFFFFFFFFFFFFFFFFFFFFFFFFFFFF AND DUP2 MSTORE PUSH1 0x20 ADD DUP6 DUP2 MSTORE PUSH1 0x20 ADD DUP5 DUP2 MSTORE PUSH1 0x20 ADD DUP4 TIMESTAMP PUSH2 0xBCA SWAP2 SWAP1 PUSH2 0x22FE JUMP JUMPDEST DUP2 MSTORE PUSH1 0x20 ADD PUSH1 0x1 ISZERO ISZERO DUP2 MSTORE PUSH1 0x20 ADD PUSH1 0x0 ISZERO ISZERO DUP2 MSTORE PUSH1 0x20 ADD PUSH1 0x0 DUP2 MSTORE PUSH1 0x20 ADD PUSH1 0x0 DUP2 MSTORE PUSH1 0x20 ADD CALLER PUSH20 0xFFFFFFFFFFFFFFFFFFFFFFFFFFFFFFFFFFFFFFFF AND DUP2 MSTORE POP PUSH1 0x1 PUSH1 0x0 PUSH1 0x6 SLOAD DUP2 MSTORE PUSH1 0x20 ADD SWAP1 DUP2 MSTORE PUSH1 0x20 ADD PUSH1 0x0 KECCAK256 PUSH1 0x0 DUP3 ADD MLOAD DUP2 PUSH1 0x0 ADD PUSH1 0x0 PUSH2 0x100 EXP DUP2 SLOAD DUP2 PUSH20 0xFFFFFFFFFFFFFFFFFFFFFFFFFFFFFFFFFFFFFFFF MUL NOT AND SWAP1 DUP4 PUSH20 0xFFFFFFFFFFFFFFFFFFFFFFFFFFFFFFFFFFFFFFFF AND MUL OR SWAP1 SSTORE POP PUSH1 0x20 DUP3 ADD MLOAD DUP2 PUSH1 0x1 ADD SSTORE PUSH1 0x40 DUP3 ADD MLOAD DUP2 PUSH1 0x2 ADD SWAP1 DUP2 PUSH2 0xC84 SWAP2 SWAP1 PUSH2 0x24DE JUMP JUMPDEST POP PUSH1 0x60 DUP3 ADD MLOAD DUP2 PUSH1 0x3 ADD SSTORE PUSH1 0x80 DUP3 ADD MLOAD DUP2 PUSH1 0x4 ADD PUSH1 0x0 PUSH2 0x100 EXP DUP2 SLOAD DUP2 PUSH1 0xFF MUL NOT AND SWAP1 DUP4 ISZERO ISZERO MUL OR SWAP1 SSTORE POP PUSH1 0xA0 DUP3 ADD MLOAD DUP2 PUSH1 0x4 ADD PUSH1 0x1 PUSH2 0x100 EXP DUP2 SLOAD DUP2 PUSH1 0xFF MUL NOT AND SWAP1 DUP4 ISZERO ISZERO MUL OR SWAP1 SSTORE POP PUSH1 0xC0 DUP3 ADD MLOAD DUP2 PUSH1 0x5 ADD SSTORE PUSH1 0xE0 DUP3 ADD MLOAD DUP2 PUSH1 0x6 ADD SSTORE PUSH2 0x100 DUP3 ADD MLOAD DUP2 PUSH1 0x7 ADD PUSH1 0x0 PUSH2 0x100 EXP DUP2 SLOAD DUP2 PUSH20 0xFFFFFFFFFFFFFFFFFFFFFFFFFFFFFFFFFFFFFFFF MUL NOT AND SWAP1 DUP4 PUSH20 0xFFFFFFFFFFFFFFFFFFFFFFFFFFFFFFFFFFFFFFFF AND MUL OR SWAP1 SSTORE POP SWAP1 POP POP PUSH1 0x6 PUSH1 0x0 DUP2 SLOAD DUP1 SWAP3 SWAP2 SWAP1 PUSH2 0xD41 SWAP1 PUSH2 0x25B0 JUMP JUMPDEST SWAP2 SWAP1 POP SSTORE POP DUP4 PUSH1 0x8 PUSH1 0x0 DUP3 DUP3 SLOAD PUSH2 0xD58 SWAP2 SWAP1 PUSH2 0x22FE JUMP JUMPDEST SWAP3 POP POP DUP2 SWAP1 SSTORE POP DUP4 DUP6 PUSH20 0xFFFFFFFFFFFFFFFFFFFFFFFFFFFFFFFFFFFFFFFF AND PUSH1 0x1 PUSH1 0x6 SLOAD PUSH2 0xD86 SWAP2 SWAP1 PUSH2 0x219D JUMP JUMPDEST PUSH32 0xDE8596BB26A876FD85351415CD7F8EA047829757B6CE0C3E8F6D5AE325C4B21 DUP7 PUSH1 0x40 MLOAD PUSH2 0xDB5 SWAP2 SWAP1 PUSH2 0x1D7E JUMP JUMPDEST PUSH1 0x40 MLOAD DUP1 SWAP2 SUB SWAP1 LOG4 PUSH1 0x1 PUSH1 0x6 SLOAD PUSH2 0xDCC SWAP2 SWAP1 PUSH2 0x219D JUMP JUMPDEST SWAP1 POP SWAP5 SWAP4 POP POP POP POP JUMP JUMPDEST PUSH1 0x3 DUP1 SLOAD PUSH2 0xDE3 SWAP1 PUSH2 0x1F21 JUMP JUMPDEST DUP1 PUSH1 0x1F ADD PUSH1 0x20 DUP1 SWAP2 DIV MUL PUSH1 0x20 ADD PUSH1 0x40 MLOAD SWAP1 DUP2 ADD PUSH1 0x40 MSTORE DUP1 SWAP3 SWAP2 SWAP1 DUP2 DUP2 MSTORE PUSH1 0x20 ADD DUP3 DUP1 SLOAD PUSH2 0xE0F SWAP1 PUSH2 0x1F21 JUMP JUMPDEST DUP1 ISZERO PUSH2 0xE5C JUMPI DUP1 PUSH1 0x1F LT PUSH2 0xE31 JUMPI PUSH2 0x100 DUP1 DUP4 SLOAD DIV MUL DUP4 MSTORE SWAP2 PUSH1 0x20 ADD SWAP2 PUSH2 0xE5C JUMP JUMPDEST DUP3 ADD SWAP2 SWAP1 PUSH1 0x0 MSTORE PUSH1 0x20 PUSH1 0x0 KECCAK256 SWAP1 JUMPDEST DUP2 SLOAD DUP2 MSTORE SWAP1 PUSH1 0x1 ADD SWAP1 PUSH1 0x20 ADD DUP1 DUP4 GT PUSH2 0xE3F JUMPI DUP3 SWAP1 SUB PUSH1 0x1F AND DUP3 ADD SWAP2 JUMPDEST POP POP POP POP POP DUP2 JUMP JUMPDEST PUSH1 0x0 ISZERO ISZERO PUSH2 0xE71 CALLER PUSH2 0xF9A JUMP JUMPDEST ISZERO ISZERO EQ PUSH2 0xEB3 JUMPI PUSH1 0x40 MLOAD PUSH32 0x8C379A000000000000000000000000000000000000000000000000000000000 DUP2 MSTORE PUSH1 0x4 ADD PUSH2 0xEAA SWAP1 PUSH2 0x2644 JUMP JUMPDEST PUSH1 0x40 MLOAD DUP1 SWAP2 SUB SWAP1 REVERT JUMPDEST PUSH1 0x0 PUSH2 0xECA PUSH2 0xEC1 CALLER PUSH2 0x165F JUMP JUMPDEST PUSH1 0x2 PUSH1 0x22 PUSH2 0x9FF JUMP JUMPDEST SWAP1 POP PUSH1 0x0 DUP1 SLOAD SWAP1 PUSH2 0x100 EXP SWAP1 DIV PUSH20 0xFFFFFFFFFFFFFFFFFFFFFFFFFFFFFFFFFFFFFFFF AND PUSH20 0xFFFFFFFFFFFFFFFFFFFFFFFFFFFFFFFFFFFFFFFF AND PUSH4 0xE980602 CALLER DUP4 PUSH1 0x40 MLOAD DUP4 PUSH4 0xFFFFFFFF AND PUSH1 0xE0 SHL DUP2 MSTORE PUSH1 0x4 ADD PUSH2 0xF27 SWAP3 SWAP2 SWAP1 PUSH2 0x2664 JUMP JUMPDEST PUSH1 0x20 PUSH1 0x40 MLOAD DUP1 DUP4 SUB DUP2 PUSH1 0x0 DUP8 GAS CALL ISZERO DUP1 ISZERO PUSH2 0xF46 JUMPI RETURNDATASIZE PUSH1 0x0 DUP1 RETURNDATACOPY RETURNDATASIZE PUSH1 0x0 REVERT JUMPDEST POP POP POP POP PUSH1 0x40 MLOAD RETURNDATASIZE PUSH1 0x1F NOT PUSH1 0x1F DUP3 ADD AND DUP3 ADD DUP1 PUSH1 0x40 MSTORE POP DUP2 ADD SWAP1 PUSH2 0xF6A SWAP2 SWAP1 PUSH2 0x26A9 JUMP JUMPDEST POP POP JUMP JUMPDEST PUSH1 0x6 SLOAD DUP2 JUMP JUMPDEST PUSH1 0x2 PUSH1 0x0 SWAP1 SLOAD SWAP1 PUSH2 0x100 EXP SWAP1 DIV PUSH20 0xFFFFFFFFFFFFFFFFFFFFFFFFFFFFFFFFFFFFFFFF AND DUP2 JUMP JUMPDEST PUSH1 0x0 DUP1 PUSH1 0x0 DUP1 SLOAD SWAP1 PUSH2 0x100 EXP SWAP1 DIV PUSH20 0xFFFFFFFFFFFFFFFFFFFFFFFFFFFFFFFFFFFFFFFF AND PUSH20 0xFFFFFFFFFFFFFFFFFFFFFFFFFFFFFFFFFFFFFFFF AND PUSH4 0x70A08231 DUP5 PUSH1 0x40 MLOAD DUP3 PUSH4 0xFFFFFFFF AND PUSH1 0xE0 SHL DUP2 MSTORE PUSH1 0x4 ADD PUSH2 0xFF6 SWAP2 SWAP1 PUSH2 0x1E3E JUMP JUMPDEST PUSH1 0x20 PUSH1 0x40 MLOAD DUP1 DUP4 SUB DUP2 DUP7 GAS STATICCALL ISZERO DUP1 ISZERO PUSH2 0x1013 JUMPI RETURNDATASIZE PUSH1 0x0 DUP1 RETURNDATACOPY RETURNDATASIZE PUSH1 0x0 REVERT JUMPDEST POP POP POP POP PUSH1 0x40 MLOAD RETURNDATASIZE PUSH1 0x1F NOT PUSH1 0x1F DUP3 ADD AND DUP3 ADD DUP1 PUSH1 0x40 MSTORE POP DUP2 ADD SWAP1 PUSH2 0x1037 SWAP2 SWAP1 PUSH2 0x26A9 JUMP JUMPDEST GT ISZERO PUSH2 0x1046 JUMPI PUSH1 0x1 SWAP1 POP PUSH2 0x104B JUMP JUMPDEST PUSH1 0x0 SWAP1 POP JUMPDEST SWAP2 SWAP1 POP JUMP JUMPDEST PUSH1 0x7 DUP1 SLOAD PUSH2 0x105D SWAP1 PUSH2 0x1F21 JUMP JUMPDEST DUP1 PUSH1 0x1F ADD PUSH1 0x20 DUP1 SWAP2 DIV MUL PUSH1 0x20 ADD PUSH1 0x40 MLOAD SWAP1 DUP2 ADD PUSH1 0x40 MSTORE DUP1 SWAP3 SWAP2 SWAP1 DUP2 DUP2 MSTORE PUSH1 0x20 ADD DUP3 DUP1 SLOAD PUSH2 0x1089 SWAP1 PUSH2 0x1F21 JUMP JUMPDEST DUP1 ISZERO PUSH2 0x10D6 JUMPI DUP1 PUSH1 0x1F LT PUSH2 0x10AB JUMPI PUSH2 0x100 DUP1 DUP4 SLOAD DIV MUL DUP4 MSTORE SWAP2 PUSH1 0x20 ADD SWAP2 PUSH2 0x10D6 JUMP JUMPDEST DUP3 ADD SWAP2 SWAP1 PUSH1 0x0 MSTORE PUSH1 0x20 PUSH1 0x0 KECCAK256 SWAP1 JUMPDEST DUP2 SLOAD DUP2 MSTORE SWAP1 PUSH1 0x1 ADD SWAP1 PUSH1 0x20 ADD DUP1 DUP4 GT PUSH2 0x10B9 JUMPI DUP3 SWAP1 SUB PUSH1 0x1F AND DUP3 ADD SWAP2 JUMPDEST POP POP POP POP POP DUP2 JUMP JUMPDEST PUSH2 0x10E7 CALLER PUSH2 0xF9A JUMP JUMPDEST PUSH2 0x1126 JUMPI PUSH1 0x40 MLOAD PUSH32 0x8C379A000000000000000000000000000000000000000000000000000000000 DUP2 MSTORE PUSH1 0x4 ADD PUSH2 0x111D SWAP1 PUSH2 0x2748 JUMP JUMPDEST PUSH1 0x40 MLOAD DUP1 SWAP2 SUB SWAP1 REVERT JUMPDEST PUSH1 0x0 ISZERO ISZERO PUSH1 0x4 PUSH1 0x0 CALLER PUSH20 0xFFFFFFFFFFFFFFFFFFFFFFFFFFFFFFFFFFFFFFFF AND PUSH20 0xFFFFFFFFFFFFFFFFFFFFFFFFFFFFFFFFFFFFFFFF AND DUP2 MSTORE PUSH1 0x20 ADD SWAP1 DUP2 MSTORE PUSH1 0x20 ADD PUSH1 0x0 KECCAK256 PUSH1 0x0 DUP5 DUP2 MSTORE PUSH1 0x20 ADD SWAP1 DUP2 MSTORE PUSH1 0x20 ADD PUSH1 0x0 KECCAK256 PUSH1 0x0 SWAP1 SLOAD SWAP1 PUSH2 0x100 EXP SWAP1 DIV PUSH1 0xFF AND ISZERO ISZERO EQ DUP1 ISZERO PUSH2 0x11F8 JUMPI POP PUSH1 0x0 ISZERO ISZERO PUSH1 0x5 PUSH1 0x0 CALLER PUSH20 0xFFFFFFFFFFFFFFFFFFFFFFFFFFFFFFFFFFFFFFFF AND PUSH20 0xFFFFFFFFFFFFFFFFFFFFFFFFFFFFFFFFFFFFFFFF AND DUP2 MSTORE PUSH1 0x20 ADD SWAP1 DUP2 MSTORE PUSH1 0x20 ADD PUSH1 0x0 KECCAK256 PUSH1 0x0 DUP5 DUP2 MSTORE PUSH1 0x20 ADD SWAP1 DUP2 MSTORE PUSH1 0x20 ADD PUSH1 0x0 KECCAK256 PUSH1 0x0 SWAP1 SLOAD SWAP1 PUSH2 0x100 EXP SWAP1 DIV PUSH1 0xFF AND ISZERO ISZERO EQ JUMPDEST PUSH2 0x1237 JUMPI PUSH1 0x40 MLOAD PUSH32 0x8C379A000000000000000000000000000000000000000000000000000000000 DUP2 MSTORE PUSH1 0x4 ADD PUSH2 0x122E SWAP1 PUSH2 0x27B4 JUMP JUMPDEST PUSH1 0x40 MLOAD DUP1 SWAP2 SUB SWAP1 REVERT JUMPDEST PUSH1 0x1 ISZERO ISZERO PUSH1 0x1 PUSH1 0x0 DUP5 DUP2 MSTORE PUSH1 0x20 ADD SWAP1 DUP2 MSTORE PUSH1 0x20 ADD PUSH1 0x0 KECCAK256 PUSH1 0x4 ADD PUSH1 0x0 SWAP1 SLOAD SWAP1 PUSH2 0x100 EXP SWAP1 DIV PUSH1 0xFF AND ISZERO ISZERO EQ PUSH2 0x12A1 JUMPI PUSH1 0x40 MLOAD PUSH32 0x8C379A000000000000000000000000000000000000000000000000000000000 DUP2 MSTORE PUSH1 0x4 ADD PUSH2 0x1298 SWAP1 PUSH2 0x2846 JUMP JUMPDEST PUSH1 0x40 MLOAD DUP1 SWAP2 SUB SWAP1 REVERT JUMPDEST PUSH1 0x0 TIMESTAMP PUSH1 0x1 PUSH1 0x0 DUP6 DUP2 MSTORE PUSH1 0x20 ADD SWAP1 DUP2 MSTORE PUSH1 0x20 ADD PUSH1 0x0 KECCAK256 PUSH1 0x3 ADD SLOAD PUSH2 0x12C5 SWAP2 SWAP1 PUSH2 0x219D JUMP JUMPDEST GT PUSH2 0x1305 JUMPI PUSH1 0x40 MLOAD PUSH32 0x8C379A000000000000000000000000000000000000000000000000000000000 DUP2 MSTORE PUSH1 0x4 ADD PUSH2 0x12FC SWAP1 PUSH2 0x28B2 JUMP JUMPDEST PUSH1 0x40 MLOAD DUP1 SWAP2 SUB SWAP1 REVERT JUMPDEST DUP1 ISZERO PUSH2 0x13A5 JUMPI PUSH1 0x1 PUSH1 0x0 DUP4 DUP2 MSTORE PUSH1 0x20 ADD SWAP1 DUP2 MSTORE PUSH1 0x20 ADD PUSH1 0x0 KECCAK256 PUSH1 0x5 ADD PUSH1 0x0 DUP2 SLOAD DUP1 SWAP3 SWAP2 SWAP1 PUSH2 0x1332 SWAP1 PUSH2 0x25B0 JUMP JUMPDEST SWAP2 SWAP1 POP SSTORE POP PUSH1 0x1 PUSH1 0x4 PUSH1 0x0 CALLER PUSH20 0xFFFFFFFFFFFFFFFFFFFFFFFFFFFFFFFFFFFFFFFF AND PUSH20 0xFFFFFFFFFFFFFFFFFFFFFFFFFFFFFFFFFFFFFFFF AND DUP2 MSTORE PUSH1 0x20 ADD SWAP1 DUP2 MSTORE PUSH1 0x20 ADD PUSH1 0x0 KECCAK256 PUSH1 0x0 DUP5 DUP2 MSTORE PUSH1 0x20 ADD SWAP1 DUP2 MSTORE PUSH1 0x20 ADD PUSH1 0x0 KECCAK256 PUSH1 0x0 PUSH2 0x100 EXP DUP2 SLOAD DUP2 PUSH1 0xFF MUL NOT AND SWAP1 DUP4 ISZERO ISZERO MUL OR SWAP1 SSTORE POP PUSH2 0x143B JUMP JUMPDEST PUSH1 0x1 PUSH1 0x0 DUP4 DUP2 MSTORE PUSH1 0x20 ADD SWAP1 DUP2 MSTORE PUSH1 0x20 ADD PUSH1 0x0 KECCAK256 PUSH1 0x6 ADD PUSH1 0x0 DUP2 SLOAD DUP1 SWAP3 SWAP2 SWAP1 PUSH2 0x13CC SWAP1 PUSH2 0x25B0 JUMP JUMPDEST SWAP2 SWAP1 POP SSTORE POP PUSH1 0x1 PUSH1 0x5 PUSH1 0x0 CALLER PUSH20 0xFFFFFFFFFFFFFFFFFFFFFFFFFFFFFFFFFFFFFFFF AND PUSH20 0xFFFFFFFFFFFFFFFFFFFFFFFFFFFFFFFFFFFFFFFF AND DUP2 MSTORE PUSH1 0x20 ADD SWAP1 DUP2 MSTORE PUSH1 0x20 ADD PUSH1 0x0 KECCAK256 PUSH1 0x0 DUP5 DUP2 MSTORE PUSH1 0x20 ADD SWAP1 DUP2 MSTORE PUSH1 0x20 ADD PUSH1 0x0 KECCAK256 PUSH1 0x0 PUSH2 0x100 EXP DUP2 SLOAD DUP2 PUSH1 0xFF MUL NOT AND SWAP1 DUP4 ISZERO ISZERO MUL OR SWAP1 SSTORE POP JUMPDEST CALLER PUSH20 0xFFFFFFFFFFFFFFFFFFFFFFFFFFFFFFFFFFFFFFFF AND DUP2 ISZERO ISZERO DUP4 PUSH32 0x86ABFCE99B7DD908BEC0169288797F85049EC73CBE046ED9DE818FAB3A497AE0 PUSH1 0x40 MLOAD PUSH1 0x40 MLOAD DUP1 SWAP2 SUB SWAP1 LOG4 POP POP JUMP JUMPDEST PUSH1 0x0 ISZERO ISZERO PUSH2 0x1493 DUP3 PUSH2 0xF9A JUMP JUMPDEST ISZERO ISZERO EQ PUSH2 0x14D5 JUMPI PUSH1 0x40 MLOAD PUSH32 0x8C379A000000000000000000000000000000000000000000000000000000000 DUP2 MSTORE PUSH1 0x4 ADD PUSH2 0x14CC SWAP1 PUSH2 0x2644 JUMP JUMPDEST PUSH1 0x40 MLOAD DUP1 SWAP2 SUB SWAP1 REVERT JUMPDEST PUSH1 0x1 ISZERO ISZERO PUSH2 0x14E2 CALLER PUSH2 0xF9A JUMP JUMPDEST ISZERO ISZERO EQ PUSH2 0x1524 JUMPI PUSH1 0x40 MLOAD PUSH32 0x8C379A000000000000000000000000000000000000000000000000000000000 DUP2 MSTORE PUSH1 0x4 ADD PUSH2 0x151B SWAP1 PUSH2 0x2944 JUMP JUMPDEST PUSH1 0x40 MLOAD DUP1 SWAP2 SUB SWAP1 REVERT JUMPDEST PUSH1 0x0 PUSH2 0x153B PUSH2 0x1532 DUP4 PUSH2 0x165F JUMP JUMPDEST PUSH1 0x2 PUSH1 0x22 PUSH2 0x9FF JUMP JUMPDEST SWAP1 POP PUSH1 0x0 DUP1 SLOAD SWAP1 PUSH2 0x100 EXP SWAP1 DIV PUSH20 0xFFFFFFFFFFFFFFFFFFFFFFFFFFFFFFFFFFFFFFFF AND PUSH20 0xFFFFFFFFFFFFFFFFFFFFFFFFFFFFFFFFFFFFFFFF AND PUSH4 0xE980602 DUP4 DUP4 PUSH1 0x40 MLOAD DUP4 PUSH4 0xFFFFFFFF AND PUSH1 0xE0 SHL DUP2 MSTORE PUSH1 0x4 ADD PUSH2 0x1598 SWAP3 SWAP2 SWAP1 PUSH2 0x2664 JUMP JUMPDEST PUSH1 0x20 PUSH1 0x40 MLOAD DUP1 DUP4 SUB DUP2 PUSH1 0x0 DUP8 GAS CALL ISZERO DUP1 ISZERO PUSH2 0x15B7 JUMPI RETURNDATASIZE PUSH1 0x0 DUP1 RETURNDATACOPY RETURNDATASIZE PUSH1 0x0 REVERT JUMPDEST POP POP POP POP PUSH1 0x40 MLOAD RETURNDATASIZE PUSH1 0x1F NOT PUSH1 0x1F DUP3 ADD AND DUP3 ADD DUP1 PUSH1 0x40 MSTORE POP DUP2 ADD SWAP1 PUSH2 0x15DB SWAP2 SWAP1 PUSH2 0x26A9 JUMP JUMPDEST POP POP POP JUMP JUMPDEST PUSH2 0x258 DUP2 JUMP JUMPDEST PUSH1 0x9 PUSH1 0x0 SWAP1 SLOAD SWAP1 PUSH2 0x100 EXP SWAP1 DIV PUSH20 0xFFFFFFFFFFFFFFFFFFFFFFFFFFFFFFFFFFFFFFFF AND DUP2 JUMP JUMPDEST PUSH1 0x4 PUSH1 0x20 MSTORE DUP2 PUSH1 0x0 MSTORE PUSH1 0x40 PUSH1 0x0 KECCAK256 PUSH1 0x20 MSTORE DUP1 PUSH1 0x0 MSTORE PUSH1 0x40 PUSH1 0x0 KECCAK256 PUSH1 0x0 SWAP2 POP SWAP2 POP SWAP1 SLOAD SWAP1 PUSH2 0x100 EXP SWAP1 DIV PUSH1 0xFF AND DUP2 JUMP JUMPDEST PUSH1 0x0 DUP1 SLOAD SWAP1 PUSH2 0x100 EXP SWAP1 DIV PUSH20 0xFFFFFFFFFFFFFFFFFFFFFFFFFFFFFFFFFFFFFFFF AND DUP2 JUMP JUMPDEST PUSH1 0x60 PUSH2 0x1685 DUP3 PUSH20 0xFFFFFFFFFFFFFFFFFFFFFFFFFFFFFFFFFFFFFFFF AND PUSH1 0x14 PUSH1 0xFF AND PUSH2 0x168C JUMP JUMPDEST SWAP1 POP SWAP2 SWAP1 POP JUMP JUMPDEST PUSH1 0x60 PUSH1 0x0 PUSH1 0x2 DUP4 PUSH1 0x2 PUSH2 0x169F SWAP2 SWAP1 PUSH2 0x2964 JUMP JUMPDEST PUSH2 0x16A9 SWAP2 SWAP1 PUSH2 0x22FE JUMP JUMPDEST PUSH8 0xFFFFFFFFFFFFFFFF DUP2 GT ISZERO PUSH2 0x16C2 JUMPI PUSH2 0x16C1 PUSH2 0x1BE4 JUMP JUMPDEST JUMPDEST PUSH1 0x40 MLOAD SWAP1 DUP1 DUP3 MSTORE DUP1 PUSH1 0x1F ADD PUSH1 0x1F NOT AND PUSH1 0x20 ADD DUP3 ADD PUSH1 0x40 MSTORE DUP1 ISZERO PUSH2 0x16F4 JUMPI DUP2 PUSH1 0x20 ADD PUSH1 0x1 DUP3 MUL DUP1 CALLDATASIZE DUP4 CALLDATACOPY DUP1 DUP3 ADD SWAP2 POP POP SWAP1 POP JUMPDEST POP SWAP1 POP PUSH32 0x3000000000000000000000000000000000000000000000000000000000000000 DUP2 PUSH1 0x0 DUP2 MLOAD DUP2 LT PUSH2 0x172C JUMPI PUSH2 0x172B PUSH2 0x21D1 JUMP JUMPDEST JUMPDEST PUSH1 0x20 ADD ADD SWAP1 PUSH31 0xFFFFFFFFFFFFFFFFFFFFFFFFFFFFFFFFFFFFFFFFFFFFFFFFFFFFFFFFFFFFFF NOT AND SWAP1 DUP2 PUSH1 0x0 BYTE SWAP1 MSTORE8 POP PUSH32 0x7800000000000000000000000000000000000000000000000000000000000000 DUP2 PUSH1 0x1 DUP2 MLOAD DUP2 LT PUSH2 0x1790 JUMPI PUSH2 0x178F PUSH2 0x21D1 JUMP JUMPDEST JUMPDEST PUSH1 0x20 ADD ADD SWAP1 PUSH31 0xFFFFFFFFFFFFFFFFFFFFFFFFFFFFFFFFFFFFFFFFFFFFFFFFFFFFFFFFFFFFFF NOT AND SWAP1 DUP2 PUSH1 0x0 BYTE SWAP1 MSTORE8 POP PUSH1 0x0 PUSH1 0x1 DUP5 PUSH1 0x2 PUSH2 0x17D0 SWAP2 SWAP1 PUSH2 0x2964 JUMP JUMPDEST PUSH2 0x17DA SWAP2 SWAP1 PUSH2 0x22FE JUMP JUMPDEST SWAP1 POP JUMPDEST PUSH1 0x1 DUP2 GT ISZERO PUSH2 0x187A JUMPI PUSH32 0x3031323334353637383961626364656600000000000000000000000000000000 PUSH1 0xF DUP7 AND PUSH1 0x10 DUP2 LT PUSH2 0x181C JUMPI PUSH2 0x181B PUSH2 0x21D1 JUMP JUMPDEST JUMPDEST BYTE PUSH1 0xF8 SHL DUP3 DUP3 DUP2 MLOAD DUP2 LT PUSH2 0x1833 JUMPI PUSH2 0x1832 PUSH2 0x21D1 JUMP JUMPDEST JUMPDEST PUSH1 0x20 ADD ADD SWAP1 PUSH31 0xFFFFFFFFFFFFFFFFFFFFFFFFFFFFFFFFFFFFFFFFFFFFFFFFFFFFFFFFFFFFFF NOT AND SWAP1 DUP2 PUSH1 0x0 BYTE SWAP1 MSTORE8 POP PUSH1 0x4 DUP6 SWAP1 SHR SWAP5 POP DUP1 PUSH2 0x1873 SWAP1 PUSH2 0x29A6 JUMP JUMPDEST SWAP1 POP PUSH2 0x17DD JUMP JUMPDEST POP PUSH1 0x0 DUP5 EQ PUSH2 0x18BE JUMPI PUSH1 0x40 MLOAD PUSH32 0x8C379A000000000000000000000000000000000000000000000000000000000 DUP2 MSTORE PUSH1 0x4 ADD PUSH2 0x18B5 SWAP1 PUSH2 0x2A1B JUMP JUMPDEST PUSH1 0x40 MLOAD DUP1 SWAP2 SUB SWAP1 REVERT JUMPDEST DUP1 SWAP2 POP POP SWAP3 SWAP2 POP POP JUMP JUMPDEST PUSH1 0x0 PUSH1 0x40 MLOAD SWAP1 POP SWAP1 JUMP JUMPDEST PUSH1 0x0 DUP1 REVERT JUMPDEST PUSH1 0x0 DUP1 REVERT JUMPDEST PUSH1 0x0 DUP2 SWAP1 POP SWAP2 SWAP1 POP JUMP JUMPDEST PUSH2 0x18EF DUP2 PUSH2 0x18DC JUMP JUMPDEST DUP2 EQ PUSH2 0x18FA JUMPI PUSH1 0x0 DUP1 REVERT JUMPDEST POP JUMP JUMPDEST PUSH1 0x0 DUP2 CALLDATALOAD SWAP1 POP PUSH2 0x190C DUP2 PUSH2 0x18E6 JUMP JUMPDEST SWAP3 SWAP2 POP POP JUMP JUMPDEST PUSH1 0x0 PUSH1 0x20 DUP3 DUP5 SUB SLT ISZERO PUSH2 0x1928 JUMPI PUSH2 0x1927 PUSH2 0x18D2 JUMP JUMPDEST JUMPDEST PUSH1 0x0 PUSH2 0x1936 DUP5 DUP3 DUP6 ADD PUSH2 0x18FD JUMP JUMPDEST SWAP2 POP POP SWAP3 SWAP2 POP POP JUMP JUMPDEST PUSH1 0x0 PUSH20 0xFFFFFFFFFFFFFFFFFFFFFFFFFFFFFFFFFFFFFFFF DUP3 AND SWAP1 POP SWAP2 SWAP1 POP JUMP JUMPDEST PUSH1 0x0 PUSH2 0x196A DUP3 PUSH2 0x193F JUMP JUMPDEST SWAP1 POP SWAP2 SWAP1 POP JUMP JUMPDEST PUSH2 0x197A DUP2 PUSH2 0x195F JUMP JUMPDEST DUP3 MSTORE POP POP JUMP JUMPDEST PUSH2 0x1989 DUP2 PUSH2 0x18DC JUMP JUMPDEST DUP3 MSTORE POP POP JUMP JUMPDEST PUSH1 0x0 DUP2 MLOAD SWAP1 POP SWAP2 SWAP1 POP JUMP JUMPDEST PUSH1 0x0 DUP3 DUP3 MSTORE PUSH1 0x20 DUP3 ADD SWAP1 POP SWAP3 SWAP2 POP POP JUMP JUMPDEST PUSH1 0x0 JUMPDEST DUP4 DUP2 LT ISZERO PUSH2 0x19C9 JUMPI DUP1 DUP3 ADD MLOAD DUP2 DUP5 ADD MSTORE PUSH1 0x20 DUP2 ADD SWAP1 POP PUSH2 0x19AE JUMP JUMPDEST PUSH1 0x0 DUP5 DUP5 ADD MSTORE POP POP POP POP JUMP JUMPDEST PUSH1 0x0 PUSH1 0x1F NOT PUSH1 0x1F DUP4 ADD AND SWAP1 POP SWAP2 SWAP1 POP JUMP JUMPDEST PUSH1 0x0 PUSH2 0x19F1 DUP3 PUSH2 0x198F JUMP JUMPDEST PUSH2 0x19FB DUP2 DUP6 PUSH2 0x199A JUMP JUMPDEST SWAP4 POP PUSH2 0x1A0B DUP2 DUP6 PUSH1 0x20 DUP7 ADD PUSH2 0x19AB JUMP JUMPDEST PUSH2 0x1A14 DUP2 PUSH2 0x19D5 JUMP JUMPDEST DUP5 ADD SWAP2 POP POP SWAP3 SWAP2 POP POP JUMP JUMPDEST PUSH1 0x0 DUP2 ISZERO ISZERO SWAP1 POP SWAP2 SWAP1 POP JUMP JUMPDEST PUSH2 0x1A34 DUP2 PUSH2 0x1A1F JUMP JUMPDEST DUP3 MSTORE POP POP JUMP JUMPDEST PUSH1 0x0 PUSH2 0x120 DUP3 ADD SWAP1 POP PUSH2 0x1A50 PUSH1 0x0 DUP4 ADD DUP13 PUSH2 0x1971 JUMP JUMPDEST PUSH2 0x1A5D PUSH1 0x20 DUP4 ADD DUP12 PUSH2 0x1980 JUMP JUMPDEST DUP2 DUP2 SUB PUSH1 0x40 DUP4 ADD MSTORE PUSH2 0x1A6F DUP2 DUP11 PUSH2 0x19E6 JUMP JUMPDEST SWAP1 POP PUSH2 0x1A7E PUSH1 0x60 DUP4 ADD DUP10 PUSH2 0x1980 JUMP JUMPDEST PUSH2 0x1A8B PUSH1 0x80 DUP4 ADD DUP9 PUSH2 0x1A2B JUMP JUMPDEST PUSH2 0x1A98 PUSH1 0xA0 DUP4 ADD DUP8 PUSH2 0x1A2B JUMP JUMPDEST PUSH2 0x1AA5 PUSH1 0xC0 DUP4 ADD DUP7 PUSH2 0x1980 JUMP JUMPDEST PUSH2 0x1AB2 PUSH1 0xE0 DUP4 ADD DUP6 PUSH2 0x1980 JUMP JUMPDEST PUSH2 0x1AC0 PUSH2 0x100 DUP4 ADD DUP5 PUSH2 0x1971 JUMP JUMPDEST SWAP11 SWAP10 POP POP POP POP POP POP POP POP POP POP JUMP JUMPDEST PUSH1 0x0 PUSH32 0xFFFFFFFF00000000000000000000000000000000000000000000000000000000 DUP3 AND SWAP1 POP SWAP2 SWAP1 POP JUMP JUMPDEST PUSH2 0x1B03 DUP2 PUSH2 0x1ACE JUMP JUMPDEST DUP2 EQ PUSH2 0x1B0E JUMPI PUSH1 0x0 DUP1 REVERT JUMPDEST POP JUMP JUMPDEST PUSH1 0x0 DUP2 CALLDATALOAD SWAP1 POP PUSH2 0x1B20 DUP2 PUSH2 0x1AFA JUMP JUMPDEST SWAP3 SWAP2 POP POP JUMP JUMPDEST PUSH1 0x0 PUSH1 0x20 DUP3 DUP5 SUB SLT ISZERO PUSH2 0x1B3C JUMPI PUSH2 0x1B3B PUSH2 0x18D2 JUMP JUMPDEST JUMPDEST PUSH1 0x0 PUSH2 0x1B4A DUP5 DUP3 DUP6 ADD PUSH2 0x1B11 JUMP JUMPDEST SWAP2 POP POP SWAP3 SWAP2 POP POP JUMP JUMPDEST PUSH1 0x0 PUSH1 0x20 DUP3 ADD SWAP1 POP PUSH2 0x1B68 PUSH1 0x0 DUP4 ADD DUP5 PUSH2 0x1A2B JUMP JUMPDEST SWAP3 SWAP2 POP POP JUMP JUMPDEST PUSH2 0x1B77 DUP2 PUSH2 0x195F JUMP JUMPDEST DUP2 EQ PUSH2 0x1B82 JUMPI PUSH1 0x0 DUP1 REVERT JUMPDEST POP JUMP JUMPDEST PUSH1 0x0 DUP2 CALLDATALOAD SWAP1 POP PUSH2 0x1B94 DUP2 PUSH2 0x1B6E JUMP JUMPDEST SWAP3 SWAP2 POP POP JUMP JUMPDEST PUSH1 0x0 DUP1 PUSH1 0x40 DUP4 DUP6 SUB SLT ISZERO PUSH2 0x1BB1 JUMPI PUSH2 0x1BB0 PUSH2 0x18D2 JUMP JUMPDEST JUMPDEST PUSH1 0x0 PUSH2 0x1BBF DUP6 DUP3 DUP7 ADD PUSH2 0x1B85 JUMP JUMPDEST SWAP3 POP POP PUSH1 0x20 PUSH2 0x1BD0 DUP6 DUP3 DUP7 ADD PUSH2 0x18FD JUMP JUMPDEST SWAP2 POP POP SWAP3 POP SWAP3 SWAP1 POP JUMP JUMPDEST PUSH1 0x0 DUP1 REVERT JUMPDEST PUSH1 0x0 DUP1 REVERT JUMPDEST PUSH32 0x4E487B7100000000000000000000000000000000000000000000000000000000 PUSH1 0x0 MSTORE PUSH1 0x41 PUSH1 0x4 MSTORE PUSH1 0x24 PUSH1 0x0 REVERT JUMPDEST PUSH2 0x1C1C DUP3 PUSH2 0x19D5 JUMP JUMPDEST DUP2 ADD DUP2 DUP2 LT PUSH8 0xFFFFFFFFFFFFFFFF DUP3 GT OR ISZERO PUSH2 0x1C3B JUMPI PUSH2 0x1C3A PUSH2 0x1BE4 JUMP JUMPDEST JUMPDEST DUP1 PUSH1 0x40 MSTORE POP POP POP JUMP JUMPDEST PUSH1 0x0 PUSH2 0x1C4E PUSH2 0x18C8 JUMP JUMPDEST SWAP1 POP PUSH2 0x1C5A DUP3 DUP3 PUSH2 0x1C13 JUMP JUMPDEST SWAP2 SWAP1 POP JUMP JUMPDEST PUSH1 0x0 PUSH8 0xFFFFFFFFFFFFFFFF DUP3 GT ISZERO PUSH2 0x1C7A JUMPI PUSH2 0x1C79 PUSH2 0x1BE4 JUMP JUMPDEST JUMPDEST PUSH2 0x1C83 DUP3 PUSH2 0x19D5 JUMP JUMPDEST SWAP1 POP PUSH1 0x20 DUP2 ADD SWAP1 POP SWAP2 SWAP1 POP JUMP JUMPDEST DUP3 DUP2 DUP4 CALLDATACOPY PUSH1 0x0 DUP4 DUP4 ADD MSTORE POP POP POP JUMP JUMPDEST PUSH1 0x0 PUSH2 0x1CB2 PUSH2 0x1CAD DUP5 PUSH2 0x1C5F JUMP JUMPDEST PUSH2 0x1C44 JUMP JUMPDEST SWAP1 POP DUP3 DUP2 MSTORE PUSH1 0x20 DUP2 ADD DUP5 DUP5 DUP5 ADD GT ISZERO PUSH2 0x1CCE JUMPI PUSH2 0x1CCD PUSH2 0x1BDF JUMP JUMPDEST JUMPDEST PUSH2 0x1CD9 DUP5 DUP3 DUP6 PUSH2 0x1C90 JUMP JUMPDEST POP SWAP4 SWAP3 POP POP POP JUMP JUMPDEST PUSH1 0x0 DUP3 PUSH1 0x1F DUP4 ADD SLT PUSH2 0x1CF6 JUMPI PUSH2 0x1CF5 PUSH2 0x1BDA JUMP JUMPDEST JUMPDEST DUP2 CALLDATALOAD PUSH2 0x1D06 DUP5 DUP3 PUSH1 0x20 DUP7 ADD PUSH2 0x1C9F JUMP JUMPDEST SWAP2 POP POP SWAP3 SWAP2 POP POP JUMP JUMPDEST PUSH1 0x0 DUP1 PUSH1 0x0 PUSH1 0x60 DUP5 DUP7 SUB SLT ISZERO PUSH2 0x1D28 JUMPI PUSH2 0x1D27 PUSH2 0x18D2 JUMP JUMPDEST JUMPDEST PUSH1 0x0 DUP5 ADD CALLDATALOAD PUSH8 0xFFFFFFFFFFFFFFFF DUP2 GT ISZERO PUSH2 0x1D46 JUMPI PUSH2 0x1D45 PUSH2 0x18D7 JUMP JUMPDEST JUMPDEST PUSH2 0x1D52 DUP7 DUP3 DUP8 ADD PUSH2 0x1CE1 JUMP JUMPDEST SWAP4 POP POP PUSH1 0x20 PUSH2 0x1D63 DUP7 DUP3 DUP8 ADD PUSH2 0x18FD JUMP JUMPDEST SWAP3 POP POP PUSH1 0x40 PUSH2 0x1D74 DUP7 DUP3 DUP8 ADD PUSH2 0x18FD JUMP JUMPDEST SWAP2 POP POP SWAP3 POP SWAP3 POP SWAP3 JUMP JUMPDEST PUSH1 0x0 PUSH1 0x20 DUP3 ADD SWAP1 POP DUP2 DUP2 SUB PUSH1 0x0 DUP4 ADD MSTORE PUSH2 0x1D98 DUP2 DUP5 PUSH2 0x19E6 JUMP JUMPDEST SWAP1 POP SWAP3 SWAP2 POP POP JUMP JUMPDEST PUSH1 0x0 PUSH1 0x20 DUP3 ADD SWAP1 POP PUSH2 0x1DB5 PUSH1 0x0 DUP4 ADD DUP5 PUSH2 0x1980 JUMP JUMPDEST SWAP3 SWAP2 POP POP JUMP JUMPDEST PUSH1 0x0 DUP1 PUSH1 0x0 DUP1 PUSH1 0x80 DUP6 DUP8 SUB SLT ISZERO PUSH2 0x1DD5 JUMPI PUSH2 0x1DD4 PUSH2 0x18D2 JUMP JUMPDEST JUMPDEST PUSH1 0x0 PUSH2 0x1DE3 DUP8 DUP3 DUP9 ADD PUSH2 0x1B85 JUMP JUMPDEST SWAP5 POP POP PUSH1 0x20 PUSH2 0x1DF4 DUP8 DUP3 DUP9 ADD PUSH2 0x18FD JUMP JUMPDEST SWAP4 POP POP PUSH1 0x40 DUP6 ADD CALLDATALOAD PUSH8 0xFFFFFFFFFFFFFFFF DUP2 GT ISZERO PUSH2 0x1E15 JUMPI PUSH2 0x1E14 PUSH2 0x18D7 JUMP JUMPDEST JUMPDEST PUSH2 0x1E21 DUP8 DUP3 DUP9 ADD PUSH2 0x1CE1 JUMP JUMPDEST SWAP3 POP POP PUSH1 0x60 PUSH2 0x1E32 DUP8 DUP3 DUP9 ADD PUSH2 0x18FD JUMP JUMPDEST SWAP2 POP POP SWAP3 SWAP6 SWAP2 SWAP5 POP SWAP3 POP JUMP JUMPDEST PUSH1 0x0 PUSH1 0x20 DUP3 ADD SWAP1 POP PUSH2 0x1E53 PUSH1 0x0 DUP4 ADD DUP5 PUSH2 0x1971 JUMP JUMPDEST SWAP3 SWAP2 POP POP JUMP JUMPDEST PUSH1 0x0 PUSH1 0x20 DUP3 DUP5 SUB SLT ISZERO PUSH2 0x1E6F JUMPI PUSH2 0x1E6E PUSH2 0x18D2 JUMP JUMPDEST JUMPDEST PUSH1 0x0 PUSH2 0x1E7D DUP5 DUP3 DUP6 ADD PUSH2 0x1B85 JUMP JUMPDEST SWAP2 POP POP SWAP3 SWAP2 POP POP JUMP JUMPDEST PUSH2 0x1E8F DUP2 PUSH2 0x1A1F JUMP JUMPDEST DUP2 EQ PUSH2 0x1E9A JUMPI PUSH1 0x0 DUP1 REVERT JUMPDEST POP JUMP JUMPDEST PUSH1 0x0 DUP2 CALLDATALOAD SWAP1 POP PUSH2 0x1EAC DUP2 PUSH2 0x1E86 JUMP JUMPDEST SWAP3 SWAP2 POP POP JUMP JUMPDEST PUSH1 0x0 DUP1 PUSH1 0x40 DUP4 DUP6 SUB SLT ISZERO PUSH2 0x1EC9 JUMPI PUSH2 0x1EC8 PUSH2 0x18D2 JUMP JUMPDEST JUMPDEST PUSH1 0x0 PUSH2 0x1ED7 DUP6 DUP3 DUP7 ADD PUSH2 0x18FD JUMP JUMPDEST SWAP3 POP POP PUSH1 0x20 PUSH2 0x1EE8 DUP6 DUP3 DUP7 ADD PUSH2 0x1E9D JUMP JUMPDEST SWAP2 POP POP SWAP3 POP SWAP3 SWAP1 POP JUMP JUMPDEST PUSH32 0x4E487B7100000000000000000000000000000000000000000000000000000000 PUSH1 0x0 MSTORE PUSH1 0x22 PUSH1 0x4 MSTORE PUSH1 0x24 PUSH1 0x0 REVERT JUMPDEST PUSH1 0x0 PUSH1 0x2 DUP3 DIV SWAP1 POP PUSH1 0x1 DUP3 AND DUP1 PUSH2 0x1F39 JUMPI PUSH1 0x7F DUP3 AND SWAP2 POP JUMPDEST PUSH1 0x20 DUP3 LT DUP2 SUB PUSH2 0x1F4C JUMPI PUSH2 0x1F4B PUSH2 0x1EF2 JUMP JUMPDEST JUMPDEST POP SWAP2 SWAP1 POP JUMP JUMPDEST PUSH32 0x54686520766F74696E6720646561646C696E6520686173206E6F742070617373 PUSH1 0x0 DUP3 ADD MSTORE PUSH32 0x6564207965742E00000000000000000000000000000000000000000000000000 PUSH1 0x20 DUP3 ADD MSTORE POP JUMP JUMPDEST PUSH1 0x0 PUSH2 0x1FAE PUSH1 0x27 DUP4 PUSH2 0x199A JUMP JUMPDEST SWAP2 POP PUSH2 0x1FB9 DUP3 PUSH2 0x1F52 JUMP JUMPDEST PUSH1 0x40 DUP3 ADD SWAP1 POP SWAP2 SWAP1 POP JUMP JUMPDEST PUSH1 0x0 PUSH1 0x20 DUP3 ADD SWAP1 POP DUP2 DUP2 SUB PUSH1 0x0 DUP4 ADD MSTORE PUSH2 0x1FDD DUP2 PUSH2 0x1FA1 JUMP JUMPDEST SWAP1 POP SWAP2 SWAP1 POP JUMP JUMPDEST PUSH32 0x6F6E6C79206D656D626572732063616E20636C6F73652070726F706F73616C73 PUSH1 0x0 DUP3 ADD MSTORE POP JUMP JUMPDEST PUSH1 0x0 PUSH2 0x201A PUSH1 0x20 DUP4 PUSH2 0x199A JUMP JUMPDEST SWAP2 POP PUSH2 0x2025 DUP3 PUSH2 0x1FE4 JUMP JUMPDEST PUSH1 0x20 DUP3 ADD SWAP1 POP SWAP2 SWAP1 POP JUMP JUMPDEST PUSH1 0x0 PUSH1 0x20 DUP3 ADD SWAP1 POP DUP2 DUP2 SUB PUSH1 0x0 DUP4 ADD MSTORE PUSH2 0x2049 DUP2 PUSH2 0x200D JUMP JUMPDEST SWAP1 POP SWAP2 SWAP1 POP JUMP JUMPDEST PUSH32 0x5468652070726F706F73616C20697320616C726561647920636C6F7365640000 PUSH1 0x0 DUP3 ADD MSTORE POP JUMP JUMPDEST PUSH1 0x0 PUSH2 0x2086 PUSH1 0x1E DUP4 PUSH2 0x199A JUMP JUMPDEST SWAP2 POP PUSH2 0x2091 DUP3 PUSH2 0x2050 JUMP JUMPDEST PUSH1 0x20 DUP3 ADD SWAP1 POP SWAP2 SWAP1 POP JUMP JUMPDEST PUSH1 0x0 PUSH1 0x20 DUP3 ADD SWAP1 POP DUP2 DUP2 SUB PUSH1 0x0 DUP4 ADD MSTORE PUSH2 0x20B5 DUP2 PUSH2 0x2079 JUMP JUMPDEST SWAP1 POP SWAP2 SWAP1 POP JUMP JUMPDEST PUSH1 0x0 DUP2 SWAP1 POP SWAP3 SWAP2 POP POP JUMP JUMPDEST POP JUMP JUMPDEST PUSH1 0x0 PUSH2 0x20D7 PUSH1 0x0 DUP4 PUSH2 0x20BC JUMP JUMPDEST SWAP2 POP PUSH2 0x20E2 DUP3 PUSH2 0x20C7 JUMP JUMPDEST PUSH1 0x0 DUP3 ADD SWAP1 POP SWAP2 SWAP1 POP JUMP JUMPDEST PUSH1 0x0 PUSH2 0x20F8 DUP3 PUSH2 0x20CA JUMP JUMPDEST SWAP2 POP DUP2 SWAP1 POP SWAP2 SWAP1 POP JUMP JUMPDEST PUSH32 0x5061796D656E74206661696C65642E0000000000000000000000000000000000 PUSH1 0x0 DUP3 ADD MSTORE POP JUMP JUMPDEST PUSH1 0x0 PUSH2 0x2138 PUSH1 0xF DUP4 PUSH2 0x199A JUMP JUMPDEST SWAP2 POP PUSH2 0x2143 DUP3 PUSH2 0x2102 JUMP JUMPDEST PUSH1 0x20 DUP3 ADD SWAP1 POP SWAP2 SWAP1 POP JUMP JUMPDEST PUSH1 0x0 PUSH1 0x20 DUP3 ADD SWAP1 POP DUP2 DUP2 SUB PUSH1 0x0 DUP4 ADD MSTORE PUSH2 0x2167 DUP2 PUSH2 0x212B JUMP JUMPDEST SWAP1 POP SWAP2 SWAP1 POP JUMP JUMPDEST PUSH32 0x4E487B7100000000000000000000000000000000000000000000000000000000 PUSH1 0x0 MSTORE PUSH1 0x11 PUSH1 0x4 MSTORE PUSH1 0x24 PUSH1 0x0 REVERT JUMPDEST PUSH1 0x0 PUSH2 0x21A8 DUP3 PUSH2 0x18DC JUMP JUMPDEST SWAP2 POP PUSH2 0x21B3 DUP4 PUSH2 0x18DC JUMP JUMPDEST SWAP3 POP DUP3 DUP3 SUB SWAP1 POP DUP2 DUP2 GT ISZERO PUSH2 0x21CB JUMPI PUSH2 0x21CA PUSH2 0x216E JUMP JUMPDEST JUMPDEST SWAP3 SWAP2 POP POP JUMP JUMPDEST PUSH32 0x4E487B7100000000000000000000000000000000000000000000000000000000 PUSH1 0x0 MSTORE PUSH1 0x32 PUSH1 0x4 MSTORE PUSH1 0x24 PUSH1 0x0 REVERT JUMPDEST PUSH32 0x546865206465626174696E6720706572696F64206D7573742062652067726561 PUSH1 0x0 DUP3 ADD MSTORE PUSH32 0x746572207468616E20746865206D696E696D756D2E0000000000000000000000 PUSH1 0x20 DUP3 ADD MSTORE POP JUMP JUMPDEST PUSH1 0x0 PUSH2 0x225C PUSH1 0x35 DUP4 PUSH2 0x199A JUMP JUMPDEST SWAP2 POP PUSH2 0x2267 DUP3 PUSH2 0x2200 JUMP JUMPDEST PUSH1 0x40 DUP3 ADD SWAP1 POP SWAP2 SWAP1 POP JUMP JUMPDEST PUSH1 0x0 PUSH1 0x20 DUP3 ADD SWAP1 POP DUP2 DUP2 SUB PUSH1 0x0 DUP4 ADD MSTORE PUSH2 0x228B DUP2 PUSH2 0x224F JUMP JUMPDEST SWAP1 POP SWAP2 SWAP1 POP JUMP JUMPDEST PUSH32 0x4F6E6C79206D656D626572732063616E206F70656E2070726F706F73616C732E PUSH1 0x0 DUP3 ADD MSTORE POP JUMP JUMPDEST PUSH1 0x0 PUSH2 0x22C8 PUSH1 0x20 DUP4 PUSH2 0x199A JUMP JUMPDEST SWAP2 POP PUSH2 0x22D3 DUP3 PUSH2 0x2292 JUMP JUMPDEST PUSH1 0x20 DUP3 ADD SWAP1 POP SWAP2 SWAP1 POP JUMP JUMPDEST PUSH1 0x0 PUSH1 0x20 DUP3 ADD SWAP1 POP DUP2 DUP2 SUB PUSH1 0x0 DUP4 ADD MSTORE PUSH2 0x22F7 DUP2 PUSH2 0x22BB JUMP JUMPDEST SWAP1 POP SWAP2 SWAP1 POP JUMP JUMPDEST PUSH1 0x0 PUSH2 0x2309 DUP3 PUSH2 0x18DC JUMP JUMPDEST SWAP2 POP PUSH2 0x2314 DUP4 PUSH2 0x18DC JUMP JUMPDEST SWAP3 POP DUP3 DUP3 ADD SWAP1 POP DUP1 DUP3 GT ISZERO PUSH2 0x232C JUMPI PUSH2 0x232B PUSH2 0x216E JUMP JUMPDEST JUMPDEST SWAP3 SWAP2 POP POP JUMP JUMPDEST PUSH1 0x0 DUP2 SWAP1 POP DUP2 PUSH1 0x0 MSTORE PUSH1 0x20 PUSH1 0x0 KECCAK256 SWAP1 POP SWAP2 SWAP1 POP JUMP JUMPDEST PUSH1 0x0 PUSH1 0x20 PUSH1 0x1F DUP4 ADD DIV SWAP1 POP SWAP2 SWAP1 POP JUMP JUMPDEST PUSH1 0x0 DUP3 DUP3 SHL SWAP1 POP SWAP3 SWAP2 POP POP JUMP JUMPDEST PUSH1 0x0 PUSH1 0x8 DUP4 MUL PUSH2 0x2394 PUSH32 0xFFFFFFFFFFFFFFFFFFFFFFFFFFFFFFFFFFFFFFFFFFFFFFFFFFFFFFFFFFFFFFFF DUP3 PUSH2 0x2357 JUMP JUMPDEST PUSH2 0x239E DUP7 DUP4 PUSH2 0x2357 JUMP JUMPDEST SWAP6 POP DUP1 NOT DUP5 AND SWAP4 POP DUP1 DUP7 AND DUP5 OR SWAP3 POP POP POP SWAP4 SWAP3 POP POP POP JUMP JUMPDEST PUSH1 0x0 DUP2 SWAP1 POP SWAP2 SWAP1 POP JUMP JUMPDEST PUSH1 0x0 PUSH2 0x23DB PUSH2 0x23D6 PUSH2 0x23D1 DUP5 PUSH2 0x18DC JUMP JUMPDEST PUSH2 0x23B6 JUMP JUMPDEST PUSH2 0x18DC JUMP JUMPDEST SWAP1 POP SWAP2 SWAP1 POP JUMP JUMPDEST PUSH1 0x0 DUP2 SWAP1 POP SWAP2 SWAP1 POP JUMP JUMPDEST PUSH2 0x23F5 DUP4 PUSH2 0x23C0 JUMP JUMPDEST PUSH2 0x2409 PUSH2 0x2401 DUP3 PUSH2 0x23E2 JUMP JUMPDEST DUP5 DUP5 SLOAD PUSH2 0x2364 JUMP JUMPDEST DUP3 SSTORE POP POP POP POP JUMP JUMPDEST PUSH1 0x0 SWAP1 JUMP JUMPDEST PUSH2 0x241E PUSH2 0x2411 JUMP JUMPDEST PUSH2 0x2429 DUP2 DUP5 DUP5 PUSH2 0x23EC JUMP JUMPDEST POP POP POP JUMP JUMPDEST JUMPDEST DUP2 DUP2 LT ISZERO PUSH2 0x244D JUMPI PUSH2 0x2442 PUSH1 0x0 DUP3 PUSH2 0x2416 JUMP JUMPDEST PUSH1 0x1 DUP2 ADD SWAP1 POP PUSH2 0x242F JUMP JUMPDEST POP POP JUMP JUMPDEST PUSH1 0x1F DUP3 GT ISZERO PUSH2 0x2492 JUMPI PUSH2 0x2463 DUP2 PUSH2 0x2332 JUMP JUMPDEST PUSH2 0x246C DUP5 PUSH2 0x2347 JUMP JUMPDEST DUP2 ADD PUSH1 0x20 DUP6 LT ISZERO PUSH2 0x247B JUMPI DUP2 SWAP1 POP JUMPDEST PUSH2 0x248F PUSH2 0x2487 DUP6 PUSH2 0x2347 JUMP JUMPDEST DUP4 ADD DUP3 PUSH2 0x242E JUMP JUMPDEST POP POP JUMPDEST POP POP POP JUMP JUMPDEST PUSH1 0x0 DUP3 DUP3 SHR SWAP1 POP SWAP3 SWAP2 POP POP JUMP JUMPDEST PUSH1 0x0 PUSH2 0x24B5 PUSH1 0x0 NOT DUP5 PUSH1 0x8 MUL PUSH2 0x2497 JUMP JUMPDEST NOT DUP1 DUP4 AND SWAP2 POP POP SWAP3 SWAP2 POP POP JUMP JUMPDEST PUSH1 0x0 PUSH2 0x24CE DUP4 DUP4 PUSH2 0x24A4 JUMP JUMPDEST SWAP2 POP DUP3 PUSH1 0x2 MUL DUP3 OR SWAP1 POP SWAP3 SWAP2 POP POP JUMP JUMPDEST PUSH2 0x24E7 DUP3 PUSH2 0x198F JUMP JUMPDEST PUSH8 0xFFFFFFFFFFFFFFFF DUP2 GT ISZERO PUSH2 0x2500 JUMPI PUSH2 0x24FF PUSH2 0x1BE4 JUMP JUMPDEST JUMPDEST PUSH2 0x250A DUP3 SLOAD PUSH2 0x1F21 JUMP JUMPDEST PUSH2 0x2515 DUP3 DUP3 DUP6 PUSH2 0x2451 JUMP JUMPDEST PUSH1 0x0 PUSH1 0x20 SWAP1 POP PUSH1 0x1F DUP4 GT PUSH1 0x1 DUP2 EQ PUSH2 0x2548 JUMPI PUSH1 0x0 DUP5 ISZERO PUSH2 0x2536 JUMPI DUP3 DUP8 ADD MLOAD SWAP1 POP JUMPDEST PUSH2 0x2540 DUP6 DUP3 PUSH2 0x24C2 JUMP JUMPDEST DUP7 SSTORE POP PUSH2 0x25A8 JUMP JUMPDEST PUSH1 0x1F NOT DUP5 AND PUSH2 0x2556 DUP7 PUSH2 0x2332 JUMP JUMPDEST PUSH1 0x0 JUMPDEST DUP3 DUP2 LT ISZERO PUSH2 0x257E JUMPI DUP5 DUP10 ADD MLOAD DUP3 SSTORE PUSH1 0x1 DUP3 ADD SWAP2 POP PUSH1 0x20 DUP6 ADD SWAP5 POP PUSH1 0x20 DUP2 ADD SWAP1 POP PUSH2 0x2559 JUMP JUMPDEST DUP7 DUP4 LT ISZERO PUSH2 0x259B JUMPI DUP5 DUP10 ADD MLOAD PUSH2 0x2597 PUSH1 0x1F DUP10 AND DUP3 PUSH2 0x24A4 JUMP JUMPDEST DUP4 SSTORE POP JUMPDEST PUSH1 0x1 PUSH1 0x2 DUP9 MUL ADD DUP9 SSTORE POP POP POP JUMPDEST POP POP POP POP POP POP JUMP JUMPDEST PUSH1 0x0 PUSH2 0x25BB DUP3 PUSH2 0x18DC JUMP JUMPDEST SWAP2 POP PUSH32 0xFFFFFFFFFFFFFFFFFFFFFFFFFFFFFFFFFFFFFFFFFFFFFFFFFFFFFFFFFFFFFFFF DUP3 SUB PUSH2 0x25ED JUMPI PUSH2 0x25EC PUSH2 0x216E JUMP JUMPDEST JUMPDEST PUSH1 0x1 DUP3 ADD SWAP1 POP SWAP2 SWAP1 POP JUMP JUMPDEST PUSH32 0x4D656D62657220697320616C726561647920696E207468652044414F2E000000 PUSH1 0x0 DUP3 ADD MSTORE POP JUMP JUMPDEST PUSH1 0x0 PUSH2 0x262E PUSH1 0x1D DUP4 PUSH2 0x199A JUMP JUMPDEST SWAP2 POP PUSH2 0x2639 DUP3 PUSH2 0x25F8 JUMP JUMPDEST PUSH1 0x20 DUP3 ADD SWAP1 POP SWAP2 SWAP1 POP JUMP JUMPDEST PUSH1 0x0 PUSH1 0x20 DUP3 ADD SWAP1 POP DUP2 DUP2 SUB PUSH1 0x0 DUP4 ADD MSTORE PUSH2 0x265D DUP2 PUSH2 0x2621 JUMP JUMPDEST SWAP1 POP SWAP2 SWAP1 POP JUMP JUMPDEST PUSH1 0x0 PUSH1 0x40 DUP3 ADD SWAP1 POP PUSH2 0x2679 PUSH1 0x0 DUP4 ADD DUP6 PUSH2 0x1971 JUMP JUMPDEST DUP2 DUP2 SUB PUSH1 0x20 DUP4 ADD MSTORE PUSH2 0x268B DUP2 DUP5 PUSH2 0x19E6 JUMP JUMPDEST SWAP1 POP SWAP4 SWAP3 POP POP POP JUMP JUMPDEST PUSH1 0x0 DUP2 MLOAD SWAP1 POP PUSH2 0x26A3 DUP2 PUSH2 0x18E6 JUMP JUMPDEST SWAP3 SWAP2 POP POP JUMP JUMPDEST PUSH1 0x0 PUSH1 0x20 DUP3 DUP5 SUB SLT ISZERO PUSH2 0x26BF JUMPI PUSH2 0x26BE PUSH2 0x18D2 JUMP JUMPDEST JUMPDEST PUSH1 0x0 PUSH2 0x26CD DUP5 DUP3 DUP6 ADD PUSH2 0x2694 JUMP JUMPDEST SWAP2 POP POP SWAP3 SWAP2 POP POP JUMP JUMPDEST PUSH32 0x6F6E6C79206D656D626572732063616E20766F7465206F6E2070726F706F7361 PUSH1 0x0 DUP3 ADD MSTORE PUSH32 0x6C732E0000000000000000000000000000000000000000000000000000000000 PUSH1 0x20 DUP3 ADD MSTORE POP JUMP JUMPDEST PUSH1 0x0 PUSH2 0x2732 PUSH1 0x23 DUP4 PUSH2 0x199A JUMP JUMPDEST SWAP2 POP PUSH2 0x273D DUP3 PUSH2 0x26D6 JUMP JUMPDEST PUSH1 0x40 DUP3 ADD SWAP1 POP SWAP2 SWAP1 POP JUMP JUMPDEST PUSH1 0x0 PUSH1 0x20 DUP3 ADD SWAP1 POP DUP2 DUP2 SUB PUSH1 0x0 DUP4 ADD MSTORE PUSH2 0x2761 DUP2 PUSH2 0x2725 JUMP JUMPDEST SWAP1 POP SWAP2 SWAP1 POP JUMP JUMPDEST PUSH32 0x5468652073656E6465722068617320616C726561647920766F7465642E000000 PUSH1 0x0 DUP3 ADD MSTORE POP JUMP JUMPDEST PUSH1 0x0 PUSH2 0x279E PUSH1 0x1D DUP4 PUSH2 0x199A JUMP JUMPDEST SWAP2 POP PUSH2 0x27A9 DUP3 PUSH2 0x2768 JUMP JUMPDEST PUSH1 0x20 DUP3 ADD SWAP1 POP SWAP2 SWAP1 POP JUMP JUMPDEST PUSH1 0x0 PUSH1 0x20 DUP3 ADD SWAP1 POP DUP2 DUP2 SUB PUSH1 0x0 DUP4 ADD MSTORE PUSH2 0x27CD DUP2 PUSH2 0x2791 JUMP JUMPDEST SWAP1 POP SWAP2 SWAP1 POP JUMP JUMPDEST PUSH32 0x5468652070726F706F73616C206973206E6F74206F70656E20746F20766F7469 PUSH1 0x0 DUP3 ADD MSTORE PUSH32 0x6E67000000000000000000000000000000000000000000000000000000000000 PUSH1 0x20 DUP3 ADD MSTORE POP JUMP JUMPDEST PUSH1 0x0 PUSH2 0x2830 PUSH1 0x22 DUP4 PUSH2 0x199A JUMP JUMPDEST SWAP2 POP PUSH2 0x283B DUP3 PUSH2 0x27D4 JUMP JUMPDEST PUSH1 0x40 DUP3 ADD SWAP1 POP SWAP2 SWAP1 POP JUMP JUMPDEST PUSH1 0x0 PUSH1 0x20 DUP3 ADD SWAP1 POP DUP2 DUP2 SUB PUSH1 0x0 DUP4 ADD MSTORE PUSH2 0x285F DUP2 PUSH2 0x2823 JUMP JUMPDEST SWAP1 POP SWAP2 SWAP1 POP JUMP JUMPDEST PUSH32 0x54686520766F74696E6720646561646C696E6520686173207061737365642E00 PUSH1 0x0 DUP3 ADD MSTORE POP JUMP JUMPDEST PUSH1 0x0 PUSH2 0x289C PUSH1 0x1F DUP4 PUSH2 0x199A JUMP JUMPDEST SWAP2 POP PUSH2 0x28A7 DUP3 PUSH2 0x2866 JUMP JUMPDEST PUSH1 0x20 DUP3 ADD SWAP1 POP SWAP2 SWAP1 POP JUMP JUMPDEST PUSH1 0x0 PUSH1 0x20 DUP3 ADD SWAP1 POP DUP2 DUP2 SUB PUSH1 0x0 DUP4 ADD MSTORE PUSH2 0x28CB DUP2 PUSH2 0x288F JUMP JUMPDEST SWAP1 POP SWAP2 SWAP1 POP JUMP JUMPDEST PUSH32 0x4F6E6C792044414F206D656D626572732063616E20616464206E6577206D656D PUSH1 0x0 DUP3 ADD MSTORE PUSH32 0x626572732E000000000000000000000000000000000000000000000000000000 PUSH1 0x20 DUP3 ADD MSTORE POP JUMP JUMPDEST PUSH1 0x0 PUSH2 0x292E PUSH1 0x25 DUP4 PUSH2 0x199A JUMP JUMPDEST SWAP2 POP PUSH2 0x2939 DUP3 PUSH2 0x28D2 JUMP JUMPDEST PUSH1 0x40 DUP3 ADD SWAP1 POP SWAP2 SWAP1 POP JUMP JUMPDEST PUSH1 0x0 PUSH1 0x20 DUP3 ADD SWAP1 POP DUP2 DUP2 SUB PUSH1 0x0 DUP4 ADD MSTORE PUSH2 0x295D DUP2 PUSH2 0x2921 JUMP JUMPDEST SWAP1 POP SWAP2 SWAP1 POP JUMP JUMPDEST PUSH1 0x0 PUSH2 0x296F DUP3 PUSH2 0x18DC JUMP JUMPDEST SWAP2 POP PUSH2 0x297A DUP4 PUSH2 0x18DC JUMP JUMPDEST SWAP3 POP DUP3 DUP3 MUL PUSH2 0x2988 DUP2 PUSH2 0x18DC JUMP JUMPDEST SWAP2 POP DUP3 DUP3 DIV DUP5 EQ DUP4 ISZERO OR PUSH2 0x299F JUMPI PUSH2 0x299E PUSH2 0x216E JUMP JUMPDEST JUMPDEST POP SWAP3 SWAP2 POP POP JUMP JUMPDEST PUSH1 0x0 PUSH2 0x29B1 DUP3 PUSH2 0x18DC JUMP JUMPDEST SWAP2 POP PUSH1 0x0 DUP3 SUB PUSH2 0x29C4 JUMPI PUSH2 0x29C3 PUSH2 0x216E JUMP JUMPDEST JUMPDEST PUSH1 0x1 DUP3 SUB SWAP1 POP SWAP2 SWAP1 POP JUMP JUMPDEST PUSH32 0x537472696E67733A20686578206C656E67746820696E73756666696369656E74 PUSH1 0x0 DUP3 ADD MSTORE POP JUMP JUMPDEST PUSH1 0x0 PUSH2 0x2A05 PUSH1 0x20 DUP4 PUSH2 0x199A JUMP JUMPDEST SWAP2 POP PUSH2 0x2A10 DUP3 PUSH2 0x29CF JUMP JUMPDEST PUSH1 0x20 DUP3 ADD SWAP1 POP SWAP2 SWAP1 POP JUMP JUMPDEST PUSH1 0x0 PUSH1 0x20 DUP3 ADD SWAP1 POP DUP2 DUP2 SUB PUSH1 0x0 DUP4 ADD MSTORE PUSH2 0x2A34 DUP2 PUSH2 0x29F8 JUMP JUMPDEST SWAP1 POP SWAP2 SWAP1 POP JUMP INVALID LOG2 PUSH5 0x6970667358 0x22 SLT KECCAK256 DUP16 SWAP12 0xB4 0xFB MSTORE 0x1F PUSH2 0xB1EC LOG3 0xBD CREATE 0xB5 0xE1 PUSH14 0x12AD68DAA109F8ED9B5A960FBF4F 0xB1 MOD PUSH27 0x64736F6C6343000816003360806040526040518060600160405280 PUSH1 0x31 DUP2 MSTORE PUSH1 0x20 ADD PUSH3 0x2ECA PUSH1 0x31 SWAP2 CODECOPY PUSH1 0x8 SWAP1 DUP2 PUSH3 0x2E SWAP2 SWAP1 PUSH3 0x34F JUMP JUMPDEST POP CALLVALUE DUP1 ISZERO PUSH3 0x3C JUMPI PUSH1 0x0 DUP1 REVERT JUMPDEST POP PUSH1 0x40 MLOAD DUP1 PUSH1 0x40 ADD PUSH1 0x40 MSTORE DUP1 PUSH1 0x8 DUP2 MSTORE PUSH1 0x20 ADD PUSH32 0x52657074696C6573000000000000000000000000000000000000000000000000 DUP2 MSTORE POP PUSH1 0x40 MLOAD DUP1 PUSH1 0x40 ADD PUSH1 0x40 MSTORE DUP1 PUSH1 0x3 DUP2 MSTORE PUSH1 0x20 ADD PUSH32 0x5245500000000000000000000000000000000000000000000000000000000000 DUP2 MSTORE POP DUP2 PUSH1 0x0 SWAP1 DUP2 PUSH3 0xBA SWAP2 SWAP1 PUSH3 0x34F JUMP JUMPDEST POP DUP1 PUSH1 0x1 SWAP1 DUP2 PUSH3 0xCC SWAP2 SWAP1 PUSH3 0x34F JUMP JUMPDEST POP POP POP PUSH3 0x436 JUMP JUMPDEST PUSH1 0x0 DUP2 MLOAD SWAP1 POP SWAP2 SWAP1 POP JUMP JUMPDEST PUSH32 0x4E487B7100000000000000000000000000000000000000000000000000000000 PUSH1 0x0 MSTORE PUSH1 0x41 PUSH1 0x4 MSTORE PUSH1 0x24 PUSH1 0x0 REVERT JUMPDEST PUSH32 0x4E487B7100000000000000000000000000000000000000000000000000000000 PUSH1 0x0 MSTORE PUSH1 0x22 PUSH1 0x4 MSTORE PUSH1 0x24 PUSH1 0x0 REVERT JUMPDEST PUSH1 0x0 PUSH1 0x2 DUP3 DIV SWAP1 POP PUSH1 0x1 DUP3 AND DUP1 PUSH3 0x157 JUMPI PUSH1 0x7F DUP3 AND SWAP2 POP JUMPDEST PUSH1 0x20 DUP3 LT DUP2 SUB PUSH3 0x16D JUMPI PUSH3 0x16C PUSH3 0x10F JUMP JUMPDEST JUMPDEST POP SWAP2 SWAP1 POP JUMP JUMPDEST PUSH1 0x0 DUP2 SWAP1 POP DUP2 PUSH1 0x0 MSTORE PUSH1 0x20 PUSH1 0x0 KECCAK256 SWAP1 POP SWAP2 SWAP1 POP JUMP JUMPDEST PUSH1 0x0 PUSH1 0x20 PUSH1 0x1F DUP4 ADD DIV SWAP1 POP SWAP2 SWAP1 POP JUMP JUMPDEST PUSH1 0x0 DUP3 DUP3 SHL SWAP1 POP SWAP3 SWAP2 POP POP JUMP JUMPDEST PUSH1 0x0 PUSH1 0x8 DUP4 MUL PUSH3 0x1D7 PUSH32 0xFFFFFFFFFFFFFFFFFFFFFFFFFFFFFFFFFFFFFFFFFFFFFFFFFFFFFFFFFFFFFFFF DUP3 PUSH3 0x198 JUMP JUMPDEST PUSH3 0x1E3 DUP7 DUP4 PUSH3 0x198 JUMP JUMPDEST SWAP6 POP DUP1 NOT DUP5 AND SWAP4 POP DUP1 DUP7 AND DUP5 OR SWAP3 POP POP POP SWAP4 SWAP3 POP POP POP JUMP JUMPDEST PUSH1 0x0 DUP2 SWAP1 POP SWAP2 SWAP1 POP JUMP JUMPDEST PUSH1 0x0 DUP2 SWAP1 POP SWAP2 SWAP1 POP JUMP JUMPDEST PUSH1 0x0 PUSH3 0x230 PUSH3 0x22A PUSH3 0x224 DUP5 PUSH3 0x1FB JUMP JUMPDEST PUSH3 0x205 JUMP JUMPDEST PUSH3 0x1FB JUMP JUMPDEST SWAP1 POP SWAP2 SWAP1 POP JUMP JUMPDEST PUSH1 0x0 DUP2 SWAP1 POP SWAP2 SWAP1 POP JUMP JUMPDEST PUSH3 0x24C DUP4 PUSH3 0x20F JUMP JUMPDEST PUSH3 0x264 PUSH3 0x25B DUP3 PUSH3 0x237 JUMP JUMPDEST DUP5 DUP5 SLOAD PUSH3 0x1A5 JUMP JUMPDEST DUP3 SSTORE POP POP POP POP JUMP JUMPDEST PUSH1 0x0 SWAP1 JUMP JUMPDEST PUSH3 0x27B PUSH3 0x26C JUMP JUMPDEST PUSH3 0x288 DUP2 DUP5 DUP5 PUSH3 0x241 JUMP JUMPDEST POP POP POP JUMP JUMPDEST JUMPDEST DUP2 DUP2 LT ISZERO PUSH3 0x2B0 JUMPI PUSH3 0x2A4 PUSH1 0x0 DUP3 PUSH3 0x271 JUMP JUMPDEST PUSH1 0x1 DUP2 ADD SWAP1 POP PUSH3 0x28E JUMP JUMPDEST POP POP JUMP JUMPDEST PUSH1 0x1F DUP3 GT ISZERO PUSH3 0x2FF JUMPI PUSH3 0x2C9 DUP2 PUSH3 0x173 JUMP JUMPDEST PUSH3 0x2D4 DUP5 PUSH3 0x188 JUMP JUMPDEST DUP2 ADD PUSH1 0x20 DUP6 LT ISZERO PUSH3 0x2E4 JUMPI DUP2 SWAP1 POP JUMPDEST PUSH3 0x2FC PUSH3 0x2F3 DUP6 PUSH3 0x188 JUMP JUMPDEST DUP4 ADD DUP3 PUSH3 0x28D JUMP JUMPDEST POP POP JUMPDEST POP POP POP JUMP JUMPDEST PUSH1 0x0 DUP3 DUP3 SHR SWAP1 POP SWAP3 SWAP2 POP POP JUMP JUMPDEST PUSH1 0x0 PUSH3 0x324 PUSH1 0x0 NOT DUP5 PUSH1 0x8 MUL PUSH3 0x304 JUMP JUMPDEST NOT DUP1 DUP4 AND SWAP2 POP POP SWAP3 SWAP2 POP POP JUMP JUMPDEST PUSH1 0x0 PUSH3 0x33F DUP4 DUP4 PUSH3 0x311 JUMP JUMPDEST SWAP2 POP DUP3 PUSH1 0x2 MUL DUP3 OR SWAP1 POP SWAP3 SWAP2 POP POP JUMP JUMPDEST PUSH3 0x35A DUP3 PUSH3 0xD5 JUMP JUMPDEST PUSH8 0xFFFFFFFFFFFFFFFF DUP2 GT ISZERO PUSH3 0x376 JUMPI PUSH3 0x375 PUSH3 0xE0 JUMP JUMPDEST JUMPDEST PUSH3 0x382 DUP3 SLOAD PUSH3 0x13E JUMP JUMPDEST PUSH3 0x38F DUP3 DUP3 DUP6 PUSH3 0x2B4 JUMP JUMPDEST PUSH1 0x0 PUSH1 0x20 SWAP1 POP PUSH1 0x1F DUP4 GT PUSH1 0x1 DUP2 EQ PUSH3 0x3C7 JUMPI PUSH1 0x0 DUP5 ISZERO PUSH3 0x3B2 JUMPI DUP3 DUP8 ADD MLOAD SWAP1 POP JUMPDEST PUSH3 0x3BE DUP6 DUP3 PUSH3 0x331 JUMP JUMPDEST DUP7 SSTORE POP PUSH3 0x42E JUMP JUMPDEST PUSH1 0x1F NOT DUP5 AND PUSH3 0x3D7 DUP7 PUSH3 0x173 JUMP JUMPDEST PUSH1 0x0 JUMPDEST DUP3 DUP2 LT ISZERO PUSH3 0x401 JUMPI DUP5 DUP10 ADD MLOAD DUP3 SSTORE PUSH1 0x1 DUP3 ADD SWAP2 POP PUSH1 0x20 DUP6 ADD SWAP5 POP PUSH1 0x20 DUP2 ADD SWAP1 POP PUSH3 0x3DA JUMP JUMPDEST DUP7 DUP4 LT ISZERO PUSH3 0x421 JUMPI DUP5 DUP10 ADD MLOAD PUSH3 0x41D PUSH1 0x1F DUP10 AND DUP3 PUSH3 0x311 JUMP JUMPDEST DUP4 SSTORE POP JUMPDEST PUSH1 0x1 PUSH1 0x2 DUP9 MUL ADD DUP9 SSTORE POP POP POP JUMPDEST POP POP POP POP POP POP JUMP JUMPDEST PUSH2 0x2A84 DUP1 PUSH3 0x446 PUSH1 0x0 CODECOPY PUSH1 0x0 RETURN INVALID PUSH1 0x80 PUSH1 0x40 MSTORE CALLVALUE DUP1 ISZERO PUSH2 0x10 JUMPI PUSH1 0x0 DUP1 REVERT JUMPDEST POP PUSH1 0x4 CALLDATASIZE LT PUSH2 0x100 JUMPI PUSH1 0x0 CALLDATALOAD PUSH1 0xE0 SHR DUP1 PUSH4 0x6352211E GT PUSH2 0x97 JUMPI DUP1 PUSH4 0xA22CB465 GT PUSH2 0x66 JUMPI DUP1 PUSH4 0xA22CB465 EQ PUSH2 0x2D3 JUMPI DUP1 PUSH4 0xB88D4FDE EQ PUSH2 0x2EF JUMPI DUP1 PUSH4 0xC87B56DD EQ PUSH2 0x30B JUMPI DUP1 PUSH4 0xE985E9C5 EQ PUSH2 0x33B JUMPI PUSH2 0x100 JUMP JUMPDEST DUP1 PUSH4 0x6352211E EQ PUSH2 0x225 JUMPI DUP1 PUSH4 0x70A08231 EQ PUSH2 0x255 JUMPI DUP1 PUSH4 0x947B59AE EQ PUSH2 0x285 JUMPI DUP1 PUSH4 0x95D89B41 EQ PUSH2 0x2B5 JUMPI PUSH2 0x100 JUMP JUMPDEST DUP1 PUSH4 0x95EA7B3 GT PUSH2 0xD3 JUMPI DUP1 PUSH4 0x95EA7B3 EQ PUSH2 0x1A1 JUMPI DUP1 PUSH4 0xE980602 EQ PUSH2 0x1BD JUMPI DUP1 PUSH4 0x23B872DD EQ PUSH2 0x1ED JUMPI DUP1 PUSH4 0x42842E0E EQ PUSH2 0x209 JUMPI PUSH2 0x100 JUMP JUMPDEST DUP1 PUSH4 0x1FFC9A7 EQ PUSH2 0x105 JUMPI DUP1 PUSH4 0x6661ABD EQ PUSH2 0x135 JUMPI DUP1 PUSH4 0x6FDDE03 EQ PUSH2 0x153 JUMPI DUP1 PUSH4 0x81812FC EQ PUSH2 0x171 JUMPI JUMPDEST PUSH1 0x0 DUP1 REVERT JUMPDEST PUSH2 0x11F PUSH1 0x4 DUP1 CALLDATASIZE SUB DUP2 ADD SWAP1 PUSH2 0x11A SWAP2 SWAP1 PUSH2 0x1790 JUMP JUMPDEST PUSH2 0x36B JUMP JUMPDEST PUSH1 0x40 MLOAD PUSH2 0x12C SWAP2 SWAP1 PUSH2 0x17D8 JUMP JUMPDEST PUSH1 0x40 MLOAD DUP1 SWAP2 SUB SWAP1 RETURN JUMPDEST PUSH2 0x13D PUSH2 0x50D JUMP JUMPDEST PUSH1 0x40 MLOAD PUSH2 0x14A SWAP2 SWAP1 PUSH2 0x180C JUMP JUMPDEST PUSH1 0x40 MLOAD DUP1 SWAP2 SUB SWAP1 RETURN JUMPDEST PUSH2 0x15B PUSH2 0x513 JUMP JUMPDEST PUSH1 0x40 MLOAD PUSH2 0x168 SWAP2 SWAP1 PUSH2 0x18B7 JUMP JUMPDEST PUSH1 0x40 MLOAD DUP1 SWAP2 SUB SWAP1 RETURN JUMPDEST PUSH2 0x18B PUSH1 0x4 DUP1 CALLDATASIZE SUB DUP2 ADD SWAP1 PUSH2 0x186 SWAP2 SWAP1 PUSH2 0x1905 JUMP JUMPDEST PUSH2 0x5A5 JUMP JUMPDEST PUSH1 0x40 MLOAD PUSH2 0x198 SWAP2 SWAP1 PUSH2 0x1973 JUMP JUMPDEST PUSH1 0x40 MLOAD DUP1 SWAP2 SUB SWAP1 RETURN JUMPDEST PUSH2 0x1BB PUSH1 0x4 DUP1 CALLDATASIZE SUB DUP2 ADD SWAP1 PUSH2 0x1B6 SWAP2 SWAP1 PUSH2 0x19BA JUMP JUMPDEST PUSH2 0x5EB JUMP JUMPDEST STOP JUMPDEST PUSH2 0x1D7 PUSH1 0x4 DUP1 CALLDATASIZE SUB DUP2 ADD SWAP1 PUSH2 0x1D2 SWAP2 SWAP1 PUSH2 0x1B2F JUMP JUMPDEST PUSH2 0x702 JUMP JUMPDEST PUSH1 0x40 MLOAD PUSH2 0x1E4 SWAP2 SWAP1 PUSH2 0x180C JUMP JUMPDEST PUSH1 0x40 MLOAD DUP1 SWAP2 SUB SWAP1 RETURN JUMPDEST PUSH2 0x207 PUSH1 0x4 DUP1 CALLDATASIZE SUB DUP2 ADD SWAP1 PUSH2 0x202 SWAP2 SWAP1 PUSH2 0x1B8B JUMP JUMPDEST PUSH2 0x7EA JUMP JUMPDEST STOP JUMPDEST PUSH2 0x223 PUSH1 0x4 DUP1 CALLDATASIZE SUB DUP2 ADD SWAP1 PUSH2 0x21E SWAP2 SWAP1 PUSH2 0x1B8B JUMP JUMPDEST PUSH2 0x84A JUMP JUMPDEST STOP JUMPDEST PUSH2 0x23F PUSH1 0x4 DUP1 CALLDATASIZE SUB DUP2 ADD SWAP1 PUSH2 0x23A SWAP2 SWAP1 PUSH2 0x1905 JUMP JUMPDEST PUSH2 0x86A JUMP JUMPDEST PUSH1 0x40 MLOAD PUSH2 0x24C SWAP2 SWAP1 PUSH2 0x1973 JUMP JUMPDEST PUSH1 0x40 MLOAD DUP1 SWAP2 SUB SWAP1 RETURN JUMPDEST PUSH2 0x26F PUSH1 0x4 DUP1 CALLDATASIZE SUB DUP2 ADD SWAP1 PUSH2 0x26A SWAP2 SWAP1 PUSH2 0x1BDE JUMP JUMPDEST PUSH2 0x8F0 JUMP JUMPDEST PUSH1 0x40 MLOAD PUSH2 0x27C SWAP2 SWAP1 PUSH2 0x180C JUMP JUMPDEST PUSH1 0x40 MLOAD DUP1 SWAP2 SUB SWAP1 RETURN JUMPDEST PUSH2 0x29F PUSH1 0x4 DUP1 CALLDATASIZE SUB DUP2 ADD SWAP1 PUSH2 0x29A SWAP2 SWAP1 PUSH2 0x1C0B JUMP JUMPDEST PUSH2 0x9A7 JUMP JUMPDEST PUSH1 0x40 MLOAD PUSH2 0x2AC SWAP2 SWAP1 PUSH2 0x180C JUMP JUMPDEST PUSH1 0x40 MLOAD DUP1 SWAP2 SUB SWAP1 RETURN JUMPDEST PUSH2 0x2BD PUSH2 0x9BA JUMP JUMPDEST PUSH1 0x40 MLOAD PUSH2 0x2CA SWAP2 SWAP1 PUSH2 0x18B7 JUMP JUMPDEST PUSH1 0x40 MLOAD DUP1 SWAP2 SUB SWAP1 RETURN JUMPDEST PUSH2 0x2ED PUSH1 0x4 DUP1 CALLDATASIZE SUB DUP2 ADD SWAP1 PUSH2 0x2E8 SWAP2 SWAP1 PUSH2 0x1C80 JUMP JUMPDEST PUSH2 0xA4C JUMP JUMPDEST STOP JUMPDEST PUSH2 0x309 PUSH1 0x4 DUP1 CALLDATASIZE SUB DUP2 ADD SWAP1 PUSH2 0x304 SWAP2 SWAP1 PUSH2 0x1D61 JUMP JUMPDEST PUSH2 0xA62 JUMP JUMPDEST STOP JUMPDEST PUSH2 0x325 PUSH1 0x4 DUP1 CALLDATASIZE SUB DUP2 ADD SWAP1 PUSH2 0x320 SWAP2 SWAP1 PUSH2 0x1905 JUMP JUMPDEST PUSH2 0xAC4 JUMP JUMPDEST PUSH1 0x40 MLOAD PUSH2 0x332 SWAP2 SWAP1 PUSH2 0x18B7 JUMP JUMPDEST PUSH1 0x40 MLOAD DUP1 SWAP2 SUB SWAP1 RETURN JUMPDEST PUSH2 0x355 PUSH1 0x4 DUP1 CALLDATASIZE SUB DUP2 ADD SWAP1 PUSH2 0x350 SWAP2 SWAP1 PUSH2 0x1DE4 JUMP JUMPDEST PUSH2 0xB64 JUMP JUMPDEST PUSH1 0x40 MLOAD PUSH2 0x362 SWAP2 SWAP1 PUSH2 0x17D8 JUMP JUMPDEST PUSH1 0x40 MLOAD DUP1 SWAP2 SUB SWAP1 RETURN JUMPDEST PUSH1 0x0 PUSH32 0x80AC58CD00000000000000000000000000000000000000000000000000000000 PUSH28 0xFFFFFFFFFFFFFFFFFFFFFFFFFFFFFFFFFFFFFFFFFFFFFFFFFFFFFFFF NOT AND DUP3 PUSH28 0xFFFFFFFFFFFFFFFFFFFFFFFFFFFFFFFFFFFFFFFFFFFFFFFFFFFFFFFF NOT AND EQ DUP1 PUSH2 0x436 JUMPI POP PUSH32 0x5B5E139F00000000000000000000000000000000000000000000000000000000 PUSH28 0xFFFFFFFFFFFFFFFFFFFFFFFFFFFFFFFFFFFFFFFFFFFFFFFFFFFFFFFF NOT AND DUP3 PUSH28 0xFFFFFFFFFFFFFFFFFFFFFFFFFFFFFFFFFFFFFFFFFFFFFFFFFFFFFFFF NOT AND EQ JUMPDEST DUP1 PUSH2 0x49E JUMPI POP PUSH32 0x1FFC9A700000000000000000000000000000000000000000000000000000000 PUSH28 0xFFFFFFFFFFFFFFFFFFFFFFFFFFFFFFFFFFFFFFFFFFFFFFFFFFFFFFFF NOT AND DUP3 PUSH28 0xFFFFFFFFFFFFFFFFFFFFFFFFFFFFFFFFFFFFFFFFFFFFFFFFFFFFFFFF NOT AND EQ JUMPDEST DUP1 PUSH2 0x506 JUMPI POP PUSH32 0x9C85451100000000000000000000000000000000000000000000000000000000 PUSH28 0xFFFFFFFFFFFFFFFFFFFFFFFFFFFFFFFFFFFFFFFFFFFFFFFFFFFFFFFF NOT AND DUP3 PUSH28 0xFFFFFFFFFFFFFFFFFFFFFFFFFFFFFFFFFFFFFFFFFFFFFFFFFFFFFFFF NOT AND EQ JUMPDEST SWAP1 POP SWAP2 SWAP1 POP JUMP JUMPDEST PUSH1 0x7 SLOAD DUP2 JUMP JUMPDEST PUSH1 0x60 PUSH1 0x0 DUP1 SLOAD PUSH2 0x522 SWAP1 PUSH2 0x1E53 JUMP JUMPDEST DUP1 PUSH1 0x1F ADD PUSH1 0x20 DUP1 SWAP2 DIV MUL PUSH1 0x20 ADD PUSH1 0x40 MLOAD SWAP1 DUP2 ADD PUSH1 0x40 MSTORE DUP1 SWAP3 SWAP2 SWAP1 DUP2 DUP2 MSTORE PUSH1 0x20 ADD DUP3 DUP1 SLOAD PUSH2 0x54E SWAP1 PUSH2 0x1E53 JUMP JUMPDEST DUP1 ISZERO PUSH2 0x59B JUMPI DUP1 PUSH1 0x1F LT PUSH2 0x570 JUMPI PUSH2 0x100 DUP1 DUP4 SLOAD DIV MUL DUP4 MSTORE SWAP2 PUSH1 0x20 ADD SWAP2 PUSH2 0x59B JUMP JUMPDEST DUP3 ADD SWAP2 SWAP1 PUSH1 0x0 MSTORE PUSH1 0x20 PUSH1 0x0 KECCAK256 SWAP1 JUMPDEST DUP2 SLOAD DUP2 MSTORE SWAP1 PUSH1 0x1 ADD SWAP1 PUSH1 0x20 ADD DUP1 DUP4 GT PUSH2 0x57E JUMPI DUP3 SWAP1 SUB PUSH1 0x1F AND DUP3 ADD SWAP2 JUMPDEST POP POP POP POP POP SWAP1 POP SWAP1 JUMP JUMPDEST PUSH1 0x0 PUSH2 0x5B0 DUP3 PUSH2 0xBF8 JUMP JUMPDEST PUSH1 0x4 PUSH1 0x0 DUP4 DUP2 MSTORE PUSH1 0x20 ADD SWAP1 DUP2 MSTORE PUSH1 0x20 ADD PUSH1 0x0 KECCAK256 PUSH1 0x0 SWAP1 SLOAD SWAP1 PUSH2 0x100 EXP SWAP1 DIV PUSH20 0xFFFFFFFFFFFFFFFFFFFFFFFFFFFFFFFFFFFFFFFF AND SWAP1 POP SWAP2 SWAP1 POP JUMP JUMPDEST PUSH1 0x0 PUSH2 0x5F6 DUP3 PUSH2 0x86A JUMP JUMPDEST SWAP1 POP DUP1 PUSH20 0xFFFFFFFFFFFFFFFFFFFFFFFFFFFFFFFFFFFFFFFF AND DUP4 PUSH20 0xFFFFFFFFFFFFFFFFFFFFFFFFFFFFFFFFFFFFFFFF AND SUB PUSH2 0x666 JUMPI PUSH1 0x40 MLOAD PUSH32 0x8C379A000000000000000000000000000000000000000000000000000000000 DUP2 MSTORE PUSH1 0x4 ADD PUSH2 0x65D SWAP1 PUSH2 0x1EF6 JUMP JUMPDEST PUSH1 0x40 MLOAD DUP1 SWAP2 SUB SWAP1 REVERT JUMPDEST DUP1 PUSH20 0xFFFFFFFFFFFFFFFFFFFFFFFFFFFFFFFFFFFFFFFF AND PUSH2 0x685 PUSH2 0xC43 JUMP JUMPDEST PUSH20 0xFFFFFFFFFFFFFFFFFFFFFFFFFFFFFFFFFFFFFFFF AND EQ DUP1 PUSH2 0x6B4 JUMPI POP PUSH2 0x6B3 DUP2 PUSH2 0x6AE PUSH2 0xC43 JUMP JUMPDEST PUSH2 0xB64 JUMP JUMPDEST JUMPDEST PUSH2 0x6F3 JUMPI PUSH1 0x40 MLOAD PUSH32 0x8C379A000000000000000000000000000000000000000000000000000000000 DUP2 MSTORE PUSH1 0x4 ADD PUSH2 0x6EA SWAP1 PUSH2 0x1F88 JUMP JUMPDEST PUSH1 0x40 MLOAD DUP1 SWAP2 SUB SWAP1 REVERT JUMPDEST PUSH2 0x6FD DUP4 DUP4 PUSH2 0xC4B JUMP JUMPDEST POP POP POP JUMP JUMPDEST PUSH1 0x0 DUP1 PUSH1 0x0 SWAP1 POP JUMPDEST PUSH1 0x7 SLOAD DUP2 LT ISZERO PUSH2 0x791 JUMPI DUP3 DUP1 MLOAD SWAP1 PUSH1 0x20 ADD KECCAK256 PUSH1 0x6 PUSH1 0x0 DUP4 DUP2 MSTORE PUSH1 0x20 ADD SWAP1 DUP2 MSTORE PUSH1 0x20 ADD PUSH1 0x0 KECCAK256 PUSH1 0x40 MLOAD PUSH2 0x73C SWAP2 SWAP1 PUSH2 0x204B JUMP JUMPDEST PUSH1 0x40 MLOAD DUP1 SWAP2 SUB SWAP1 KECCAK256 SUB PUSH2 0x784 JUMPI PUSH1 0x40 MLOAD PUSH32 0x8C379A000000000000000000000000000000000000000000000000000000000 DUP2 MSTORE PUSH1 0x4 ADD PUSH2 0x77B SWAP1 PUSH2 0x20AE JUMP JUMPDEST PUSH1 0x40 MLOAD DUP1 SWAP2 SUB SWAP1 REVERT JUMPDEST DUP1 DUP1 PUSH1 0x1 ADD SWAP2 POP POP PUSH2 0x70A JUMP JUMPDEST POP PUSH1 0x0 PUSH1 0x7 SLOAD SWAP1 POP PUSH2 0x7A5 DUP5 PUSH1 0x7 SLOAD PUSH2 0xD04 JUMP JUMPDEST DUP3 PUSH1 0x6 PUSH1 0x0 PUSH1 0x7 SLOAD DUP2 MSTORE PUSH1 0x20 ADD SWAP1 DUP2 MSTORE PUSH1 0x20 ADD PUSH1 0x0 KECCAK256 SWAP1 DUP2 PUSH2 0x7C7 SWAP2 SWAP1 PUSH2 0x227A JUMP JUMPDEST POP PUSH1 0x7 PUSH1 0x0 DUP2 SLOAD DUP1 SWAP3 SWAP2 SWAP1 PUSH2 0x7DB SWAP1 PUSH2 0x237B JUMP JUMPDEST SWAP2 SWAP1 POP SSTORE POP DUP1 SWAP2 POP POP SWAP3 SWAP2 POP POP JUMP JUMPDEST PUSH2 0x7FB PUSH2 0x7F5 PUSH2 0xC43 JUMP JUMPDEST DUP3 PUSH2 0xD22 JUMP JUMPDEST PUSH2 0x83A JUMPI PUSH1 0x40 MLOAD PUSH32 0x8C379A000000000000000000000000000000000000000000000000000000000 DUP2 MSTORE PUSH1 0x4 ADD PUSH2 0x831 SWAP1 PUSH2 0x2435 JUMP JUMPDEST PUSH1 0x40 MLOAD DUP1 SWAP2 SUB SWAP1 REVERT JUMPDEST PUSH2 0x845 DUP4 DUP4 DUP4 PUSH2 0xDB7 JUMP JUMPDEST POP POP POP JUMP JUMPDEST PUSH2 0x865 DUP4 DUP4 DUP4 PUSH1 0x40 MLOAD DUP1 PUSH1 0x20 ADD PUSH1 0x40 MSTORE DUP1 PUSH1 0x0 DUP2 MSTORE POP PUSH2 0xA62 JUMP JUMPDEST POP POP POP JUMP JUMPDEST PUSH1 0x0 DUP1 PUSH2 0x876 DUP4 PUSH2 0x10B0 JUMP JUMPDEST SWAP1 POP PUSH1 0x0 PUSH20 0xFFFFFFFFFFFFFFFFFFFFFFFFFFFFFFFFFFFFFFFF AND DUP2 PUSH20 0xFFFFFFFFFFFFFFFFFFFFFFFFFFFFFFFFFFFFFFFF AND SUB PUSH2 0x8E7 JUMPI PUSH1 0x40 MLOAD PUSH32 0x8C379A000000000000000000000000000000000000000000000000000000000 DUP2 MSTORE PUSH1 0x4 ADD PUSH2 0x8DE SWAP1 PUSH2 0x24A1 JUMP JUMPDEST PUSH1 0x40 MLOAD DUP1 SWAP2 SUB SWAP1 REVERT JUMPDEST DUP1 SWAP2 POP POP SWAP2 SWAP1 POP JUMP JUMPDEST PUSH1 0x0 DUP1 PUSH20 0xFFFFFFFFFFFFFFFFFFFFFFFFFFFFFFFFFFFFFFFF AND DUP3 PUSH20 0xFFFFFFFFFFFFFFFFFFFFFFFFFFFFFFFFFFFFFFFF AND SUB PUSH2 0x960 JUMPI PUSH1 0x40 MLOAD PUSH32 0x8C379A000000000000000000000000000000000000000000000000000000000 DUP2 MSTORE PUSH1 0x4 ADD PUSH2 0x957 SWAP1 PUSH2 0x2533 JUMP JUMPDEST PUSH1 0x40 MLOAD DUP1 SWAP2 SUB SWAP1 REVERT JUMPDEST PUSH1 0x3 PUSH1 0x0 DUP4 PUSH20 0xFFFFFFFFFFFFFFFFFFFFFFFFFFFFFFFFFFFFFFFF AND PUSH20 0xFFFFFFFFFFFFFFFFFFFFFFFFFFFFFFFFFFFFFFFF AND DUP2 MSTORE PUSH1 0x20 ADD SWAP1 DUP2 MSTORE PUSH1 0x20 ADD PUSH1 0x0 KECCAK256 SLOAD SWAP1 POP SWAP2 SWAP1 POP JUMP JUMPDEST PUSH1 0x0 PUSH2 0x9B3 CALLER DUP4 PUSH2 0x702 JUMP JUMPDEST SWAP1 POP SWAP2 SWAP1 POP JUMP JUMPDEST PUSH1 0x60 PUSH1 0x1 DUP1 SLOAD PUSH2 0x9C9 SWAP1 PUSH2 0x1E53 JUMP JUMPDEST DUP1 PUSH1 0x1F ADD PUSH1 0x20 DUP1 SWAP2 DIV MUL PUSH1 0x20 ADD PUSH1 0x40 MLOAD SWAP1 DUP2 ADD PUSH1 0x40 MSTORE DUP1 SWAP3 SWAP2 SWAP1 DUP2 DUP2 MSTORE PUSH1 0x20 ADD DUP3 DUP1 SLOAD PUSH2 0x9F5 SWAP1 PUSH2 0x1E53 JUMP JUMPDEST DUP1 ISZERO PUSH2 0xA42 JUMPI DUP1 PUSH1 0x1F LT PUSH2 0xA17 JUMPI PUSH2 0x100 DUP1 DUP4 SLOAD DIV MUL DUP4 MSTORE SWAP2 PUSH1 0x20 ADD SWAP2 PUSH2 0xA42 JUMP JUMPDEST DUP3 ADD SWAP2 SWAP1 PUSH1 0x0 MSTORE PUSH1 0x20 PUSH1 0x0 KECCAK256 SWAP1 JUMPDEST DUP2 SLOAD DUP2 MSTORE SWAP1 PUSH1 0x1 ADD SWAP1 PUSH1 0x20 ADD DUP1 DUP4 GT PUSH2 0xA25 JUMPI DUP3 SWAP1 SUB PUSH1 0x1F AND DUP3 ADD SWAP2 JUMPDEST POP POP POP POP POP SWAP1 POP SWAP1 JUMP JUMPDEST PUSH2 0xA5E PUSH2 0xA57 PUSH2 0xC43 JUMP JUMPDEST DUP4 DUP4 PUSH2 0x10ED JUMP JUMPDEST POP POP JUMP JUMPDEST PUSH2 0xA73 PUSH2 0xA6D PUSH2 0xC43 JUMP JUMPDEST DUP4 PUSH2 0xD22 JUMP JUMPDEST PUSH2 0xAB2 JUMPI PUSH1 0x40 MLOAD PUSH32 0x8C379A000000000000000000000000000000000000000000000000000000000 DUP2 MSTORE PUSH1 0x4 ADD PUSH2 0xAA9 SWAP1 PUSH2 0x2435 JUMP JUMPDEST PUSH1 0x40 MLOAD DUP1 SWAP2 SUB SWAP1 REVERT JUMPDEST PUSH2 0xABE DUP5 DUP5 DUP5 DUP5 PUSH2 0x1259 JUMP JUMPDEST POP POP POP POP JUMP JUMPDEST PUSH1 0x60 PUSH1 0x0 PUSH1 0x6 PUSH1 0x0 DUP5 DUP2 MSTORE PUSH1 0x20 ADD SWAP1 DUP2 MSTORE PUSH1 0x20 ADD PUSH1 0x0 KECCAK256 DUP1 SLOAD PUSH2 0xAE6 SWAP1 PUSH2 0x1E53 JUMP JUMPDEST SWAP1 POP GT PUSH2 0xB28 JUMPI PUSH1 0x40 MLOAD PUSH32 0x8C379A000000000000000000000000000000000000000000000000000000000 DUP2 MSTORE PUSH1 0x4 ADD PUSH2 0xB1F SWAP1 PUSH2 0x259F JUMP JUMPDEST PUSH1 0x40 MLOAD DUP1 SWAP2 SUB SWAP1 REVERT JUMPDEST PUSH1 0x8 PUSH1 0x6 PUSH1 0x0 DUP5 DUP2 MSTORE PUSH1 0x20 ADD SWAP1 DUP2 MSTORE PUSH1 0x20 ADD PUSH1 0x0 KECCAK256 PUSH1 0x40 MLOAD PUSH1 0x20 ADD PUSH2 0xB4E SWAP3 SWAP2 SWAP1 PUSH2 0x264D JUMP JUMPDEST PUSH1 0x40 MLOAD PUSH1 0x20 DUP2 DUP4 SUB SUB DUP2 MSTORE SWAP1 PUSH1 0x40 MSTORE SWAP1 POP SWAP2 SWAP1 POP JUMP JUMPDEST PUSH1 0x0 PUSH1 0x5 PUSH1 0x0 DUP5 PUSH20 0xFFFFFFFFFFFFFFFFFFFFFFFFFFFFFFFFFFFFFFFF AND PUSH20 0xFFFFFFFFFFFFFFFFFFFFFFFFFFFFFFFFFFFFFFFF AND DUP2 MSTORE PUSH1 0x20 ADD SWAP1 DUP2 MSTORE PUSH1 0x20 ADD PUSH1 0x0 KECCAK256 PUSH1 0x0 DUP4 PUSH20 0xFFFFFFFFFFFFFFFFFFFFFFFFFFFFFFFFFFFFFFFF AND PUSH20 0xFFFFFFFFFFFFFFFFFFFFFFFFFFFFFFFFFFFFFFFF AND DUP2 MSTORE PUSH1 0x20 ADD SWAP1 DUP2 MSTORE PUSH1 0x20 ADD PUSH1 0x0 KECCAK256 PUSH1 0x0 SWAP1 SLOAD SWAP1 PUSH2 0x100 EXP SWAP1 DIV PUSH1 0xFF AND SWAP1 POP SWAP3 SWAP2 POP POP JUMP JUMPDEST PUSH2 0xC01 DUP2 PUSH2 0x12B5 JUMP JUMPDEST PUSH2 0xC40 JUMPI PUSH1 0x40 MLOAD PUSH32 0x8C379A000000000000000000000000000000000000000000000000000000000 DUP2 MSTORE PUSH1 0x4 ADD PUSH2 0xC37 SWAP1 PUSH2 0x24A1 JUMP JUMPDEST PUSH1 0x40 MLOAD DUP1 SWAP2 SUB SWAP1 REVERT JUMPDEST POP JUMP JUMPDEST PUSH1 0x0 CALLER SWAP1 POP SWAP1 JUMP JUMPDEST DUP2 PUSH1 0x4 PUSH1 0x0 DUP4 DUP2 MSTORE PUSH1 0x20 ADD SWAP1 DUP2 MSTORE PUSH1 0x20 ADD PUSH1 0x0 KECCAK256 PUSH1 0x0 PUSH2 0x100 EXP DUP2 SLOAD DUP2 PUSH20 0xFFFFFFFFFFFFFFFFFFFFFFFFFFFFFFFFFFFFFFFF MUL NOT AND SWAP1 DUP4 PUSH20 0xFFFFFFFFFFFFFFFFFFFFFFFFFFFFFFFFFFFFFFFF AND MUL OR SWAP1 SSTORE POP DUP1 DUP3 PUSH20 0xFFFFFFFFFFFFFFFFFFFFFFFFFFFFFFFFFFFFFFFF AND PUSH2 0xCBE DUP4 PUSH2 0x86A JUMP JUMPDEST PUSH20 0xFFFFFFFFFFFFFFFFFFFFFFFFFFFFFFFFFFFFFFFF AND PUSH32 0x8C5BE1E5EBEC7D5BD14F71427D1E84F3DD0314C0F7B2291E5B200AC8C7C3B925 PUSH1 0x40 MLOAD PUSH1 0x40 MLOAD DUP1 SWAP2 SUB SWAP1 LOG4 POP POP JUMP JUMPDEST PUSH2 0xD1E DUP3 DUP3 PUSH1 0x40 MLOAD DUP1 PUSH1 0x20 ADD PUSH1 0x40 MSTORE DUP1 PUSH1 0x0 DUP2 MSTORE POP PUSH2 0x12F6 JUMP JUMPDEST POP POP JUMP JUMPDEST PUSH1 0x0 DUP1 PUSH2 0xD2E DUP4 PUSH2 0x86A JUMP JUMPDEST SWAP1 POP DUP1 PUSH20 0xFFFFFFFFFFFFFFFFFFFFFFFFFFFFFFFFFFFFFFFF AND DUP5 PUSH20 0xFFFFFFFFFFFFFFFFFFFFFFFFFFFFFFFFFFFFFFFF AND EQ DUP1 PUSH2 0xD70 JUMPI POP PUSH2 0xD6F DUP2 DUP6 PUSH2 0xB64 JUMP JUMPDEST JUMPDEST DUP1 PUSH2 0xDAE JUMPI POP DUP4 PUSH20 0xFFFFFFFFFFFFFFFFFFFFFFFFFFFFFFFFFFFFFFFF AND PUSH2 0xD96 DUP5 PUSH2 0x5A5 JUMP JUMPDEST PUSH20 0xFFFFFFFFFFFFFFFFFFFFFFFFFFFFFFFFFFFFFFFF AND EQ JUMPDEST SWAP2 POP POP SWAP3 SWAP2 POP POP JUMP JUMPDEST DUP3 PUSH20 0xFFFFFFFFFFFFFFFFFFFFFFFFFFFFFFFFFFFFFFFF AND PUSH2 0xDD7 DUP3 PUSH2 0x86A JUMP JUMPDEST PUSH20 0xFFFFFFFFFFFFFFFFFFFFFFFFFFFFFFFFFFFFFFFF AND EQ PUSH2 0xE2D JUMPI PUSH1 0x40 MLOAD PUSH32 0x8C379A000000000000000000000000000000000000000000000000000000000 DUP2 MSTORE PUSH1 0x4 ADD PUSH2 0xE24 SWAP1 PUSH2 0x26E3 JUMP JUMPDEST PUSH1 0x40 MLOAD DUP1 SWAP2 SUB SWAP1 REVERT JUMPDEST PUSH1 0x0 PUSH20 0xFFFFFFFFFFFFFFFFFFFFFFFFFFFFFFFFFFFFFFFF AND DUP3 PUSH20 0xFFFFFFFFFFFFFFFFFFFFFFFFFFFFFFFFFFFFFFFF AND SUB PUSH2 0xE9C JUMPI PUSH1 0x40 MLOAD PUSH32 0x8C379A000000000000000000000000000000000000000000000000000000000 DUP2 MSTORE PUSH1 0x4 ADD PUSH2 0xE93 SWAP1 PUSH2 0x2775 JUMP JUMPDEST PUSH1 0x40 MLOAD DUP1 SWAP2 SUB SWAP1 REVERT JUMPDEST PUSH2 0xEA9 DUP4 DUP4 DUP4 PUSH1 0x1 PUSH2 0x1351 JUMP JUMPDEST DUP3 PUSH20 0xFFFFFFFFFFFFFFFFFFFFFFFFFFFFFFFFFFFFFFFF AND PUSH2 0xEC9 DUP3 PUSH2 0x86A JUMP JUMPDEST PUSH20 0xFFFFFFFFFFFFFFFFFFFFFFFFFFFFFFFFFFFFFFFF AND EQ PUSH2 0xF1F JUMPI PUSH1 0x40 MLOAD PUSH32 0x8C379A000000000000000000000000000000000000000000000000000000000 DUP2 MSTORE PUSH1 0x4 ADD PUSH2 0xF16 SWAP1 PUSH2 0x26E3 JUMP JUMPDEST PUSH1 0x40 MLOAD DUP1 SWAP2 SUB SWAP1 REVERT JUMPDEST PUSH1 0x4 PUSH1 0x0 DUP3 DUP2 MSTORE PUSH1 0x20 ADD SWAP1 DUP2 MSTORE PUSH1 0x20 ADD PUSH1 0x0 KECCAK256 PUSH1 0x0 PUSH2 0x100 EXP DUP2 SLOAD SWAP1 PUSH20 0xFFFFFFFFFFFFFFFFFFFFFFFFFFFFFFFFFFFFFFFF MUL NOT AND SWAP1 SSTORE PUSH1 0x1 PUSH1 0x3 PUSH1 0x0 DUP6 PUSH20 0xFFFFFFFFFFFFFFFFFFFFFFFFFFFFFFFFFFFFFFFF AND PUSH20 0xFFFFFFFFFFFFFFFFFFFFFFFFFFFFFFFFFFFFFFFF AND DUP2 MSTORE PUSH1 0x20 ADD SWAP1 DUP2 MSTORE PUSH1 0x20 ADD PUSH1 0x0 KECCAK256 PUSH1 0x0 DUP3 DUP3 SLOAD SUB SWAP3 POP POP DUP2 SWAP1 SSTORE POP PUSH1 0x1 PUSH1 0x3 PUSH1 0x0 DUP5 PUSH20 0xFFFFFFFFFFFFFFFFFFFFFFFFFFFFFFFFFFFFFFFF AND PUSH20 0xFFFFFFFFFFFFFFFFFFFFFFFFFFFFFFFFFFFFFFFF AND DUP2 MSTORE PUSH1 0x20 ADD SWAP1 DUP2 MSTORE PUSH1 0x20 ADD PUSH1 0x0 KECCAK256 PUSH1 0x0 DUP3 DUP3 SLOAD ADD SWAP3 POP POP DUP2 SWAP1 SSTORE POP DUP2 PUSH1 0x2 PUSH1 0x0 DUP4 DUP2 MSTORE PUSH1 0x20 ADD SWAP1 DUP2 MSTORE PUSH1 0x20 ADD PUSH1 0x0 KECCAK256 PUSH1 0x0 PUSH2 0x100 EXP DUP2 SLOAD DUP2 PUSH20 0xFFFFFFFFFFFFFFFFFFFFFFFFFFFFFFFFFFFFFFFF MUL NOT AND SWAP1 DUP4 PUSH20 0xFFFFFFFFFFFFFFFFFFFFFFFFFFFFFFFFFFFFFFFF AND MUL OR SWAP1 SSTORE POP DUP1 DUP3 PUSH20 0xFFFFFFFFFFFFFFFFFFFFFFFFFFFFFFFFFFFFFFFF AND DUP5 PUSH20 0xFFFFFFFFFFFFFFFFFFFFFFFFFFFFFFFFFFFFFFFF AND PUSH32 0xDDF252AD1BE2C89B69C2B068FC378DAA952BA7F163C4A11628F55A4DF523B3EF PUSH1 0x40 MLOAD PUSH1 0x40 MLOAD DUP1 SWAP2 SUB SWAP1 LOG4 PUSH2 0x10AB DUP4 DUP4 DUP4 PUSH1 0x1 PUSH2 0x1357 JUMP JUMPDEST POP POP POP JUMP JUMPDEST PUSH1 0x0 PUSH1 0x2 PUSH1 0x0 DUP4 DUP2 MSTORE PUSH1 0x20 ADD SWAP1 DUP2 MSTORE PUSH1 0x20 ADD PUSH1 0x0 KECCAK256 PUSH1 0x0 SWAP1 SLOAD SWAP1 PUSH2 0x100 EXP SWAP1 DIV PUSH20 0xFFFFFFFFFFFFFFFFFFFFFFFFFFFFFFFFFFFFFFFF AND SWAP1 POP SWAP2 SWAP1 POP JUMP JUMPDEST DUP2 PUSH20 0xFFFFFFFFFFFFFFFFFFFFFFFFFFFFFFFFFFFFFFFF AND DUP4 PUSH20 0xFFFFFFFFFFFFFFFFFFFFFFFFFFFFFFFFFFFFFFFF AND SUB PUSH2 0x115B JUMPI PUSH1 0x40 MLOAD PUSH32 0x8C379A000000000000000000000000000000000000000000000000000000000 DUP2 MSTORE PUSH1 0x4 ADD PUSH2 0x1152 SWAP1 PUSH2 0x27E1 JUMP JUMPDEST PUSH1 0x40 MLOAD DUP1 SWAP2 SUB SWAP1 REVERT JUMPDEST DUP1 PUSH1 0x5 PUSH1 0x0 DUP6 PUSH20 0xFFFFFFFFFFFFFFFFFFFFFFFFFFFFFFFFFFFFFFFF AND PUSH20 0xFFFFFFFFFFFFFFFFFFFFFFFFFFFFFFFFFFFFFFFF AND DUP2 MSTORE PUSH1 0x20 ADD SWAP1 DUP2 MSTORE PUSH1 0x20 ADD PUSH1 0x0 KECCAK256 PUSH1 0x0 DUP5 PUSH20 0xFFFFFFFFFFFFFFFFFFFFFFFFFFFFFFFFFFFFFFFF AND PUSH20 0xFFFFFFFFFFFFFFFFFFFFFFFFFFFFFFFFFFFFFFFF AND DUP2 MSTORE PUSH1 0x20 ADD SWAP1 DUP2 MSTORE PUSH1 0x20 ADD PUSH1 0x0 KECCAK256 PUSH1 0x0 PUSH2 0x100 EXP DUP2 SLOAD DUP2 PUSH1 0xFF MUL NOT AND SWAP1 DUP4 ISZERO ISZERO MUL OR SWAP1 SSTORE POP DUP2 PUSH20 0xFFFFFFFFFFFFFFFFFFFFFFFFFFFFFFFFFFFFFFFF AND DUP4 PUSH20 0xFFFFFFFFFFFFFFFFFFFFFFFFFFFFFFFFFFFFFFFF AND PUSH32 0x17307EAB39AB6107E8899845AD3D59BD9653F200F220920489CA2B5937696C31 DUP4 PUSH1 0x40 MLOAD PUSH2 0x124C SWAP2 SWAP1 PUSH2 0x17D8 JUMP JUMPDEST PUSH1 0x40 MLOAD DUP1 SWAP2 SUB SWAP1 LOG3 POP POP POP JUMP JUMPDEST PUSH2 0x1264 DUP5 DUP5 DUP5 PUSH2 0xDB7 JUMP JUMPDEST PUSH2 0x1270 DUP5 DUP5 DUP5 DUP5 PUSH2 0x135D JUMP JUMPDEST PUSH2 0x12AF JUMPI PUSH1 0x40 MLOAD PUSH32 0x8C379A000000000000000000000000000000000000000000000000000000000 DUP2 MSTORE PUSH1 0x4 ADD PUSH2 0x12A6 SWAP1 PUSH2 0x2873 JUMP JUMPDEST PUSH1 0x40 MLOAD DUP1 SWAP2 SUB SWAP1 REVERT JUMPDEST POP POP POP POP JUMP JUMPDEST PUSH1 0x0 DUP1 PUSH20 0xFFFFFFFFFFFFFFFFFFFFFFFFFFFFFFFFFFFFFFFF AND PUSH2 0x12D7 DUP4 PUSH2 0x10B0 JUMP JUMPDEST PUSH20 0xFFFFFFFFFFFFFFFFFFFFFFFFFFFFFFFFFFFFFFFF AND EQ ISZERO SWAP1 POP SWAP2 SWAP1 POP JUMP JUMPDEST PUSH2 0x1300 DUP4 DUP4 PUSH2 0x14E4 JUMP JUMPDEST PUSH2 0x130D PUSH1 0x0 DUP5 DUP5 DUP5 PUSH2 0x135D JUMP JUMPDEST PUSH2 0x134C JUMPI PUSH1 0x40 MLOAD PUSH32 0x8C379A000000000000000000000000000000000000000000000000000000000 DUP2 MSTORE PUSH1 0x4 ADD PUSH2 0x1343 SWAP1 PUSH2 0x2873 JUMP JUMPDEST PUSH1 0x40 MLOAD DUP1 SWAP2 SUB SWAP1 REVERT JUMPDEST POP POP POP JUMP JUMPDEST POP POP POP POP JUMP JUMPDEST POP POP POP POP JUMP JUMPDEST PUSH1 0x0 PUSH2 0x137E DUP5 PUSH20 0xFFFFFFFFFFFFFFFFFFFFFFFFFFFFFFFFFFFFFFFF AND PUSH2 0x1701 JUMP JUMPDEST ISZERO PUSH2 0x14D7 JUMPI DUP4 PUSH20 0xFFFFFFFFFFFFFFFFFFFFFFFFFFFFFFFFFFFFFFFF AND PUSH4 0x150B7A02 PUSH2 0x13A7 PUSH2 0xC43 JUMP JUMPDEST DUP8 DUP7 DUP7 PUSH1 0x40 MLOAD DUP6 PUSH4 0xFFFFFFFF AND PUSH1 0xE0 SHL DUP2 MSTORE PUSH1 0x4 ADD PUSH2 0x13C9 SWAP5 SWAP4 SWAP3 SWAP2 SWAP1 PUSH2 0x28E8 JUMP JUMPDEST PUSH1 0x20 PUSH1 0x40 MLOAD DUP1 DUP4 SUB DUP2 PUSH1 0x0 DUP8 GAS CALL SWAP3 POP POP POP DUP1 ISZERO PUSH2 0x1405 JUMPI POP PUSH1 0x40 MLOAD RETURNDATASIZE PUSH1 0x1F NOT PUSH1 0x1F DUP3 ADD AND DUP3 ADD DUP1 PUSH1 0x40 MSTORE POP DUP2 ADD SWAP1 PUSH2 0x1402 SWAP2 SWAP1 PUSH2 0x2949 JUMP JUMPDEST PUSH1 0x1 JUMPDEST PUSH2 0x1487 JUMPI RETURNDATASIZE DUP1 PUSH1 0x0 DUP2 EQ PUSH2 0x1435 JUMPI PUSH1 0x40 MLOAD SWAP2 POP PUSH1 0x1F NOT PUSH1 0x3F RETURNDATASIZE ADD AND DUP3 ADD PUSH1 0x40 MSTORE RETURNDATASIZE DUP3 MSTORE RETURNDATASIZE PUSH1 0x0 PUSH1 0x20 DUP5 ADD RETURNDATACOPY PUSH2 0x143A JUMP JUMPDEST PUSH1 0x60 SWAP2 POP JUMPDEST POP PUSH1 0x0 DUP2 MLOAD SUB PUSH2 0x147F JUMPI PUSH1 0x40 MLOAD PUSH32 0x8C379A000000000000000000000000000000000000000000000000000000000 DUP2 MSTORE PUSH1 0x4 ADD PUSH2 0x1476 SWAP1 PUSH2 0x2873 JUMP JUMPDEST PUSH1 0x40 MLOAD DUP1 SWAP2 SUB SWAP1 REVERT JUMPDEST DUP1 MLOAD DUP2 PUSH1 0x20 ADD REVERT JUMPDEST PUSH4 0x150B7A02 PUSH1 0xE0 SHL PUSH28 0xFFFFFFFFFFFFFFFFFFFFFFFFFFFFFFFFFFFFFFFFFFFFFFFFFFFFFFFF NOT AND DUP2 PUSH28 0xFFFFFFFFFFFFFFFFFFFFFFFFFFFFFFFFFFFFFFFFFFFFFFFFFFFFFFFF NOT AND EQ SWAP2 POP POP PUSH2 0x14DC JUMP JUMPDEST PUSH1 0x1 SWAP1 POP JUMPDEST SWAP5 SWAP4 POP POP POP POP JUMP JUMPDEST PUSH1 0x0 PUSH20 0xFFFFFFFFFFFFFFFFFFFFFFFFFFFFFFFFFFFFFFFF AND DUP3 PUSH20 0xFFFFFFFFFFFFFFFFFFFFFFFFFFFFFFFFFFFFFFFF AND SUB PUSH2 0x1553 JUMPI PUSH1 0x40 MLOAD PUSH32 0x8C379A000000000000000000000000000000000000000000000000000000000 DUP2 MSTORE PUSH1 0x4 ADD PUSH2 0x154A SWAP1 PUSH2 0x29C2 JUMP JUMPDEST PUSH1 0x40 MLOAD DUP1 SWAP2 SUB SWAP1 REVERT JUMPDEST PUSH2 0x155C DUP2 PUSH2 0x12B5 JUMP JUMPDEST ISZERO PUSH2 0x159C JUMPI PUSH1 0x40 MLOAD PUSH32 0x8C379A000000000000000000000000000000000000000000000000000000000 DUP2 MSTORE PUSH1 0x4 ADD PUSH2 0x1593 SWAP1 PUSH2 0x2A2E JUMP JUMPDEST PUSH1 0x40 MLOAD DUP1 SWAP2 SUB SWAP1 REVERT JUMPDEST PUSH2 0x15AA PUSH1 0x0 DUP4 DUP4 PUSH1 0x1 PUSH2 0x1351 JUMP JUMPDEST PUSH2 0x15B3 DUP2 PUSH2 0x12B5 JUMP JUMPDEST ISZERO PUSH2 0x15F3 JUMPI PUSH1 0x40 MLOAD PUSH32 0x8C379A000000000000000000000000000000000000000000000000000000000 DUP2 MSTORE PUSH1 0x4 ADD PUSH2 0x15EA SWAP1 PUSH2 0x2A2E JUMP JUMPDEST PUSH1 0x40 MLOAD DUP1 SWAP2 SUB SWAP1 REVERT JUMPDEST PUSH1 0x1 PUSH1 0x3 PUSH1 0x0 DUP5 PUSH20 0xFFFFFFFFFFFFFFFFFFFFFFFFFFFFFFFFFFFFFFFF AND PUSH20 0xFFFFFFFFFFFFFFFFFFFFFFFFFFFFFFFFFFFFFFFF AND DUP2 MSTORE PUSH1 0x20 ADD SWAP1 DUP2 MSTORE PUSH1 0x20 ADD PUSH1 0x0 KECCAK256 PUSH1 0x0 DUP3 DUP3 SLOAD ADD SWAP3 POP POP DUP2 SWAP1 SSTORE POP DUP2 PUSH1 0x2 PUSH1 0x0 DUP4 DUP2 MSTORE PUSH1 0x20 ADD SWAP1 DUP2 MSTORE PUSH1 0x20 ADD PUSH1 0x0 KECCAK256 PUSH1 0x0 PUSH2 0x100 EXP DUP2 SLOAD DUP2 PUSH20 0xFFFFFFFFFFFFFFFFFFFFFFFFFFFFFFFFFFFFFFFF MUL NOT AND SWAP1 DUP4 PUSH20 0xFFFFFFFFFFFFFFFFFFFFFFFFFFFFFFFFFFFFFFFF AND MUL OR SWAP1 SSTORE POP DUP1 DUP3 PUSH20 0xFFFFFFFFFFFFFFFFFFFFFFFFFFFFFFFFFFFFFFFF AND PUSH1 0x0 PUSH20 0xFFFFFFFFFFFFFFFFFFFFFFFFFFFFFFFFFFFFFFFF AND PUSH32 0xDDF252AD1BE2C89B69C2B068FC378DAA952BA7F163C4A11628F55A4DF523B3EF PUSH1 0x40 MLOAD PUSH1 0x40 MLOAD DUP1 SWAP2 SUB SWAP1 LOG4 PUSH2 0x16FD PUSH1 0x0 DUP4 DUP4 PUSH1 0x1 PUSH2 0x1357 JUMP JUMPDEST POP POP JUMP JUMPDEST PUSH1 0x0 DUP1 DUP3 PUSH20 0xFFFFFFFFFFFFFFFFFFFFFFFFFFFFFFFFFFFFFFFF AND EXTCODESIZE GT SWAP1 POP SWAP2 SWAP1 POP JUMP JUMPDEST PUSH1 0x0 PUSH1 0x40 MLOAD SWAP1 POP SWAP1 JUMP JUMPDEST PUSH1 0x0 DUP1 REVERT JUMPDEST PUSH1 0x0 DUP1 REVERT JUMPDEST PUSH1 0x0 PUSH32 0xFFFFFFFF00000000000000000000000000000000000000000000000000000000 DUP3 AND SWAP1 POP SWAP2 SWAP1 POP JUMP JUMPDEST PUSH2 0x176D DUP2 PUSH2 0x1738 JUMP JUMPDEST DUP2 EQ PUSH2 0x1778 JUMPI PUSH1 0x0 DUP1 REVERT JUMPDEST POP JUMP JUMPDEST PUSH1 0x0 DUP2 CALLDATALOAD SWAP1 POP PUSH2 0x178A DUP2 PUSH2 0x1764 JUMP JUMPDEST SWAP3 SWAP2 POP POP JUMP JUMPDEST PUSH1 0x0 PUSH1 0x20 DUP3 DUP5 SUB SLT ISZERO PUSH2 0x17A6 JUMPI PUSH2 0x17A5 PUSH2 0x172E JUMP JUMPDEST JUMPDEST PUSH1 0x0 PUSH2 0x17B4 DUP5 DUP3 DUP6 ADD PUSH2 0x177B JUMP JUMPDEST SWAP2 POP POP SWAP3 SWAP2 POP POP JUMP JUMPDEST PUSH1 0x0 DUP2 ISZERO ISZERO SWAP1 POP SWAP2 SWAP1 POP JUMP JUMPDEST PUSH2 0x17D2 DUP2 PUSH2 0x17BD JUMP JUMPDEST DUP3 MSTORE POP POP JUMP JUMPDEST PUSH1 0x0 PUSH1 0x20 DUP3 ADD SWAP1 POP PUSH2 0x17ED PUSH1 0x0 DUP4 ADD DUP5 PUSH2 0x17C9 JUMP JUMPDEST SWAP3 SWAP2 POP POP JUMP JUMPDEST PUSH1 0x0 DUP2 SWAP1 POP SWAP2 SWAP1 POP JUMP JUMPDEST PUSH2 0x1806 DUP2 PUSH2 0x17F3 JUMP JUMPDEST DUP3 MSTORE POP POP JUMP JUMPDEST PUSH1 0x0 PUSH1 0x20 DUP3 ADD SWAP1 POP PUSH2 0x1821 PUSH1 0x0 DUP4 ADD DUP5 PUSH2 0x17FD JUMP JUMPDEST SWAP3 SWAP2 POP POP JUMP JUMPDEST PUSH1 0x0 DUP2 MLOAD SWAP1 POP SWAP2 SWAP1 POP JUMP JUMPDEST PUSH1 0x0 DUP3 DUP3 MSTORE PUSH1 0x20 DUP3 ADD SWAP1 POP SWAP3 SWAP2 POP POP JUMP JUMPDEST PUSH1 0x0 JUMPDEST DUP4 DUP2 LT ISZERO PUSH2 0x1861 JUMPI DUP1 DUP3 ADD MLOAD DUP2 DUP5 ADD MSTORE PUSH1 0x20 DUP2 ADD SWAP1 POP PUSH2 0x1846 JUMP JUMPDEST PUSH1 0x0 DUP5 DUP5 ADD MSTORE POP POP POP POP JUMP JUMPDEST PUSH1 0x0 PUSH1 0x1F NOT PUSH1 0x1F DUP4 ADD AND SWAP1 POP SWAP2 SWAP1 POP JUMP JUMPDEST PUSH1 0x0 PUSH2 0x1889 DUP3 PUSH2 0x1827 JUMP JUMPDEST PUSH2 0x1893 DUP2 DUP6 PUSH2 0x1832 JUMP JUMPDEST SWAP4 POP PUSH2 0x18A3 DUP2 DUP6 PUSH1 0x20 DUP7 ADD PUSH2 0x1843 JUMP JUMPDEST PUSH2 0x18AC DUP2 PUSH2 0x186D JUMP JUMPDEST DUP5 ADD SWAP2 POP POP SWAP3 SWAP2 POP POP JUMP JUMPDEST PUSH1 0x0 PUSH1 0x20 DUP3 ADD SWAP1 POP DUP2 DUP2 SUB PUSH1 0x0 DUP4 ADD MSTORE PUSH2 0x18D1 DUP2 DUP5 PUSH2 0x187E JUMP JUMPDEST SWAP1 POP SWAP3 SWAP2 POP POP JUMP JUMPDEST PUSH2 0x18E2 DUP2 PUSH2 0x17F3 JUMP JUMPDEST DUP2 EQ PUSH2 0x18ED JUMPI PUSH1 0x0 DUP1 REVERT JUMPDEST POP JUMP JUMPDEST PUSH1 0x0 DUP2 CALLDATALOAD SWAP1 POP PUSH2 0x18FF DUP2 PUSH2 0x18D9 JUMP JUMPDEST SWAP3 SWAP2 POP POP JUMP JUMPDEST PUSH1 0x0 PUSH1 0x20 DUP3 DUP5 SUB SLT ISZERO PUSH2 0x191B JUMPI PUSH2 0x191A PUSH2 0x172E JUMP JUMPDEST JUMPDEST PUSH1 0x0 PUSH2 0x1929 DUP5 DUP3 DUP6 ADD PUSH2 0x18F0 JUMP JUMPDEST SWAP2 POP POP SWAP3 SWAP2 POP POP JUMP JUMPDEST PUSH1 0x0 PUSH20 0xFFFFFFFFFFFFFFFFFFFFFFFFFFFFFFFFFFFFFFFF DUP3 AND SWAP1 POP SWAP2 SWAP1 POP JUMP JUMPDEST PUSH1 0x0 PUSH2 0x195D DUP3 PUSH2 0x1932 JUMP JUMPDEST SWAP1 POP SWAP2 SWAP1 POP JUMP JUMPDEST PUSH2 0x196D DUP2 PUSH2 0x1952 JUMP JUMPDEST DUP3 MSTORE POP POP JUMP JUMPDEST PUSH1 0x0 PUSH1 0x20 DUP3 ADD SWAP1 POP PUSH2 0x1988 PUSH1 0x0 DUP4 ADD DUP5 PUSH2 0x1964 JUMP JUMPDEST SWAP3 SWAP2 POP POP JUMP JUMPDEST PUSH2 0x1997 DUP2 PUSH2 0x1952 JUMP JUMPDEST DUP2 EQ PUSH2 0x19A2 JUMPI PUSH1 0x0 DUP1 REVERT JUMPDEST POP JUMP JUMPDEST PUSH1 0x0 DUP2 CALLDATALOAD SWAP1 POP PUSH2 0x19B4 DUP2 PUSH2 0x198E JUMP JUMPDEST SWAP3 SWAP2 POP POP JUMP JUMPDEST PUSH1 0x0 DUP1 PUSH1 0x40 DUP4 DUP6 SUB SLT ISZERO PUSH2 0x19D1 JUMPI PUSH2 0x19D0 PUSH2 0x172E JUMP JUMPDEST JUMPDEST PUSH1 0x0 PUSH2 0x19DF DUP6 DUP3 DUP7 ADD PUSH2 0x19A5 JUMP JUMPDEST SWAP3 POP POP PUSH1 0x20 PUSH2 0x19F0 DUP6 DUP3 DUP7 ADD PUSH2 0x18F0 JUMP JUMPDEST SWAP2 POP POP SWAP3 POP SWAP3 SWAP1 POP JUMP JUMPDEST PUSH1 0x0 DUP1 REVERT JUMPDEST PUSH1 0x0 DUP1 REVERT JUMPDEST PUSH32 0x4E487B7100000000000000000000000000000000000000000000000000000000 PUSH1 0x0 MSTORE PUSH1 0x41 PUSH1 0x4 MSTORE PUSH1 0x24 PUSH1 0x0 REVERT JUMPDEST PUSH2 0x1A3C DUP3 PUSH2 0x186D JUMP JUMPDEST DUP2 ADD DUP2 DUP2 LT PUSH8 0xFFFFFFFFFFFFFFFF DUP3 GT OR ISZERO PUSH2 0x1A5B JUMPI PUSH2 0x1A5A PUSH2 0x1A04 JUMP JUMPDEST JUMPDEST DUP1 PUSH1 0x40 MSTORE POP POP POP JUMP JUMPDEST PUSH1 0x0 PUSH2 0x1A6E PUSH2 0x1724 JUMP JUMPDEST SWAP1 POP PUSH2 0x1A7A DUP3 DUP3 PUSH2 0x1A33 JUMP JUMPDEST SWAP2 SWAP1 POP JUMP JUMPDEST PUSH1 0x0 PUSH8 0xFFFFFFFFFFFFFFFF DUP3 GT ISZERO PUSH2 0x1A9A JUMPI PUSH2 0x1A99 PUSH2 0x1A04 JUMP JUMPDEST JUMPDEST PUSH2 0x1AA3 DUP3 PUSH2 0x186D JUMP JUMPDEST SWAP1 POP PUSH1 0x20 DUP2 ADD SWAP1 POP SWAP2 SWAP1 POP JUMP JUMPDEST DUP3 DUP2 DUP4 CALLDATACOPY PUSH1 0x0 DUP4 DUP4 ADD MSTORE POP POP POP JUMP JUMPDEST PUSH1 0x0 PUSH2 0x1AD2 PUSH2 0x1ACD DUP5 PUSH2 0x1A7F JUMP JUMPDEST PUSH2 0x1A64 JUMP JUMPDEST SWAP1 POP DUP3 DUP2 MSTORE PUSH1 0x20 DUP2 ADD DUP5 DUP5 DUP5 ADD GT ISZERO PUSH2 0x1AEE JUMPI PUSH2 0x1AED PUSH2 0x19FF JUMP JUMPDEST JUMPDEST PUSH2 0x1AF9 DUP5 DUP3 DUP6 PUSH2 0x1AB0 JUMP JUMPDEST POP SWAP4 SWAP3 POP POP POP JUMP JUMPDEST PUSH1 0x0 DUP3 PUSH1 0x1F DUP4 ADD SLT PUSH2 0x1B16 JUMPI PUSH2 0x1B15 PUSH2 0x19FA JUMP JUMPDEST JUMPDEST DUP2 CALLDATALOAD PUSH2 0x1B26 DUP5 DUP3 PUSH1 0x20 DUP7 ADD PUSH2 0x1ABF JUMP JUMPDEST SWAP2 POP POP SWAP3 SWAP2 POP POP JUMP JUMPDEST PUSH1 0x0 DUP1 PUSH1 0x40 DUP4 DUP6 SUB SLT ISZERO PUSH2 0x1B46 JUMPI PUSH2 0x1B45 PUSH2 0x172E JUMP JUMPDEST JUMPDEST PUSH1 0x0 PUSH2 0x1B54 DUP6 DUP3 DUP7 ADD PUSH2 0x19A5 JUMP JUMPDEST SWAP3 POP POP PUSH1 0x20 DUP4 ADD CALLDATALOAD PUSH8 0xFFFFFFFFFFFFFFFF DUP2 GT ISZERO PUSH2 0x1B75 JUMPI PUSH2 0x1B74 PUSH2 0x1733 JUMP JUMPDEST JUMPDEST PUSH2 0x1B81 DUP6 DUP3 DUP7 ADD PUSH2 0x1B01 JUMP JUMPDEST SWAP2 POP POP SWAP3 POP SWAP3 SWAP1 POP JUMP JUMPDEST PUSH1 0x0 DUP1 PUSH1 0x0 PUSH1 0x60 DUP5 DUP7 SUB SLT ISZERO PUSH2 0x1BA4 JUMPI PUSH2 0x1BA3 PUSH2 0x172E JUMP JUMPDEST JUMPDEST PUSH1 0x0 PUSH2 0x1BB2 DUP7 DUP3 DUP8 ADD PUSH2 0x19A5 JUMP JUMPDEST SWAP4 POP POP PUSH1 0x20 PUSH2 0x1BC3 DUP7 DUP3 DUP8 ADD PUSH2 0x19A5 JUMP JUMPDEST SWAP3 POP POP PUSH1 0x40 PUSH2 0x1BD4 DUP7 DUP3 DUP8 ADD PUSH2 0x18F0 JUMP JUMPDEST SWAP2 POP POP SWAP3 POP SWAP3 POP SWAP3 JUMP JUMPDEST PUSH1 0x0 PUSH1 0x20 DUP3 DUP5 SUB SLT ISZERO PUSH2 0x1BF4 JUMPI PUSH2 0x1BF3 PUSH2 0x172E JUMP JUMPDEST JUMPDEST PUSH1 0x0 PUSH2 0x1C02 DUP5 DUP3 DUP6 ADD PUSH2 0x19A5 JUMP JUMPDEST SWAP2 POP POP SWAP3 SWAP2 POP POP JUMP JUMPDEST PUSH1 0x0 PUSH1 0x20 DUP3 DUP5 SUB SLT ISZERO PUSH2 0x1C21 JUMPI PUSH2 0x1C20 PUSH2 0x172E JUMP JUMPDEST JUMPDEST PUSH1 0x0 DUP3 ADD CALLDATALOAD PUSH8 0xFFFFFFFFFFFFFFFF DUP2 GT ISZERO PUSH2 0x1C3F JUMPI PUSH2 0x1C3E PUSH2 0x1733 JUMP JUMPDEST JUMPDEST PUSH2 0x1C4B DUP5 DUP3 DUP6 ADD PUSH2 0x1B01 JUMP JUMPDEST SWAP2 POP POP SWAP3 SWAP2 POP POP JUMP JUMPDEST PUSH2 0x1C5D DUP2 PUSH2 0x17BD JUMP JUMPDEST DUP2 EQ PUSH2 0x1C68 JUMPI PUSH1 0x0 DUP1 REVERT JUMPDEST POP JUMP JUMPDEST PUSH1 0x0 DUP2 CALLDATALOAD SWAP1 POP PUSH2 0x1C7A DUP2 PUSH2 0x1C54 JUMP JUMPDEST SWAP3 SWAP2 POP POP JUMP JUMPDEST PUSH1 0x0 DUP1 PUSH1 0x40 DUP4 DUP6 SUB SLT ISZERO PUSH2 0x1C97 JUMPI PUSH2 0x1C96 PUSH2 0x172E JUMP JUMPDEST JUMPDEST PUSH1 0x0 PUSH2 0x1CA5 DUP6 DUP3 DUP7 ADD PUSH2 0x19A5 JUMP JUMPDEST SWAP3 POP POP PUSH1 0x20 PUSH2 0x1CB6 DUP6 DUP3 DUP7 ADD PUSH2 0x1C6B JUMP JUMPDEST SWAP2 POP POP SWAP3 POP SWAP3 SWAP1 POP JUMP JUMPDEST PUSH1 0x0 PUSH8 0xFFFFFFFFFFFFFFFF DUP3 GT ISZERO PUSH2 0x1CDB JUMPI PUSH2 0x1CDA PUSH2 0x1A04 JUMP JUMPDEST JUMPDEST PUSH2 0x1CE4 DUP3 PUSH2 0x186D JUMP JUMPDEST SWAP1 POP PUSH1 0x20 DUP2 ADD SWAP1 POP SWAP2 SWAP1 POP JUMP JUMPDEST PUSH1 0x0 PUSH2 0x1D04 PUSH2 0x1CFF DUP5 PUSH2 0x1CC0 JUMP JUMPDEST PUSH2 0x1A64 JUMP JUMPDEST SWAP1 POP DUP3 DUP2 MSTORE PUSH1 0x20 DUP2 ADD DUP5 DUP5 DUP5 ADD GT ISZERO PUSH2 0x1D20 JUMPI PUSH2 0x1D1F PUSH2 0x19FF JUMP JUMPDEST JUMPDEST PUSH2 0x1D2B DUP5 DUP3 DUP6 PUSH2 0x1AB0 JUMP JUMPDEST POP SWAP4 SWAP3 POP POP POP JUMP JUMPDEST PUSH1 0x0 DUP3 PUSH1 0x1F DUP4 ADD SLT PUSH2 0x1D48 JUMPI PUSH2 0x1D47 PUSH2 0x19FA JUMP JUMPDEST JUMPDEST DUP2 CALLDATALOAD PUSH2 0x1D58 DUP5 DUP3 PUSH1 0x20 DUP7 ADD PUSH2 0x1CF1 JUMP JUMPDEST SWAP2 POP POP SWAP3 SWAP2 POP POP JUMP JUMPDEST PUSH1 0x0 DUP1 PUSH1 0x0 DUP1 PUSH1 0x80 DUP6 DUP8 SUB SLT ISZERO PUSH2 0x1D7B JUMPI PUSH2 0x1D7A PUSH2 0x172E JUMP JUMPDEST JUMPDEST PUSH1 0x0 PUSH2 0x1D89 DUP8 DUP3 DUP9 ADD PUSH2 0x19A5 JUMP JUMPDEST SWAP5 POP POP PUSH1 0x20 PUSH2 0x1D9A DUP8 DUP3 DUP9 ADD PUSH2 0x19A5 JUMP JUMPDEST SWAP4 POP POP PUSH1 0x40 PUSH2 0x1DAB DUP8 DUP3 DUP9 ADD PUSH2 0x18F0 JUMP JUMPDEST SWAP3 POP POP PUSH1 0x60 DUP6 ADD CALLDATALOAD PUSH8 0xFFFFFFFFFFFFFFFF DUP2 GT ISZERO PUSH2 0x1DCC JUMPI PUSH2 0x1DCB PUSH2 0x1733 JUMP JUMPDEST JUMPDEST PUSH2 0x1DD8 DUP8 DUP3 DUP9 ADD PUSH2 0x1D33 JUMP JUMPDEST SWAP2 POP POP SWAP3 SWAP6 SWAP2 SWAP5 POP SWAP3 POP JUMP JUMPDEST PUSH1 0x0 DUP1 PUSH1 0x40 DUP4 DUP6 SUB SLT ISZERO PUSH2 0x1DFB JUMPI PUSH2 0x1DFA PUSH2 0x172E JUMP JUMPDEST JUMPDEST PUSH1 0x0 PUSH2 0x1E09 DUP6 DUP3 DUP7 ADD PUSH2 0x19A5 JUMP JUMPDEST SWAP3 POP POP PUSH1 0x20 PUSH2 0x1E1A DUP6 DUP3 DUP7 ADD PUSH2 0x19A5 JUMP JUMPDEST SWAP2 POP POP SWAP3 POP SWAP3 SWAP1 POP JUMP JUMPDEST PUSH32 0x4E487B7100000000000000000000000000000000000000000000000000000000 PUSH1 0x0 MSTORE PUSH1 0x22 PUSH1 0x4 MSTORE PUSH1 0x24 PUSH1 0x0 REVERT JUMPDEST PUSH1 0x0 PUSH1 0x2 DUP3 DIV SWAP1 POP PUSH1 0x1 DUP3 AND DUP1 PUSH2 0x1E6B JUMPI PUSH1 0x7F DUP3 AND SWAP2 POP JUMPDEST PUSH1 0x20 DUP3 LT DUP2 SUB PUSH2 0x1E7E JUMPI PUSH2 0x1E7D PUSH2 0x1E24 JUMP JUMPDEST JUMPDEST POP SWAP2 SWAP1 POP JUMP JUMPDEST PUSH32 0x4552433732313A20617070726F76616C20746F2063757272656E74206F776E65 PUSH1 0x0 DUP3 ADD MSTORE PUSH32 0x7200000000000000000000000000000000000000000000000000000000000000 PUSH1 0x20 DUP3 ADD MSTORE POP JUMP JUMPDEST PUSH1 0x0 PUSH2 0x1EE0 PUSH1 0x21 DUP4 PUSH2 0x1832 JUMP JUMPDEST SWAP2 POP PUSH2 0x1EEB DUP3 PUSH2 0x1E84 JUMP JUMPDEST PUSH1 0x40 DUP3 ADD SWAP1 POP SWAP2 SWAP1 POP JUMP JUMPDEST PUSH1 0x0 PUSH1 0x20 DUP3 ADD SWAP1 POP DUP2 DUP2 SUB PUSH1 0x0 DUP4 ADD MSTORE PUSH2 0x1F0F DUP2 PUSH2 0x1ED3 JUMP JUMPDEST SWAP1 POP SWAP2 SWAP1 POP JUMP JUMPDEST PUSH32 0x4552433732313A20617070726F76652063616C6C6572206973206E6F7420746F PUSH1 0x0 DUP3 ADD MSTORE PUSH32 0x6B656E206F776E6572206F7220617070726F76656420666F7220616C6C000000 PUSH1 0x20 DUP3 ADD MSTORE POP JUMP JUMPDEST PUSH1 0x0 PUSH2 0x1F72 PUSH1 0x3D DUP4 PUSH2 0x1832 JUMP JUMPDEST SWAP2 POP PUSH2 0x1F7D DUP3 PUSH2 0x1F16 JUMP JUMPDEST PUSH1 0x40 DUP3 ADD SWAP1 POP SWAP2 SWAP1 POP JUMP JUMPDEST PUSH1 0x0 PUSH1 0x20 DUP3 ADD SWAP1 POP DUP2 DUP2 SUB PUSH1 0x0 DUP4 ADD MSTORE PUSH2 0x1FA1 DUP2 PUSH2 0x1F65 JUMP JUMPDEST SWAP1 POP SWAP2 SWAP1 POP JUMP JUMPDEST PUSH1 0x0 DUP2 SWAP1 POP SWAP3 SWAP2 POP POP JUMP JUMPDEST PUSH1 0x0 DUP2 SWAP1 POP DUP2 PUSH1 0x0 MSTORE PUSH1 0x20 PUSH1 0x0 KECCAK256 SWAP1 POP SWAP2 SWAP1 POP JUMP JUMPDEST PUSH1 0x0 DUP2 SLOAD PUSH2 0x1FD5 DUP2 PUSH2 0x1E53 JUMP JUMPDEST PUSH2 0x1FDF DUP2 DUP7 PUSH2 0x1FA8 JUMP JUMPDEST SWAP5 POP PUSH1 0x1 DUP3 AND PUSH1 0x0 DUP2 EQ PUSH2 0x1FFA JUMPI PUSH1 0x1 DUP2 EQ PUSH2 0x200F JUMPI PUSH2 0x2042 JUMP JUMPDEST PUSH1 0xFF NOT DUP4 AND DUP7 MSTORE DUP2 ISZERO ISZERO DUP3 MUL DUP7 ADD SWAP4 POP PUSH2 0x2042 JUMP JUMPDEST PUSH2 0x2018 DUP6 PUSH2 0x1FB3 JUMP JUMPDEST PUSH1 0x0 JUMPDEST DUP4 DUP2 LT ISZERO PUSH2 0x203A JUMPI DUP2 SLOAD DUP2 DUP10 ADD MSTORE PUSH1 0x1 DUP3 ADD SWAP2 POP PUSH1 0x20 DUP2 ADD SWAP1 POP PUSH2 0x201B JUMP JUMPDEST DUP4 DUP9 ADD SWAP6 POP POP POP JUMPDEST POP POP POP SWAP3 SWAP2 POP POP JUMP JUMPDEST PUSH1 0x0 PUSH2 0x2057 DUP3 DUP5 PUSH2 0x1FC8 JUMP JUMPDEST SWAP2 POP DUP2 SWAP1 POP SWAP3 SWAP2 POP POP JUMP JUMPDEST PUSH32 0x4475706C69636174652055524900000000000000000000000000000000000000 PUSH1 0x0 DUP3 ADD MSTORE POP JUMP JUMPDEST PUSH1 0x0 PUSH2 0x2098 PUSH1 0xD DUP4 PUSH2 0x1832 JUMP JUMPDEST SWAP2 POP PUSH2 0x20A3 DUP3 PUSH2 0x2062 JUMP JUMPDEST PUSH1 0x20 DUP3 ADD SWAP1 POP SWAP2 SWAP1 POP JUMP JUMPDEST PUSH1 0x0 PUSH1 0x20 DUP3 ADD SWAP1 POP DUP2 DUP2 SUB PUSH1 0x0 DUP4 ADD MSTORE PUSH2 0x20C7 DUP2 PUSH2 0x208B JUMP JUMPDEST SWAP1 POP SWAP2 SWAP1 POP JUMP JUMPDEST PUSH1 0x0 DUP2 SWAP1 POP DUP2 PUSH1 0x0 MSTORE PUSH1 0x20 PUSH1 0x0 KECCAK256 SWAP1 POP SWAP2 SWAP1 POP JUMP JUMPDEST PUSH1 0x0 PUSH1 0x20 PUSH1 0x1F DUP4 ADD DIV SWAP1 POP SWAP2 SWAP1 POP JUMP JUMPDEST PUSH1 0x0 DUP3 DUP3 SHL SWAP1 POP SWAP3 SWAP2 POP POP JUMP JUMPDEST PUSH1 0x0 PUSH1 0x8 DUP4 MUL PUSH2 0x2130 PUSH32 0xFFFFFFFFFFFFFFFFFFFFFFFFFFFFFFFFFFFFFFFFFFFFFFFFFFFFFFFFFFFFFFFF DUP3 PUSH2 0x20F3 JUMP JUMPDEST PUSH2 0x213A DUP7 DUP4 PUSH2 0x20F3 JUMP JUMPDEST SWAP6 POP DUP1 NOT DUP5 AND SWAP4 POP DUP1 DUP7 AND DUP5 OR SWAP3 POP POP POP SWAP4 SWAP3 POP POP POP JUMP JUMPDEST PUSH1 0x0 DUP2 SWAP1 POP SWAP2 SWAP1 POP JUMP JUMPDEST PUSH1 0x0 PUSH2 0x2177 PUSH2 0x2172 PUSH2 0x216D DUP5 PUSH2 0x17F3 JUMP JUMPDEST PUSH2 0x2152 JUMP JUMPDEST PUSH2 0x17F3 JUMP JUMPDEST SWAP1 POP SWAP2 SWAP1 POP JUMP JUMPDEST PUSH1 0x0 DUP2 SWAP1 POP SWAP2 SWAP1 POP JUMP JUMPDEST PUSH2 0x2191 DUP4 PUSH2 0x215C JUMP JUMPDEST PUSH2 0x21A5 PUSH2 0x219D DUP3 PUSH2 0x217E JUMP JUMPDEST DUP5 DUP5 SLOAD PUSH2 0x2100 JUMP JUMPDEST DUP3 SSTORE POP POP POP POP JUMP JUMPDEST PUSH1 0x0 SWAP1 JUMP JUMPDEST PUSH2 0x21BA PUSH2 0x21AD JUMP JUMPDEST PUSH2 0x21C5 DUP2 DUP5 DUP5 PUSH2 0x2188 JUMP JUMPDEST POP POP POP JUMP JUMPDEST JUMPDEST DUP2 DUP2 LT ISZERO PUSH2 0x21E9 JUMPI PUSH2 0x21DE PUSH1 0x0 DUP3 PUSH2 0x21B2 JUMP JUMPDEST PUSH1 0x1 DUP2 ADD SWAP1 POP PUSH2 0x21CB JUMP JUMPDEST POP POP JUMP JUMPDEST PUSH1 0x1F DUP3 GT ISZERO PUSH2 0x222E JUMPI PUSH2 0x21FF DUP2 PUSH2 0x20CE JUMP JUMPDEST PUSH2 0x2208 DUP5 PUSH2 0x20E3 JUMP JUMPDEST DUP2 ADD PUSH1 0x20 DUP6 LT ISZERO PUSH2 0x2217 JUMPI DUP2 SWAP1 POP JUMPDEST PUSH2 0x222B PUSH2 0x2223 DUP6 PUSH2 0x20E3 JUMP JUMPDEST DUP4 ADD DUP3 PUSH2 0x21CA JUMP JUMPDEST POP POP JUMPDEST POP POP POP JUMP JUMPDEST PUSH1 0x0 DUP3 DUP3 SHR SWAP1 POP SWAP3 SWAP2 POP POP JUMP JUMPDEST PUSH1 0x0 PUSH2 0x2251 PUSH1 0x0 NOT DUP5 PUSH1 0x8 MUL PUSH2 0x2233 JUMP JUMPDEST NOT DUP1 DUP4 AND SWAP2 POP POP SWAP3 SWAP2 POP POP JUMP JUMPDEST PUSH1 0x0 PUSH2 0x226A DUP4 DUP4 PUSH2 0x2240 JUMP JUMPDEST SWAP2 POP DUP3 PUSH1 0x2 MUL DUP3 OR SWAP1 POP SWAP3 SWAP2 POP POP JUMP JUMPDEST PUSH2 0x2283 DUP3 PUSH2 0x1827 JUMP JUMPDEST PUSH8 0xFFFFFFFFFFFFFFFF DUP2 GT ISZERO PUSH2 0x229C JUMPI PUSH2 0x229B PUSH2 0x1A04 JUMP JUMPDEST JUMPDEST PUSH2 0x22A6 DUP3 SLOAD PUSH2 0x1E53 JUMP JUMPDEST PUSH2 0x22B1 DUP3 DUP3 DUP6 PUSH2 0x21ED JUMP JUMPDEST PUSH1 0x0 PUSH1 0x20 SWAP1 POP PUSH1 0x1F DUP4 GT PUSH1 0x1 DUP2 EQ PUSH2 0x22E4 JUMPI PUSH1 0x0 DUP5 ISZERO PUSH2 0x22D2 JUMPI DUP3 DUP8 ADD MLOAD SWAP1 POP JUMPDEST PUSH2 0x22DC DUP6 DUP3 PUSH2 0x225E JUMP JUMPDEST DUP7 SSTORE POP PUSH2 0x2344 JUMP JUMPDEST PUSH1 0x1F NOT DUP5 AND PUSH2 0x22F2 DUP7 PUSH2 0x20CE JUMP JUMPDEST PUSH1 0x0 JUMPDEST DUP3 DUP2 LT ISZERO PUSH2 0x231A JUMPI DUP5 DUP10 ADD MLOAD DUP3 SSTORE PUSH1 0x1 DUP3 ADD SWAP2 POP PUSH1 0x20 DUP6 ADD SWAP5 POP PUSH1 0x20 DUP2 ADD SWAP1 POP PUSH2 0x22F5 JUMP JUMPDEST DUP7 DUP4 LT ISZERO PUSH2 0x2337 JUMPI DUP5 DUP10 ADD MLOAD PUSH2 0x2333 PUSH1 0x1F DUP10 AND DUP3 PUSH2 0x2240 JUMP JUMPDEST DUP4 SSTORE POP JUMPDEST PUSH1 0x1 PUSH1 0x2 DUP9 MUL ADD DUP9 SSTORE POP POP POP JUMPDEST POP POP POP POP POP POP JUMP JUMPDEST PUSH32 0x4E487B7100000000000000000000000000000000000000000000000000000000 PUSH1 0x0 MSTORE PUSH1 0x11 PUSH1 0x4 MSTORE PUSH1 0x24 PUSH1 0x0 REVERT JUMPDEST PUSH1 0x0 PUSH2 0x2386 DUP3 PUSH2 0x17F3 JUMP JUMPDEST SWAP2 POP PUSH32 0xFFFFFFFFFFFFFFFFFFFFFFFFFFFFFFFFFFFFFFFFFFFFFFFFFFFFFFFFFFFFFFFF DUP3 SUB PUSH2 0x23B8 JUMPI PUSH2 0x23B7 PUSH2 0x234C JUMP JUMPDEST JUMPDEST PUSH1 0x1 DUP3 ADD SWAP1 POP SWAP2 SWAP1 POP JUMP JUMPDEST PUSH32 0x4552433732313A2063616C6C6572206973206E6F7420746F6B656E206F776E65 PUSH1 0x0 DUP3 ADD MSTORE PUSH32 0x72206F7220617070726F76656400000000000000000000000000000000000000 PUSH1 0x20 DUP3 ADD MSTORE POP JUMP JUMPDEST PUSH1 0x0 PUSH2 0x241F PUSH1 0x2D DUP4 PUSH2 0x1832 JUMP JUMPDEST SWAP2 POP PUSH2 0x242A DUP3 PUSH2 0x23C3 JUMP JUMPDEST PUSH1 0x40 DUP3 ADD SWAP1 POP SWAP2 SWAP1 POP JUMP JUMPDEST PUSH1 0x0 PUSH1 0x20 DUP3 ADD SWAP1 POP DUP2 DUP2 SUB PUSH1 0x0 DUP4 ADD MSTORE PUSH2 0x244E DUP2 PUSH2 0x2412 JUMP JUMPDEST SWAP1 POP SWAP2 SWAP1 POP JUMP JUMPDEST PUSH32 0x4552433732313A20696E76616C696420746F6B656E2049440000000000000000 PUSH1 0x0 DUP3 ADD MSTORE POP JUMP JUMPDEST PUSH1 0x0 PUSH2 0x248B PUSH1 0x18 DUP4 PUSH2 0x1832 JUMP JUMPDEST SWAP2 POP PUSH2 0x2496 DUP3 PUSH2 0x2455 JUMP JUMPDEST PUSH1 0x20 DUP3 ADD SWAP1 POP SWAP2 SWAP1 POP JUMP JUMPDEST PUSH1 0x0 PUSH1 0x20 DUP3 ADD SWAP1 POP DUP2 DUP2 SUB PUSH1 0x0 DUP4 ADD MSTORE PUSH2 0x24BA DUP2 PUSH2 0x247E JUMP JUMPDEST SWAP1 POP SWAP2 SWAP1 POP JUMP JUMPDEST PUSH32 0x4552433732313A2061646472657373207A65726F206973206E6F742061207661 PUSH1 0x0 DUP3 ADD MSTORE PUSH32 0x6C6964206F776E65720000000000000000000000000000000000000000000000 PUSH1 0x20 DUP3 ADD MSTORE POP JUMP JUMPDEST PUSH1 0x0 PUSH2 0x251D PUSH1 0x29 DUP4 PUSH2 0x1832 JUMP JUMPDEST SWAP2 POP PUSH2 0x2528 DUP3 PUSH2 0x24C1 JUMP JUMPDEST PUSH1 0x40 DUP3 ADD SWAP1 POP SWAP2 SWAP1 POP JUMP JUMPDEST PUSH1 0x0 PUSH1 0x20 DUP3 ADD SWAP1 POP DUP2 DUP2 SUB PUSH1 0x0 DUP4 ADD MSTORE PUSH2 0x254C DUP2 PUSH2 0x2510 JUMP JUMPDEST SWAP1 POP SWAP2 SWAP1 POP JUMP JUMPDEST PUSH32 0x496E76616C696420746F6B656E20494400000000000000000000000000000000 PUSH1 0x0 DUP3 ADD MSTORE POP JUMP JUMPDEST PUSH1 0x0 PUSH2 0x2589 PUSH1 0x10 DUP4 PUSH2 0x1832 JUMP JUMPDEST SWAP2 POP PUSH2 0x2594 DUP3 PUSH2 0x2553 JUMP JUMPDEST PUSH1 0x20 DUP3 ADD SWAP1 POP SWAP2 SWAP1 POP JUMP JUMPDEST PUSH1 0x0 PUSH1 0x20 DUP3 ADD SWAP1 POP DUP2 DUP2 SUB PUSH1 0x0 DUP4 ADD MSTORE PUSH2 0x25B8 DUP2 PUSH2 0x257C JUMP JUMPDEST SWAP1 POP SWAP2 SWAP1 POP JUMP JUMPDEST PUSH1 0x0 DUP2 SWAP1 POP SWAP3 SWAP2 POP POP JUMP JUMPDEST PUSH1 0x0 DUP2 SLOAD PUSH2 0x25D7 DUP2 PUSH2 0x1E53 JUMP JUMPDEST PUSH2 0x25E1 DUP2 DUP7 PUSH2 0x25BF JUMP JUMPDEST SWAP5 POP PUSH1 0x1 DUP3 AND PUSH1 0x0 DUP2 EQ PUSH2 0x25FC JUMPI PUSH1 0x1 DUP2 EQ PUSH2 0x2611 JUMPI PUSH2 0x2644 JUMP JUMPDEST PUSH1 0xFF NOT DUP4 AND DUP7 MSTORE DUP2 ISZERO ISZERO DUP3 MUL DUP7 ADD SWAP4 POP PUSH2 0x2644 JUMP JUMPDEST PUSH2 0x261A DUP6 PUSH2 0x20CE JUMP JUMPDEST PUSH1 0x0 JUMPDEST DUP4 DUP2 LT ISZERO PUSH2 0x263C JUMPI DUP2 SLOAD DUP2 DUP10 ADD MSTORE PUSH1 0x1 DUP3 ADD SWAP2 POP PUSH1 0x20 DUP2 ADD SWAP1 POP PUSH2 0x261D JUMP JUMPDEST DUP4 DUP9 ADD SWAP6 POP POP POP JUMPDEST POP POP POP SWAP3 SWAP2 POP POP JUMP JUMPDEST PUSH1 0x0 PUSH2 0x2659 DUP3 DUP6 PUSH2 0x25CA JUMP JUMPDEST SWAP2 POP PUSH2 0x2665 DUP3 DUP5 PUSH2 0x25CA JUMP JUMPDEST SWAP2 POP DUP2 SWAP1 POP SWAP4 SWAP3 POP POP POP JUMP JUMPDEST PUSH32 0x4552433732313A207472616E736665722066726F6D20696E636F727265637420 PUSH1 0x0 DUP3 ADD MSTORE PUSH32 0x6F776E6572000000000000000000000000000000000000000000000000000000 PUSH1 0x20 DUP3 ADD MSTORE POP JUMP JUMPDEST PUSH1 0x0 PUSH2 0x26CD PUSH1 0x25 DUP4 PUSH2 0x1832 JUMP JUMPDEST SWAP2 POP PUSH2 0x26D8 DUP3 PUSH2 0x2671 JUMP JUMPDEST PUSH1 0x40 DUP3 ADD SWAP1 POP SWAP2 SWAP1 POP JUMP JUMPDEST PUSH1 0x0 PUSH1 0x20 DUP3 ADD SWAP1 POP DUP2 DUP2 SUB PUSH1 0x0 DUP4 ADD MSTORE PUSH2 0x26FC DUP2 PUSH2 0x26C0 JUMP JUMPDEST SWAP1 POP SWAP2 SWAP1 POP JUMP JUMPDEST PUSH32 0x4552433732313A207472616E7366657220746F20746865207A65726F20616464 PUSH1 0x0 DUP3 ADD MSTORE PUSH32 0x7265737300000000000000000000000000000000000000000000000000000000 PUSH1 0x20 DUP3 ADD MSTORE POP JUMP JUMPDEST PUSH1 0x0 PUSH2 0x275F PUSH1 0x24 DUP4 PUSH2 0x1832 JUMP JUMPDEST SWAP2 POP PUSH2 0x276A DUP3 PUSH2 0x2703 JUMP JUMPDEST PUSH1 0x40 DUP3 ADD SWAP1 POP SWAP2 SWAP1 POP JUMP JUMPDEST PUSH1 0x0 PUSH1 0x20 DUP3 ADD SWAP1 POP DUP2 DUP2 SUB PUSH1 0x0 DUP4 ADD MSTORE PUSH2 0x278E DUP2 PUSH2 0x2752 JUMP JUMPDEST SWAP1 POP SWAP2 SWAP1 POP JUMP JUMPDEST PUSH32 0x4552433732313A20617070726F766520746F2063616C6C657200000000000000 PUSH1 0x0 DUP3 ADD MSTORE POP JUMP JUMPDEST PUSH1 0x0 PUSH2 0x27CB PUSH1 0x19 DUP4 PUSH2 0x1832 JUMP JUMPDEST SWAP2 POP PUSH2 0x27D6 DUP3 PUSH2 0x2795 JUMP JUMPDEST PUSH1 0x20 DUP3 ADD SWAP1 POP SWAP2 SWAP1 POP JUMP JUMPDEST PUSH1 0x0 PUSH1 0x20 DUP3 ADD SWAP1 POP DUP2 DUP2 SUB PUSH1 0x0 DUP4 ADD MSTORE PUSH2 0x27FA DUP2 PUSH2 0x27BE JUMP JUMPDEST SWAP1 POP SWAP2 SWAP1 POP JUMP JUMPDEST PUSH32 0x4552433732313A207472616E7366657220746F206E6F6E204552433732315265 PUSH1 0x0 DUP3 ADD MSTORE PUSH32 0x63656976657220696D706C656D656E7465720000000000000000000000000000 PUSH1 0x20 DUP3 ADD MSTORE POP JUMP JUMPDEST PUSH1 0x0 PUSH2 0x285D PUSH1 0x32 DUP4 PUSH2 0x1832 JUMP JUMPDEST SWAP2 POP PUSH2 0x2868 DUP3 PUSH2 0x2801 JUMP JUMPDEST PUSH1 0x40 DUP3 ADD SWAP1 POP SWAP2 SWAP1 POP JUMP JUMPDEST PUSH1 0x0 PUSH1 0x20 DUP3 ADD SWAP1 POP DUP2 DUP2 SUB PUSH1 0x0 DUP4 ADD MSTORE PUSH2 0x288C DUP2 PUSH2 0x2850 JUMP JUMPDEST SWAP1 POP SWAP2 SWAP1 POP JUMP JUMPDEST PUSH1 0x0 DUP2 MLOAD SWAP1 POP SWAP2 SWAP1 POP JUMP JUMPDEST PUSH1 0x0 DUP3 DUP3 MSTORE PUSH1 0x20 DUP3 ADD SWAP1 POP SWAP3 SWAP2 POP POP JUMP JUMPDEST PUSH1 0x0 PUSH2 0x28BA DUP3 PUSH2 0x2893 JUMP JUMPDEST PUSH2 0x28C4 DUP2 DUP6 PUSH2 0x289E JUMP JUMPDEST SWAP4 POP PUSH2 0x28D4 DUP2 DUP6 PUSH1 0x20 DUP7 ADD PUSH2 0x1843 JUMP JUMPDEST PUSH2 0x28DD DUP2 PUSH2 0x186D JUMP JUMPDEST DUP5 ADD SWAP2 POP POP SWAP3 SWAP2 POP POP JUMP JUMPDEST PUSH1 0x0 PUSH1 0x80 DUP3 ADD SWAP1 POP PUSH2 0x28FD PUSH1 0x0 DUP4 ADD DUP8 PUSH2 0x1964 JUMP JUMPDEST PUSH2 0x290A PUSH1 0x20 DUP4 ADD DUP7 PUSH2 0x1964 JUMP JUMPDEST PUSH2 0x2917 PUSH1 0x40 DUP4 ADD DUP6 PUSH2 0x17FD JUMP JUMPDEST DUP2 DUP2 SUB PUSH1 0x60 DUP4 ADD MSTORE PUSH2 0x2929 DUP2 DUP5 PUSH2 0x28AF JUMP JUMPDEST SWAP1 POP SWAP6 SWAP5 POP POP POP POP POP JUMP JUMPDEST PUSH1 0x0 DUP2 MLOAD SWAP1 POP PUSH2 0x2943 DUP2 PUSH2 0x1764 JUMP JUMPDEST SWAP3 SWAP2 POP POP JUMP JUMPDEST PUSH1 0x0 PUSH1 0x20 DUP3 DUP5 SUB SLT ISZERO PUSH2 0x295F JUMPI PUSH2 0x295E PUSH2 0x172E JUMP JUMPDEST JUMPDEST PUSH1 0x0 PUSH2 0x296D DUP5 DUP3 DUP6 ADD PUSH2 0x2934 JUMP JUMPDEST SWAP2 POP POP SWAP3 SWAP2 POP POP JUMP JUMPDEST PUSH32 0x4552433732313A206D696E7420746F20746865207A65726F2061646472657373 PUSH1 0x0 DUP3 ADD MSTORE POP JUMP JUMPDEST PUSH1 0x0 PUSH2 0x29AC PUSH1 0x20 DUP4 PUSH2 0x1832 JUMP JUMPDEST SWAP2 POP PUSH2 0x29B7 DUP3 PUSH2 0x2976 JUMP JUMPDEST PUSH1 0x20 DUP3 ADD SWAP1 POP SWAP2 SWAP1 POP JUMP JUMPDEST PUSH1 0x0 PUSH1 0x20 DUP3 ADD SWAP1 POP DUP2 DUP2 SUB PUSH1 0x0 DUP4 ADD MSTORE PUSH2 0x29DB DUP2 PUSH2 0x299F JUMP JUMPDEST SWAP1 POP SWAP2 SWAP1 POP JUMP JUMPDEST PUSH32 0x4552433732313A20746F6B656E20616C7265616479206D696E74656400000000 PUSH1 0x0 DUP3 ADD MSTORE POP JUMP JUMPDEST PUSH1 0x0 PUSH2 0x2A18 PUSH1 0x1C DUP4 PUSH2 0x1832 JUMP JUMPDEST SWAP2 POP PUSH2 0x2A23 DUP3 PUSH2 0x29E2 JUMP JUMPDEST PUSH1 0x20 DUP3 ADD SWAP1 POP SWAP2 SWAP1 POP JUMP JUMPDEST PUSH1 0x0 PUSH1 0x20 DUP3 ADD SWAP1 POP DUP2 DUP2 SUB PUSH1 0x0 DUP4 ADD MSTORE PUSH2 0x2A47 DUP2 PUSH2 0x2A0B JUMP JUMPDEST SWAP1 POP SWAP2 SWAP1 POP JUMP INVALID LOG2 PUSH5 0x6970667358 0x22 SLT KECCAK256 0xB0 MSTORE8 0x49 0x4C DUP16 MSTORE MUL 0x2A CALLDATALOAD 0xB2 SUB 0x4F LOG4 0x1F 0xD0 0xDD PUSH3 0xC7D925 DUP8 SWAP16 SLT SGT SHL CHAINID 0xD6 SWAP12 DUP3 0xEA 0xAF CALL PUSH5 0x736F6C6343 STOP ADDMOD AND STOP CALLER PUSH9 0x747470733A2F2F616E PUSH5 0x726F6D6564 PUSH2 0x2E63 PUSH20 0x2E76697267696E69612E6564752F6363632F6970 PUSH7 0x732F66696C6573 0x2F "
		},
		"gasEstimates": {
			"creation": {
				"codeDepositCost": "2173000",
				"executionCost": "infinite",
				"totalCost": "infinite"
			},
			"external": {
				"addMember(address)": "infinite",
				"closeProposal(uint256)": "infinite",
				"curator()": "2580",
				"howToJoin()": "infinite",
				"isMember(address)": "infinite",
				"minProposalDebatePeriod()": "373",
				"newProposal(address,uint256,string,uint256)": "infinite",
				"nftmanager()": "2621",
				"numberOfProposals()": "2452",
				"proposals(uint256)": "infinite",
				"purpose()": "infinite",
				"requestMembership()": "infinite",
				"reservedEther()": "2474",
				"substring(string,uint256,uint256)": "infinite",
				"supportsInterface(bytes4)": "730",
				"tokens()": "2559",
				"vote(uint256,bool)": "infinite",
				"votedNo(address,uint256)": "3177",
				"votedYes(address,uint256)": "3175"
			}
		},
		"methodIdentifiers": {
			"addMember(address)": "ca6d56dc",
			"closeProposal(uint256)": "0386a016",
			"curator()": "e66f53b7",
			"howToJoin()": "c65c90cc",
			"isMember(address)": "a230c524",
			"minProposalDebatePeriod()": "d6b78768",
			"newProposal(address,uint256,string,uint256)": "2e6fb097",
			"nftmanager()": "eb38603f",
			"numberOfProposals()": "8d7af473",
			"proposals(uint256)": "013cf08b",
			"purpose()": "70740aab",
			"requestMembership()": "7b10b293",
			"reservedEther()": "237b2197",
			"substring(string,uint256,uint256)": "1dcd9b55",
			"supportsInterface(bytes4)": "01ffc9a7",
			"tokens()": "9d63848a",
			"vote(uint256,bool)": "c9d27afe",
			"votedNo(address,uint256)": "1a384287",
			"votedYes(address,uint256)": "ea3fad66"
		}
	},
	"abi": [
		{
			"inputs": [],
			"stateMutability": "nonpayable",
			"type": "constructor"
		},
		{
			"anonymous": false,
			"inputs": [
				{
					"indexed": true,
					"internalType": "uint256",
					"name": "proposalID",
					"type": "uint256"
				},
				{
					"indexed": true,
					"internalType": "address",
					"name": "recipient",
					"type": "address"
				},
				{
					"indexed": true,
					"internalType": "uint256",
					"name": "amount",
					"type": "uint256"
				},
				{
					"indexed": false,
					"internalType": "string",
					"name": "description",
					"type": "string"
				}
			],
			"name": "NewProposal",
			"type": "event"
		},
		{
			"anonymous": false,
			"inputs": [
				{
					"indexed": true,
					"internalType": "uint256",
					"name": "proposalID",
					"type": "uint256"
				},
				{
					"indexed": true,
					"internalType": "bool",
					"name": "result",
					"type": "bool"
				}
			],
			"name": "ProposalClosed",
			"type": "event"
		},
		{
			"anonymous": false,
			"inputs": [
				{
					"indexed": true,
					"internalType": "uint256",
					"name": "proposalID",
					"type": "uint256"
				},
				{
					"indexed": true,
					"internalType": "bool",
					"name": "position",
					"type": "bool"
				},
				{
					"indexed": true,
					"internalType": "address",
					"name": "voter",
					"type": "address"
				}
			],
			"name": "Voted",
			"type": "event"
		},
		{
			"inputs": [
				{
					"internalType": "address",
					"name": "who",
					"type": "address"
				}
			],
			"name": "addMember",
			"outputs": [],
			"stateMutability": "nonpayable",
			"type": "function"
		},
		{
			"inputs": [
				{
					"internalType": "uint256",
					"name": "proposalID",
					"type": "uint256"
				}
			],
			"name": "closeProposal",
			"outputs": [],
			"stateMutability": "nonpayable",
			"type": "function"
		},
		{
			"inputs": [],
			"name": "curator",
			"outputs": [
				{
					"internalType": "address",
					"name": "",
					"type": "address"
				}
			],
			"stateMutability": "view",
			"type": "function"
		},
		{
			"inputs": [],
			"name": "howToJoin",
			"outputs": [
				{
					"internalType": "string",
					"name": "",
					"type": "string"
				}
			],
			"stateMutability": "view",
			"type": "function"
		},
		{
			"inputs": [
				{
					"internalType": "address",
					"name": "who",
					"type": "address"
				}
			],
			"name": "isMember",
			"outputs": [
				{
					"internalType": "bool",
					"name": "",
					"type": "bool"
				}
			],
			"stateMutability": "view",
			"type": "function"
		},
		{
			"inputs": [],
			"name": "minProposalDebatePeriod",
			"outputs": [
				{
					"internalType": "uint256",
					"name": "",
					"type": "uint256"
				}
			],
			"stateMutability": "view",
			"type": "function"
		},
		{
			"inputs": [
				{
					"internalType": "address",
					"name": "recipient",
					"type": "address"
				},
				{
					"internalType": "uint256",
					"name": "amount",
					"type": "uint256"
				},
				{
					"internalType": "string",
					"name": "description",
					"type": "string"
				},
				{
					"internalType": "uint256",
					"name": "debatingPeriod",
					"type": "uint256"
				}
			],
			"name": "newProposal",
			"outputs": [
				{
					"internalType": "uint256",
					"name": "",
					"type": "uint256"
				}
			],
			"stateMutability": "payable",
			"type": "function"
		},
		{
			"inputs": [],
			"name": "nftmanager",
			"outputs": [
				{
					"internalType": "address",
					"name": "",
					"type": "address"
				}
			],
			"stateMutability": "view",
			"type": "function"
		},
		{
			"inputs": [],
			"name": "numberOfProposals",
			"outputs": [
				{
					"internalType": "uint256",
					"name": "",
					"type": "uint256"
				}
			],
			"stateMutability": "view",
			"type": "function"
		},
		{
			"inputs": [
				{
					"internalType": "uint256",
					"name": "",
					"type": "uint256"
				}
			],
			"name": "proposals",
			"outputs": [
				{
					"internalType": "address",
					"name": "recipient",
					"type": "address"
				},
				{
					"internalType": "uint256",
					"name": "amount",
					"type": "uint256"
				},
				{
					"internalType": "string",
					"name": "description",
					"type": "string"
				},
				{
					"internalType": "uint256",
					"name": "votingDeadline",
					"type": "uint256"
				},
				{
					"internalType": "bool",
					"name": "open",
					"type": "bool"
				},
				{
					"internalType": "bool",
					"name": "proposalPassed",
					"type": "bool"
				},
				{
					"internalType": "uint256",
					"name": "yea",
					"type": "uint256"
				},
				{
					"internalType": "uint256",
					"name": "nay",
					"type": "uint256"
				},
				{
					"internalType": "address",
					"name": "creator",
					"type": "address"
				}
			],
			"stateMutability": "view",
			"type": "function"
		},
		{
			"inputs": [],
			"name": "purpose",
			"outputs": [
				{
					"internalType": "string",
					"name": "",
					"type": "string"
				}
			],
			"stateMutability": "view",
			"type": "function"
		},
		{
			"inputs": [],
			"name": "requestMembership",
			"outputs": [],
			"stateMutability": "nonpayable",
			"type": "function"
		},
		{
			"inputs": [],
			"name": "reservedEther",
			"outputs": [
				{
					"internalType": "uint256",
					"name": "",
					"type": "uint256"
				}
			],
			"stateMutability": "view",
			"type": "function"
		},
		{
			"inputs": [
				{
					"internalType": "string",
					"name": "str",
					"type": "string"
				},
				{
					"internalType": "uint256",
					"name": "startIndex",
					"type": "uint256"
				},
				{
					"internalType": "uint256",
					"name": "endIndex",
					"type": "uint256"
				}
			],
			"name": "substring",
			"outputs": [
				{
					"internalType": "string",
					"name": "",
					"type": "string"
				}
			],
			"stateMutability": "pure",
			"type": "function"
		},
		{
			"inputs": [
				{
					"internalType": "bytes4",
					"name": "interfaceID",
					"type": "bytes4"
				}
			],
			"name": "supportsInterface",
			"outputs": [
				{
					"internalType": "bool",
					"name": "",
					"type": "bool"
				}
			],
			"stateMutability": "pure",
			"type": "function"
		},
		{
			"inputs": [],
			"name": "tokens",
			"outputs": [
				{
					"internalType": "address",
					"name": "",
					"type": "address"
				}
			],
			"stateMutability": "view",
			"type": "function"
		},
		{
			"inputs": [
				{
					"internalType": "uint256",
					"name": "proposalID",
					"type": "uint256"
				},
				{
					"internalType": "bool",
					"name": "supportsProposal",
					"type": "bool"
				}
			],
			"name": "vote",
			"outputs": [],
			"stateMutability": "nonpayable",
			"type": "function"
		},
		{
			"inputs": [
				{
					"internalType": "address",
					"name": "",
					"type": "address"
				},
				{
					"internalType": "uint256",
					"name": "",
					"type": "uint256"
				}
			],
			"name": "votedNo",
			"outputs": [
				{
					"internalType": "bool",
					"name": "",
					"type": "bool"
				}
			],
			"stateMutability": "view",
			"type": "function"
		},
		{
			"inputs": [
				{
					"internalType": "address",
					"name": "",
					"type": "address"
				},
				{
					"internalType": "uint256",
					"name": "",
					"type": "uint256"
				}
			],
			"name": "votedYes",
			"outputs": [
				{
					"internalType": "bool",
					"name": "",
					"type": "bool"
				}
			],
			"stateMutability": "view",
			"type": "function"
		},
		{
			"stateMutability": "payable",
			"type": "receive"
		}
	]
}