{
	"P5_Gradebook/Gradebook.sol": {
		"Gradebook": {
			"abi": [
				{
					"inputs": [],
					"stateMutability": "nonpayable",
					"type": "constructor"
				},
				{
					"anonymous": false,
					"inputs": [
						{
							"indexed": true,
							"internalType": "uint256",
							"name": "_id",
							"type": "uint256"
						}
					],
					"name": "assignmentCreationEvent",
					"type": "event"
				},
				{
					"anonymous": false,
					"inputs": [
						{
							"indexed": true,
							"internalType": "uint256",
							"name": "_id",
							"type": "uint256"
						}
					],
					"name": "gradeEntryEvent",
					"type": "event"
				},
				{
					"inputs": [
						{
							"internalType": "string",
							"name": "name",
							"type": "string"
						},
						{
							"internalType": "uint256",
							"name": "max_score",
							"type": "uint256"
						}
					],
					"name": "addAssignment",
					"outputs": [
						{
							"internalType": "uint256",
							"name": "",
							"type": "uint256"
						}
					],
					"stateMutability": "nonpayable",
					"type": "function"
				},
				{
					"inputs": [
						{
							"internalType": "string",
							"name": "student",
							"type": "string"
						},
						{
							"internalType": "uint256",
							"name": "assignment",
							"type": "uint256"
						},
						{
							"internalType": "uint256",
							"name": "score",
							"type": "uint256"
						}
					],
					"name": "addGrade",
					"outputs": [],
					"stateMutability": "nonpayable",
					"type": "function"
				},
				{
					"inputs": [
						{
							"internalType": "uint256",
							"name": "",
							"type": "uint256"
						}
					],
					"name": "assignment_names",
					"outputs": [
						{
							"internalType": "string",
							"name": "",
							"type": "string"
						}
					],
					"stateMutability": "view",
					"type": "function"
				},
				{
					"inputs": [
						{
							"internalType": "address",
							"name": "ta",
							"type": "address"
						}
					],
					"name": "designateTA",
					"outputs": [],
					"stateMutability": "nonpayable",
					"type": "function"
				},
				{
					"inputs": [
						{
							"internalType": "string",
							"name": "student",
							"type": "string"
						}
					],
					"name": "getAverage",
					"outputs": [
						{
							"internalType": "uint256",
							"name": "",
							"type": "uint256"
						}
					],
					"stateMutability": "view",
					"type": "function"
				},
				{
					"inputs": [],
					"name": "instructor",
					"outputs": [
						{
							"internalType": "address",
							"name": "",
							"type": "address"
						}
					],
					"stateMutability": "view",
					"type": "function"
				},
				{
					"inputs": [
						{
							"internalType": "uint256",
							"name": "",
							"type": "uint256"
						}
					],
					"name": "max_scores",
					"outputs": [
						{
							"internalType": "uint256",
							"name": "",
							"type": "uint256"
						}
					],
					"stateMutability": "view",
					"type": "function"
				},
				{
					"inputs": [],
					"name": "num_assignments",
					"outputs": [
						{
							"internalType": "uint256",
							"name": "",
							"type": "uint256"
						}
					],
					"stateMutability": "view",
					"type": "function"
				},
				{
					"inputs": [],
					"name": "requestTAAccess",
					"outputs": [],
					"stateMutability": "nonpayable",
					"type": "function"
				},
				{
					"inputs": [
						{
							"internalType": "uint256",
							"name": "",
							"type": "uint256"
						},
						{
							"internalType": "string",
							"name": "",
							"type": "string"
						}
					],
					"name": "scores",
					"outputs": [
						{
							"internalType": "uint256",
							"name": "",
							"type": "uint256"
						}
					],
					"stateMutability": "view",
					"type": "function"
				},
				{
					"inputs": [
						{
							"internalType": "bytes4",
							"name": "interfaceId",
							"type": "bytes4"
						}
					],
					"name": "supportsInterface",
					"outputs": [
						{
							"internalType": "bool",
							"name": "",
							"type": "bool"
						}
					],
					"stateMutability": "pure",
					"type": "function"
				},
				{
					"inputs": [
						{
							"internalType": "address",
							"name": "",
							"type": "address"
						}
					],
					"name": "tas",
					"outputs": [
						{
							"internalType": "bool",
							"name": "",
							"type": "bool"
						}
					],
					"stateMutability": "view",
					"type": "function"
				}
			],
			"devdoc": {
				"kind": "dev",
				"methods": {},
				"version": 1
			},
			"evm": {
				"assembly": "    /* \"P5_Gradebook/Gradebook.sol\":54:3160  contract Gradebook is IGradebook {... */\n  mstore(0x40, 0x80)\n    /* \"P5_Gradebook/Gradebook.sol\":918:972  constructor() {... */\n  callvalue\n  dup1\n  iszero\n  tag_1\n  jumpi\n  0x00\n  dup1\n  revert\ntag_1:\n  pop\n    /* \"P5_Gradebook/Gradebook.sol\":955:965  msg.sender */\n  caller\n    /* \"P5_Gradebook/Gradebook.sol\":942:952  instructor */\n  0x05\n  0x00\n    /* \"P5_Gradebook/Gradebook.sol\":942:965  instructor = msg.sender */\n  0x0100\n  exp\n  dup2\n  sload\n  dup2\n  0xffffffffffffffffffffffffffffffffffffffff\n  mul\n  not\n  and\n  swap1\n  dup4\n  0xffffffffffffffffffffffffffffffffffffffff\n  and\n  mul\n  or\n  swap1\n  sstore\n  pop\n    /* \"P5_Gradebook/Gradebook.sol\":54:3160  contract Gradebook is IGradebook {... */\n  dataSize(sub_0)\n  dup1\n  dataOffset(sub_0)\n  0x00\n  codecopy\n  0x00\n  return\nstop\n\nsub_0: assembly {\n        /* \"P5_Gradebook/Gradebook.sol\":54:3160  contract Gradebook is IGradebook {... */\n      mstore(0x40, 0x80)\n      callvalue\n      dup1\n      iszero\n      tag_1\n      jumpi\n      0x00\n      dup1\n      revert\n    tag_1:\n      pop\n      jumpi(tag_2, lt(calldatasize, 0x04))\n      shr(0xe0, calldataload(0x00))\n      dup1\n      0x77ca2947\n      gt\n      tag_15\n      jumpi\n      dup1\n      0x77ca2947\n      eq\n      tag_9\n      jumpi\n      dup1\n      0x7fc29673\n      eq\n      tag_10\n      jumpi\n      dup1\n      0x9cfeb679\n      eq\n      tag_11\n      jumpi\n      dup1\n      0xa30254e7\n      eq\n      tag_12\n      jumpi\n      dup1\n      0xc7a9f77b\n      eq\n      tag_13\n      jumpi\n      dup1\n      0xdfd68b91\n      eq\n      tag_14\n      jumpi\n      jump(tag_2)\n    tag_15:\n      dup1\n      0x01ffc9a7\n      eq\n      tag_3\n      jumpi\n      dup1\n      0x077f3b02\n      eq\n      tag_4\n      jumpi\n      dup1\n      0x53acf883\n      eq\n      tag_5\n      jumpi\n      dup1\n      0x65dd2f69\n      eq\n      tag_6\n      jumpi\n      dup1\n      0x71ae413d\n      eq\n      tag_7\n      jumpi\n      dup1\n      0x7241d75f\n      eq\n      tag_8\n      jumpi\n    tag_2:\n      0x00\n      dup1\n      revert\n        /* \"P5_Gradebook/Gradebook.sol\":2984:3156  function supportsInterface(bytes4 interfaceId) external pure returns (bool) {... */\n    tag_3:\n      tag_16\n      0x04\n      dup1\n      calldatasize\n      sub\n      dup2\n      add\n      swap1\n      tag_17\n      swap2\n      swap1\n      tag_18\n      jump\t// in\n    tag_17:\n      tag_19\n      jump\t// in\n    tag_16:\n      mload(0x40)\n      tag_20\n      swap2\n      swap1\n      tag_21\n      jump\t// in\n    tag_20:\n      mload(0x40)\n      dup1\n      swap2\n      sub\n      swap1\n      return\n        /* \"P5_Gradebook/Gradebook.sol\":1208:1868  function addAssignment(string memory name, uint max_score) external override returns (uint){... */\n    tag_4:\n      tag_22\n      0x04\n      dup1\n      calldatasize\n      sub\n      dup2\n      add\n      swap1\n      tag_23\n      swap2\n      swap1\n      tag_24\n      jump\t// in\n    tag_23:\n      tag_25\n      jump\t// in\n    tag_22:\n      mload(0x40)\n      tag_26\n      swap2\n      swap1\n      tag_27\n      jump\t// in\n    tag_26:\n      mload(0x40)\n      dup1\n      swap2\n      sub\n      swap1\n      return\n        /* \"P5_Gradebook/Gradebook.sol\":438:487  mapping (uint => string ) public assignment_names */\n    tag_5:\n      tag_28\n      0x04\n      dup1\n      calldatasize\n      sub\n      dup2\n      add\n      swap1\n      tag_29\n      swap2\n      swap1\n      tag_30\n      jump\t// in\n    tag_29:\n      tag_31\n      jump\t// in\n    tag_28:\n      mload(0x40)\n      tag_32\n      swap2\n      swap1\n      tag_33\n      jump\t// in\n    tag_32:\n      mload(0x40)\n      dup1\n      swap2\n      sub\n      swap1\n      return\n        /* \"P5_Gradebook/Gradebook.sol\":2502:2883  function getAverage(string memory student) external override view returns (uint){... */\n    tag_6:\n      tag_34\n      0x04\n      dup1\n      calldatasize\n      sub\n      dup2\n      add\n      swap1\n      tag_35\n      swap2\n      swap1\n      tag_36\n      jump\t// in\n    tag_35:\n      tag_37\n      jump\t// in\n    tag_34:\n      mload(0x40)\n      tag_38\n      swap2\n      swap1\n      tag_27\n      jump\t// in\n    tag_38:\n      mload(0x40)\n      dup1\n      swap2\n      sub\n      swap1\n      return\n        /* \"P5_Gradebook/Gradebook.sol\":877:911  address public override instructor */\n    tag_7:\n      tag_39\n      tag_40\n      jump\t// in\n    tag_39:\n      mload(0x40)\n      tag_41\n      swap2\n      swap1\n      tag_42\n      jump\t// in\n    tag_41:\n      mload(0x40)\n      dup1\n      swap2\n      sub\n      swap1\n      return\n        /* \"P5_Gradebook/Gradebook.sol\":1874:2496  function addGrade(string memory student, uint assignment, uint score) virtual override public{... */\n    tag_8:\n      tag_43\n      0x04\n      dup1\n      calldatasize\n      sub\n      dup2\n      add\n      swap1\n      tag_44\n      swap2\n      swap1\n      tag_45\n      jump\t// in\n    tag_44:\n      tag_46\n      jump\t// in\n    tag_43:\n      stop\n        /* \"P5_Gradebook/Gradebook.sol\":569:634  mapping (uint => mapping(string => uint) ) public override scores */\n    tag_9:\n      tag_47\n      0x04\n      dup1\n      calldatasize\n      sub\n      dup2\n      add\n      swap1\n      tag_48\n      swap2\n      swap1\n      tag_49\n      jump\t// in\n    tag_48:\n      tag_50\n      jump\t// in\n    tag_47:\n      mload(0x40)\n      tag_51\n      swap2\n      swap1\n      tag_27\n      jump\t// in\n    tag_51:\n      mload(0x40)\n      dup1\n      swap2\n      sub\n      swap1\n      return\n        /* \"P5_Gradebook/Gradebook.sol\":2889:2978  function requestTAAccess() virtual override public{... */\n    tag_10:\n      tag_52\n      tag_53\n      jump\t// in\n    tag_52:\n      stop\n        /* \"P5_Gradebook/Gradebook.sol\":1029:1202  function designateTA(address ta) virtual override public {... */\n    tag_11:\n      tag_54\n      0x04\n      dup1\n      calldatasize\n      sub\n      dup2\n      add\n      swap1\n      tag_55\n      swap2\n      swap1\n      tag_56\n      jump\t// in\n    tag_55:\n      tag_57\n      jump\t// in\n    tag_54:\n      stop\n        /* \"P5_Gradebook/Gradebook.sol\":227:272  mapping (address => bool) public override tas */\n    tag_12:\n      tag_58\n      0x04\n      dup1\n      calldatasize\n      sub\n      dup2\n      add\n      swap1\n      tag_59\n      swap2\n      swap1\n      tag_56\n      jump\t// in\n    tag_59:\n      tag_60\n      jump\t// in\n    tag_58:\n      mload(0x40)\n      tag_61\n      swap2\n      swap1\n      tag_21\n      jump\t// in\n    tag_61:\n      mload(0x40)\n      dup1\n      swap2\n      sub\n      swap1\n      return\n        /* \"P5_Gradebook/Gradebook.sol\":737:773  uint public override num_assignments */\n    tag_13:\n      tag_62\n      tag_63\n      jump\t// in\n    tag_62:\n      mload(0x40)\n      tag_64\n      swap2\n      swap1\n      tag_27\n      jump\t// in\n    tag_64:\n      mload(0x40)\n      dup1\n      swap2\n      sub\n      swap1\n      return\n        /* \"P5_Gradebook/Gradebook.sol\":333:383  mapping (uint => uint ) public override max_scores */\n    tag_14:\n      tag_65\n      0x04\n      dup1\n      calldatasize\n      sub\n      dup2\n      add\n      swap1\n      tag_66\n      swap2\n      swap1\n      tag_30\n      jump\t// in\n    tag_66:\n      tag_67\n      jump\t// in\n    tag_65:\n      mload(0x40)\n      tag_68\n      swap2\n      swap1\n      tag_27\n      jump\t// in\n    tag_68:\n      mload(0x40)\n      dup1\n      swap2\n      sub\n      swap1\n      return\n        /* \"P5_Gradebook/Gradebook.sol\":2984:3156  function supportsInterface(bytes4 interfaceId) external pure returns (bool) {... */\n    tag_19:\n        /* \"P5_Gradebook/Gradebook.sol\":3054:3058  bool */\n      0x00\n        /* \"P5_Gradebook/Gradebook.sol\":3092:3120  type(IGradebook).interfaceId */\n      0x1c95926d00000000000000000000000000000000000000000000000000000000\n        /* \"P5_Gradebook/Gradebook.sol\":3077:3120  interfaceId == type(IGradebook).interfaceId */\n      not(0xffffffffffffffffffffffffffffffffffffffffffffffffffffffff)\n      and\n        /* \"P5_Gradebook/Gradebook.sol\":3077:3088  interfaceId */\n      dup3\n        /* \"P5_Gradebook/Gradebook.sol\":3077:3120  interfaceId == type(IGradebook).interfaceId */\n      not(0xffffffffffffffffffffffffffffffffffffffffffffffffffffffff)\n      and\n      eq\n        /* \"P5_Gradebook/Gradebook.sol\":3077:3149  interfaceId == type(IGradebook).interfaceId || interfaceId == 0x01ffc9a7 */\n      dup1\n      tag_70\n      jumpi\n      pop\n        /* \"P5_Gradebook/Gradebook.sol\":3139:3149  0x01ffc9a7 */\n      0x01ffc9a7\n        /* \"P5_Gradebook/Gradebook.sol\":3124:3149  interfaceId == 0x01ffc9a7 */\n      0xe0\n      shl\n        /* \"P5_Gradebook/Gradebook.sol\":3124:3135  interfaceId */\n      dup3\n        /* \"P5_Gradebook/Gradebook.sol\":3124:3149  interfaceId == 0x01ffc9a7 */\n      not(0xffffffffffffffffffffffffffffffffffffffffffffffffffffffff)\n      and\n      eq\n        /* \"P5_Gradebook/Gradebook.sol\":3077:3149  interfaceId == type(IGradebook).interfaceId || interfaceId == 0x01ffc9a7 */\n    tag_70:\n        /* \"P5_Gradebook/Gradebook.sol\":3070:3149  return interfaceId == type(IGradebook).interfaceId || interfaceId == 0x01ffc9a7 */\n      swap1\n      pop\n        /* \"P5_Gradebook/Gradebook.sol\":2984:3156  function supportsInterface(bytes4 interfaceId) external pure returns (bool) {... */\n      swap2\n      swap1\n      pop\n      jump\t// out\n        /* \"P5_Gradebook/Gradebook.sol\":1208:1868  function addAssignment(string memory name, uint max_score) external override returns (uint){... */\n    tag_25:\n        /* \"P5_Gradebook/Gradebook.sol\":1294:1298  uint */\n      0x00\n        /* \"P5_Gradebook/Gradebook.sol\":1347:1357  msg.sender */\n      caller\n        /* \"P5_Gradebook/Gradebook.sol\":1333:1357  instructor == msg.sender */\n      0xffffffffffffffffffffffffffffffffffffffff\n      and\n        /* \"P5_Gradebook/Gradebook.sol\":1333:1343  instructor */\n      0x05\n      0x00\n      swap1\n      sload\n      swap1\n      0x0100\n      exp\n      swap1\n      div\n      0xffffffffffffffffffffffffffffffffffffffff\n      and\n        /* \"P5_Gradebook/Gradebook.sol\":1333:1357  instructor == msg.sender */\n      0xffffffffffffffffffffffffffffffffffffffff\n      and\n      eq\n        /* \"P5_Gradebook/Gradebook.sol\":1333:1384  instructor == msg.sender || tas[msg.sender] == true */\n      dup1\n      tag_72\n      jumpi\n      pop\n        /* \"P5_Gradebook/Gradebook.sol\":1380:1384  true */\n      0x01\n        /* \"P5_Gradebook/Gradebook.sol\":1361:1384  tas[msg.sender] == true */\n      iszero\n      iszero\n        /* \"P5_Gradebook/Gradebook.sol\":1361:1364  tas */\n      0x00\n        /* \"P5_Gradebook/Gradebook.sol\":1361:1376  tas[msg.sender] */\n      dup1\n        /* \"P5_Gradebook/Gradebook.sol\":1365:1375  msg.sender */\n      caller\n        /* \"P5_Gradebook/Gradebook.sol\":1361:1376  tas[msg.sender] */\n      0xffffffffffffffffffffffffffffffffffffffff\n      and\n      0xffffffffffffffffffffffffffffffffffffffff\n      and\n      dup2\n      mstore\n      0x20\n      add\n      swap1\n      dup2\n      mstore\n      0x20\n      add\n      0x00\n      keccak256\n      0x00\n      swap1\n      sload\n      swap1\n      0x0100\n      exp\n      swap1\n      div\n      0xff\n      and\n        /* \"P5_Gradebook/Gradebook.sol\":1361:1384  tas[msg.sender] == true */\n      iszero\n      iszero\n      eq\n        /* \"P5_Gradebook/Gradebook.sol\":1333:1384  instructor == msg.sender || tas[msg.sender] == true */\n    tag_72:\n        /* \"P5_Gradebook/Gradebook.sol\":1325:1436  require(instructor == msg.sender || tas[msg.sender] == true, \"Only the instructor and TAs can add assignments\") */\n      tag_73\n      jumpi\n      mload(0x40)\n      0x08c379a000000000000000000000000000000000000000000000000000000000\n      dup2\n      mstore\n      0x04\n      add\n      tag_74\n      swap1\n      tag_75\n      jump\t// in\n    tag_74:\n      mload(0x40)\n      dup1\n      swap2\n      sub\n      swap1\n      revert\n    tag_73:\n        /* \"P5_Gradebook/Gradebook.sol\":1466:1467  0 */\n      0x00\n        /* \"P5_Gradebook/Gradebook.sol\":1454:1463  max_score */\n      dup3\n        /* \"P5_Gradebook/Gradebook.sol\":1454:1467  max_score > 0 */\n      gt\n        /* \"P5_Gradebook/Gradebook.sol\":1446:1504  require(max_score > 0, \"Max score must be greater than 0\") */\n      tag_76\n      jumpi\n      mload(0x40)\n      0x08c379a000000000000000000000000000000000000000000000000000000000\n      dup2\n      mstore\n      0x04\n      add\n      tag_77\n      swap1\n      tag_78\n      jump\t// in\n    tag_77:\n      mload(0x40)\n      dup1\n      swap2\n      sub\n      swap1\n      revert\n    tag_76:\n        /* \"P5_Gradebook/Gradebook.sol\":1586:1590  name */\n      dup3\n        /* \"P5_Gradebook/Gradebook.sol\":1550:1566  assignment_names */\n      0x02\n        /* \"P5_Gradebook/Gradebook.sol\":1550:1583  assignment_names[num_assignments] */\n      0x00\n        /* \"P5_Gradebook/Gradebook.sol\":1567:1582  num_assignments */\n      sload(0x04)\n        /* \"P5_Gradebook/Gradebook.sol\":1550:1583  assignment_names[num_assignments] */\n      dup2\n      mstore\n      0x20\n      add\n      swap1\n      dup2\n      mstore\n      0x20\n      add\n      0x00\n      keccak256\n        /* \"P5_Gradebook/Gradebook.sol\":1550:1590  assignment_names[num_assignments] = name */\n      swap1\n      dup2\n      tag_79\n      swap2\n      swap1\n      tag_80\n      jump\t// in\n    tag_79:\n      pop\n        /* \"P5_Gradebook/Gradebook.sol\":1670:1679  max_score */\n      dup2\n        /* \"P5_Gradebook/Gradebook.sol\":1640:1650  max_scores */\n      0x01\n        /* \"P5_Gradebook/Gradebook.sol\":1640:1667  max_scores[num_assignments] */\n      0x00\n        /* \"P5_Gradebook/Gradebook.sol\":1651:1666  num_assignments */\n      sload(0x04)\n        /* \"P5_Gradebook/Gradebook.sol\":1640:1667  max_scores[num_assignments] */\n      dup2\n      mstore\n      0x20\n      add\n      swap1\n      dup2\n      mstore\n      0x20\n      add\n      0x00\n      keccak256\n        /* \"P5_Gradebook/Gradebook.sol\":1640:1679  max_scores[num_assignments] = max_score */\n      dup2\n      swap1\n      sstore\n      pop\n        /* \"P5_Gradebook/Gradebook.sol\":1748:1749  1 */\n      0x01\n        /* \"P5_Gradebook/Gradebook.sol\":1730:1745  num_assignments */\n      0x04\n      0x00\n        /* \"P5_Gradebook/Gradebook.sol\":1730:1749  num_assignments +=1 */\n      dup3\n      dup3\n      sload\n      tag_81\n      swap2\n      swap1\n      tag_82\n      jump\t// in\n    tag_81:\n      swap3\n      pop\n      pop\n      dup2\n      swap1\n      sstore\n      pop\n        /* \"P5_Gradebook/Gradebook.sol\":1811:1826  num_assignments */\n      sload(0x04)\n        /* \"P5_Gradebook/Gradebook.sol\":1787:1827  assignmentCreationEvent(num_assignments) */\n      0x1e5500ede7ec81cd4d6537a1a618f3424510f89d03c2252ee7c80e60a1278b67\n      mload(0x40)\n      mload(0x40)\n      dup1\n      swap2\n      sub\n      swap1\n      log2\n        /* \"P5_Gradebook/Gradebook.sol\":1845:1860  num_assignments */\n      sload(0x04)\n        /* \"P5_Gradebook/Gradebook.sol\":1838:1860  return num_assignments */\n      swap1\n      pop\n        /* \"P5_Gradebook/Gradebook.sol\":1208:1868  function addAssignment(string memory name, uint max_score) external override returns (uint){... */\n      swap3\n      swap2\n      pop\n      pop\n      jump\t// out\n        /* \"P5_Gradebook/Gradebook.sol\":438:487  mapping (uint => string ) public assignment_names */\n    tag_31:\n      mstore(0x20, 0x02)\n      dup1\n      0x00\n      mstore\n      keccak256(0x00, 0x40)\n      0x00\n      swap2\n      pop\n      swap1\n      pop\n      dup1\n      sload\n      tag_83\n      swap1\n      tag_84\n      jump\t// in\n    tag_83:\n      dup1\n      0x1f\n      add\n      0x20\n      dup1\n      swap2\n      div\n      mul\n      0x20\n      add\n      mload(0x40)\n      swap1\n      dup2\n      add\n      0x40\n      mstore\n      dup1\n      swap3\n      swap2\n      swap1\n      dup2\n      dup2\n      mstore\n      0x20\n      add\n      dup3\n      dup1\n      sload\n      tag_85\n      swap1\n      tag_84\n      jump\t// in\n    tag_85:\n      dup1\n      iszero\n      tag_86\n      jumpi\n      dup1\n      0x1f\n      lt\n      tag_87\n      jumpi\n      0x0100\n      dup1\n      dup4\n      sload\n      div\n      mul\n      dup4\n      mstore\n      swap2\n      0x20\n      add\n      swap2\n      jump(tag_86)\n    tag_87:\n      dup3\n      add\n      swap2\n      swap1\n      0x00\n      mstore\n      keccak256(0x00, 0x20)\n      swap1\n    tag_88:\n      dup2\n      sload\n      dup2\n      mstore\n      swap1\n      0x01\n      add\n      swap1\n      0x20\n      add\n      dup1\n      dup4\n      gt\n      tag_88\n      jumpi\n      dup3\n      swap1\n      sub\n      0x1f\n      and\n      dup3\n      add\n      swap2\n    tag_86:\n      pop\n      pop\n      pop\n      pop\n      pop\n      dup2\n      jump\t// out\n        /* \"P5_Gradebook/Gradebook.sol\":2502:2883  function getAverage(string memory student) external override view returns (uint){... */\n    tag_37:\n        /* \"P5_Gradebook/Gradebook.sol\":2577:2581  uint */\n      0x00\n        /* \"P5_Gradebook/Gradebook.sol\":2593:2609  uint total_score */\n      dup1\n        /* \"P5_Gradebook/Gradebook.sol\":2612:2613  0 */\n      0x00\n        /* \"P5_Gradebook/Gradebook.sol\":2593:2613  uint total_score = 0 */\n      swap1\n      pop\n        /* \"P5_Gradebook/Gradebook.sol\":2623:2637  uint max_score */\n      0x00\n        /* \"P5_Gradebook/Gradebook.sol\":2656:2662  uint i */\n      dup1\n        /* \"P5_Gradebook/Gradebook.sol\":2651:2790  for (uint i=0; i < num_assignments; i++) {... */\n    tag_90:\n        /* \"P5_Gradebook/Gradebook.sol\":2670:2685  num_assignments */\n      sload(0x04)\n        /* \"P5_Gradebook/Gradebook.sol\":2666:2667  i */\n      dup2\n        /* \"P5_Gradebook/Gradebook.sol\":2666:2685  i < num_assignments */\n      lt\n        /* \"P5_Gradebook/Gradebook.sol\":2651:2790  for (uint i=0; i < num_assignments; i++) {... */\n      iszero\n      tag_91\n      jumpi\n        /* \"P5_Gradebook/Gradebook.sol\":2721:2727  scores */\n      0x03\n        /* \"P5_Gradebook/Gradebook.sol\":2721:2730  scores[i] */\n      0x00\n        /* \"P5_Gradebook/Gradebook.sol\":2728:2729  i */\n      dup3\n        /* \"P5_Gradebook/Gradebook.sol\":2721:2730  scores[i] */\n      dup2\n      mstore\n      0x20\n      add\n      swap1\n      dup2\n      mstore\n      0x20\n      add\n      0x00\n      keccak256\n        /* \"P5_Gradebook/Gradebook.sol\":2731:2738  student */\n      dup6\n        /* \"P5_Gradebook/Gradebook.sol\":2721:2739  scores[i][student] */\n      mload(0x40)\n      tag_93\n      swap2\n      swap1\n      tag_94\n      jump\t// in\n    tag_93:\n      swap1\n      dup2\n      mstore\n      0x20\n      add\n      mload(0x40)\n      dup1\n      swap2\n      sub\n      swap1\n      keccak256\n      sload\n        /* \"P5_Gradebook/Gradebook.sol\":2706:2739  total_score += scores[i][student] */\n      dup4\n      tag_95\n      swap2\n      swap1\n      tag_82\n      jump\t// in\n    tag_95:\n      swap3\n      pop\n        /* \"P5_Gradebook/Gradebook.sol\":2766:2776  max_scores */\n      0x01\n        /* \"P5_Gradebook/Gradebook.sol\":2766:2779  max_scores[i] */\n      0x00\n        /* \"P5_Gradebook/Gradebook.sol\":2777:2778  i */\n      dup3\n        /* \"P5_Gradebook/Gradebook.sol\":2766:2779  max_scores[i] */\n      dup2\n      mstore\n      0x20\n      add\n      swap1\n      dup2\n      mstore\n      0x20\n      add\n      0x00\n      keccak256\n      sload\n        /* \"P5_Gradebook/Gradebook.sol\":2753:2779  max_score += max_scores[i] */\n      dup3\n      tag_96\n      swap2\n      swap1\n      tag_82\n      jump\t// in\n    tag_96:\n      swap2\n      pop\n        /* \"P5_Gradebook/Gradebook.sol\":2687:2690  i++ */\n      dup1\n      dup1\n      0x01\n      add\n      swap2\n      pop\n      pop\n        /* \"P5_Gradebook/Gradebook.sol\":2651:2790  for (uint i=0; i < num_assignments; i++) {... */\n      jump(tag_90)\n    tag_91:\n      pop\n        /* \"P5_Gradebook/Gradebook.sol\":2800:2814  uint avg_score */\n      0x00\n        /* \"P5_Gradebook/Gradebook.sol\":2840:2849  max_score */\n      dup2\n        /* \"P5_Gradebook/Gradebook.sol\":2832:2837  10000 */\n      0x2710\n        /* \"P5_Gradebook/Gradebook.sol\":2818:2829  total_score */\n      dup5\n        /* \"P5_Gradebook/Gradebook.sol\":2818:2837  total_score * 10000 */\n      tag_97\n      swap2\n      swap1\n      tag_98\n      jump\t// in\n    tag_97:\n        /* \"P5_Gradebook/Gradebook.sol\":2817:2849  (total_score * 10000)/ max_score */\n      tag_99\n      swap2\n      swap1\n      tag_100\n      jump\t// in\n    tag_99:\n        /* \"P5_Gradebook/Gradebook.sol\":2800:2849  uint avg_score = (total_score * 10000)/ max_score */\n      swap1\n      pop\n        /* \"P5_Gradebook/Gradebook.sol\":2867:2876  avg_score */\n      dup1\n        /* \"P5_Gradebook/Gradebook.sol\":2860:2876  return avg_score */\n      swap4\n      pop\n      pop\n      pop\n      pop\n        /* \"P5_Gradebook/Gradebook.sol\":2502:2883  function getAverage(string memory student) external override view returns (uint){... */\n      swap2\n      swap1\n      pop\n      jump\t// out\n        /* \"P5_Gradebook/Gradebook.sol\":877:911  address public override instructor */\n    tag_40:\n      0x05\n      0x00\n      swap1\n      sload\n      swap1\n      0x0100\n      exp\n      swap1\n      div\n      0xffffffffffffffffffffffffffffffffffffffff\n      and\n      dup2\n      jump\t// out\n        /* \"P5_Gradebook/Gradebook.sol\":1874:2496  function addGrade(string memory student, uint assignment, uint score) virtual override public{... */\n    tag_46:\n        /* \"P5_Gradebook/Gradebook.sol\":2015:2025  msg.sender */\n      caller\n        /* \"P5_Gradebook/Gradebook.sol\":2001:2025  instructor == msg.sender */\n      0xffffffffffffffffffffffffffffffffffffffff\n      and\n        /* \"P5_Gradebook/Gradebook.sol\":2001:2011  instructor */\n      0x05\n      0x00\n      swap1\n      sload\n      swap1\n      0x0100\n      exp\n      swap1\n      div\n      0xffffffffffffffffffffffffffffffffffffffff\n      and\n        /* \"P5_Gradebook/Gradebook.sol\":2001:2025  instructor == msg.sender */\n      0xffffffffffffffffffffffffffffffffffffffff\n      and\n      eq\n        /* \"P5_Gradebook/Gradebook.sol\":2001:2052  instructor == msg.sender || tas[msg.sender] == true */\n      dup1\n      tag_102\n      jumpi\n      pop\n        /* \"P5_Gradebook/Gradebook.sol\":2048:2052  true */\n      0x01\n        /* \"P5_Gradebook/Gradebook.sol\":2029:2052  tas[msg.sender] == true */\n      iszero\n      iszero\n        /* \"P5_Gradebook/Gradebook.sol\":2029:2032  tas */\n      0x00\n        /* \"P5_Gradebook/Gradebook.sol\":2029:2044  tas[msg.sender] */\n      dup1\n        /* \"P5_Gradebook/Gradebook.sol\":2033:2043  msg.sender */\n      caller\n        /* \"P5_Gradebook/Gradebook.sol\":2029:2044  tas[msg.sender] */\n      0xffffffffffffffffffffffffffffffffffffffff\n      and\n      0xffffffffffffffffffffffffffffffffffffffff\n      and\n      dup2\n      mstore\n      0x20\n      add\n      swap1\n      dup2\n      mstore\n      0x20\n      add\n      0x00\n      keccak256\n      0x00\n      swap1\n      sload\n      swap1\n      0x0100\n      exp\n      swap1\n      div\n      0xff\n      and\n        /* \"P5_Gradebook/Gradebook.sol\":2029:2052  tas[msg.sender] == true */\n      iszero\n      iszero\n      eq\n        /* \"P5_Gradebook/Gradebook.sol\":2001:2052  instructor == msg.sender || tas[msg.sender] == true */\n    tag_102:\n        /* \"P5_Gradebook/Gradebook.sol\":1993:2099  require(instructor == msg.sender || tas[msg.sender] == true, \"Only the instructor and TAs can add grades\") */\n      tag_103\n      jumpi\n      mload(0x40)\n      0x08c379a000000000000000000000000000000000000000000000000000000000\n      dup2\n      mstore\n      0x04\n      add\n      tag_104\n      swap1\n      tag_105\n      jump\t// in\n    tag_104:\n      mload(0x40)\n      dup1\n      swap2\n      sub\n      swap1\n      revert\n    tag_103:\n        /* \"P5_Gradebook/Gradebook.sol\":2130:2145  num_assignments */\n      sload(0x04)\n        /* \"P5_Gradebook/Gradebook.sol\":2117:2127  assignment */\n      dup3\n        /* \"P5_Gradebook/Gradebook.sol\":2117:2145  assignment < num_assignments */\n      lt\n        /* \"P5_Gradebook/Gradebook.sol\":2109:2171  require(assignment < num_assignments, \"Invalid assignment ID\") */\n      tag_106\n      jumpi\n      mload(0x40)\n      0x08c379a000000000000000000000000000000000000000000000000000000000\n      dup2\n      mstore\n      0x04\n      add\n      tag_107\n      swap1\n      tag_108\n      jump\t// in\n    tag_107:\n      mload(0x40)\n      dup1\n      swap2\n      sub\n      swap1\n      revert\n    tag_106:\n        /* \"P5_Gradebook/Gradebook.sol\":2215:2220  score */\n      dup1\n        /* \"P5_Gradebook/Gradebook.sol\":2189:2199  max_scores */\n      0x01\n        /* \"P5_Gradebook/Gradebook.sol\":2189:2211  max_scores[assignment] */\n      0x00\n        /* \"P5_Gradebook/Gradebook.sol\":2200:2210  assignment */\n      dup5\n        /* \"P5_Gradebook/Gradebook.sol\":2189:2211  max_scores[assignment] */\n      dup2\n      mstore\n      0x20\n      add\n      swap1\n      dup2\n      mstore\n      0x20\n      add\n      0x00\n      keccak256\n      sload\n        /* \"P5_Gradebook/Gradebook.sol\":2189:2220  max_scores[assignment] >= score */\n      lt\n      iszero\n        /* \"P5_Gradebook/Gradebook.sol\":2181:2265  require(max_scores[assignment] >= score, \"Grade can't be higher than the max score\") */\n      tag_109\n      jumpi\n      mload(0x40)\n      0x08c379a000000000000000000000000000000000000000000000000000000000\n      dup2\n      mstore\n      0x04\n      add\n      tag_110\n      swap1\n      tag_111\n      jump\t// in\n    tag_110:\n      mload(0x40)\n      dup1\n      swap2\n      sub\n      swap1\n      revert\n    tag_109:\n        /* \"P5_Gradebook/Gradebook.sol\":2292:2293  0 */\n      0x00\n        /* \"P5_Gradebook/Gradebook.sol\":2283:2288  score */\n      dup2\n        /* \"P5_Gradebook/Gradebook.sol\":2283:2293  score >= 0 */\n      lt\n      iszero\n        /* \"P5_Gradebook/Gradebook.sol\":2275:2330  require(score >= 0, \"Grade can't be a negative number\") */\n      tag_112\n      jumpi\n      mload(0x40)\n      0x08c379a000000000000000000000000000000000000000000000000000000000\n      dup2\n      mstore\n      0x04\n      add\n      tag_113\n      swap1\n      tag_114\n      jump\t// in\n    tag_113:\n      mload(0x40)\n      dup1\n      swap2\n      sub\n      swap1\n      revert\n    tag_112:\n        /* \"P5_Gradebook/Gradebook.sol\":2419:2424  score */\n      dup1\n        /* \"P5_Gradebook/Gradebook.sol\":2389:2395  scores */\n      0x03\n        /* \"P5_Gradebook/Gradebook.sol\":2389:2407  scores[assignment] */\n      0x00\n        /* \"P5_Gradebook/Gradebook.sol\":2396:2406  assignment */\n      dup5\n        /* \"P5_Gradebook/Gradebook.sol\":2389:2407  scores[assignment] */\n      dup2\n      mstore\n      0x20\n      add\n      swap1\n      dup2\n      mstore\n      0x20\n      add\n      0x00\n      keccak256\n        /* \"P5_Gradebook/Gradebook.sol\":2408:2415  student */\n      dup5\n        /* \"P5_Gradebook/Gradebook.sol\":2389:2416  scores[assignment][student] */\n      mload(0x40)\n      tag_115\n      swap2\n      swap1\n      tag_94\n      jump\t// in\n    tag_115:\n      swap1\n      dup2\n      mstore\n      0x20\n      add\n      mload(0x40)\n      dup1\n      swap2\n      sub\n      swap1\n      keccak256\n        /* \"P5_Gradebook/Gradebook.sol\":2389:2424  scores[assignment][student] = score */\n      dup2\n      swap1\n      sstore\n      pop\n        /* \"P5_Gradebook/Gradebook.sol\":2478:2488  assignment */\n      dup2\n        /* \"P5_Gradebook/Gradebook.sol\":2462:2489  gradeEntryEvent(assignment) */\n      0xef2ac44e203202a0e5ecc9974197e85354c58fc899e46eaa72f8aed9aa0b701d\n      mload(0x40)\n      mload(0x40)\n      dup1\n      swap2\n      sub\n      swap1\n      log2\n        /* \"P5_Gradebook/Gradebook.sol\":1874:2496  function addGrade(string memory student, uint assignment, uint score) virtual override public{... */\n      pop\n      pop\n      pop\n      jump\t// out\n        /* \"P5_Gradebook/Gradebook.sol\":569:634  mapping (uint => mapping(string => uint) ) public override scores */\n    tag_50:\n      mstore(0x20, 0x03)\n      dup2\n      0x00\n      mstore\n      keccak256(0x00, 0x40)\n      dup2\n      dup1\n      mload\n      0x20\n      dup2\n      add\n      dup3\n      add\n      dup1\n      mload\n      dup5\n      dup3\n      mstore\n      0x20\n      dup4\n      add\n      0x20\n      dup6\n      add\n      keccak256\n      dup2\n      dup4\n      mstore\n      dup1\n      swap6\n      pop\n      pop\n      pop\n      pop\n      pop\n      pop\n      0x00\n      swap2\n      pop\n      swap2\n      pop\n      pop\n      sload\n      dup2\n      jump\t// out\n        /* \"P5_Gradebook/Gradebook.sol\":2889:2978  function requestTAAccess() virtual override public{... */\n    tag_53:\n        /* \"P5_Gradebook/Gradebook.sol\":2967:2971  true */\n      0x01\n        /* \"P5_Gradebook/Gradebook.sol\":2949:2952  tas */\n      0x00\n        /* \"P5_Gradebook/Gradebook.sol\":2949:2964  tas[msg.sender] */\n      dup1\n        /* \"P5_Gradebook/Gradebook.sol\":2953:2963  msg.sender */\n      caller\n        /* \"P5_Gradebook/Gradebook.sol\":2949:2964  tas[msg.sender] */\n      0xffffffffffffffffffffffffffffffffffffffff\n      and\n      0xffffffffffffffffffffffffffffffffffffffff\n      and\n      dup2\n      mstore\n      0x20\n      add\n      swap1\n      dup2\n      mstore\n      0x20\n      add\n      0x00\n      keccak256\n      0x00\n        /* \"P5_Gradebook/Gradebook.sol\":2949:2971  tas[msg.sender] = true */\n      0x0100\n      exp\n      dup2\n      sload\n      dup2\n      0xff\n      mul\n      not\n      and\n      swap1\n      dup4\n      iszero\n      iszero\n      mul\n      or\n      swap1\n      sstore\n      pop\n        /* \"P5_Gradebook/Gradebook.sol\":2889:2978  function requestTAAccess() virtual override public{... */\n      jump\t// out\n        /* \"P5_Gradebook/Gradebook.sol\":1029:1202  function designateTA(address ta) virtual override public {... */\n    tag_57:\n        /* \"P5_Gradebook/Gradebook.sol\":1118:1128  msg.sender */\n      caller\n        /* \"P5_Gradebook/Gradebook.sol\":1104:1128  instructor == msg.sender */\n      0xffffffffffffffffffffffffffffffffffffffff\n      and\n        /* \"P5_Gradebook/Gradebook.sol\":1104:1114  instructor */\n      0x05\n      0x00\n      swap1\n      sload\n      swap1\n      0x0100\n      exp\n      swap1\n      div\n      0xffffffffffffffffffffffffffffffffffffffff\n      and\n        /* \"P5_Gradebook/Gradebook.sol\":1104:1128  instructor == msg.sender */\n      0xffffffffffffffffffffffffffffffffffffffff\n      and\n      eq\n        /* \"P5_Gradebook/Gradebook.sol\":1096:1170  require(instructor == msg.sender, \"Only the instructor can designate TAs\") */\n      tag_118\n      jumpi\n      mload(0x40)\n      0x08c379a000000000000000000000000000000000000000000000000000000000\n      dup2\n      mstore\n      0x04\n      add\n      tag_119\n      swap1\n      tag_120\n      jump\t// in\n    tag_119:\n      mload(0x40)\n      dup1\n      swap2\n      sub\n      swap1\n      revert\n    tag_118:\n        /* \"P5_Gradebook/Gradebook.sol\":1190:1194  true */\n      0x01\n        /* \"P5_Gradebook/Gradebook.sol\":1180:1183  tas */\n      0x00\n        /* \"P5_Gradebook/Gradebook.sol\":1180:1187  tas[ta] */\n      dup1\n        /* \"P5_Gradebook/Gradebook.sol\":1184:1186  ta */\n      dup4\n        /* \"P5_Gradebook/Gradebook.sol\":1180:1187  tas[ta] */\n      0xffffffffffffffffffffffffffffffffffffffff\n      and\n      0xffffffffffffffffffffffffffffffffffffffff\n      and\n      dup2\n      mstore\n      0x20\n      add\n      swap1\n      dup2\n      mstore\n      0x20\n      add\n      0x00\n      keccak256\n      0x00\n        /* \"P5_Gradebook/Gradebook.sol\":1180:1194  tas[ta] = true */\n      0x0100\n      exp\n      dup2\n      sload\n      dup2\n      0xff\n      mul\n      not\n      and\n      swap1\n      dup4\n      iszero\n      iszero\n      mul\n      or\n      swap1\n      sstore\n      pop\n        /* \"P5_Gradebook/Gradebook.sol\":1029:1202  function designateTA(address ta) virtual override public {... */\n      pop\n      jump\t// out\n        /* \"P5_Gradebook/Gradebook.sol\":227:272  mapping (address => bool) public override tas */\n    tag_60:\n      mstore(0x20, 0x00)\n      dup1\n      0x00\n      mstore\n      keccak256(0x00, 0x40)\n      0x00\n      swap2\n      pop\n      sload\n      swap1\n      0x0100\n      exp\n      swap1\n      div\n      0xff\n      and\n      dup2\n      jump\t// out\n        /* \"P5_Gradebook/Gradebook.sol\":737:773  uint public override num_assignments */\n    tag_63:\n      sload(0x04)\n      dup2\n      jump\t// out\n        /* \"P5_Gradebook/Gradebook.sol\":333:383  mapping (uint => uint ) public override max_scores */\n    tag_67:\n      mstore(0x20, 0x01)\n      dup1\n      0x00\n      mstore\n      keccak256(0x00, 0x40)\n      0x00\n      swap2\n      pop\n      swap1\n      pop\n      sload\n      dup2\n      jump\t// out\n        /* \"#utility.yul\":7:82   */\n    tag_121:\n        /* \"#utility.yul\":40:46   */\n      0x00\n        /* \"#utility.yul\":73:75   */\n      0x40\n        /* \"#utility.yul\":67:76   */\n      mload\n        /* \"#utility.yul\":57:76   */\n      swap1\n      pop\n        /* \"#utility.yul\":7:82   */\n      swap1\n      jump\t// out\n        /* \"#utility.yul\":88:205   */\n    tag_122:\n        /* \"#utility.yul\":197:198   */\n      0x00\n        /* \"#utility.yul\":194:195   */\n      dup1\n        /* \"#utility.yul\":187:199   */\n      revert\n        /* \"#utility.yul\":211:328   */\n    tag_123:\n        /* \"#utility.yul\":320:321   */\n      0x00\n        /* \"#utility.yul\":317:318   */\n      dup1\n        /* \"#utility.yul\":310:322   */\n      revert\n        /* \"#utility.yul\":334:483   */\n    tag_124:\n        /* \"#utility.yul\":370:377   */\n      0x00\n        /* \"#utility.yul\":410:476   */\n      0xffffffff00000000000000000000000000000000000000000000000000000000\n        /* \"#utility.yul\":403:408   */\n      dup3\n        /* \"#utility.yul\":399:477   */\n      and\n        /* \"#utility.yul\":388:477   */\n      swap1\n      pop\n        /* \"#utility.yul\":334:483   */\n      swap2\n      swap1\n      pop\n      jump\t// out\n        /* \"#utility.yul\":489:609   */\n    tag_125:\n        /* \"#utility.yul\":561:584   */\n      tag_192\n        /* \"#utility.yul\":578:583   */\n      dup2\n        /* \"#utility.yul\":561:584   */\n      tag_124\n      jump\t// in\n    tag_192:\n        /* \"#utility.yul\":554:559   */\n      dup2\n        /* \"#utility.yul\":551:585   */\n      eq\n        /* \"#utility.yul\":541:603   */\n      tag_193\n      jumpi\n        /* \"#utility.yul\":599:600   */\n      0x00\n        /* \"#utility.yul\":596:597   */\n      dup1\n        /* \"#utility.yul\":589:601   */\n      revert\n        /* \"#utility.yul\":541:603   */\n    tag_193:\n        /* \"#utility.yul\":489:609   */\n      pop\n      jump\t// out\n        /* \"#utility.yul\":615:752   */\n    tag_126:\n        /* \"#utility.yul\":660:665   */\n      0x00\n        /* \"#utility.yul\":698:704   */\n      dup2\n        /* \"#utility.yul\":685:705   */\n      calldataload\n        /* \"#utility.yul\":676:705   */\n      swap1\n      pop\n        /* \"#utility.yul\":714:746   */\n      tag_195\n        /* \"#utility.yul\":740:745   */\n      dup2\n        /* \"#utility.yul\":714:746   */\n      tag_125\n      jump\t// in\n    tag_195:\n        /* \"#utility.yul\":615:752   */\n      swap3\n      swap2\n      pop\n      pop\n      jump\t// out\n        /* \"#utility.yul\":758:1085   */\n    tag_18:\n        /* \"#utility.yul\":816:822   */\n      0x00\n        /* \"#utility.yul\":865:867   */\n      0x20\n        /* \"#utility.yul\":853:862   */\n      dup3\n        /* \"#utility.yul\":844:851   */\n      dup5\n        /* \"#utility.yul\":840:863   */\n      sub\n        /* \"#utility.yul\":836:868   */\n      slt\n        /* \"#utility.yul\":833:952   */\n      iszero\n      tag_197\n      jumpi\n        /* \"#utility.yul\":871:950   */\n      tag_198\n      tag_122\n      jump\t// in\n    tag_198:\n        /* \"#utility.yul\":833:952   */\n    tag_197:\n        /* \"#utility.yul\":991:992   */\n      0x00\n        /* \"#utility.yul\":1016:1068   */\n      tag_199\n        /* \"#utility.yul\":1060:1067   */\n      dup5\n        /* \"#utility.yul\":1051:1057   */\n      dup3\n        /* \"#utility.yul\":1040:1049   */\n      dup6\n        /* \"#utility.yul\":1036:1058   */\n      add\n        /* \"#utility.yul\":1016:1068   */\n      tag_126\n      jump\t// in\n    tag_199:\n        /* \"#utility.yul\":1006:1068   */\n      swap2\n      pop\n        /* \"#utility.yul\":962:1078   */\n      pop\n        /* \"#utility.yul\":758:1085   */\n      swap3\n      swap2\n      pop\n      pop\n      jump\t// out\n        /* \"#utility.yul\":1091:1181   */\n    tag_127:\n        /* \"#utility.yul\":1125:1132   */\n      0x00\n        /* \"#utility.yul\":1168:1173   */\n      dup2\n        /* \"#utility.yul\":1161:1174   */\n      iszero\n        /* \"#utility.yul\":1154:1175   */\n      iszero\n        /* \"#utility.yul\":1143:1175   */\n      swap1\n      pop\n        /* \"#utility.yul\":1091:1181   */\n      swap2\n      swap1\n      pop\n      jump\t// out\n        /* \"#utility.yul\":1187:1296   */\n    tag_128:\n        /* \"#utility.yul\":1268:1289   */\n      tag_202\n        /* \"#utility.yul\":1283:1288   */\n      dup2\n        /* \"#utility.yul\":1268:1289   */\n      tag_127\n      jump\t// in\n    tag_202:\n        /* \"#utility.yul\":1263:1266   */\n      dup3\n        /* \"#utility.yul\":1256:1290   */\n      mstore\n        /* \"#utility.yul\":1187:1296   */\n      pop\n      pop\n      jump\t// out\n        /* \"#utility.yul\":1302:1512   */\n    tag_21:\n        /* \"#utility.yul\":1389:1393   */\n      0x00\n        /* \"#utility.yul\":1427:1429   */\n      0x20\n        /* \"#utility.yul\":1416:1425   */\n      dup3\n        /* \"#utility.yul\":1412:1430   */\n      add\n        /* \"#utility.yul\":1404:1430   */\n      swap1\n      pop\n        /* \"#utility.yul\":1440:1505   */\n      tag_204\n        /* \"#utility.yul\":1502:1503   */\n      0x00\n        /* \"#utility.yul\":1491:1500   */\n      dup4\n        /* \"#utility.yul\":1487:1504   */\n      add\n        /* \"#utility.yul\":1478:1484   */\n      dup5\n        /* \"#utility.yul\":1440:1505   */\n      tag_128\n      jump\t// in\n    tag_204:\n        /* \"#utility.yul\":1302:1512   */\n      swap3\n      swap2\n      pop\n      pop\n      jump\t// out\n        /* \"#utility.yul\":1518:1635   */\n    tag_129:\n        /* \"#utility.yul\":1627:1628   */\n      0x00\n        /* \"#utility.yul\":1624:1625   */\n      dup1\n        /* \"#utility.yul\":1617:1629   */\n      revert\n        /* \"#utility.yul\":1641:1758   */\n    tag_130:\n        /* \"#utility.yul\":1750:1751   */\n      0x00\n        /* \"#utility.yul\":1747:1748   */\n      dup1\n        /* \"#utility.yul\":1740:1752   */\n      revert\n        /* \"#utility.yul\":1764:1866   */\n    tag_131:\n        /* \"#utility.yul\":1805:1811   */\n      0x00\n        /* \"#utility.yul\":1856:1858   */\n      0x1f\n        /* \"#utility.yul\":1852:1859   */\n      not\n        /* \"#utility.yul\":1847:1849   */\n      0x1f\n        /* \"#utility.yul\":1840:1845   */\n      dup4\n        /* \"#utility.yul\":1836:1850   */\n      add\n        /* \"#utility.yul\":1832:1860   */\n      and\n        /* \"#utility.yul\":1822:1860   */\n      swap1\n      pop\n        /* \"#utility.yul\":1764:1866   */\n      swap2\n      swap1\n      pop\n      jump\t// out\n        /* \"#utility.yul\":1872:2052   */\n    tag_132:\n        /* \"#utility.yul\":1920:1997   */\n      0x4e487b7100000000000000000000000000000000000000000000000000000000\n        /* \"#utility.yul\":1917:1918   */\n      0x00\n        /* \"#utility.yul\":1910:1998   */\n      mstore\n        /* \"#utility.yul\":2017:2021   */\n      0x41\n        /* \"#utility.yul\":2014:2015   */\n      0x04\n        /* \"#utility.yul\":2007:2022   */\n      mstore\n        /* \"#utility.yul\":2041:2045   */\n      0x24\n        /* \"#utility.yul\":2038:2039   */\n      0x00\n        /* \"#utility.yul\":2031:2046   */\n      revert\n        /* \"#utility.yul\":2058:2339   */\n    tag_133:\n        /* \"#utility.yul\":2141:2168   */\n      tag_210\n        /* \"#utility.yul\":2163:2167   */\n      dup3\n        /* \"#utility.yul\":2141:2168   */\n      tag_131\n      jump\t// in\n    tag_210:\n        /* \"#utility.yul\":2133:2139   */\n      dup2\n        /* \"#utility.yul\":2129:2169   */\n      add\n        /* \"#utility.yul\":2271:2277   */\n      dup2\n        /* \"#utility.yul\":2259:2269   */\n      dup2\n        /* \"#utility.yul\":2256:2278   */\n      lt\n        /* \"#utility.yul\":2235:2253   */\n      0xffffffffffffffff\n        /* \"#utility.yul\":2223:2233   */\n      dup3\n        /* \"#utility.yul\":2220:2254   */\n      gt\n        /* \"#utility.yul\":2217:2279   */\n      or\n        /* \"#utility.yul\":2214:2302   */\n      iszero\n      tag_211\n      jumpi\n        /* \"#utility.yul\":2282:2300   */\n      tag_212\n      tag_132\n      jump\t// in\n    tag_212:\n        /* \"#utility.yul\":2214:2302   */\n    tag_211:\n        /* \"#utility.yul\":2322:2332   */\n      dup1\n        /* \"#utility.yul\":2318:2320   */\n      0x40\n        /* \"#utility.yul\":2311:2333   */\n      mstore\n        /* \"#utility.yul\":2101:2339   */\n      pop\n        /* \"#utility.yul\":2058:2339   */\n      pop\n      pop\n      jump\t// out\n        /* \"#utility.yul\":2345:2474   */\n    tag_134:\n        /* \"#utility.yul\":2379:2385   */\n      0x00\n        /* \"#utility.yul\":2406:2426   */\n      tag_214\n      tag_121\n      jump\t// in\n    tag_214:\n        /* \"#utility.yul\":2396:2426   */\n      swap1\n      pop\n        /* \"#utility.yul\":2435:2468   */\n      tag_215\n        /* \"#utility.yul\":2463:2467   */\n      dup3\n        /* \"#utility.yul\":2455:2461   */\n      dup3\n        /* \"#utility.yul\":2435:2468   */\n      tag_133\n      jump\t// in\n    tag_215:\n        /* \"#utility.yul\":2345:2474   */\n      swap2\n      swap1\n      pop\n      jump\t// out\n        /* \"#utility.yul\":2480:2788   */\n    tag_135:\n        /* \"#utility.yul\":2542:2546   */\n      0x00\n        /* \"#utility.yul\":2632:2650   */\n      0xffffffffffffffff\n        /* \"#utility.yul\":2624:2630   */\n      dup3\n        /* \"#utility.yul\":2621:2651   */\n      gt\n        /* \"#utility.yul\":2618:2674   */\n      iszero\n      tag_217\n      jumpi\n        /* \"#utility.yul\":2654:2672   */\n      tag_218\n      tag_132\n      jump\t// in\n    tag_218:\n        /* \"#utility.yul\":2618:2674   */\n    tag_217:\n        /* \"#utility.yul\":2692:2721   */\n      tag_219\n        /* \"#utility.yul\":2714:2720   */\n      dup3\n        /* \"#utility.yul\":2692:2721   */\n      tag_131\n      jump\t// in\n    tag_219:\n        /* \"#utility.yul\":2684:2721   */\n      swap1\n      pop\n        /* \"#utility.yul\":2776:2780   */\n      0x20\n        /* \"#utility.yul\":2770:2774   */\n      dup2\n        /* \"#utility.yul\":2766:2781   */\n      add\n        /* \"#utility.yul\":2758:2781   */\n      swap1\n      pop\n        /* \"#utility.yul\":2480:2788   */\n      swap2\n      swap1\n      pop\n      jump\t// out\n        /* \"#utility.yul\":2794:2940   */\n    tag_136:\n        /* \"#utility.yul\":2891:2897   */\n      dup3\n        /* \"#utility.yul\":2886:2889   */\n      dup2\n        /* \"#utility.yul\":2881:2884   */\n      dup4\n        /* \"#utility.yul\":2868:2898   */\n      calldatacopy\n        /* \"#utility.yul\":2932:2933   */\n      0x00\n        /* \"#utility.yul\":2923:2929   */\n      dup4\n        /* \"#utility.yul\":2918:2921   */\n      dup4\n        /* \"#utility.yul\":2914:2930   */\n      add\n        /* \"#utility.yul\":2907:2934   */\n      mstore\n        /* \"#utility.yul\":2794:2940   */\n      pop\n      pop\n      pop\n      jump\t// out\n        /* \"#utility.yul\":2946:3371   */\n    tag_137:\n        /* \"#utility.yul\":3024:3029   */\n      0x00\n        /* \"#utility.yul\":3049:3115   */\n      tag_222\n        /* \"#utility.yul\":3065:3114   */\n      tag_223\n        /* \"#utility.yul\":3107:3113   */\n      dup5\n        /* \"#utility.yul\":3065:3114   */\n      tag_135\n      jump\t// in\n    tag_223:\n        /* \"#utility.yul\":3049:3115   */\n      tag_134\n      jump\t// in\n    tag_222:\n        /* \"#utility.yul\":3040:3115   */\n      swap1\n      pop\n        /* \"#utility.yul\":3138:3144   */\n      dup3\n        /* \"#utility.yul\":3131:3136   */\n      dup2\n        /* \"#utility.yul\":3124:3145   */\n      mstore\n        /* \"#utility.yul\":3176:3180   */\n      0x20\n        /* \"#utility.yul\":3169:3174   */\n      dup2\n        /* \"#utility.yul\":3165:3181   */\n      add\n        /* \"#utility.yul\":3214:3217   */\n      dup5\n        /* \"#utility.yul\":3205:3211   */\n      dup5\n        /* \"#utility.yul\":3200:3203   */\n      dup5\n        /* \"#utility.yul\":3196:3212   */\n      add\n        /* \"#utility.yul\":3193:3218   */\n      gt\n        /* \"#utility.yul\":3190:3302   */\n      iszero\n      tag_224\n      jumpi\n        /* \"#utility.yul\":3221:3300   */\n      tag_225\n      tag_130\n      jump\t// in\n    tag_225:\n        /* \"#utility.yul\":3190:3302   */\n    tag_224:\n        /* \"#utility.yul\":3311:3365   */\n      tag_226\n        /* \"#utility.yul\":3358:3364   */\n      dup5\n        /* \"#utility.yul\":3353:3356   */\n      dup3\n        /* \"#utility.yul\":3348:3351   */\n      dup6\n        /* \"#utility.yul\":3311:3365   */\n      tag_136\n      jump\t// in\n    tag_226:\n        /* \"#utility.yul\":3030:3371   */\n      pop\n        /* \"#utility.yul\":2946:3371   */\n      swap4\n      swap3\n      pop\n      pop\n      pop\n      jump\t// out\n        /* \"#utility.yul\":3391:3731   */\n    tag_138:\n        /* \"#utility.yul\":3447:3452   */\n      0x00\n        /* \"#utility.yul\":3496:3499   */\n      dup3\n        /* \"#utility.yul\":3489:3493   */\n      0x1f\n        /* \"#utility.yul\":3481:3487   */\n      dup4\n        /* \"#utility.yul\":3477:3494   */\n      add\n        /* \"#utility.yul\":3473:3500   */\n      slt\n        /* \"#utility.yul\":3463:3585   */\n      tag_228\n      jumpi\n        /* \"#utility.yul\":3504:3583   */\n      tag_229\n      tag_129\n      jump\t// in\n    tag_229:\n        /* \"#utility.yul\":3463:3585   */\n    tag_228:\n        /* \"#utility.yul\":3621:3627   */\n      dup2\n        /* \"#utility.yul\":3608:3628   */\n      calldataload\n        /* \"#utility.yul\":3646:3725   */\n      tag_230\n        /* \"#utility.yul\":3721:3724   */\n      dup5\n        /* \"#utility.yul\":3713:3719   */\n      dup3\n        /* \"#utility.yul\":3706:3710   */\n      0x20\n        /* \"#utility.yul\":3698:3704   */\n      dup7\n        /* \"#utility.yul\":3694:3711   */\n      add\n        /* \"#utility.yul\":3646:3725   */\n      tag_137\n      jump\t// in\n    tag_230:\n        /* \"#utility.yul\":3637:3725   */\n      swap2\n      pop\n        /* \"#utility.yul\":3453:3731   */\n      pop\n        /* \"#utility.yul\":3391:3731   */\n      swap3\n      swap2\n      pop\n      pop\n      jump\t// out\n        /* \"#utility.yul\":3737:3814   */\n    tag_139:\n        /* \"#utility.yul\":3774:3781   */\n      0x00\n        /* \"#utility.yul\":3803:3808   */\n      dup2\n        /* \"#utility.yul\":3792:3808   */\n      swap1\n      pop\n        /* \"#utility.yul\":3737:3814   */\n      swap2\n      swap1\n      pop\n      jump\t// out\n        /* \"#utility.yul\":3820:3942   */\n    tag_140:\n        /* \"#utility.yul\":3893:3917   */\n      tag_233\n        /* \"#utility.yul\":3911:3916   */\n      dup2\n        /* \"#utility.yul\":3893:3917   */\n      tag_139\n      jump\t// in\n    tag_233:\n        /* \"#utility.yul\":3886:3891   */\n      dup2\n        /* \"#utility.yul\":3883:3918   */\n      eq\n        /* \"#utility.yul\":3873:3936   */\n      tag_234\n      jumpi\n        /* \"#utility.yul\":3932:3933   */\n      0x00\n        /* \"#utility.yul\":3929:3930   */\n      dup1\n        /* \"#utility.yul\":3922:3934   */\n      revert\n        /* \"#utility.yul\":3873:3936   */\n    tag_234:\n        /* \"#utility.yul\":3820:3942   */\n      pop\n      jump\t// out\n        /* \"#utility.yul\":3948:4087   */\n    tag_141:\n        /* \"#utility.yul\":3994:3999   */\n      0x00\n        /* \"#utility.yul\":4032:4038   */\n      dup2\n        /* \"#utility.yul\":4019:4039   */\n      calldataload\n        /* \"#utility.yul\":4010:4039   */\n      swap1\n      pop\n        /* \"#utility.yul\":4048:4081   */\n      tag_236\n        /* \"#utility.yul\":4075:4080   */\n      dup2\n        /* \"#utility.yul\":4048:4081   */\n      tag_140\n      jump\t// in\n    tag_236:\n        /* \"#utility.yul\":3948:4087   */\n      swap3\n      swap2\n      pop\n      pop\n      jump\t// out\n        /* \"#utility.yul\":4093:4747   */\n    tag_24:\n        /* \"#utility.yul\":4171:4177   */\n      0x00\n        /* \"#utility.yul\":4179:4185   */\n      dup1\n        /* \"#utility.yul\":4228:4230   */\n      0x40\n        /* \"#utility.yul\":4216:4225   */\n      dup4\n        /* \"#utility.yul\":4207:4214   */\n      dup6\n        /* \"#utility.yul\":4203:4226   */\n      sub\n        /* \"#utility.yul\":4199:4231   */\n      slt\n        /* \"#utility.yul\":4196:4315   */\n      iszero\n      tag_238\n      jumpi\n        /* \"#utility.yul\":4234:4313   */\n      tag_239\n      tag_122\n      jump\t// in\n    tag_239:\n        /* \"#utility.yul\":4196:4315   */\n    tag_238:\n        /* \"#utility.yul\":4382:4383   */\n      0x00\n        /* \"#utility.yul\":4371:4380   */\n      dup4\n        /* \"#utility.yul\":4367:4384   */\n      add\n        /* \"#utility.yul\":4354:4385   */\n      calldataload\n        /* \"#utility.yul\":4412:4430   */\n      0xffffffffffffffff\n        /* \"#utility.yul\":4404:4410   */\n      dup2\n        /* \"#utility.yul\":4401:4431   */\n      gt\n        /* \"#utility.yul\":4398:4515   */\n      iszero\n      tag_240\n      jumpi\n        /* \"#utility.yul\":4434:4513   */\n      tag_241\n      tag_123\n      jump\t// in\n    tag_241:\n        /* \"#utility.yul\":4398:4515   */\n    tag_240:\n        /* \"#utility.yul\":4539:4602   */\n      tag_242\n        /* \"#utility.yul\":4594:4601   */\n      dup6\n        /* \"#utility.yul\":4585:4591   */\n      dup3\n        /* \"#utility.yul\":4574:4583   */\n      dup7\n        /* \"#utility.yul\":4570:4592   */\n      add\n        /* \"#utility.yul\":4539:4602   */\n      tag_138\n      jump\t// in\n    tag_242:\n        /* \"#utility.yul\":4529:4602   */\n      swap3\n      pop\n        /* \"#utility.yul\":4325:4612   */\n      pop\n        /* \"#utility.yul\":4651:4653   */\n      0x20\n        /* \"#utility.yul\":4677:4730   */\n      tag_243\n        /* \"#utility.yul\":4722:4729   */\n      dup6\n        /* \"#utility.yul\":4713:4719   */\n      dup3\n        /* \"#utility.yul\":4702:4711   */\n      dup7\n        /* \"#utility.yul\":4698:4720   */\n      add\n        /* \"#utility.yul\":4677:4730   */\n      tag_141\n      jump\t// in\n    tag_243:\n        /* \"#utility.yul\":4667:4730   */\n      swap2\n      pop\n        /* \"#utility.yul\":4622:4740   */\n      pop\n        /* \"#utility.yul\":4093:4747   */\n      swap3\n      pop\n      swap3\n      swap1\n      pop\n      jump\t// out\n        /* \"#utility.yul\":4753:4871   */\n    tag_142:\n        /* \"#utility.yul\":4840:4864   */\n      tag_245\n        /* \"#utility.yul\":4858:4863   */\n      dup2\n        /* \"#utility.yul\":4840:4864   */\n      tag_139\n      jump\t// in\n    tag_245:\n        /* \"#utility.yul\":4835:4838   */\n      dup3\n        /* \"#utility.yul\":4828:4865   */\n      mstore\n        /* \"#utility.yul\":4753:4871   */\n      pop\n      pop\n      jump\t// out\n        /* \"#utility.yul\":4877:5099   */\n    tag_27:\n        /* \"#utility.yul\":4970:4974   */\n      0x00\n        /* \"#utility.yul\":5008:5010   */\n      0x20\n        /* \"#utility.yul\":4997:5006   */\n      dup3\n        /* \"#utility.yul\":4993:5011   */\n      add\n        /* \"#utility.yul\":4985:5011   */\n      swap1\n      pop\n        /* \"#utility.yul\":5021:5092   */\n      tag_247\n        /* \"#utility.yul\":5089:5090   */\n      0x00\n        /* \"#utility.yul\":5078:5087   */\n      dup4\n        /* \"#utility.yul\":5074:5091   */\n      add\n        /* \"#utility.yul\":5065:5071   */\n      dup5\n        /* \"#utility.yul\":5021:5092   */\n      tag_142\n      jump\t// in\n    tag_247:\n        /* \"#utility.yul\":4877:5099   */\n      swap3\n      swap2\n      pop\n      pop\n      jump\t// out\n        /* \"#utility.yul\":5105:5434   */\n    tag_30:\n        /* \"#utility.yul\":5164:5170   */\n      0x00\n        /* \"#utility.yul\":5213:5215   */\n      0x20\n        /* \"#utility.yul\":5201:5210   */\n      dup3\n        /* \"#utility.yul\":5192:5199   */\n      dup5\n        /* \"#utility.yul\":5188:5211   */\n      sub\n        /* \"#utility.yul\":5184:5216   */\n      slt\n        /* \"#utility.yul\":5181:5300   */\n      iszero\n      tag_249\n      jumpi\n        /* \"#utility.yul\":5219:5298   */\n      tag_250\n      tag_122\n      jump\t// in\n    tag_250:\n        /* \"#utility.yul\":5181:5300   */\n    tag_249:\n        /* \"#utility.yul\":5339:5340   */\n      0x00\n        /* \"#utility.yul\":5364:5417   */\n      tag_251\n        /* \"#utility.yul\":5409:5416   */\n      dup5\n        /* \"#utility.yul\":5400:5406   */\n      dup3\n        /* \"#utility.yul\":5389:5398   */\n      dup6\n        /* \"#utility.yul\":5385:5407   */\n      add\n        /* \"#utility.yul\":5364:5417   */\n      tag_141\n      jump\t// in\n    tag_251:\n        /* \"#utility.yul\":5354:5417   */\n      swap2\n      pop\n        /* \"#utility.yul\":5310:5427   */\n      pop\n        /* \"#utility.yul\":5105:5434   */\n      swap3\n      swap2\n      pop\n      pop\n      jump\t// out\n        /* \"#utility.yul\":5440:5539   */\n    tag_143:\n        /* \"#utility.yul\":5492:5498   */\n      0x00\n        /* \"#utility.yul\":5526:5531   */\n      dup2\n        /* \"#utility.yul\":5520:5532   */\n      mload\n        /* \"#utility.yul\":5510:5532   */\n      swap1\n      pop\n        /* \"#utility.yul\":5440:5539   */\n      swap2\n      swap1\n      pop\n      jump\t// out\n        /* \"#utility.yul\":5545:5714   */\n    tag_144:\n        /* \"#utility.yul\":5629:5640   */\n      0x00\n        /* \"#utility.yul\":5663:5669   */\n      dup3\n        /* \"#utility.yul\":5658:5661   */\n      dup3\n        /* \"#utility.yul\":5651:5670   */\n      mstore\n        /* \"#utility.yul\":5703:5707   */\n      0x20\n        /* \"#utility.yul\":5698:5701   */\n      dup3\n        /* \"#utility.yul\":5694:5708   */\n      add\n        /* \"#utility.yul\":5679:5708   */\n      swap1\n      pop\n        /* \"#utility.yul\":5545:5714   */\n      swap3\n      swap2\n      pop\n      pop\n      jump\t// out\n        /* \"#utility.yul\":5720:5966   */\n    tag_145:\n        /* \"#utility.yul\":5801:5802   */\n      0x00\n        /* \"#utility.yul\":5811:5924   */\n    tag_255:\n        /* \"#utility.yul\":5825:5831   */\n      dup4\n        /* \"#utility.yul\":5822:5823   */\n      dup2\n        /* \"#utility.yul\":5819:5832   */\n      lt\n        /* \"#utility.yul\":5811:5924   */\n      iszero\n      tag_257\n      jumpi\n        /* \"#utility.yul\":5910:5911   */\n      dup1\n        /* \"#utility.yul\":5905:5908   */\n      dup3\n        /* \"#utility.yul\":5901:5912   */\n      add\n        /* \"#utility.yul\":5895:5913   */\n      mload\n        /* \"#utility.yul\":5891:5892   */\n      dup2\n        /* \"#utility.yul\":5886:5889   */\n      dup5\n        /* \"#utility.yul\":5882:5893   */\n      add\n        /* \"#utility.yul\":5875:5914   */\n      mstore\n        /* \"#utility.yul\":5847:5849   */\n      0x20\n        /* \"#utility.yul\":5844:5845   */\n      dup2\n        /* \"#utility.yul\":5840:5850   */\n      add\n        /* \"#utility.yul\":5835:5850   */\n      swap1\n      pop\n        /* \"#utility.yul\":5811:5924   */\n      jump(tag_255)\n    tag_257:\n        /* \"#utility.yul\":5958:5959   */\n      0x00\n        /* \"#utility.yul\":5949:5955   */\n      dup5\n        /* \"#utility.yul\":5944:5947   */\n      dup5\n        /* \"#utility.yul\":5940:5956   */\n      add\n        /* \"#utility.yul\":5933:5960   */\n      mstore\n        /* \"#utility.yul\":5782:5966   */\n      pop\n        /* \"#utility.yul\":5720:5966   */\n      pop\n      pop\n      pop\n      jump\t// out\n        /* \"#utility.yul\":5972:6349   */\n    tag_146:\n        /* \"#utility.yul\":6060:6063   */\n      0x00\n        /* \"#utility.yul\":6088:6127   */\n      tag_259\n        /* \"#utility.yul\":6121:6126   */\n      dup3\n        /* \"#utility.yul\":6088:6127   */\n      tag_143\n      jump\t// in\n    tag_259:\n        /* \"#utility.yul\":6143:6214   */\n      tag_260\n        /* \"#utility.yul\":6207:6213   */\n      dup2\n        /* \"#utility.yul\":6202:6205   */\n      dup6\n        /* \"#utility.yul\":6143:6214   */\n      tag_144\n      jump\t// in\n    tag_260:\n        /* \"#utility.yul\":6136:6214   */\n      swap4\n      pop\n        /* \"#utility.yul\":6223:6288   */\n      tag_261\n        /* \"#utility.yul\":6281:6287   */\n      dup2\n        /* \"#utility.yul\":6276:6279   */\n      dup6\n        /* \"#utility.yul\":6269:6273   */\n      0x20\n        /* \"#utility.yul\":6262:6267   */\n      dup7\n        /* \"#utility.yul\":6258:6274   */\n      add\n        /* \"#utility.yul\":6223:6288   */\n      tag_145\n      jump\t// in\n    tag_261:\n        /* \"#utility.yul\":6313:6342   */\n      tag_262\n        /* \"#utility.yul\":6335:6341   */\n      dup2\n        /* \"#utility.yul\":6313:6342   */\n      tag_131\n      jump\t// in\n    tag_262:\n        /* \"#utility.yul\":6308:6311   */\n      dup5\n        /* \"#utility.yul\":6304:6343   */\n      add\n        /* \"#utility.yul\":6297:6343   */\n      swap2\n      pop\n        /* \"#utility.yul\":6064:6349   */\n      pop\n        /* \"#utility.yul\":5972:6349   */\n      swap3\n      swap2\n      pop\n      pop\n      jump\t// out\n        /* \"#utility.yul\":6355:6668   */\n    tag_33:\n        /* \"#utility.yul\":6468:6472   */\n      0x00\n        /* \"#utility.yul\":6506:6508   */\n      0x20\n        /* \"#utility.yul\":6495:6504   */\n      dup3\n        /* \"#utility.yul\":6491:6509   */\n      add\n        /* \"#utility.yul\":6483:6509   */\n      swap1\n      pop\n        /* \"#utility.yul\":6555:6564   */\n      dup2\n        /* \"#utility.yul\":6549:6553   */\n      dup2\n        /* \"#utility.yul\":6545:6565   */\n      sub\n        /* \"#utility.yul\":6541:6542   */\n      0x00\n        /* \"#utility.yul\":6530:6539   */\n      dup4\n        /* \"#utility.yul\":6526:6543   */\n      add\n        /* \"#utility.yul\":6519:6566   */\n      mstore\n        /* \"#utility.yul\":6583:6661   */\n      tag_264\n        /* \"#utility.yul\":6656:6660   */\n      dup2\n        /* \"#utility.yul\":6647:6653   */\n      dup5\n        /* \"#utility.yul\":6583:6661   */\n      tag_146\n      jump\t// in\n    tag_264:\n        /* \"#utility.yul\":6575:6661   */\n      swap1\n      pop\n        /* \"#utility.yul\":6355:6668   */\n      swap3\n      swap2\n      pop\n      pop\n      jump\t// out\n        /* \"#utility.yul\":6674:7183   */\n    tag_36:\n        /* \"#utility.yul\":6743:6749   */\n      0x00\n        /* \"#utility.yul\":6792:6794   */\n      0x20\n        /* \"#utility.yul\":6780:6789   */\n      dup3\n        /* \"#utility.yul\":6771:6778   */\n      dup5\n        /* \"#utility.yul\":6767:6790   */\n      sub\n        /* \"#utility.yul\":6763:6795   */\n      slt\n        /* \"#utility.yul\":6760:6879   */\n      iszero\n      tag_266\n      jumpi\n        /* \"#utility.yul\":6798:6877   */\n      tag_267\n      tag_122\n      jump\t// in\n    tag_267:\n        /* \"#utility.yul\":6760:6879   */\n    tag_266:\n        /* \"#utility.yul\":6946:6947   */\n      0x00\n        /* \"#utility.yul\":6935:6944   */\n      dup3\n        /* \"#utility.yul\":6931:6948   */\n      add\n        /* \"#utility.yul\":6918:6949   */\n      calldataload\n        /* \"#utility.yul\":6976:6994   */\n      0xffffffffffffffff\n        /* \"#utility.yul\":6968:6974   */\n      dup2\n        /* \"#utility.yul\":6965:6995   */\n      gt\n        /* \"#utility.yul\":6962:7079   */\n      iszero\n      tag_268\n      jumpi\n        /* \"#utility.yul\":6998:7077   */\n      tag_269\n      tag_123\n      jump\t// in\n    tag_269:\n        /* \"#utility.yul\":6962:7079   */\n    tag_268:\n        /* \"#utility.yul\":7103:7166   */\n      tag_270\n        /* \"#utility.yul\":7158:7165   */\n      dup5\n        /* \"#utility.yul\":7149:7155   */\n      dup3\n        /* \"#utility.yul\":7138:7147   */\n      dup6\n        /* \"#utility.yul\":7134:7156   */\n      add\n        /* \"#utility.yul\":7103:7166   */\n      tag_138\n      jump\t// in\n    tag_270:\n        /* \"#utility.yul\":7093:7166   */\n      swap2\n      pop\n        /* \"#utility.yul\":6889:7176   */\n      pop\n        /* \"#utility.yul\":6674:7183   */\n      swap3\n      swap2\n      pop\n      pop\n      jump\t// out\n        /* \"#utility.yul\":7189:7315   */\n    tag_147:\n        /* \"#utility.yul\":7226:7233   */\n      0x00\n        /* \"#utility.yul\":7266:7308   */\n      0xffffffffffffffffffffffffffffffffffffffff\n        /* \"#utility.yul\":7259:7264   */\n      dup3\n        /* \"#utility.yul\":7255:7309   */\n      and\n        /* \"#utility.yul\":7244:7309   */\n      swap1\n      pop\n        /* \"#utility.yul\":7189:7315   */\n      swap2\n      swap1\n      pop\n      jump\t// out\n        /* \"#utility.yul\":7321:7417   */\n    tag_148:\n        /* \"#utility.yul\":7358:7365   */\n      0x00\n        /* \"#utility.yul\":7387:7411   */\n      tag_273\n        /* \"#utility.yul\":7405:7410   */\n      dup3\n        /* \"#utility.yul\":7387:7411   */\n      tag_147\n      jump\t// in\n    tag_273:\n        /* \"#utility.yul\":7376:7411   */\n      swap1\n      pop\n        /* \"#utility.yul\":7321:7417   */\n      swap2\n      swap1\n      pop\n      jump\t// out\n        /* \"#utility.yul\":7423:7541   */\n    tag_149:\n        /* \"#utility.yul\":7510:7534   */\n      tag_275\n        /* \"#utility.yul\":7528:7533   */\n      dup2\n        /* \"#utility.yul\":7510:7534   */\n      tag_148\n      jump\t// in\n    tag_275:\n        /* \"#utility.yul\":7505:7508   */\n      dup3\n        /* \"#utility.yul\":7498:7535   */\n      mstore\n        /* \"#utility.yul\":7423:7541   */\n      pop\n      pop\n      jump\t// out\n        /* \"#utility.yul\":7547:7769   */\n    tag_42:\n        /* \"#utility.yul\":7640:7644   */\n      0x00\n        /* \"#utility.yul\":7678:7680   */\n      0x20\n        /* \"#utility.yul\":7667:7676   */\n      dup3\n        /* \"#utility.yul\":7663:7681   */\n      add\n        /* \"#utility.yul\":7655:7681   */\n      swap1\n      pop\n        /* \"#utility.yul\":7691:7762   */\n      tag_277\n        /* \"#utility.yul\":7759:7760   */\n      0x00\n        /* \"#utility.yul\":7748:7757   */\n      dup4\n        /* \"#utility.yul\":7744:7761   */\n      add\n        /* \"#utility.yul\":7735:7741   */\n      dup5\n        /* \"#utility.yul\":7691:7762   */\n      tag_149\n      jump\t// in\n    tag_277:\n        /* \"#utility.yul\":7547:7769   */\n      swap3\n      swap2\n      pop\n      pop\n      jump\t// out\n        /* \"#utility.yul\":7775:8574   */\n    tag_45:\n        /* \"#utility.yul\":7862:7868   */\n      0x00\n        /* \"#utility.yul\":7870:7876   */\n      dup1\n        /* \"#utility.yul\":7878:7884   */\n      0x00\n        /* \"#utility.yul\":7927:7929   */\n      0x60\n        /* \"#utility.yul\":7915:7924   */\n      dup5\n        /* \"#utility.yul\":7906:7913   */\n      dup7\n        /* \"#utility.yul\":7902:7925   */\n      sub\n        /* \"#utility.yul\":7898:7930   */\n      slt\n        /* \"#utility.yul\":7895:8014   */\n      iszero\n      tag_279\n      jumpi\n        /* \"#utility.yul\":7933:8012   */\n      tag_280\n      tag_122\n      jump\t// in\n    tag_280:\n        /* \"#utility.yul\":7895:8014   */\n    tag_279:\n        /* \"#utility.yul\":8081:8082   */\n      0x00\n        /* \"#utility.yul\":8070:8079   */\n      dup5\n        /* \"#utility.yul\":8066:8083   */\n      add\n        /* \"#utility.yul\":8053:8084   */\n      calldataload\n        /* \"#utility.yul\":8111:8129   */\n      0xffffffffffffffff\n        /* \"#utility.yul\":8103:8109   */\n      dup2\n        /* \"#utility.yul\":8100:8130   */\n      gt\n        /* \"#utility.yul\":8097:8214   */\n      iszero\n      tag_281\n      jumpi\n        /* \"#utility.yul\":8133:8212   */\n      tag_282\n      tag_123\n      jump\t// in\n    tag_282:\n        /* \"#utility.yul\":8097:8214   */\n    tag_281:\n        /* \"#utility.yul\":8238:8301   */\n      tag_283\n        /* \"#utility.yul\":8293:8300   */\n      dup7\n        /* \"#utility.yul\":8284:8290   */\n      dup3\n        /* \"#utility.yul\":8273:8282   */\n      dup8\n        /* \"#utility.yul\":8269:8291   */\n      add\n        /* \"#utility.yul\":8238:8301   */\n      tag_138\n      jump\t// in\n    tag_283:\n        /* \"#utility.yul\":8228:8301   */\n      swap4\n      pop\n        /* \"#utility.yul\":8024:8311   */\n      pop\n        /* \"#utility.yul\":8350:8352   */\n      0x20\n        /* \"#utility.yul\":8376:8429   */\n      tag_284\n        /* \"#utility.yul\":8421:8428   */\n      dup7\n        /* \"#utility.yul\":8412:8418   */\n      dup3\n        /* \"#utility.yul\":8401:8410   */\n      dup8\n        /* \"#utility.yul\":8397:8419   */\n      add\n        /* \"#utility.yul\":8376:8429   */\n      tag_141\n      jump\t// in\n    tag_284:\n        /* \"#utility.yul\":8366:8429   */\n      swap3\n      pop\n        /* \"#utility.yul\":8321:8439   */\n      pop\n        /* \"#utility.yul\":8478:8480   */\n      0x40\n        /* \"#utility.yul\":8504:8557   */\n      tag_285\n        /* \"#utility.yul\":8549:8556   */\n      dup7\n        /* \"#utility.yul\":8540:8546   */\n      dup3\n        /* \"#utility.yul\":8529:8538   */\n      dup8\n        /* \"#utility.yul\":8525:8547   */\n      add\n        /* \"#utility.yul\":8504:8557   */\n      tag_141\n      jump\t// in\n    tag_285:\n        /* \"#utility.yul\":8494:8557   */\n      swap2\n      pop\n        /* \"#utility.yul\":8449:8567   */\n      pop\n        /* \"#utility.yul\":7775:8574   */\n      swap3\n      pop\n      swap3\n      pop\n      swap3\n      jump\t// out\n        /* \"#utility.yul\":8580:9234   */\n    tag_49:\n        /* \"#utility.yul\":8658:8664   */\n      0x00\n        /* \"#utility.yul\":8666:8672   */\n      dup1\n        /* \"#utility.yul\":8715:8717   */\n      0x40\n        /* \"#utility.yul\":8703:8712   */\n      dup4\n        /* \"#utility.yul\":8694:8701   */\n      dup6\n        /* \"#utility.yul\":8690:8713   */\n      sub\n        /* \"#utility.yul\":8686:8718   */\n      slt\n        /* \"#utility.yul\":8683:8802   */\n      iszero\n      tag_287\n      jumpi\n        /* \"#utility.yul\":8721:8800   */\n      tag_288\n      tag_122\n      jump\t// in\n    tag_288:\n        /* \"#utility.yul\":8683:8802   */\n    tag_287:\n        /* \"#utility.yul\":8841:8842   */\n      0x00\n        /* \"#utility.yul\":8866:8919   */\n      tag_289\n        /* \"#utility.yul\":8911:8918   */\n      dup6\n        /* \"#utility.yul\":8902:8908   */\n      dup3\n        /* \"#utility.yul\":8891:8900   */\n      dup7\n        /* \"#utility.yul\":8887:8909   */\n      add\n        /* \"#utility.yul\":8866:8919   */\n      tag_141\n      jump\t// in\n    tag_289:\n        /* \"#utility.yul\":8856:8919   */\n      swap3\n      pop\n        /* \"#utility.yul\":8812:8929   */\n      pop\n        /* \"#utility.yul\":8996:8998   */\n      0x20\n        /* \"#utility.yul\":8985:8994   */\n      dup4\n        /* \"#utility.yul\":8981:8999   */\n      add\n        /* \"#utility.yul\":8968:9000   */\n      calldataload\n        /* \"#utility.yul\":9027:9045   */\n      0xffffffffffffffff\n        /* \"#utility.yul\":9019:9025   */\n      dup2\n        /* \"#utility.yul\":9016:9046   */\n      gt\n        /* \"#utility.yul\":9013:9130   */\n      iszero\n      tag_290\n      jumpi\n        /* \"#utility.yul\":9049:9128   */\n      tag_291\n      tag_123\n      jump\t// in\n    tag_291:\n        /* \"#utility.yul\":9013:9130   */\n    tag_290:\n        /* \"#utility.yul\":9154:9217   */\n      tag_292\n        /* \"#utility.yul\":9209:9216   */\n      dup6\n        /* \"#utility.yul\":9200:9206   */\n      dup3\n        /* \"#utility.yul\":9189:9198   */\n      dup7\n        /* \"#utility.yul\":9185:9207   */\n      add\n        /* \"#utility.yul\":9154:9217   */\n      tag_138\n      jump\t// in\n    tag_292:\n        /* \"#utility.yul\":9144:9217   */\n      swap2\n      pop\n        /* \"#utility.yul\":8939:9227   */\n      pop\n        /* \"#utility.yul\":8580:9234   */\n      swap3\n      pop\n      swap3\n      swap1\n      pop\n      jump\t// out\n        /* \"#utility.yul\":9240:9362   */\n    tag_150:\n        /* \"#utility.yul\":9313:9337   */\n      tag_294\n        /* \"#utility.yul\":9331:9336   */\n      dup2\n        /* \"#utility.yul\":9313:9337   */\n      tag_148\n      jump\t// in\n    tag_294:\n        /* \"#utility.yul\":9306:9311   */\n      dup2\n        /* \"#utility.yul\":9303:9338   */\n      eq\n        /* \"#utility.yul\":9293:9356   */\n      tag_295\n      jumpi\n        /* \"#utility.yul\":9352:9353   */\n      0x00\n        /* \"#utility.yul\":9349:9350   */\n      dup1\n        /* \"#utility.yul\":9342:9354   */\n      revert\n        /* \"#utility.yul\":9293:9356   */\n    tag_295:\n        /* \"#utility.yul\":9240:9362   */\n      pop\n      jump\t// out\n        /* \"#utility.yul\":9368:9507   */\n    tag_151:\n        /* \"#utility.yul\":9414:9419   */\n      0x00\n        /* \"#utility.yul\":9452:9458   */\n      dup2\n        /* \"#utility.yul\":9439:9459   */\n      calldataload\n        /* \"#utility.yul\":9430:9459   */\n      swap1\n      pop\n        /* \"#utility.yul\":9468:9501   */\n      tag_297\n        /* \"#utility.yul\":9495:9500   */\n      dup2\n        /* \"#utility.yul\":9468:9501   */\n      tag_150\n      jump\t// in\n    tag_297:\n        /* \"#utility.yul\":9368:9507   */\n      swap3\n      swap2\n      pop\n      pop\n      jump\t// out\n        /* \"#utility.yul\":9513:9842   */\n    tag_56:\n        /* \"#utility.yul\":9572:9578   */\n      0x00\n        /* \"#utility.yul\":9621:9623   */\n      0x20\n        /* \"#utility.yul\":9609:9618   */\n      dup3\n        /* \"#utility.yul\":9600:9607   */\n      dup5\n        /* \"#utility.yul\":9596:9619   */\n      sub\n        /* \"#utility.yul\":9592:9624   */\n      slt\n        /* \"#utility.yul\":9589:9708   */\n      iszero\n      tag_299\n      jumpi\n        /* \"#utility.yul\":9627:9706   */\n      tag_300\n      tag_122\n      jump\t// in\n    tag_300:\n        /* \"#utility.yul\":9589:9708   */\n    tag_299:\n        /* \"#utility.yul\":9747:9748   */\n      0x00\n        /* \"#utility.yul\":9772:9825   */\n      tag_301\n        /* \"#utility.yul\":9817:9824   */\n      dup5\n        /* \"#utility.yul\":9808:9814   */\n      dup3\n        /* \"#utility.yul\":9797:9806   */\n      dup6\n        /* \"#utility.yul\":9793:9815   */\n      add\n        /* \"#utility.yul\":9772:9825   */\n      tag_151\n      jump\t// in\n    tag_301:\n        /* \"#utility.yul\":9762:9825   */\n      swap2\n      pop\n        /* \"#utility.yul\":9718:9835   */\n      pop\n        /* \"#utility.yul\":9513:9842   */\n      swap3\n      swap2\n      pop\n      pop\n      jump\t// out\n        /* \"#utility.yul\":9848:10082   */\n    tag_152:\n        /* \"#utility.yul\":9988:10022   */\n      0x4f6e6c792074686520696e7374727563746f7220616e64205441732063616e20\n        /* \"#utility.yul\":9984:9985   */\n      0x00\n        /* \"#utility.yul\":9976:9982   */\n      dup3\n        /* \"#utility.yul\":9972:9986   */\n      add\n        /* \"#utility.yul\":9965:10023   */\n      mstore\n        /* \"#utility.yul\":10057:10074   */\n      0x6164642061737369676e6d656e74730000000000000000000000000000000000\n        /* \"#utility.yul\":10052:10054   */\n      0x20\n        /* \"#utility.yul\":10044:10050   */\n      dup3\n        /* \"#utility.yul\":10040:10055   */\n      add\n        /* \"#utility.yul\":10033:10075   */\n      mstore\n        /* \"#utility.yul\":9848:10082   */\n      pop\n      jump\t// out\n        /* \"#utility.yul\":10088:10454   */\n    tag_153:\n        /* \"#utility.yul\":10230:10233   */\n      0x00\n        /* \"#utility.yul\":10251:10318   */\n      tag_304\n        /* \"#utility.yul\":10315:10317   */\n      0x2f\n        /* \"#utility.yul\":10310:10313   */\n      dup4\n        /* \"#utility.yul\":10251:10318   */\n      tag_144\n      jump\t// in\n    tag_304:\n        /* \"#utility.yul\":10244:10318   */\n      swap2\n      pop\n        /* \"#utility.yul\":10327:10420   */\n      tag_305\n        /* \"#utility.yul\":10416:10419   */\n      dup3\n        /* \"#utility.yul\":10327:10420   */\n      tag_152\n      jump\t// in\n    tag_305:\n        /* \"#utility.yul\":10445:10447   */\n      0x40\n        /* \"#utility.yul\":10440:10443   */\n      dup3\n        /* \"#utility.yul\":10436:10448   */\n      add\n        /* \"#utility.yul\":10429:10448   */\n      swap1\n      pop\n        /* \"#utility.yul\":10088:10454   */\n      swap2\n      swap1\n      pop\n      jump\t// out\n        /* \"#utility.yul\":10460:10879   */\n    tag_75:\n        /* \"#utility.yul\":10626:10630   */\n      0x00\n        /* \"#utility.yul\":10664:10666   */\n      0x20\n        /* \"#utility.yul\":10653:10662   */\n      dup3\n        /* \"#utility.yul\":10649:10667   */\n      add\n        /* \"#utility.yul\":10641:10667   */\n      swap1\n      pop\n        /* \"#utility.yul\":10713:10722   */\n      dup2\n        /* \"#utility.yul\":10707:10711   */\n      dup2\n        /* \"#utility.yul\":10703:10723   */\n      sub\n        /* \"#utility.yul\":10699:10700   */\n      0x00\n        /* \"#utility.yul\":10688:10697   */\n      dup4\n        /* \"#utility.yul\":10684:10701   */\n      add\n        /* \"#utility.yul\":10677:10724   */\n      mstore\n        /* \"#utility.yul\":10741:10872   */\n      tag_307\n        /* \"#utility.yul\":10867:10871   */\n      dup2\n        /* \"#utility.yul\":10741:10872   */\n      tag_153\n      jump\t// in\n    tag_307:\n        /* \"#utility.yul\":10733:10872   */\n      swap1\n      pop\n        /* \"#utility.yul\":10460:10879   */\n      swap2\n      swap1\n      pop\n      jump\t// out\n        /* \"#utility.yul\":10885:11067   */\n    tag_154:\n        /* \"#utility.yul\":11025:11059   */\n      0x4d61782073636f7265206d7573742062652067726561746572207468616e2030\n        /* \"#utility.yul\":11021:11022   */\n      0x00\n        /* \"#utility.yul\":11013:11019   */\n      dup3\n        /* \"#utility.yul\":11009:11023   */\n      add\n        /* \"#utility.yul\":11002:11060   */\n      mstore\n        /* \"#utility.yul\":10885:11067   */\n      pop\n      jump\t// out\n        /* \"#utility.yul\":11073:11439   */\n    tag_155:\n        /* \"#utility.yul\":11215:11218   */\n      0x00\n        /* \"#utility.yul\":11236:11303   */\n      tag_310\n        /* \"#utility.yul\":11300:11302   */\n      0x20\n        /* \"#utility.yul\":11295:11298   */\n      dup4\n        /* \"#utility.yul\":11236:11303   */\n      tag_144\n      jump\t// in\n    tag_310:\n        /* \"#utility.yul\":11229:11303   */\n      swap2\n      pop\n        /* \"#utility.yul\":11312:11405   */\n      tag_311\n        /* \"#utility.yul\":11401:11404   */\n      dup3\n        /* \"#utility.yul\":11312:11405   */\n      tag_154\n      jump\t// in\n    tag_311:\n        /* \"#utility.yul\":11430:11432   */\n      0x20\n        /* \"#utility.yul\":11425:11428   */\n      dup3\n        /* \"#utility.yul\":11421:11433   */\n      add\n        /* \"#utility.yul\":11414:11433   */\n      swap1\n      pop\n        /* \"#utility.yul\":11073:11439   */\n      swap2\n      swap1\n      pop\n      jump\t// out\n        /* \"#utility.yul\":11445:11864   */\n    tag_78:\n        /* \"#utility.yul\":11611:11615   */\n      0x00\n        /* \"#utility.yul\":11649:11651   */\n      0x20\n        /* \"#utility.yul\":11638:11647   */\n      dup3\n        /* \"#utility.yul\":11634:11652   */\n      add\n        /* \"#utility.yul\":11626:11652   */\n      swap1\n      pop\n        /* \"#utility.yul\":11698:11707   */\n      dup2\n        /* \"#utility.yul\":11692:11696   */\n      dup2\n        /* \"#utility.yul\":11688:11708   */\n      sub\n        /* \"#utility.yul\":11684:11685   */\n      0x00\n        /* \"#utility.yul\":11673:11682   */\n      dup4\n        /* \"#utility.yul\":11669:11686   */\n      add\n        /* \"#utility.yul\":11662:11709   */\n      mstore\n        /* \"#utility.yul\":11726:11857   */\n      tag_313\n        /* \"#utility.yul\":11852:11856   */\n      dup2\n        /* \"#utility.yul\":11726:11857   */\n      tag_155\n      jump\t// in\n    tag_313:\n        /* \"#utility.yul\":11718:11857   */\n      swap1\n      pop\n        /* \"#utility.yul\":11445:11864   */\n      swap2\n      swap1\n      pop\n      jump\t// out\n        /* \"#utility.yul\":11870:12050   */\n    tag_156:\n        /* \"#utility.yul\":11918:11995   */\n      0x4e487b7100000000000000000000000000000000000000000000000000000000\n        /* \"#utility.yul\":11915:11916   */\n      0x00\n        /* \"#utility.yul\":11908:11996   */\n      mstore\n        /* \"#utility.yul\":12015:12019   */\n      0x22\n        /* \"#utility.yul\":12012:12013   */\n      0x04\n        /* \"#utility.yul\":12005:12020   */\n      mstore\n        /* \"#utility.yul\":12039:12043   */\n      0x24\n        /* \"#utility.yul\":12036:12037   */\n      0x00\n        /* \"#utility.yul\":12029:12044   */\n      revert\n        /* \"#utility.yul\":12056:12376   */\n    tag_84:\n        /* \"#utility.yul\":12100:12106   */\n      0x00\n        /* \"#utility.yul\":12137:12138   */\n      0x02\n        /* \"#utility.yul\":12131:12135   */\n      dup3\n        /* \"#utility.yul\":12127:12139   */\n      div\n        /* \"#utility.yul\":12117:12139   */\n      swap1\n      pop\n        /* \"#utility.yul\":12184:12185   */\n      0x01\n        /* \"#utility.yul\":12178:12182   */\n      dup3\n        /* \"#utility.yul\":12174:12186   */\n      and\n        /* \"#utility.yul\":12205:12223   */\n      dup1\n        /* \"#utility.yul\":12195:12276   */\n      tag_316\n      jumpi\n        /* \"#utility.yul\":12261:12265   */\n      0x7f\n        /* \"#utility.yul\":12253:12259   */\n      dup3\n        /* \"#utility.yul\":12249:12266   */\n      and\n        /* \"#utility.yul\":12239:12266   */\n      swap2\n      pop\n        /* \"#utility.yul\":12195:12276   */\n    tag_316:\n        /* \"#utility.yul\":12323:12325   */\n      0x20\n        /* \"#utility.yul\":12315:12321   */\n      dup3\n        /* \"#utility.yul\":12312:12326   */\n      lt\n        /* \"#utility.yul\":12292:12310   */\n      dup2\n        /* \"#utility.yul\":12289:12327   */\n      sub\n        /* \"#utility.yul\":12286:12370   */\n      tag_317\n      jumpi\n        /* \"#utility.yul\":12342:12360   */\n      tag_318\n      tag_156\n      jump\t// in\n    tag_318:\n        /* \"#utility.yul\":12286:12370   */\n    tag_317:\n        /* \"#utility.yul\":12107:12376   */\n      pop\n        /* \"#utility.yul\":12056:12376   */\n      swap2\n      swap1\n      pop\n      jump\t// out\n        /* \"#utility.yul\":12382:12523   */\n    tag_157:\n        /* \"#utility.yul\":12431:12435   */\n      0x00\n        /* \"#utility.yul\":12454:12457   */\n      dup2\n        /* \"#utility.yul\":12446:12457   */\n      swap1\n      pop\n        /* \"#utility.yul\":12477:12480   */\n      dup2\n        /* \"#utility.yul\":12474:12475   */\n      0x00\n        /* \"#utility.yul\":12467:12481   */\n      mstore\n        /* \"#utility.yul\":12511:12515   */\n      0x20\n        /* \"#utility.yul\":12508:12509   */\n      0x00\n        /* \"#utility.yul\":12498:12516   */\n      keccak256\n        /* \"#utility.yul\":12490:12516   */\n      swap1\n      pop\n        /* \"#utility.yul\":12382:12523   */\n      swap2\n      swap1\n      pop\n      jump\t// out\n        /* \"#utility.yul\":12529:12622   */\n    tag_158:\n        /* \"#utility.yul\":12566:12572   */\n      0x00\n        /* \"#utility.yul\":12613:12615   */\n      0x20\n        /* \"#utility.yul\":12608:12610   */\n      0x1f\n        /* \"#utility.yul\":12601:12606   */\n      dup4\n        /* \"#utility.yul\":12597:12611   */\n      add\n        /* \"#utility.yul\":12593:12616   */\n      div\n        /* \"#utility.yul\":12583:12616   */\n      swap1\n      pop\n        /* \"#utility.yul\":12529:12622   */\n      swap2\n      swap1\n      pop\n      jump\t// out\n        /* \"#utility.yul\":12628:12735   */\n    tag_159:\n        /* \"#utility.yul\":12672:12680   */\n      0x00\n        /* \"#utility.yul\":12722:12727   */\n      dup3\n        /* \"#utility.yul\":12716:12720   */\n      dup3\n        /* \"#utility.yul\":12712:12728   */\n      shl\n        /* \"#utility.yul\":12691:12728   */\n      swap1\n      pop\n        /* \"#utility.yul\":12628:12735   */\n      swap3\n      swap2\n      pop\n      pop\n      jump\t// out\n        /* \"#utility.yul\":12741:13134   */\n    tag_160:\n        /* \"#utility.yul\":12810:12816   */\n      0x00\n        /* \"#utility.yul\":12860:12861   */\n      0x08\n        /* \"#utility.yul\":12848:12858   */\n      dup4\n        /* \"#utility.yul\":12844:12862   */\n      mul\n        /* \"#utility.yul\":12883:12980   */\n      tag_323\n        /* \"#utility.yul\":12913:12979   */\n      0xffffffffffffffffffffffffffffffffffffffffffffffffffffffffffffffff\n        /* \"#utility.yul\":12902:12911   */\n      dup3\n        /* \"#utility.yul\":12883:12980   */\n      tag_159\n      jump\t// in\n    tag_323:\n        /* \"#utility.yul\":13001:13040   */\n      tag_324\n        /* \"#utility.yul\":13031:13039   */\n      dup7\n        /* \"#utility.yul\":13020:13029   */\n      dup4\n        /* \"#utility.yul\":13001:13040   */\n      tag_159\n      jump\t// in\n    tag_324:\n        /* \"#utility.yul\":12989:13040   */\n      swap6\n      pop\n        /* \"#utility.yul\":13073:13077   */\n      dup1\n        /* \"#utility.yul\":13069:13078   */\n      not\n        /* \"#utility.yul\":13062:13067   */\n      dup5\n        /* \"#utility.yul\":13058:13079   */\n      and\n        /* \"#utility.yul\":13049:13079   */\n      swap4\n      pop\n        /* \"#utility.yul\":13122:13126   */\n      dup1\n        /* \"#utility.yul\":13112:13120   */\n      dup7\n        /* \"#utility.yul\":13108:13127   */\n      and\n        /* \"#utility.yul\":13101:13106   */\n      dup5\n        /* \"#utility.yul\":13098:13128   */\n      or\n        /* \"#utility.yul\":13088:13128   */\n      swap3\n      pop\n        /* \"#utility.yul\":12817:13134   */\n      pop\n      pop\n        /* \"#utility.yul\":12741:13134   */\n      swap4\n      swap3\n      pop\n      pop\n      pop\n      jump\t// out\n        /* \"#utility.yul\":13140:13200   */\n    tag_161:\n        /* \"#utility.yul\":13168:13171   */\n      0x00\n        /* \"#utility.yul\":13189:13194   */\n      dup2\n        /* \"#utility.yul\":13182:13194   */\n      swap1\n      pop\n        /* \"#utility.yul\":13140:13200   */\n      swap2\n      swap1\n      pop\n      jump\t// out\n        /* \"#utility.yul\":13206:13348   */\n    tag_162:\n        /* \"#utility.yul\":13256:13265   */\n      0x00\n        /* \"#utility.yul\":13289:13342   */\n      tag_327\n        /* \"#utility.yul\":13307:13341   */\n      tag_328\n        /* \"#utility.yul\":13316:13340   */\n      tag_329\n        /* \"#utility.yul\":13334:13339   */\n      dup5\n        /* \"#utility.yul\":13316:13340   */\n      tag_139\n      jump\t// in\n    tag_329:\n        /* \"#utility.yul\":13307:13341   */\n      tag_161\n      jump\t// in\n    tag_328:\n        /* \"#utility.yul\":13289:13342   */\n      tag_139\n      jump\t// in\n    tag_327:\n        /* \"#utility.yul\":13276:13342   */\n      swap1\n      pop\n        /* \"#utility.yul\":13206:13348   */\n      swap2\n      swap1\n      pop\n      jump\t// out\n        /* \"#utility.yul\":13354:13429   */\n    tag_163:\n        /* \"#utility.yul\":13397:13400   */\n      0x00\n        /* \"#utility.yul\":13418:13423   */\n      dup2\n        /* \"#utility.yul\":13411:13423   */\n      swap1\n      pop\n        /* \"#utility.yul\":13354:13429   */\n      swap2\n      swap1\n      pop\n      jump\t// out\n        /* \"#utility.yul\":13435:13704   */\n    tag_164:\n        /* \"#utility.yul\":13545:13584   */\n      tag_332\n        /* \"#utility.yul\":13576:13583   */\n      dup4\n        /* \"#utility.yul\":13545:13584   */\n      tag_162\n      jump\t// in\n    tag_332:\n        /* \"#utility.yul\":13606:13697   */\n      tag_333\n        /* \"#utility.yul\":13655:13696   */\n      tag_334\n        /* \"#utility.yul\":13679:13695   */\n      dup3\n        /* \"#utility.yul\":13655:13696   */\n      tag_163\n      jump\t// in\n    tag_334:\n        /* \"#utility.yul\":13647:13653   */\n      dup5\n        /* \"#utility.yul\":13640:13644   */\n      dup5\n        /* \"#utility.yul\":13634:13645   */\n      sload\n        /* \"#utility.yul\":13606:13697   */\n      tag_160\n      jump\t// in\n    tag_333:\n        /* \"#utility.yul\":13600:13604   */\n      dup3\n        /* \"#utility.yul\":13593:13698   */\n      sstore\n        /* \"#utility.yul\":13511:13704   */\n      pop\n        /* \"#utility.yul\":13435:13704   */\n      pop\n      pop\n      pop\n      jump\t// out\n        /* \"#utility.yul\":13710:13783   */\n    tag_165:\n        /* \"#utility.yul\":13755:13758   */\n      0x00\n        /* \"#utility.yul\":13710:13783   */\n      swap1\n      jump\t// out\n        /* \"#utility.yul\":13789:13978   */\n    tag_166:\n        /* \"#utility.yul\":13866:13898   */\n      tag_337\n      tag_165\n      jump\t// in\n    tag_337:\n        /* \"#utility.yul\":13907:13972   */\n      tag_338\n        /* \"#utility.yul\":13965:13971   */\n      dup2\n        /* \"#utility.yul\":13957:13963   */\n      dup5\n        /* \"#utility.yul\":13951:13955   */\n      dup5\n        /* \"#utility.yul\":13907:13972   */\n      tag_164\n      jump\t// in\n    tag_338:\n        /* \"#utility.yul\":13842:13978   */\n      pop\n        /* \"#utility.yul\":13789:13978   */\n      pop\n      pop\n      jump\t// out\n        /* \"#utility.yul\":13984:14170   */\n    tag_167:\n        /* \"#utility.yul\":14044:14164   */\n    tag_340:\n        /* \"#utility.yul\":14061:14064   */\n      dup2\n        /* \"#utility.yul\":14054:14059   */\n      dup2\n        /* \"#utility.yul\":14051:14065   */\n      lt\n        /* \"#utility.yul\":14044:14164   */\n      iszero\n      tag_342\n      jumpi\n        /* \"#utility.yul\":14115:14154   */\n      tag_343\n        /* \"#utility.yul\":14152:14153   */\n      0x00\n        /* \"#utility.yul\":14145:14150   */\n      dup3\n        /* \"#utility.yul\":14115:14154   */\n      tag_166\n      jump\t// in\n    tag_343:\n        /* \"#utility.yul\":14088:14089   */\n      0x01\n        /* \"#utility.yul\":14081:14086   */\n      dup2\n        /* \"#utility.yul\":14077:14090   */\n      add\n        /* \"#utility.yul\":14068:14090   */\n      swap1\n      pop\n        /* \"#utility.yul\":14044:14164   */\n      jump(tag_340)\n    tag_342:\n        /* \"#utility.yul\":13984:14170   */\n      pop\n      pop\n      jump\t// out\n        /* \"#utility.yul\":14176:14719   */\n    tag_168:\n        /* \"#utility.yul\":14277:14279   */\n      0x1f\n        /* \"#utility.yul\":14272:14275   */\n      dup3\n        /* \"#utility.yul\":14269:14280   */\n      gt\n        /* \"#utility.yul\":14266:14712   */\n      iszero\n      tag_345\n      jumpi\n        /* \"#utility.yul\":14311:14349   */\n      tag_346\n        /* \"#utility.yul\":14343:14348   */\n      dup2\n        /* \"#utility.yul\":14311:14349   */\n      tag_157\n      jump\t// in\n    tag_346:\n        /* \"#utility.yul\":14395:14424   */\n      tag_347\n        /* \"#utility.yul\":14413:14423   */\n      dup5\n        /* \"#utility.yul\":14395:14424   */\n      tag_158\n      jump\t// in\n    tag_347:\n        /* \"#utility.yul\":14385:14393   */\n      dup2\n        /* \"#utility.yul\":14381:14425   */\n      add\n        /* \"#utility.yul\":14578:14580   */\n      0x20\n        /* \"#utility.yul\":14566:14576   */\n      dup6\n        /* \"#utility.yul\":14563:14581   */\n      lt\n        /* \"#utility.yul\":14560:14609   */\n      iszero\n      tag_348\n      jumpi\n        /* \"#utility.yul\":14599:14607   */\n      dup2\n        /* \"#utility.yul\":14584:14607   */\n      swap1\n      pop\n        /* \"#utility.yul\":14560:14609   */\n    tag_348:\n        /* \"#utility.yul\":14622:14702   */\n      tag_349\n        /* \"#utility.yul\":14678:14700   */\n      tag_350\n        /* \"#utility.yul\":14696:14699   */\n      dup6\n        /* \"#utility.yul\":14678:14700   */\n      tag_158\n      jump\t// in\n    tag_350:\n        /* \"#utility.yul\":14668:14676   */\n      dup4\n        /* \"#utility.yul\":14664:14701   */\n      add\n        /* \"#utility.yul\":14651:14662   */\n      dup3\n        /* \"#utility.yul\":14622:14702   */\n      tag_167\n      jump\t// in\n    tag_349:\n        /* \"#utility.yul\":14281:14712   */\n      pop\n      pop\n        /* \"#utility.yul\":14266:14712   */\n    tag_345:\n        /* \"#utility.yul\":14176:14719   */\n      pop\n      pop\n      pop\n      jump\t// out\n        /* \"#utility.yul\":14725:14842   */\n    tag_169:\n        /* \"#utility.yul\":14779:14787   */\n      0x00\n        /* \"#utility.yul\":14829:14834   */\n      dup3\n        /* \"#utility.yul\":14823:14827   */\n      dup3\n        /* \"#utility.yul\":14819:14835   */\n      shr\n        /* \"#utility.yul\":14798:14835   */\n      swap1\n      pop\n        /* \"#utility.yul\":14725:14842   */\n      swap3\n      swap2\n      pop\n      pop\n      jump\t// out\n        /* \"#utility.yul\":14848:15017   */\n    tag_170:\n        /* \"#utility.yul\":14892:14898   */\n      0x00\n        /* \"#utility.yul\":14925:14976   */\n      tag_353\n        /* \"#utility.yul\":14973:14974   */\n      0x00\n        /* \"#utility.yul\":14969:14975   */\n      not\n        /* \"#utility.yul\":14961:14966   */\n      dup5\n        /* \"#utility.yul\":14958:14959   */\n      0x08\n        /* \"#utility.yul\":14954:14967   */\n      mul\n        /* \"#utility.yul\":14925:14976   */\n      tag_169\n      jump\t// in\n    tag_353:\n        /* \"#utility.yul\":14921:14977   */\n      not\n        /* \"#utility.yul\":15006:15010   */\n      dup1\n        /* \"#utility.yul\":15000:15004   */\n      dup4\n        /* \"#utility.yul\":14996:15011   */\n      and\n        /* \"#utility.yul\":14986:15011   */\n      swap2\n      pop\n        /* \"#utility.yul\":14899:15017   */\n      pop\n        /* \"#utility.yul\":14848:15017   */\n      swap3\n      swap2\n      pop\n      pop\n      jump\t// out\n        /* \"#utility.yul\":15022:15317   */\n    tag_171:\n        /* \"#utility.yul\":15098:15102   */\n      0x00\n        /* \"#utility.yul\":15244:15273   */\n      tag_355\n        /* \"#utility.yul\":15269:15272   */\n      dup4\n        /* \"#utility.yul\":15263:15267   */\n      dup4\n        /* \"#utility.yul\":15244:15273   */\n      tag_170\n      jump\t// in\n    tag_355:\n        /* \"#utility.yul\":15236:15273   */\n      swap2\n      pop\n        /* \"#utility.yul\":15306:15309   */\n      dup3\n        /* \"#utility.yul\":15303:15304   */\n      0x02\n        /* \"#utility.yul\":15299:15310   */\n      mul\n        /* \"#utility.yul\":15293:15297   */\n      dup3\n        /* \"#utility.yul\":15290:15311   */\n      or\n        /* \"#utility.yul\":15282:15311   */\n      swap1\n      pop\n        /* \"#utility.yul\":15022:15317   */\n      swap3\n      swap2\n      pop\n      pop\n      jump\t// out\n        /* \"#utility.yul\":15322:16717   */\n    tag_80:\n        /* \"#utility.yul\":15439:15476   */\n      tag_357\n        /* \"#utility.yul\":15472:15475   */\n      dup3\n        /* \"#utility.yul\":15439:15476   */\n      tag_143\n      jump\t// in\n    tag_357:\n        /* \"#utility.yul\":15541:15559   */\n      0xffffffffffffffff\n        /* \"#utility.yul\":15533:15539   */\n      dup2\n        /* \"#utility.yul\":15530:15560   */\n      gt\n        /* \"#utility.yul\":15527:15583   */\n      iszero\n      tag_358\n      jumpi\n        /* \"#utility.yul\":15563:15581   */\n      tag_359\n      tag_132\n      jump\t// in\n    tag_359:\n        /* \"#utility.yul\":15527:15583   */\n    tag_358:\n        /* \"#utility.yul\":15607:15645   */\n      tag_360\n        /* \"#utility.yul\":15639:15643   */\n      dup3\n        /* \"#utility.yul\":15633:15644   */\n      sload\n        /* \"#utility.yul\":15607:15645   */\n      tag_84\n      jump\t// in\n    tag_360:\n        /* \"#utility.yul\":15692:15759   */\n      tag_361\n        /* \"#utility.yul\":15752:15758   */\n      dup3\n        /* \"#utility.yul\":15744:15750   */\n      dup3\n        /* \"#utility.yul\":15738:15742   */\n      dup6\n        /* \"#utility.yul\":15692:15759   */\n      tag_168\n      jump\t// in\n    tag_361:\n        /* \"#utility.yul\":15786:15787   */\n      0x00\n        /* \"#utility.yul\":15810:15814   */\n      0x20\n        /* \"#utility.yul\":15797:15814   */\n      swap1\n      pop\n        /* \"#utility.yul\":15842:15844   */\n      0x1f\n        /* \"#utility.yul\":15834:15840   */\n      dup4\n        /* \"#utility.yul\":15831:15845   */\n      gt\n        /* \"#utility.yul\":15859:15860   */\n      0x01\n        /* \"#utility.yul\":15854:16472   */\n      dup2\n      eq\n      tag_363\n      jumpi\n        /* \"#utility.yul\":16516:16517   */\n      0x00\n        /* \"#utility.yul\":16533:16539   */\n      dup5\n        /* \"#utility.yul\":16530:16607   */\n      iszero\n      tag_364\n      jumpi\n        /* \"#utility.yul\":16582:16591   */\n      dup3\n        /* \"#utility.yul\":16577:16580   */\n      dup8\n        /* \"#utility.yul\":16573:16592   */\n      add\n        /* \"#utility.yul\":16567:16593   */\n      mload\n        /* \"#utility.yul\":16558:16593   */\n      swap1\n      pop\n        /* \"#utility.yul\":16530:16607   */\n    tag_364:\n        /* \"#utility.yul\":16633:16700   */\n      tag_365\n        /* \"#utility.yul\":16693:16699   */\n      dup6\n        /* \"#utility.yul\":16686:16691   */\n      dup3\n        /* \"#utility.yul\":16633:16700   */\n      tag_171\n      jump\t// in\n    tag_365:\n        /* \"#utility.yul\":16627:16631   */\n      dup7\n        /* \"#utility.yul\":16620:16701   */\n      sstore\n        /* \"#utility.yul\":16489:16711   */\n      pop\n        /* \"#utility.yul\":15824:16711   */\n      jump(tag_362)\n        /* \"#utility.yul\":15854:16472   */\n    tag_363:\n        /* \"#utility.yul\":15906:15910   */\n      0x1f\n        /* \"#utility.yul\":15902:15911   */\n      not\n        /* \"#utility.yul\":15894:15900   */\n      dup5\n        /* \"#utility.yul\":15890:15912   */\n      and\n        /* \"#utility.yul\":15940:15977   */\n      tag_366\n        /* \"#utility.yul\":15972:15976   */\n      dup7\n        /* \"#utility.yul\":15940:15977   */\n      tag_157\n      jump\t// in\n    tag_366:\n        /* \"#utility.yul\":15999:16000   */\n      0x00\n        /* \"#utility.yul\":16013:16221   */\n    tag_367:\n        /* \"#utility.yul\":16027:16034   */\n      dup3\n        /* \"#utility.yul\":16024:16025   */\n      dup2\n        /* \"#utility.yul\":16021:16035   */\n      lt\n        /* \"#utility.yul\":16013:16221   */\n      iszero\n      tag_369\n      jumpi\n        /* \"#utility.yul\":16106:16115   */\n      dup5\n        /* \"#utility.yul\":16101:16104   */\n      dup10\n        /* \"#utility.yul\":16097:16116   */\n      add\n        /* \"#utility.yul\":16091:16117   */\n      mload\n        /* \"#utility.yul\":16083:16089   */\n      dup3\n        /* \"#utility.yul\":16076:16118   */\n      sstore\n        /* \"#utility.yul\":16157:16158   */\n      0x01\n        /* \"#utility.yul\":16149:16155   */\n      dup3\n        /* \"#utility.yul\":16145:16159   */\n      add\n        /* \"#utility.yul\":16135:16159   */\n      swap2\n      pop\n        /* \"#utility.yul\":16204:16206   */\n      0x20\n        /* \"#utility.yul\":16193:16202   */\n      dup6\n        /* \"#utility.yul\":16189:16207   */\n      add\n        /* \"#utility.yul\":16176:16207   */\n      swap5\n      pop\n        /* \"#utility.yul\":16050:16054   */\n      0x20\n        /* \"#utility.yul\":16047:16048   */\n      dup2\n        /* \"#utility.yul\":16043:16055   */\n      add\n        /* \"#utility.yul\":16038:16055   */\n      swap1\n      pop\n        /* \"#utility.yul\":16013:16221   */\n      jump(tag_367)\n    tag_369:\n        /* \"#utility.yul\":16249:16255   */\n      dup7\n        /* \"#utility.yul\":16240:16247   */\n      dup4\n        /* \"#utility.yul\":16237:16256   */\n      lt\n        /* \"#utility.yul\":16234:16413   */\n      iszero\n      tag_370\n      jumpi\n        /* \"#utility.yul\":16307:16316   */\n      dup5\n        /* \"#utility.yul\":16302:16305   */\n      dup10\n        /* \"#utility.yul\":16298:16317   */\n      add\n        /* \"#utility.yul\":16292:16318   */\n      mload\n        /* \"#utility.yul\":16350:16398   */\n      tag_371\n        /* \"#utility.yul\":16392:16396   */\n      0x1f\n        /* \"#utility.yul\":16384:16390   */\n      dup10\n        /* \"#utility.yul\":16380:16397   */\n      and\n        /* \"#utility.yul\":16369:16378   */\n      dup3\n        /* \"#utility.yul\":16350:16398   */\n      tag_170\n      jump\t// in\n    tag_371:\n        /* \"#utility.yul\":16342:16348   */\n      dup4\n        /* \"#utility.yul\":16335:16399   */\n      sstore\n        /* \"#utility.yul\":16257:16413   */\n      pop\n        /* \"#utility.yul\":16234:16413   */\n    tag_370:\n        /* \"#utility.yul\":16459:16460   */\n      0x01\n        /* \"#utility.yul\":16455:16456   */\n      0x02\n        /* \"#utility.yul\":16447:16453   */\n      dup9\n        /* \"#utility.yul\":16443:16457   */\n      mul\n        /* \"#utility.yul\":16439:16461   */\n      add\n        /* \"#utility.yul\":16433:16437   */\n      dup9\n        /* \"#utility.yul\":16426:16462   */\n      sstore\n        /* \"#utility.yul\":15861:16472   */\n      pop\n      pop\n      pop\n        /* \"#utility.yul\":15824:16711   */\n    tag_362:\n      pop\n        /* \"#utility.yul\":15414:16717   */\n      pop\n      pop\n      pop\n        /* \"#utility.yul\":15322:16717   */\n      pop\n      pop\n      jump\t// out\n        /* \"#utility.yul\":16723:16903   */\n    tag_172:\n        /* \"#utility.yul\":16771:16848   */\n      0x4e487b7100000000000000000000000000000000000000000000000000000000\n        /* \"#utility.yul\":16768:16769   */\n      0x00\n        /* \"#utility.yul\":16761:16849   */\n      mstore\n        /* \"#utility.yul\":16868:16872   */\n      0x11\n        /* \"#utility.yul\":16865:16866   */\n      0x04\n        /* \"#utility.yul\":16858:16873   */\n      mstore\n        /* \"#utility.yul\":16892:16896   */\n      0x24\n        /* \"#utility.yul\":16889:16890   */\n      0x00\n        /* \"#utility.yul\":16882:16897   */\n      revert\n        /* \"#utility.yul\":16909:17100   */\n    tag_82:\n        /* \"#utility.yul\":16949:16952   */\n      0x00\n        /* \"#utility.yul\":16968:16988   */\n      tag_374\n        /* \"#utility.yul\":16986:16987   */\n      dup3\n        /* \"#utility.yul\":16968:16988   */\n      tag_139\n      jump\t// in\n    tag_374:\n        /* \"#utility.yul\":16963:16988   */\n      swap2\n      pop\n        /* \"#utility.yul\":17002:17022   */\n      tag_375\n        /* \"#utility.yul\":17020:17021   */\n      dup4\n        /* \"#utility.yul\":17002:17022   */\n      tag_139\n      jump\t// in\n    tag_375:\n        /* \"#utility.yul\":16997:17022   */\n      swap3\n      pop\n        /* \"#utility.yul\":17045:17046   */\n      dup3\n        /* \"#utility.yul\":17042:17043   */\n      dup3\n        /* \"#utility.yul\":17038:17047   */\n      add\n        /* \"#utility.yul\":17031:17047   */\n      swap1\n      pop\n        /* \"#utility.yul\":17066:17069   */\n      dup1\n        /* \"#utility.yul\":17063:17064   */\n      dup3\n        /* \"#utility.yul\":17060:17070   */\n      gt\n        /* \"#utility.yul\":17057:17093   */\n      iszero\n      tag_376\n      jumpi\n        /* \"#utility.yul\":17073:17091   */\n      tag_377\n      tag_172\n      jump\t// in\n    tag_377:\n        /* \"#utility.yul\":17057:17093   */\n    tag_376:\n        /* \"#utility.yul\":16909:17100   */\n      swap3\n      swap2\n      pop\n      pop\n      jump\t// out\n        /* \"#utility.yul\":17106:17254   */\n    tag_173:\n        /* \"#utility.yul\":17208:17219   */\n      0x00\n        /* \"#utility.yul\":17245:17248   */\n      dup2\n        /* \"#utility.yul\":17230:17248   */\n      swap1\n      pop\n        /* \"#utility.yul\":17106:17254   */\n      swap3\n      swap2\n      pop\n      pop\n      jump\t// out\n        /* \"#utility.yul\":17260:17650   */\n    tag_174:\n        /* \"#utility.yul\":17366:17369   */\n      0x00\n        /* \"#utility.yul\":17394:17433   */\n      tag_380\n        /* \"#utility.yul\":17427:17432   */\n      dup3\n        /* \"#utility.yul\":17394:17433   */\n      tag_143\n      jump\t// in\n    tag_380:\n        /* \"#utility.yul\":17449:17538   */\n      tag_381\n        /* \"#utility.yul\":17531:17537   */\n      dup2\n        /* \"#utility.yul\":17526:17529   */\n      dup6\n        /* \"#utility.yul\":17449:17538   */\n      tag_173\n      jump\t// in\n    tag_381:\n        /* \"#utility.yul\":17442:17538   */\n      swap4\n      pop\n        /* \"#utility.yul\":17547:17612   */\n      tag_382\n        /* \"#utility.yul\":17605:17611   */\n      dup2\n        /* \"#utility.yul\":17600:17603   */\n      dup6\n        /* \"#utility.yul\":17593:17597   */\n      0x20\n        /* \"#utility.yul\":17586:17591   */\n      dup7\n        /* \"#utility.yul\":17582:17598   */\n      add\n        /* \"#utility.yul\":17547:17612   */\n      tag_145\n      jump\t// in\n    tag_382:\n        /* \"#utility.yul\":17637:17643   */\n      dup1\n        /* \"#utility.yul\":17632:17635   */\n      dup5\n        /* \"#utility.yul\":17628:17644   */\n      add\n        /* \"#utility.yul\":17621:17644   */\n      swap2\n      pop\n        /* \"#utility.yul\":17370:17650   */\n      pop\n        /* \"#utility.yul\":17260:17650   */\n      swap3\n      swap2\n      pop\n      pop\n      jump\t// out\n        /* \"#utility.yul\":17656:17931   */\n    tag_94:\n        /* \"#utility.yul\":17788:17791   */\n      0x00\n        /* \"#utility.yul\":17810:17905   */\n      tag_384\n        /* \"#utility.yul\":17901:17904   */\n      dup3\n        /* \"#utility.yul\":17892:17898   */\n      dup5\n        /* \"#utility.yul\":17810:17905   */\n      tag_174\n      jump\t// in\n    tag_384:\n        /* \"#utility.yul\":17803:17905   */\n      swap2\n      pop\n        /* \"#utility.yul\":17922:17925   */\n      dup2\n        /* \"#utility.yul\":17915:17925   */\n      swap1\n      pop\n        /* \"#utility.yul\":17656:17931   */\n      swap3\n      swap2\n      pop\n      pop\n      jump\t// out\n        /* \"#utility.yul\":17937:18347   */\n    tag_98:\n        /* \"#utility.yul\":17977:17984   */\n      0x00\n        /* \"#utility.yul\":18000:18020   */\n      tag_386\n        /* \"#utility.yul\":18018:18019   */\n      dup3\n        /* \"#utility.yul\":18000:18020   */\n      tag_139\n      jump\t// in\n    tag_386:\n        /* \"#utility.yul\":17995:18020   */\n      swap2\n      pop\n        /* \"#utility.yul\":18034:18054   */\n      tag_387\n        /* \"#utility.yul\":18052:18053   */\n      dup4\n        /* \"#utility.yul\":18034:18054   */\n      tag_139\n      jump\t// in\n    tag_387:\n        /* \"#utility.yul\":18029:18054   */\n      swap3\n      pop\n        /* \"#utility.yul\":18089:18090   */\n      dup3\n        /* \"#utility.yul\":18086:18087   */\n      dup3\n        /* \"#utility.yul\":18082:18091   */\n      mul\n        /* \"#utility.yul\":18111:18141   */\n      tag_388\n        /* \"#utility.yul\":18129:18140   */\n      dup2\n        /* \"#utility.yul\":18111:18141   */\n      tag_139\n      jump\t// in\n    tag_388:\n        /* \"#utility.yul\":18100:18141   */\n      swap2\n      pop\n        /* \"#utility.yul\":18290:18291   */\n      dup3\n        /* \"#utility.yul\":18281:18288   */\n      dup3\n        /* \"#utility.yul\":18277:18292   */\n      div\n        /* \"#utility.yul\":18274:18275   */\n      dup5\n        /* \"#utility.yul\":18271:18293   */\n      eq\n        /* \"#utility.yul\":18251:18252   */\n      dup4\n        /* \"#utility.yul\":18244:18253   */\n      iszero\n        /* \"#utility.yul\":18224:18307   */\n      or\n        /* \"#utility.yul\":18201:18340   */\n      tag_389\n      jumpi\n        /* \"#utility.yul\":18320:18338   */\n      tag_390\n      tag_172\n      jump\t// in\n    tag_390:\n        /* \"#utility.yul\":18201:18340   */\n    tag_389:\n        /* \"#utility.yul\":17985:18347   */\n      pop\n        /* \"#utility.yul\":17937:18347   */\n      swap3\n      swap2\n      pop\n      pop\n      jump\t// out\n        /* \"#utility.yul\":18353:18533   */\n    tag_175:\n        /* \"#utility.yul\":18401:18478   */\n      0x4e487b7100000000000000000000000000000000000000000000000000000000\n        /* \"#utility.yul\":18398:18399   */\n      0x00\n        /* \"#utility.yul\":18391:18479   */\n      mstore\n        /* \"#utility.yul\":18498:18502   */\n      0x12\n        /* \"#utility.yul\":18495:18496   */\n      0x04\n        /* \"#utility.yul\":18488:18503   */\n      mstore\n        /* \"#utility.yul\":18522:18526   */\n      0x24\n        /* \"#utility.yul\":18519:18520   */\n      0x00\n        /* \"#utility.yul\":18512:18527   */\n      revert\n        /* \"#utility.yul\":18539:18724   */\n    tag_100:\n        /* \"#utility.yul\":18579:18580   */\n      0x00\n        /* \"#utility.yul\":18596:18616   */\n      tag_393\n        /* \"#utility.yul\":18614:18615   */\n      dup3\n        /* \"#utility.yul\":18596:18616   */\n      tag_139\n      jump\t// in\n    tag_393:\n        /* \"#utility.yul\":18591:18616   */\n      swap2\n      pop\n        /* \"#utility.yul\":18630:18650   */\n      tag_394\n        /* \"#utility.yul\":18648:18649   */\n      dup4\n        /* \"#utility.yul\":18630:18650   */\n      tag_139\n      jump\t// in\n    tag_394:\n        /* \"#utility.yul\":18625:18650   */\n      swap3\n      pop\n        /* \"#utility.yul\":18669:18670   */\n      dup3\n        /* \"#utility.yul\":18659:18694   */\n      tag_395\n      jumpi\n        /* \"#utility.yul\":18674:18692   */\n      tag_396\n      tag_175\n      jump\t// in\n    tag_396:\n        /* \"#utility.yul\":18659:18694   */\n    tag_395:\n        /* \"#utility.yul\":18716:18717   */\n      dup3\n        /* \"#utility.yul\":18713:18714   */\n      dup3\n        /* \"#utility.yul\":18709:18718   */\n      div\n        /* \"#utility.yul\":18704:18718   */\n      swap1\n      pop\n        /* \"#utility.yul\":18539:18724   */\n      swap3\n      swap2\n      pop\n      pop\n      jump\t// out\n        /* \"#utility.yul\":18730:18959   */\n    tag_176:\n        /* \"#utility.yul\":18870:18904   */\n      0x4f6e6c792074686520696e7374727563746f7220616e64205441732063616e20\n        /* \"#utility.yul\":18866:18867   */\n      0x00\n        /* \"#utility.yul\":18858:18864   */\n      dup3\n        /* \"#utility.yul\":18854:18868   */\n      add\n        /* \"#utility.yul\":18847:18905   */\n      mstore\n        /* \"#utility.yul\":18939:18951   */\n      0x6164642067726164657300000000000000000000000000000000000000000000\n        /* \"#utility.yul\":18934:18936   */\n      0x20\n        /* \"#utility.yul\":18926:18932   */\n      dup3\n        /* \"#utility.yul\":18922:18937   */\n      add\n        /* \"#utility.yul\":18915:18952   */\n      mstore\n        /* \"#utility.yul\":18730:18959   */\n      pop\n      jump\t// out\n        /* \"#utility.yul\":18965:19331   */\n    tag_177:\n        /* \"#utility.yul\":19107:19110   */\n      0x00\n        /* \"#utility.yul\":19128:19195   */\n      tag_399\n        /* \"#utility.yul\":19192:19194   */\n      0x2a\n        /* \"#utility.yul\":19187:19190   */\n      dup4\n        /* \"#utility.yul\":19128:19195   */\n      tag_144\n      jump\t// in\n    tag_399:\n        /* \"#utility.yul\":19121:19195   */\n      swap2\n      pop\n        /* \"#utility.yul\":19204:19297   */\n      tag_400\n        /* \"#utility.yul\":19293:19296   */\n      dup3\n        /* \"#utility.yul\":19204:19297   */\n      tag_176\n      jump\t// in\n    tag_400:\n        /* \"#utility.yul\":19322:19324   */\n      0x40\n        /* \"#utility.yul\":19317:19320   */\n      dup3\n        /* \"#utility.yul\":19313:19325   */\n      add\n        /* \"#utility.yul\":19306:19325   */\n      swap1\n      pop\n        /* \"#utility.yul\":18965:19331   */\n      swap2\n      swap1\n      pop\n      jump\t// out\n        /* \"#utility.yul\":19337:19756   */\n    tag_105:\n        /* \"#utility.yul\":19503:19507   */\n      0x00\n        /* \"#utility.yul\":19541:19543   */\n      0x20\n        /* \"#utility.yul\":19530:19539   */\n      dup3\n        /* \"#utility.yul\":19526:19544   */\n      add\n        /* \"#utility.yul\":19518:19544   */\n      swap1\n      pop\n        /* \"#utility.yul\":19590:19599   */\n      dup2\n        /* \"#utility.yul\":19584:19588   */\n      dup2\n        /* \"#utility.yul\":19580:19600   */\n      sub\n        /* \"#utility.yul\":19576:19577   */\n      0x00\n        /* \"#utility.yul\":19565:19574   */\n      dup4\n        /* \"#utility.yul\":19561:19578   */\n      add\n        /* \"#utility.yul\":19554:19601   */\n      mstore\n        /* \"#utility.yul\":19618:19749   */\n      tag_402\n        /* \"#utility.yul\":19744:19748   */\n      dup2\n        /* \"#utility.yul\":19618:19749   */\n      tag_177\n      jump\t// in\n    tag_402:\n        /* \"#utility.yul\":19610:19749   */\n      swap1\n      pop\n        /* \"#utility.yul\":19337:19756   */\n      swap2\n      swap1\n      pop\n      jump\t// out\n        /* \"#utility.yul\":19762:19933   */\n    tag_178:\n        /* \"#utility.yul\":19902:19925   */\n      0x496e76616c69642061737369676e6d656e742049440000000000000000000000\n        /* \"#utility.yul\":19898:19899   */\n      0x00\n        /* \"#utility.yul\":19890:19896   */\n      dup3\n        /* \"#utility.yul\":19886:19900   */\n      add\n        /* \"#utility.yul\":19879:19926   */\n      mstore\n        /* \"#utility.yul\":19762:19933   */\n      pop\n      jump\t// out\n        /* \"#utility.yul\":19939:20305   */\n    tag_179:\n        /* \"#utility.yul\":20081:20084   */\n      0x00\n        /* \"#utility.yul\":20102:20169   */\n      tag_405\n        /* \"#utility.yul\":20166:20168   */\n      0x15\n        /* \"#utility.yul\":20161:20164   */\n      dup4\n        /* \"#utility.yul\":20102:20169   */\n      tag_144\n      jump\t// in\n    tag_405:\n        /* \"#utility.yul\":20095:20169   */\n      swap2\n      pop\n        /* \"#utility.yul\":20178:20271   */\n      tag_406\n        /* \"#utility.yul\":20267:20270   */\n      dup3\n        /* \"#utility.yul\":20178:20271   */\n      tag_178\n      jump\t// in\n    tag_406:\n        /* \"#utility.yul\":20296:20298   */\n      0x20\n        /* \"#utility.yul\":20291:20294   */\n      dup3\n        /* \"#utility.yul\":20287:20299   */\n      add\n        /* \"#utility.yul\":20280:20299   */\n      swap1\n      pop\n        /* \"#utility.yul\":19939:20305   */\n      swap2\n      swap1\n      pop\n      jump\t// out\n        /* \"#utility.yul\":20311:20730   */\n    tag_108:\n        /* \"#utility.yul\":20477:20481   */\n      0x00\n        /* \"#utility.yul\":20515:20517   */\n      0x20\n        /* \"#utility.yul\":20504:20513   */\n      dup3\n        /* \"#utility.yul\":20500:20518   */\n      add\n        /* \"#utility.yul\":20492:20518   */\n      swap1\n      pop\n        /* \"#utility.yul\":20564:20573   */\n      dup2\n        /* \"#utility.yul\":20558:20562   */\n      dup2\n        /* \"#utility.yul\":20554:20574   */\n      sub\n        /* \"#utility.yul\":20550:20551   */\n      0x00\n        /* \"#utility.yul\":20539:20548   */\n      dup4\n        /* \"#utility.yul\":20535:20552   */\n      add\n        /* \"#utility.yul\":20528:20575   */\n      mstore\n        /* \"#utility.yul\":20592:20723   */\n      tag_408\n        /* \"#utility.yul\":20718:20722   */\n      dup2\n        /* \"#utility.yul\":20592:20723   */\n      tag_179\n      jump\t// in\n    tag_408:\n        /* \"#utility.yul\":20584:20723   */\n      swap1\n      pop\n        /* \"#utility.yul\":20311:20730   */\n      swap2\n      swap1\n      pop\n      jump\t// out\n        /* \"#utility.yul\":20736:20963   */\n    tag_180:\n        /* \"#utility.yul\":20876:20910   */\n      0x47726164652063616e277420626520686967686572207468616e20746865206d\n        /* \"#utility.yul\":20872:20873   */\n      0x00\n        /* \"#utility.yul\":20864:20870   */\n      dup3\n        /* \"#utility.yul\":20860:20874   */\n      add\n        /* \"#utility.yul\":20853:20911   */\n      mstore\n        /* \"#utility.yul\":20945:20955   */\n      0x61782073636f7265000000000000000000000000000000000000000000000000\n        /* \"#utility.yul\":20940:20942   */\n      0x20\n        /* \"#utility.yul\":20932:20938   */\n      dup3\n        /* \"#utility.yul\":20928:20943   */\n      add\n        /* \"#utility.yul\":20921:20956   */\n      mstore\n        /* \"#utility.yul\":20736:20963   */\n      pop\n      jump\t// out\n        /* \"#utility.yul\":20969:21335   */\n    tag_181:\n        /* \"#utility.yul\":21111:21114   */\n      0x00\n        /* \"#utility.yul\":21132:21199   */\n      tag_411\n        /* \"#utility.yul\":21196:21198   */\n      0x28\n        /* \"#utility.yul\":21191:21194   */\n      dup4\n        /* \"#utility.yul\":21132:21199   */\n      tag_144\n      jump\t// in\n    tag_411:\n        /* \"#utility.yul\":21125:21199   */\n      swap2\n      pop\n        /* \"#utility.yul\":21208:21301   */\n      tag_412\n        /* \"#utility.yul\":21297:21300   */\n      dup3\n        /* \"#utility.yul\":21208:21301   */\n      tag_180\n      jump\t// in\n    tag_412:\n        /* \"#utility.yul\":21326:21328   */\n      0x40\n        /* \"#utility.yul\":21321:21324   */\n      dup3\n        /* \"#utility.yul\":21317:21329   */\n      add\n        /* \"#utility.yul\":21310:21329   */\n      swap1\n      pop\n        /* \"#utility.yul\":20969:21335   */\n      swap2\n      swap1\n      pop\n      jump\t// out\n        /* \"#utility.yul\":21341:21760   */\n    tag_111:\n        /* \"#utility.yul\":21507:21511   */\n      0x00\n        /* \"#utility.yul\":21545:21547   */\n      0x20\n        /* \"#utility.yul\":21534:21543   */\n      dup3\n        /* \"#utility.yul\":21530:21548   */\n      add\n        /* \"#utility.yul\":21522:21548   */\n      swap1\n      pop\n        /* \"#utility.yul\":21594:21603   */\n      dup2\n        /* \"#utility.yul\":21588:21592   */\n      dup2\n        /* \"#utility.yul\":21584:21604   */\n      sub\n        /* \"#utility.yul\":21580:21581   */\n      0x00\n        /* \"#utility.yul\":21569:21578   */\n      dup4\n        /* \"#utility.yul\":21565:21582   */\n      add\n        /* \"#utility.yul\":21558:21605   */\n      mstore\n        /* \"#utility.yul\":21622:21753   */\n      tag_414\n        /* \"#utility.yul\":21748:21752   */\n      dup2\n        /* \"#utility.yul\":21622:21753   */\n      tag_181\n      jump\t// in\n    tag_414:\n        /* \"#utility.yul\":21614:21753   */\n      swap1\n      pop\n        /* \"#utility.yul\":21341:21760   */\n      swap2\n      swap1\n      pop\n      jump\t// out\n        /* \"#utility.yul\":21766:21948   */\n    tag_182:\n        /* \"#utility.yul\":21906:21940   */\n      0x47726164652063616e27742062652061206e65676174697665206e756d626572\n        /* \"#utility.yul\":21902:21903   */\n      0x00\n        /* \"#utility.yul\":21894:21900   */\n      dup3\n        /* \"#utility.yul\":21890:21904   */\n      add\n        /* \"#utility.yul\":21883:21941   */\n      mstore\n        /* \"#utility.yul\":21766:21948   */\n      pop\n      jump\t// out\n        /* \"#utility.yul\":21954:22320   */\n    tag_183:\n        /* \"#utility.yul\":22096:22099   */\n      0x00\n        /* \"#utility.yul\":22117:22184   */\n      tag_417\n        /* \"#utility.yul\":22181:22183   */\n      0x20\n        /* \"#utility.yul\":22176:22179   */\n      dup4\n        /* \"#utility.yul\":22117:22184   */\n      tag_144\n      jump\t// in\n    tag_417:\n        /* \"#utility.yul\":22110:22184   */\n      swap2\n      pop\n        /* \"#utility.yul\":22193:22286   */\n      tag_418\n        /* \"#utility.yul\":22282:22285   */\n      dup3\n        /* \"#utility.yul\":22193:22286   */\n      tag_182\n      jump\t// in\n    tag_418:\n        /* \"#utility.yul\":22311:22313   */\n      0x20\n        /* \"#utility.yul\":22306:22309   */\n      dup3\n        /* \"#utility.yul\":22302:22314   */\n      add\n        /* \"#utility.yul\":22295:22314   */\n      swap1\n      pop\n        /* \"#utility.yul\":21954:22320   */\n      swap2\n      swap1\n      pop\n      jump\t// out\n        /* \"#utility.yul\":22326:22745   */\n    tag_114:\n        /* \"#utility.yul\":22492:22496   */\n      0x00\n        /* \"#utility.yul\":22530:22532   */\n      0x20\n        /* \"#utility.yul\":22519:22528   */\n      dup3\n        /* \"#utility.yul\":22515:22533   */\n      add\n        /* \"#utility.yul\":22507:22533   */\n      swap1\n      pop\n        /* \"#utility.yul\":22579:22588   */\n      dup2\n        /* \"#utility.yul\":22573:22577   */\n      dup2\n        /* \"#utility.yul\":22569:22589   */\n      sub\n        /* \"#utility.yul\":22565:22566   */\n      0x00\n        /* \"#utility.yul\":22554:22563   */\n      dup4\n        /* \"#utility.yul\":22550:22567   */\n      add\n        /* \"#utility.yul\":22543:22590   */\n      mstore\n        /* \"#utility.yul\":22607:22738   */\n      tag_420\n        /* \"#utility.yul\":22733:22737   */\n      dup2\n        /* \"#utility.yul\":22607:22738   */\n      tag_183\n      jump\t// in\n    tag_420:\n        /* \"#utility.yul\":22599:22738   */\n      swap1\n      pop\n        /* \"#utility.yul\":22326:22745   */\n      swap2\n      swap1\n      pop\n      jump\t// out\n        /* \"#utility.yul\":22751:22975   */\n    tag_184:\n        /* \"#utility.yul\":22891:22925   */\n      0x4f6e6c792074686520696e7374727563746f722063616e2064657369676e6174\n        /* \"#utility.yul\":22887:22888   */\n      0x00\n        /* \"#utility.yul\":22879:22885   */\n      dup3\n        /* \"#utility.yul\":22875:22889   */\n      add\n        /* \"#utility.yul\":22868:22926   */\n      mstore\n        /* \"#utility.yul\":22960:22967   */\n      0x6520544173000000000000000000000000000000000000000000000000000000\n        /* \"#utility.yul\":22955:22957   */\n      0x20\n        /* \"#utility.yul\":22947:22953   */\n      dup3\n        /* \"#utility.yul\":22943:22958   */\n      add\n        /* \"#utility.yul\":22936:22968   */\n      mstore\n        /* \"#utility.yul\":22751:22975   */\n      pop\n      jump\t// out\n        /* \"#utility.yul\":22981:23347   */\n    tag_185:\n        /* \"#utility.yul\":23123:23126   */\n      0x00\n        /* \"#utility.yul\":23144:23211   */\n      tag_423\n        /* \"#utility.yul\":23208:23210   */\n      0x25\n        /* \"#utility.yul\":23203:23206   */\n      dup4\n        /* \"#utility.yul\":23144:23211   */\n      tag_144\n      jump\t// in\n    tag_423:\n        /* \"#utility.yul\":23137:23211   */\n      swap2\n      pop\n        /* \"#utility.yul\":23220:23313   */\n      tag_424\n        /* \"#utility.yul\":23309:23312   */\n      dup3\n        /* \"#utility.yul\":23220:23313   */\n      tag_184\n      jump\t// in\n    tag_424:\n        /* \"#utility.yul\":23338:23340   */\n      0x40\n        /* \"#utility.yul\":23333:23336   */\n      dup3\n        /* \"#utility.yul\":23329:23341   */\n      add\n        /* \"#utility.yul\":23322:23341   */\n      swap1\n      pop\n        /* \"#utility.yul\":22981:23347   */\n      swap2\n      swap1\n      pop\n      jump\t// out\n        /* \"#utility.yul\":23353:23772   */\n    tag_120:\n        /* \"#utility.yul\":23519:23523   */\n      0x00\n        /* \"#utility.yul\":23557:23559   */\n      0x20\n        /* \"#utility.yul\":23546:23555   */\n      dup3\n        /* \"#utility.yul\":23542:23560   */\n      add\n        /* \"#utility.yul\":23534:23560   */\n      swap1\n      pop\n        /* \"#utility.yul\":23606:23615   */\n      dup2\n        /* \"#utility.yul\":23600:23604   */\n      dup2\n        /* \"#utility.yul\":23596:23616   */\n      sub\n        /* \"#utility.yul\":23592:23593   */\n      0x00\n        /* \"#utility.yul\":23581:23590   */\n      dup4\n        /* \"#utility.yul\":23577:23594   */\n      add\n        /* \"#utility.yul\":23570:23617   */\n      mstore\n        /* \"#utility.yul\":23634:23765   */\n      tag_426\n        /* \"#utility.yul\":23760:23764   */\n      dup2\n        /* \"#utility.yul\":23634:23765   */\n      tag_185\n      jump\t// in\n    tag_426:\n        /* \"#utility.yul\":23626:23765   */\n      swap1\n      pop\n        /* \"#utility.yul\":23353:23772   */\n      swap2\n      swap1\n      pop\n      jump\t// out\n\n    auxdata: 0xa2646970667358221220da301db90a68ee26b83f337ebb748602410e0c2f8d4d50bf1bac23b165c6eafb64736f6c63430008160033\n}\n",
				"bytecode": {
					"linkReferences": {},
					"object": "608060405234801561001057600080fd5b5033600560006101000a81548173ffffffffffffffffffffffffffffffffffffffff021916908373ffffffffffffffffffffffffffffffffffffffff16021790555061179a806100616000396000f3fe608060405234801561001057600080fd5b50600436106100b45760003560e01c806377ca29471161007157806377ca2947146101b35780637fc29673146101e35780639cfeb679146101ed578063a30254e714610209578063c7a9f77b14610239578063dfd68b9114610257576100b4565b806301ffc9a7146100b9578063077f3b02146100e957806353acf8831461011957806365dd2f691461014957806371ae413d146101795780637241d75f14610197575b600080fd5b6100d360048036038101906100ce9190610aa6565b610287565b6040516100e09190610aee565b60405180910390f35b61010360048036038101906100fe9190610c85565b610321565b6040516101109190610cf0565b60405180910390f35b610133600480360381019061012e9190610d0b565b6104e1565b6040516101409190610db7565b60405180910390f35b610163600480360381019061015e9190610dd9565b610581565b6040516101709190610cf0565b60405180910390f35b61018161062a565b60405161018e9190610e63565b60405180910390f35b6101b160048036038101906101ac9190610e7e565b610650565b005b6101cd60048036038101906101c89190610eed565b61087e565b6040516101da9190610cf0565b60405180910390f35b6101eb6108b9565b005b61020760048036038101906102029190610f75565b610912565b005b610223600480360381019061021e9190610f75565b6109fc565b6040516102309190610aee565b60405180910390f35b610241610a1c565b60405161024e9190610cf0565b60405180910390f35b610271600480360381019061026c9190610d0b565b610a22565b60405161027e9190610cf0565b60405180910390f35b60007f1c95926d000000000000000000000000000000000000000000000000000000007bffffffffffffffffffffffffffffffffffffffffffffffffffffffff1916827bffffffffffffffffffffffffffffffffffffffffffffffffffffffff1916148061031a57506301ffc9a760e01b827bffffffffffffffffffffffffffffffffffffffffffffffffffffffff1916145b9050919050565b60003373ffffffffffffffffffffffffffffffffffffffff16600560009054906101000a900473ffffffffffffffffffffffffffffffffffffffff1673ffffffffffffffffffffffffffffffffffffffff1614806103ce5750600115156000803373ffffffffffffffffffffffffffffffffffffffff1673ffffffffffffffffffffffffffffffffffffffff16815260200190815260200160002060009054906101000a900460ff161515145b61040d576040517f08c379a000000000000000000000000000000000000000000000000000000000815260040161040490611014565b60405180910390fd5b60008211610450576040517f08c379a000000000000000000000000000000000000000000000000000000000815260040161044790611080565b60405180910390fd5b82600260006004548152602001908152602001600020908161047291906112ac565b5081600160006004548152602001908152602001600020819055506001600460008282546104a091906113ad565b925050819055506004547f1e5500ede7ec81cd4d6537a1a618f3424510f89d03c2252ee7c80e60a1278b6760405160405180910390a2600454905092915050565b60026020528060005260406000206000915090508054610500906110cf565b80601f016020809104026020016040519081016040528092919081815260200182805461052c906110cf565b80156105795780601f1061054e57610100808354040283529160200191610579565b820191906000526020600020905b81548152906001019060200180831161055c57829003601f168201915b505050505081565b600080600090506000805b6004548110156106015760036000828152602001908152602001600020856040516105b7919061141d565b908152602001604051809103902054836105d191906113ad565b92506001600082815260200190815260200160002054826105f291906113ad565b9150808060010191505061058c565b50600081612710846106139190611434565b61061d91906114a5565b9050809350505050919050565b600560009054906101000a900473ffffffffffffffffffffffffffffffffffffffff1681565b3373ffffffffffffffffffffffffffffffffffffffff16600560009054906101000a900473ffffffffffffffffffffffffffffffffffffffff1673ffffffffffffffffffffffffffffffffffffffff1614806106fb5750600115156000803373ffffffffffffffffffffffffffffffffffffffff1673ffffffffffffffffffffffffffffffffffffffff16815260200190815260200160002060009054906101000a900460ff161515145b61073a576040517f08c379a000000000000000000000000000000000000000000000000000000000815260040161073190611548565b60405180910390fd5b600454821061077e576040517f08c379a0000000000000000000000000000000000000000000000000000000008152600401610775906115b4565b60405180910390fd5b80600160008481526020019081526020016000205410156107d4576040517f08c379a00000000000000000000000000000000000000000000000000000000081526004016107cb90611646565b60405180910390fd5b6000811015610818576040517f08c379a000000000000000000000000000000000000000000000000000000000815260040161080f906116b2565b60405180910390fd5b80600360008481526020019081526020016000208460405161083a919061141d565b908152602001604051809103902081905550817fef2ac44e203202a0e5ecc9974197e85354c58fc899e46eaa72f8aed9aa0b701d60405160405180910390a2505050565b600360205281600052604060002081805160208101820180518482526020830160208501208183528095505050505050600091509150505481565b60016000803373ffffffffffffffffffffffffffffffffffffffff1673ffffffffffffffffffffffffffffffffffffffff16815260200190815260200160002060006101000a81548160ff021916908315150217905550565b3373ffffffffffffffffffffffffffffffffffffffff16600560009054906101000a900473ffffffffffffffffffffffffffffffffffffffff1673ffffffffffffffffffffffffffffffffffffffff16146109a2576040517f08c379a000000000000000000000000000000000000000000000000000000000815260040161099990611744565b60405180910390fd5b60016000808373ffffffffffffffffffffffffffffffffffffffff1673ffffffffffffffffffffffffffffffffffffffff16815260200190815260200160002060006101000a81548160ff02191690831515021790555050565b60006020528060005260406000206000915054906101000a900460ff1681565b60045481565b60016020528060005260406000206000915090505481565b6000604051905090565b600080fd5b600080fd5b60007fffffffff0000000000000000000000000000000000000000000000000000000082169050919050565b610a8381610a4e565b8114610a8e57600080fd5b50565b600081359050610aa081610a7a565b92915050565b600060208284031215610abc57610abb610a44565b5b6000610aca84828501610a91565b91505092915050565b60008115159050919050565b610ae881610ad3565b82525050565b6000602082019050610b036000830184610adf565b92915050565b600080fd5b600080fd5b6000601f19601f8301169050919050565b7f4e487b7100000000000000000000000000000000000000000000000000000000600052604160045260246000fd5b610b5c82610b13565b810181811067ffffffffffffffff82111715610b7b57610b7a610b24565b5b80604052505050565b6000610b8e610a3a565b9050610b9a8282610b53565b919050565b600067ffffffffffffffff821115610bba57610bb9610b24565b5b610bc382610b13565b9050602081019050919050565b82818337600083830152505050565b6000610bf2610bed84610b9f565b610b84565b905082815260208101848484011115610c0e57610c0d610b0e565b5b610c19848285610bd0565b509392505050565b600082601f830112610c3657610c35610b09565b5b8135610c46848260208601610bdf565b91505092915050565b6000819050919050565b610c6281610c4f565b8114610c6d57600080fd5b50565b600081359050610c7f81610c59565b92915050565b60008060408385031215610c9c57610c9b610a44565b5b600083013567ffffffffffffffff811115610cba57610cb9610a49565b5b610cc685828601610c21565b9250506020610cd785828601610c70565b9150509250929050565b610cea81610c4f565b82525050565b6000602082019050610d056000830184610ce1565b92915050565b600060208284031215610d2157610d20610a44565b5b6000610d2f84828501610c70565b91505092915050565b600081519050919050565b600082825260208201905092915050565b60005b83811015610d72578082015181840152602081019050610d57565b60008484015250505050565b6000610d8982610d38565b610d938185610d43565b9350610da3818560208601610d54565b610dac81610b13565b840191505092915050565b60006020820190508181036000830152610dd18184610d7e565b905092915050565b600060208284031215610def57610dee610a44565b5b600082013567ffffffffffffffff811115610e0d57610e0c610a49565b5b610e1984828501610c21565b91505092915050565b600073ffffffffffffffffffffffffffffffffffffffff82169050919050565b6000610e4d82610e22565b9050919050565b610e5d81610e42565b82525050565b6000602082019050610e786000830184610e54565b92915050565b600080600060608486031215610e9757610e96610a44565b5b600084013567ffffffffffffffff811115610eb557610eb4610a49565b5b610ec186828701610c21565b9350506020610ed286828701610c70565b9250506040610ee386828701610c70565b9150509250925092565b60008060408385031215610f0457610f03610a44565b5b6000610f1285828601610c70565b925050602083013567ffffffffffffffff811115610f3357610f32610a49565b5b610f3f85828601610c21565b9150509250929050565b610f5281610e42565b8114610f5d57600080fd5b50565b600081359050610f6f81610f49565b92915050565b600060208284031215610f8b57610f8a610a44565b5b6000610f9984828501610f60565b91505092915050565b7f4f6e6c792074686520696e7374727563746f7220616e64205441732063616e2060008201527f6164642061737369676e6d656e74730000000000000000000000000000000000602082015250565b6000610ffe602f83610d43565b915061100982610fa2565b604082019050919050565b6000602082019050818103600083015261102d81610ff1565b9050919050565b7f4d61782073636f7265206d7573742062652067726561746572207468616e2030600082015250565b600061106a602083610d43565b915061107582611034565b602082019050919050565b600060208201905081810360008301526110998161105d565b9050919050565b7f4e487b7100000000000000000000000000000000000000000000000000000000600052602260045260246000fd5b600060028204905060018216806110e757607f821691505b6020821081036110fa576110f96110a0565b5b50919050565b60008190508160005260206000209050919050565b60006020601f8301049050919050565b600082821b905092915050565b6000600883026111627fffffffffffffffffffffffffffffffffffffffffffffffffffffffffffffffff82611125565b61116c8683611125565b95508019841693508086168417925050509392505050565b6000819050919050565b60006111a96111a461119f84610c4f565b611184565b610c4f565b9050919050565b6000819050919050565b6111c38361118e565b6111d76111cf826111b0565b848454611132565b825550505050565b600090565b6111ec6111df565b6111f78184846111ba565b505050565b5b8181101561121b576112106000826111e4565b6001810190506111fd565b5050565b601f8211156112605761123181611100565b61123a84611115565b81016020851015611249578190505b61125d61125585611115565b8301826111fc565b50505b505050565b600082821c905092915050565b600061128360001984600802611265565b1980831691505092915050565b600061129c8383611272565b9150826002028217905092915050565b6112b582610d38565b67ffffffffffffffff8111156112ce576112cd610b24565b5b6112d882546110cf565b6112e382828561121f565b600060209050601f8311600181146113165760008415611304578287015190505b61130e8582611290565b865550611376565b601f19841661132486611100565b60005b8281101561134c57848901518255600182019150602085019450602081019050611327565b868310156113695784890151611365601f891682611272565b8355505b6001600288020188555050505b505050505050565b7f4e487b7100000000000000000000000000000000000000000000000000000000600052601160045260246000fd5b60006113b882610c4f565b91506113c383610c4f565b92508282019050808211156113db576113da61137e565b5b92915050565b600081905092915050565b60006113f782610d38565b61140181856113e1565b9350611411818560208601610d54565b80840191505092915050565b600061142982846113ec565b915081905092915050565b600061143f82610c4f565b915061144a83610c4f565b925082820261145881610c4f565b9150828204841483151761146f5761146e61137e565b5b5092915050565b7f4e487b7100000000000000000000000000000000000000000000000000000000600052601260045260246000fd5b60006114b082610c4f565b91506114bb83610c4f565b9250826114cb576114ca611476565b5b828204905092915050565b7f4f6e6c792074686520696e7374727563746f7220616e64205441732063616e2060008201527f6164642067726164657300000000000000000000000000000000000000000000602082015250565b6000611532602a83610d43565b915061153d826114d6565b604082019050919050565b6000602082019050818103600083015261156181611525565b9050919050565b7f496e76616c69642061737369676e6d656e742049440000000000000000000000600082015250565b600061159e601583610d43565b91506115a982611568565b602082019050919050565b600060208201905081810360008301526115cd81611591565b9050919050565b7f47726164652063616e277420626520686967686572207468616e20746865206d60008201527f61782073636f7265000000000000000000000000000000000000000000000000602082015250565b6000611630602883610d43565b915061163b826115d4565b604082019050919050565b6000602082019050818103600083015261165f81611623565b9050919050565b7f47726164652063616e27742062652061206e65676174697665206e756d626572600082015250565b600061169c602083610d43565b91506116a782611666565b602082019050919050565b600060208201905081810360008301526116cb8161168f565b9050919050565b7f4f6e6c792074686520696e7374727563746f722063616e2064657369676e617460008201527f6520544173000000000000000000000000000000000000000000000000000000602082015250565b600061172e602583610d43565b9150611739826116d2565b604082019050919050565b6000602082019050818103600083015261175d81611721565b905091905056fea2646970667358221220da301db90a68ee26b83f337ebb748602410e0c2f8d4d50bf1bac23b165c6eafb64736f6c63430008160033",
					"opcodes": "PUSH1 0x80 PUSH1 0x40 MSTORE CALLVALUE DUP1 ISZERO PUSH2 0x10 JUMPI PUSH1 0x0 DUP1 REVERT JUMPDEST POP CALLER PUSH1 0x5 PUSH1 0x0 PUSH2 0x100 EXP DUP2 SLOAD DUP2 PUSH20 0xFFFFFFFFFFFFFFFFFFFFFFFFFFFFFFFFFFFFFFFF MUL NOT AND SWAP1 DUP4 PUSH20 0xFFFFFFFFFFFFFFFFFFFFFFFFFFFFFFFFFFFFFFFF AND MUL OR SWAP1 SSTORE POP PUSH2 0x179A DUP1 PUSH2 0x61 PUSH1 0x0 CODECOPY PUSH1 0x0 RETURN INVALID PUSH1 0x80 PUSH1 0x40 MSTORE CALLVALUE DUP1 ISZERO PUSH2 0x10 JUMPI PUSH1 0x0 DUP1 REVERT JUMPDEST POP PUSH1 0x4 CALLDATASIZE LT PUSH2 0xB4 JUMPI PUSH1 0x0 CALLDATALOAD PUSH1 0xE0 SHR DUP1 PUSH4 0x77CA2947 GT PUSH2 0x71 JUMPI DUP1 PUSH4 0x77CA2947 EQ PUSH2 0x1B3 JUMPI DUP1 PUSH4 0x7FC29673 EQ PUSH2 0x1E3 JUMPI DUP1 PUSH4 0x9CFEB679 EQ PUSH2 0x1ED JUMPI DUP1 PUSH4 0xA30254E7 EQ PUSH2 0x209 JUMPI DUP1 PUSH4 0xC7A9F77B EQ PUSH2 0x239 JUMPI DUP1 PUSH4 0xDFD68B91 EQ PUSH2 0x257 JUMPI PUSH2 0xB4 JUMP JUMPDEST DUP1 PUSH4 0x1FFC9A7 EQ PUSH2 0xB9 JUMPI DUP1 PUSH4 0x77F3B02 EQ PUSH2 0xE9 JUMPI DUP1 PUSH4 0x53ACF883 EQ PUSH2 0x119 JUMPI DUP1 PUSH4 0x65DD2F69 EQ PUSH2 0x149 JUMPI DUP1 PUSH4 0x71AE413D EQ PUSH2 0x179 JUMPI DUP1 PUSH4 0x7241D75F EQ PUSH2 0x197 JUMPI JUMPDEST PUSH1 0x0 DUP1 REVERT JUMPDEST PUSH2 0xD3 PUSH1 0x4 DUP1 CALLDATASIZE SUB DUP2 ADD SWAP1 PUSH2 0xCE SWAP2 SWAP1 PUSH2 0xAA6 JUMP JUMPDEST PUSH2 0x287 JUMP JUMPDEST PUSH1 0x40 MLOAD PUSH2 0xE0 SWAP2 SWAP1 PUSH2 0xAEE JUMP JUMPDEST PUSH1 0x40 MLOAD DUP1 SWAP2 SUB SWAP1 RETURN JUMPDEST PUSH2 0x103 PUSH1 0x4 DUP1 CALLDATASIZE SUB DUP2 ADD SWAP1 PUSH2 0xFE SWAP2 SWAP1 PUSH2 0xC85 JUMP JUMPDEST PUSH2 0x321 JUMP JUMPDEST PUSH1 0x40 MLOAD PUSH2 0x110 SWAP2 SWAP1 PUSH2 0xCF0 JUMP JUMPDEST PUSH1 0x40 MLOAD DUP1 SWAP2 SUB SWAP1 RETURN JUMPDEST PUSH2 0x133 PUSH1 0x4 DUP1 CALLDATASIZE SUB DUP2 ADD SWAP1 PUSH2 0x12E SWAP2 SWAP1 PUSH2 0xD0B JUMP JUMPDEST PUSH2 0x4E1 JUMP JUMPDEST PUSH1 0x40 MLOAD PUSH2 0x140 SWAP2 SWAP1 PUSH2 0xDB7 JUMP JUMPDEST PUSH1 0x40 MLOAD DUP1 SWAP2 SUB SWAP1 RETURN JUMPDEST PUSH2 0x163 PUSH1 0x4 DUP1 CALLDATASIZE SUB DUP2 ADD SWAP1 PUSH2 0x15E SWAP2 SWAP1 PUSH2 0xDD9 JUMP JUMPDEST PUSH2 0x581 JUMP JUMPDEST PUSH1 0x40 MLOAD PUSH2 0x170 SWAP2 SWAP1 PUSH2 0xCF0 JUMP JUMPDEST PUSH1 0x40 MLOAD DUP1 SWAP2 SUB SWAP1 RETURN JUMPDEST PUSH2 0x181 PUSH2 0x62A JUMP JUMPDEST PUSH1 0x40 MLOAD PUSH2 0x18E SWAP2 SWAP1 PUSH2 0xE63 JUMP JUMPDEST PUSH1 0x40 MLOAD DUP1 SWAP2 SUB SWAP1 RETURN JUMPDEST PUSH2 0x1B1 PUSH1 0x4 DUP1 CALLDATASIZE SUB DUP2 ADD SWAP1 PUSH2 0x1AC SWAP2 SWAP1 PUSH2 0xE7E JUMP JUMPDEST PUSH2 0x650 JUMP JUMPDEST STOP JUMPDEST PUSH2 0x1CD PUSH1 0x4 DUP1 CALLDATASIZE SUB DUP2 ADD SWAP1 PUSH2 0x1C8 SWAP2 SWAP1 PUSH2 0xEED JUMP JUMPDEST PUSH2 0x87E JUMP JUMPDEST PUSH1 0x40 MLOAD PUSH2 0x1DA SWAP2 SWAP1 PUSH2 0xCF0 JUMP JUMPDEST PUSH1 0x40 MLOAD DUP1 SWAP2 SUB SWAP1 RETURN JUMPDEST PUSH2 0x1EB PUSH2 0x8B9 JUMP JUMPDEST STOP JUMPDEST PUSH2 0x207 PUSH1 0x4 DUP1 CALLDATASIZE SUB DUP2 ADD SWAP1 PUSH2 0x202 SWAP2 SWAP1 PUSH2 0xF75 JUMP JUMPDEST PUSH2 0x912 JUMP JUMPDEST STOP JUMPDEST PUSH2 0x223 PUSH1 0x4 DUP1 CALLDATASIZE SUB DUP2 ADD SWAP1 PUSH2 0x21E SWAP2 SWAP1 PUSH2 0xF75 JUMP JUMPDEST PUSH2 0x9FC JUMP JUMPDEST PUSH1 0x40 MLOAD PUSH2 0x230 SWAP2 SWAP1 PUSH2 0xAEE JUMP JUMPDEST PUSH1 0x40 MLOAD DUP1 SWAP2 SUB SWAP1 RETURN JUMPDEST PUSH2 0x241 PUSH2 0xA1C JUMP JUMPDEST PUSH1 0x40 MLOAD PUSH2 0x24E SWAP2 SWAP1 PUSH2 0xCF0 JUMP JUMPDEST PUSH1 0x40 MLOAD DUP1 SWAP2 SUB SWAP1 RETURN JUMPDEST PUSH2 0x271 PUSH1 0x4 DUP1 CALLDATASIZE SUB DUP2 ADD SWAP1 PUSH2 0x26C SWAP2 SWAP1 PUSH2 0xD0B JUMP JUMPDEST PUSH2 0xA22 JUMP JUMPDEST PUSH1 0x40 MLOAD PUSH2 0x27E SWAP2 SWAP1 PUSH2 0xCF0 JUMP JUMPDEST PUSH1 0x40 MLOAD DUP1 SWAP2 SUB SWAP1 RETURN JUMPDEST PUSH1 0x0 PUSH32 0x1C95926D00000000000000000000000000000000000000000000000000000000 PUSH28 0xFFFFFFFFFFFFFFFFFFFFFFFFFFFFFFFFFFFFFFFFFFFFFFFFFFFFFFFF NOT AND DUP3 PUSH28 0xFFFFFFFFFFFFFFFFFFFFFFFFFFFFFFFFFFFFFFFFFFFFFFFFFFFFFFFF NOT AND EQ DUP1 PUSH2 0x31A JUMPI POP PUSH4 0x1FFC9A7 PUSH1 0xE0 SHL DUP3 PUSH28 0xFFFFFFFFFFFFFFFFFFFFFFFFFFFFFFFFFFFFFFFFFFFFFFFFFFFFFFFF NOT AND EQ JUMPDEST SWAP1 POP SWAP2 SWAP1 POP JUMP JUMPDEST PUSH1 0x0 CALLER PUSH20 0xFFFFFFFFFFFFFFFFFFFFFFFFFFFFFFFFFFFFFFFF AND PUSH1 0x5 PUSH1 0x0 SWAP1 SLOAD SWAP1 PUSH2 0x100 EXP SWAP1 DIV PUSH20 0xFFFFFFFFFFFFFFFFFFFFFFFFFFFFFFFFFFFFFFFF AND PUSH20 0xFFFFFFFFFFFFFFFFFFFFFFFFFFFFFFFFFFFFFFFF AND EQ DUP1 PUSH2 0x3CE JUMPI POP PUSH1 0x1 ISZERO ISZERO PUSH1 0x0 DUP1 CALLER PUSH20 0xFFFFFFFFFFFFFFFFFFFFFFFFFFFFFFFFFFFFFFFF AND PUSH20 0xFFFFFFFFFFFFFFFFFFFFFFFFFFFFFFFFFFFFFFFF AND DUP2 MSTORE PUSH1 0x20 ADD SWAP1 DUP2 MSTORE PUSH1 0x20 ADD PUSH1 0x0 KECCAK256 PUSH1 0x0 SWAP1 SLOAD SWAP1 PUSH2 0x100 EXP SWAP1 DIV PUSH1 0xFF AND ISZERO ISZERO EQ JUMPDEST PUSH2 0x40D JUMPI PUSH1 0x40 MLOAD PUSH32 0x8C379A000000000000000000000000000000000000000000000000000000000 DUP2 MSTORE PUSH1 0x4 ADD PUSH2 0x404 SWAP1 PUSH2 0x1014 JUMP JUMPDEST PUSH1 0x40 MLOAD DUP1 SWAP2 SUB SWAP1 REVERT JUMPDEST PUSH1 0x0 DUP3 GT PUSH2 0x450 JUMPI PUSH1 0x40 MLOAD PUSH32 0x8C379A000000000000000000000000000000000000000000000000000000000 DUP2 MSTORE PUSH1 0x4 ADD PUSH2 0x447 SWAP1 PUSH2 0x1080 JUMP JUMPDEST PUSH1 0x40 MLOAD DUP1 SWAP2 SUB SWAP1 REVERT JUMPDEST DUP3 PUSH1 0x2 PUSH1 0x0 PUSH1 0x4 SLOAD DUP2 MSTORE PUSH1 0x20 ADD SWAP1 DUP2 MSTORE PUSH1 0x20 ADD PUSH1 0x0 KECCAK256 SWAP1 DUP2 PUSH2 0x472 SWAP2 SWAP1 PUSH2 0x12AC JUMP JUMPDEST POP DUP2 PUSH1 0x1 PUSH1 0x0 PUSH1 0x4 SLOAD DUP2 MSTORE PUSH1 0x20 ADD SWAP1 DUP2 MSTORE PUSH1 0x20 ADD PUSH1 0x0 KECCAK256 DUP2 SWAP1 SSTORE POP PUSH1 0x1 PUSH1 0x4 PUSH1 0x0 DUP3 DUP3 SLOAD PUSH2 0x4A0 SWAP2 SWAP1 PUSH2 0x13AD JUMP JUMPDEST SWAP3 POP POP DUP2 SWAP1 SSTORE POP PUSH1 0x4 SLOAD PUSH32 0x1E5500EDE7EC81CD4D6537A1A618F3424510F89D03C2252EE7C80E60A1278B67 PUSH1 0x40 MLOAD PUSH1 0x40 MLOAD DUP1 SWAP2 SUB SWAP1 LOG2 PUSH1 0x4 SLOAD SWAP1 POP SWAP3 SWAP2 POP POP JUMP JUMPDEST PUSH1 0x2 PUSH1 0x20 MSTORE DUP1 PUSH1 0x0 MSTORE PUSH1 0x40 PUSH1 0x0 KECCAK256 PUSH1 0x0 SWAP2 POP SWAP1 POP DUP1 SLOAD PUSH2 0x500 SWAP1 PUSH2 0x10CF JUMP JUMPDEST DUP1 PUSH1 0x1F ADD PUSH1 0x20 DUP1 SWAP2 DIV MUL PUSH1 0x20 ADD PUSH1 0x40 MLOAD SWAP1 DUP2 ADD PUSH1 0x40 MSTORE DUP1 SWAP3 SWAP2 SWAP1 DUP2 DUP2 MSTORE PUSH1 0x20 ADD DUP3 DUP1 SLOAD PUSH2 0x52C SWAP1 PUSH2 0x10CF JUMP JUMPDEST DUP1 ISZERO PUSH2 0x579 JUMPI DUP1 PUSH1 0x1F LT PUSH2 0x54E JUMPI PUSH2 0x100 DUP1 DUP4 SLOAD DIV MUL DUP4 MSTORE SWAP2 PUSH1 0x20 ADD SWAP2 PUSH2 0x579 JUMP JUMPDEST DUP3 ADD SWAP2 SWAP1 PUSH1 0x0 MSTORE PUSH1 0x20 PUSH1 0x0 KECCAK256 SWAP1 JUMPDEST DUP2 SLOAD DUP2 MSTORE SWAP1 PUSH1 0x1 ADD SWAP1 PUSH1 0x20 ADD DUP1 DUP4 GT PUSH2 0x55C JUMPI DUP3 SWAP1 SUB PUSH1 0x1F AND DUP3 ADD SWAP2 JUMPDEST POP POP POP POP POP DUP2 JUMP JUMPDEST PUSH1 0x0 DUP1 PUSH1 0x0 SWAP1 POP PUSH1 0x0 DUP1 JUMPDEST PUSH1 0x4 SLOAD DUP2 LT ISZERO PUSH2 0x601 JUMPI PUSH1 0x3 PUSH1 0x0 DUP3 DUP2 MSTORE PUSH1 0x20 ADD SWAP1 DUP2 MSTORE PUSH1 0x20 ADD PUSH1 0x0 KECCAK256 DUP6 PUSH1 0x40 MLOAD PUSH2 0x5B7 SWAP2 SWAP1 PUSH2 0x141D JUMP JUMPDEST SWAP1 DUP2 MSTORE PUSH1 0x20 ADD PUSH1 0x40 MLOAD DUP1 SWAP2 SUB SWAP1 KECCAK256 SLOAD DUP4 PUSH2 0x5D1 SWAP2 SWAP1 PUSH2 0x13AD JUMP JUMPDEST SWAP3 POP PUSH1 0x1 PUSH1 0x0 DUP3 DUP2 MSTORE PUSH1 0x20 ADD SWAP1 DUP2 MSTORE PUSH1 0x20 ADD PUSH1 0x0 KECCAK256 SLOAD DUP3 PUSH2 0x5F2 SWAP2 SWAP1 PUSH2 0x13AD JUMP JUMPDEST SWAP2 POP DUP1 DUP1 PUSH1 0x1 ADD SWAP2 POP POP PUSH2 0x58C JUMP JUMPDEST POP PUSH1 0x0 DUP2 PUSH2 0x2710 DUP5 PUSH2 0x613 SWAP2 SWAP1 PUSH2 0x1434 JUMP JUMPDEST PUSH2 0x61D SWAP2 SWAP1 PUSH2 0x14A5 JUMP JUMPDEST SWAP1 POP DUP1 SWAP4 POP POP POP POP SWAP2 SWAP1 POP JUMP JUMPDEST PUSH1 0x5 PUSH1 0x0 SWAP1 SLOAD SWAP1 PUSH2 0x100 EXP SWAP1 DIV PUSH20 0xFFFFFFFFFFFFFFFFFFFFFFFFFFFFFFFFFFFFFFFF AND DUP2 JUMP JUMPDEST CALLER PUSH20 0xFFFFFFFFFFFFFFFFFFFFFFFFFFFFFFFFFFFFFFFF AND PUSH1 0x5 PUSH1 0x0 SWAP1 SLOAD SWAP1 PUSH2 0x100 EXP SWAP1 DIV PUSH20 0xFFFFFFFFFFFFFFFFFFFFFFFFFFFFFFFFFFFFFFFF AND PUSH20 0xFFFFFFFFFFFFFFFFFFFFFFFFFFFFFFFFFFFFFFFF AND EQ DUP1 PUSH2 0x6FB JUMPI POP PUSH1 0x1 ISZERO ISZERO PUSH1 0x0 DUP1 CALLER PUSH20 0xFFFFFFFFFFFFFFFFFFFFFFFFFFFFFFFFFFFFFFFF AND PUSH20 0xFFFFFFFFFFFFFFFFFFFFFFFFFFFFFFFFFFFFFFFF AND DUP2 MSTORE PUSH1 0x20 ADD SWAP1 DUP2 MSTORE PUSH1 0x20 ADD PUSH1 0x0 KECCAK256 PUSH1 0x0 SWAP1 SLOAD SWAP1 PUSH2 0x100 EXP SWAP1 DIV PUSH1 0xFF AND ISZERO ISZERO EQ JUMPDEST PUSH2 0x73A JUMPI PUSH1 0x40 MLOAD PUSH32 0x8C379A000000000000000000000000000000000000000000000000000000000 DUP2 MSTORE PUSH1 0x4 ADD PUSH2 0x731 SWAP1 PUSH2 0x1548 JUMP JUMPDEST PUSH1 0x40 MLOAD DUP1 SWAP2 SUB SWAP1 REVERT JUMPDEST PUSH1 0x4 SLOAD DUP3 LT PUSH2 0x77E JUMPI PUSH1 0x40 MLOAD PUSH32 0x8C379A000000000000000000000000000000000000000000000000000000000 DUP2 MSTORE PUSH1 0x4 ADD PUSH2 0x775 SWAP1 PUSH2 0x15B4 JUMP JUMPDEST PUSH1 0x40 MLOAD DUP1 SWAP2 SUB SWAP1 REVERT JUMPDEST DUP1 PUSH1 0x1 PUSH1 0x0 DUP5 DUP2 MSTORE PUSH1 0x20 ADD SWAP1 DUP2 MSTORE PUSH1 0x20 ADD PUSH1 0x0 KECCAK256 SLOAD LT ISZERO PUSH2 0x7D4 JUMPI PUSH1 0x40 MLOAD PUSH32 0x8C379A000000000000000000000000000000000000000000000000000000000 DUP2 MSTORE PUSH1 0x4 ADD PUSH2 0x7CB SWAP1 PUSH2 0x1646 JUMP JUMPDEST PUSH1 0x40 MLOAD DUP1 SWAP2 SUB SWAP1 REVERT JUMPDEST PUSH1 0x0 DUP2 LT ISZERO PUSH2 0x818 JUMPI PUSH1 0x40 MLOAD PUSH32 0x8C379A000000000000000000000000000000000000000000000000000000000 DUP2 MSTORE PUSH1 0x4 ADD PUSH2 0x80F SWAP1 PUSH2 0x16B2 JUMP JUMPDEST PUSH1 0x40 MLOAD DUP1 SWAP2 SUB SWAP1 REVERT JUMPDEST DUP1 PUSH1 0x3 PUSH1 0x0 DUP5 DUP2 MSTORE PUSH1 0x20 ADD SWAP1 DUP2 MSTORE PUSH1 0x20 ADD PUSH1 0x0 KECCAK256 DUP5 PUSH1 0x40 MLOAD PUSH2 0x83A SWAP2 SWAP1 PUSH2 0x141D JUMP JUMPDEST SWAP1 DUP2 MSTORE PUSH1 0x20 ADD PUSH1 0x40 MLOAD DUP1 SWAP2 SUB SWAP1 KECCAK256 DUP2 SWAP1 SSTORE POP DUP2 PUSH32 0xEF2AC44E203202A0E5ECC9974197E85354C58FC899E46EAA72F8AED9AA0B701D PUSH1 0x40 MLOAD PUSH1 0x40 MLOAD DUP1 SWAP2 SUB SWAP1 LOG2 POP POP POP JUMP JUMPDEST PUSH1 0x3 PUSH1 0x20 MSTORE DUP2 PUSH1 0x0 MSTORE PUSH1 0x40 PUSH1 0x0 KECCAK256 DUP2 DUP1 MLOAD PUSH1 0x20 DUP2 ADD DUP3 ADD DUP1 MLOAD DUP5 DUP3 MSTORE PUSH1 0x20 DUP4 ADD PUSH1 0x20 DUP6 ADD KECCAK256 DUP2 DUP4 MSTORE DUP1 SWAP6 POP POP POP POP POP POP PUSH1 0x0 SWAP2 POP SWAP2 POP POP SLOAD DUP2 JUMP JUMPDEST PUSH1 0x1 PUSH1 0x0 DUP1 CALLER PUSH20 0xFFFFFFFFFFFFFFFFFFFFFFFFFFFFFFFFFFFFFFFF AND PUSH20 0xFFFFFFFFFFFFFFFFFFFFFFFFFFFFFFFFFFFFFFFF AND DUP2 MSTORE PUSH1 0x20 ADD SWAP1 DUP2 MSTORE PUSH1 0x20 ADD PUSH1 0x0 KECCAK256 PUSH1 0x0 PUSH2 0x100 EXP DUP2 SLOAD DUP2 PUSH1 0xFF MUL NOT AND SWAP1 DUP4 ISZERO ISZERO MUL OR SWAP1 SSTORE POP JUMP JUMPDEST CALLER PUSH20 0xFFFFFFFFFFFFFFFFFFFFFFFFFFFFFFFFFFFFFFFF AND PUSH1 0x5 PUSH1 0x0 SWAP1 SLOAD SWAP1 PUSH2 0x100 EXP SWAP1 DIV PUSH20 0xFFFFFFFFFFFFFFFFFFFFFFFFFFFFFFFFFFFFFFFF AND PUSH20 0xFFFFFFFFFFFFFFFFFFFFFFFFFFFFFFFFFFFFFFFF AND EQ PUSH2 0x9A2 JUMPI PUSH1 0x40 MLOAD PUSH32 0x8C379A000000000000000000000000000000000000000000000000000000000 DUP2 MSTORE PUSH1 0x4 ADD PUSH2 0x999 SWAP1 PUSH2 0x1744 JUMP JUMPDEST PUSH1 0x40 MLOAD DUP1 SWAP2 SUB SWAP1 REVERT JUMPDEST PUSH1 0x1 PUSH1 0x0 DUP1 DUP4 PUSH20 0xFFFFFFFFFFFFFFFFFFFFFFFFFFFFFFFFFFFFFFFF AND PUSH20 0xFFFFFFFFFFFFFFFFFFFFFFFFFFFFFFFFFFFFFFFF AND DUP2 MSTORE PUSH1 0x20 ADD SWAP1 DUP2 MSTORE PUSH1 0x20 ADD PUSH1 0x0 KECCAK256 PUSH1 0x0 PUSH2 0x100 EXP DUP2 SLOAD DUP2 PUSH1 0xFF MUL NOT AND SWAP1 DUP4 ISZERO ISZERO MUL OR SWAP1 SSTORE POP POP JUMP JUMPDEST PUSH1 0x0 PUSH1 0x20 MSTORE DUP1 PUSH1 0x0 MSTORE PUSH1 0x40 PUSH1 0x0 KECCAK256 PUSH1 0x0 SWAP2 POP SLOAD SWAP1 PUSH2 0x100 EXP SWAP1 DIV PUSH1 0xFF AND DUP2 JUMP JUMPDEST PUSH1 0x4 SLOAD DUP2 JUMP JUMPDEST PUSH1 0x1 PUSH1 0x20 MSTORE DUP1 PUSH1 0x0 MSTORE PUSH1 0x40 PUSH1 0x0 KECCAK256 PUSH1 0x0 SWAP2 POP SWAP1 POP SLOAD DUP2 JUMP JUMPDEST PUSH1 0x0 PUSH1 0x40 MLOAD SWAP1 POP SWAP1 JUMP JUMPDEST PUSH1 0x0 DUP1 REVERT JUMPDEST PUSH1 0x0 DUP1 REVERT JUMPDEST PUSH1 0x0 PUSH32 0xFFFFFFFF00000000000000000000000000000000000000000000000000000000 DUP3 AND SWAP1 POP SWAP2 SWAP1 POP JUMP JUMPDEST PUSH2 0xA83 DUP2 PUSH2 0xA4E JUMP JUMPDEST DUP2 EQ PUSH2 0xA8E JUMPI PUSH1 0x0 DUP1 REVERT JUMPDEST POP JUMP JUMPDEST PUSH1 0x0 DUP2 CALLDATALOAD SWAP1 POP PUSH2 0xAA0 DUP2 PUSH2 0xA7A JUMP JUMPDEST SWAP3 SWAP2 POP POP JUMP JUMPDEST PUSH1 0x0 PUSH1 0x20 DUP3 DUP5 SUB SLT ISZERO PUSH2 0xABC JUMPI PUSH2 0xABB PUSH2 0xA44 JUMP JUMPDEST JUMPDEST PUSH1 0x0 PUSH2 0xACA DUP5 DUP3 DUP6 ADD PUSH2 0xA91 JUMP JUMPDEST SWAP2 POP POP SWAP3 SWAP2 POP POP JUMP JUMPDEST PUSH1 0x0 DUP2 ISZERO ISZERO SWAP1 POP SWAP2 SWAP1 POP JUMP JUMPDEST PUSH2 0xAE8 DUP2 PUSH2 0xAD3 JUMP JUMPDEST DUP3 MSTORE POP POP JUMP JUMPDEST PUSH1 0x0 PUSH1 0x20 DUP3 ADD SWAP1 POP PUSH2 0xB03 PUSH1 0x0 DUP4 ADD DUP5 PUSH2 0xADF JUMP JUMPDEST SWAP3 SWAP2 POP POP JUMP JUMPDEST PUSH1 0x0 DUP1 REVERT JUMPDEST PUSH1 0x0 DUP1 REVERT JUMPDEST PUSH1 0x0 PUSH1 0x1F NOT PUSH1 0x1F DUP4 ADD AND SWAP1 POP SWAP2 SWAP1 POP JUMP JUMPDEST PUSH32 0x4E487B7100000000000000000000000000000000000000000000000000000000 PUSH1 0x0 MSTORE PUSH1 0x41 PUSH1 0x4 MSTORE PUSH1 0x24 PUSH1 0x0 REVERT JUMPDEST PUSH2 0xB5C DUP3 PUSH2 0xB13 JUMP JUMPDEST DUP2 ADD DUP2 DUP2 LT PUSH8 0xFFFFFFFFFFFFFFFF DUP3 GT OR ISZERO PUSH2 0xB7B JUMPI PUSH2 0xB7A PUSH2 0xB24 JUMP JUMPDEST JUMPDEST DUP1 PUSH1 0x40 MSTORE POP POP POP JUMP JUMPDEST PUSH1 0x0 PUSH2 0xB8E PUSH2 0xA3A JUMP JUMPDEST SWAP1 POP PUSH2 0xB9A DUP3 DUP3 PUSH2 0xB53 JUMP JUMPDEST SWAP2 SWAP1 POP JUMP JUMPDEST PUSH1 0x0 PUSH8 0xFFFFFFFFFFFFFFFF DUP3 GT ISZERO PUSH2 0xBBA JUMPI PUSH2 0xBB9 PUSH2 0xB24 JUMP JUMPDEST JUMPDEST PUSH2 0xBC3 DUP3 PUSH2 0xB13 JUMP JUMPDEST SWAP1 POP PUSH1 0x20 DUP2 ADD SWAP1 POP SWAP2 SWAP1 POP JUMP JUMPDEST DUP3 DUP2 DUP4 CALLDATACOPY PUSH1 0x0 DUP4 DUP4 ADD MSTORE POP POP POP JUMP JUMPDEST PUSH1 0x0 PUSH2 0xBF2 PUSH2 0xBED DUP5 PUSH2 0xB9F JUMP JUMPDEST PUSH2 0xB84 JUMP JUMPDEST SWAP1 POP DUP3 DUP2 MSTORE PUSH1 0x20 DUP2 ADD DUP5 DUP5 DUP5 ADD GT ISZERO PUSH2 0xC0E JUMPI PUSH2 0xC0D PUSH2 0xB0E JUMP JUMPDEST JUMPDEST PUSH2 0xC19 DUP5 DUP3 DUP6 PUSH2 0xBD0 JUMP JUMPDEST POP SWAP4 SWAP3 POP POP POP JUMP JUMPDEST PUSH1 0x0 DUP3 PUSH1 0x1F DUP4 ADD SLT PUSH2 0xC36 JUMPI PUSH2 0xC35 PUSH2 0xB09 JUMP JUMPDEST JUMPDEST DUP2 CALLDATALOAD PUSH2 0xC46 DUP5 DUP3 PUSH1 0x20 DUP7 ADD PUSH2 0xBDF JUMP JUMPDEST SWAP2 POP POP SWAP3 SWAP2 POP POP JUMP JUMPDEST PUSH1 0x0 DUP2 SWAP1 POP SWAP2 SWAP1 POP JUMP JUMPDEST PUSH2 0xC62 DUP2 PUSH2 0xC4F JUMP JUMPDEST DUP2 EQ PUSH2 0xC6D JUMPI PUSH1 0x0 DUP1 REVERT JUMPDEST POP JUMP JUMPDEST PUSH1 0x0 DUP2 CALLDATALOAD SWAP1 POP PUSH2 0xC7F DUP2 PUSH2 0xC59 JUMP JUMPDEST SWAP3 SWAP2 POP POP JUMP JUMPDEST PUSH1 0x0 DUP1 PUSH1 0x40 DUP4 DUP6 SUB SLT ISZERO PUSH2 0xC9C JUMPI PUSH2 0xC9B PUSH2 0xA44 JUMP JUMPDEST JUMPDEST PUSH1 0x0 DUP4 ADD CALLDATALOAD PUSH8 0xFFFFFFFFFFFFFFFF DUP2 GT ISZERO PUSH2 0xCBA JUMPI PUSH2 0xCB9 PUSH2 0xA49 JUMP JUMPDEST JUMPDEST PUSH2 0xCC6 DUP6 DUP3 DUP7 ADD PUSH2 0xC21 JUMP JUMPDEST SWAP3 POP POP PUSH1 0x20 PUSH2 0xCD7 DUP6 DUP3 DUP7 ADD PUSH2 0xC70 JUMP JUMPDEST SWAP2 POP POP SWAP3 POP SWAP3 SWAP1 POP JUMP JUMPDEST PUSH2 0xCEA DUP2 PUSH2 0xC4F JUMP JUMPDEST DUP3 MSTORE POP POP JUMP JUMPDEST PUSH1 0x0 PUSH1 0x20 DUP3 ADD SWAP1 POP PUSH2 0xD05 PUSH1 0x0 DUP4 ADD DUP5 PUSH2 0xCE1 JUMP JUMPDEST SWAP3 SWAP2 POP POP JUMP JUMPDEST PUSH1 0x0 PUSH1 0x20 DUP3 DUP5 SUB SLT ISZERO PUSH2 0xD21 JUMPI PUSH2 0xD20 PUSH2 0xA44 JUMP JUMPDEST JUMPDEST PUSH1 0x0 PUSH2 0xD2F DUP5 DUP3 DUP6 ADD PUSH2 0xC70 JUMP JUMPDEST SWAP2 POP POP SWAP3 SWAP2 POP POP JUMP JUMPDEST PUSH1 0x0 DUP2 MLOAD SWAP1 POP SWAP2 SWAP1 POP JUMP JUMPDEST PUSH1 0x0 DUP3 DUP3 MSTORE PUSH1 0x20 DUP3 ADD SWAP1 POP SWAP3 SWAP2 POP POP JUMP JUMPDEST PUSH1 0x0 JUMPDEST DUP4 DUP2 LT ISZERO PUSH2 0xD72 JUMPI DUP1 DUP3 ADD MLOAD DUP2 DUP5 ADD MSTORE PUSH1 0x20 DUP2 ADD SWAP1 POP PUSH2 0xD57 JUMP JUMPDEST PUSH1 0x0 DUP5 DUP5 ADD MSTORE POP POP POP POP JUMP JUMPDEST PUSH1 0x0 PUSH2 0xD89 DUP3 PUSH2 0xD38 JUMP JUMPDEST PUSH2 0xD93 DUP2 DUP6 PUSH2 0xD43 JUMP JUMPDEST SWAP4 POP PUSH2 0xDA3 DUP2 DUP6 PUSH1 0x20 DUP7 ADD PUSH2 0xD54 JUMP JUMPDEST PUSH2 0xDAC DUP2 PUSH2 0xB13 JUMP JUMPDEST DUP5 ADD SWAP2 POP POP SWAP3 SWAP2 POP POP JUMP JUMPDEST PUSH1 0x0 PUSH1 0x20 DUP3 ADD SWAP1 POP DUP2 DUP2 SUB PUSH1 0x0 DUP4 ADD MSTORE PUSH2 0xDD1 DUP2 DUP5 PUSH2 0xD7E JUMP JUMPDEST SWAP1 POP SWAP3 SWAP2 POP POP JUMP JUMPDEST PUSH1 0x0 PUSH1 0x20 DUP3 DUP5 SUB SLT ISZERO PUSH2 0xDEF JUMPI PUSH2 0xDEE PUSH2 0xA44 JUMP JUMPDEST JUMPDEST PUSH1 0x0 DUP3 ADD CALLDATALOAD PUSH8 0xFFFFFFFFFFFFFFFF DUP2 GT ISZERO PUSH2 0xE0D JUMPI PUSH2 0xE0C PUSH2 0xA49 JUMP JUMPDEST JUMPDEST PUSH2 0xE19 DUP5 DUP3 DUP6 ADD PUSH2 0xC21 JUMP JUMPDEST SWAP2 POP POP SWAP3 SWAP2 POP POP JUMP JUMPDEST PUSH1 0x0 PUSH20 0xFFFFFFFFFFFFFFFFFFFFFFFFFFFFFFFFFFFFFFFF DUP3 AND SWAP1 POP SWAP2 SWAP1 POP JUMP JUMPDEST PUSH1 0x0 PUSH2 0xE4D DUP3 PUSH2 0xE22 JUMP JUMPDEST SWAP1 POP SWAP2 SWAP1 POP JUMP JUMPDEST PUSH2 0xE5D DUP2 PUSH2 0xE42 JUMP JUMPDEST DUP3 MSTORE POP POP JUMP JUMPDEST PUSH1 0x0 PUSH1 0x20 DUP3 ADD SWAP1 POP PUSH2 0xE78 PUSH1 0x0 DUP4 ADD DUP5 PUSH2 0xE54 JUMP JUMPDEST SWAP3 SWAP2 POP POP JUMP JUMPDEST PUSH1 0x0 DUP1 PUSH1 0x0 PUSH1 0x60 DUP5 DUP7 SUB SLT ISZERO PUSH2 0xE97 JUMPI PUSH2 0xE96 PUSH2 0xA44 JUMP JUMPDEST JUMPDEST PUSH1 0x0 DUP5 ADD CALLDATALOAD PUSH8 0xFFFFFFFFFFFFFFFF DUP2 GT ISZERO PUSH2 0xEB5 JUMPI PUSH2 0xEB4 PUSH2 0xA49 JUMP JUMPDEST JUMPDEST PUSH2 0xEC1 DUP7 DUP3 DUP8 ADD PUSH2 0xC21 JUMP JUMPDEST SWAP4 POP POP PUSH1 0x20 PUSH2 0xED2 DUP7 DUP3 DUP8 ADD PUSH2 0xC70 JUMP JUMPDEST SWAP3 POP POP PUSH1 0x40 PUSH2 0xEE3 DUP7 DUP3 DUP8 ADD PUSH2 0xC70 JUMP JUMPDEST SWAP2 POP POP SWAP3 POP SWAP3 POP SWAP3 JUMP JUMPDEST PUSH1 0x0 DUP1 PUSH1 0x40 DUP4 DUP6 SUB SLT ISZERO PUSH2 0xF04 JUMPI PUSH2 0xF03 PUSH2 0xA44 JUMP JUMPDEST JUMPDEST PUSH1 0x0 PUSH2 0xF12 DUP6 DUP3 DUP7 ADD PUSH2 0xC70 JUMP JUMPDEST SWAP3 POP POP PUSH1 0x20 DUP4 ADD CALLDATALOAD PUSH8 0xFFFFFFFFFFFFFFFF DUP2 GT ISZERO PUSH2 0xF33 JUMPI PUSH2 0xF32 PUSH2 0xA49 JUMP JUMPDEST JUMPDEST PUSH2 0xF3F DUP6 DUP3 DUP7 ADD PUSH2 0xC21 JUMP JUMPDEST SWAP2 POP POP SWAP3 POP SWAP3 SWAP1 POP JUMP JUMPDEST PUSH2 0xF52 DUP2 PUSH2 0xE42 JUMP JUMPDEST DUP2 EQ PUSH2 0xF5D JUMPI PUSH1 0x0 DUP1 REVERT JUMPDEST POP JUMP JUMPDEST PUSH1 0x0 DUP2 CALLDATALOAD SWAP1 POP PUSH2 0xF6F DUP2 PUSH2 0xF49 JUMP JUMPDEST SWAP3 SWAP2 POP POP JUMP JUMPDEST PUSH1 0x0 PUSH1 0x20 DUP3 DUP5 SUB SLT ISZERO PUSH2 0xF8B JUMPI PUSH2 0xF8A PUSH2 0xA44 JUMP JUMPDEST JUMPDEST PUSH1 0x0 PUSH2 0xF99 DUP5 DUP3 DUP6 ADD PUSH2 0xF60 JUMP JUMPDEST SWAP2 POP POP SWAP3 SWAP2 POP POP JUMP JUMPDEST PUSH32 0x4F6E6C792074686520696E7374727563746F7220616E64205441732063616E20 PUSH1 0x0 DUP3 ADD MSTORE PUSH32 0x6164642061737369676E6D656E74730000000000000000000000000000000000 PUSH1 0x20 DUP3 ADD MSTORE POP JUMP JUMPDEST PUSH1 0x0 PUSH2 0xFFE PUSH1 0x2F DUP4 PUSH2 0xD43 JUMP JUMPDEST SWAP2 POP PUSH2 0x1009 DUP3 PUSH2 0xFA2 JUMP JUMPDEST PUSH1 0x40 DUP3 ADD SWAP1 POP SWAP2 SWAP1 POP JUMP JUMPDEST PUSH1 0x0 PUSH1 0x20 DUP3 ADD SWAP1 POP DUP2 DUP2 SUB PUSH1 0x0 DUP4 ADD MSTORE PUSH2 0x102D DUP2 PUSH2 0xFF1 JUMP JUMPDEST SWAP1 POP SWAP2 SWAP1 POP JUMP JUMPDEST PUSH32 0x4D61782073636F7265206D7573742062652067726561746572207468616E2030 PUSH1 0x0 DUP3 ADD MSTORE POP JUMP JUMPDEST PUSH1 0x0 PUSH2 0x106A PUSH1 0x20 DUP4 PUSH2 0xD43 JUMP JUMPDEST SWAP2 POP PUSH2 0x1075 DUP3 PUSH2 0x1034 JUMP JUMPDEST PUSH1 0x20 DUP3 ADD SWAP1 POP SWAP2 SWAP1 POP JUMP JUMPDEST PUSH1 0x0 PUSH1 0x20 DUP3 ADD SWAP1 POP DUP2 DUP2 SUB PUSH1 0x0 DUP4 ADD MSTORE PUSH2 0x1099 DUP2 PUSH2 0x105D JUMP JUMPDEST SWAP1 POP SWAP2 SWAP1 POP JUMP JUMPDEST PUSH32 0x4E487B7100000000000000000000000000000000000000000000000000000000 PUSH1 0x0 MSTORE PUSH1 0x22 PUSH1 0x4 MSTORE PUSH1 0x24 PUSH1 0x0 REVERT JUMPDEST PUSH1 0x0 PUSH1 0x2 DUP3 DIV SWAP1 POP PUSH1 0x1 DUP3 AND DUP1 PUSH2 0x10E7 JUMPI PUSH1 0x7F DUP3 AND SWAP2 POP JUMPDEST PUSH1 0x20 DUP3 LT DUP2 SUB PUSH2 0x10FA JUMPI PUSH2 0x10F9 PUSH2 0x10A0 JUMP JUMPDEST JUMPDEST POP SWAP2 SWAP1 POP JUMP JUMPDEST PUSH1 0x0 DUP2 SWAP1 POP DUP2 PUSH1 0x0 MSTORE PUSH1 0x20 PUSH1 0x0 KECCAK256 SWAP1 POP SWAP2 SWAP1 POP JUMP JUMPDEST PUSH1 0x0 PUSH1 0x20 PUSH1 0x1F DUP4 ADD DIV SWAP1 POP SWAP2 SWAP1 POP JUMP JUMPDEST PUSH1 0x0 DUP3 DUP3 SHL SWAP1 POP SWAP3 SWAP2 POP POP JUMP JUMPDEST PUSH1 0x0 PUSH1 0x8 DUP4 MUL PUSH2 0x1162 PUSH32 0xFFFFFFFFFFFFFFFFFFFFFFFFFFFFFFFFFFFFFFFFFFFFFFFFFFFFFFFFFFFFFFFF DUP3 PUSH2 0x1125 JUMP JUMPDEST PUSH2 0x116C DUP7 DUP4 PUSH2 0x1125 JUMP JUMPDEST SWAP6 POP DUP1 NOT DUP5 AND SWAP4 POP DUP1 DUP7 AND DUP5 OR SWAP3 POP POP POP SWAP4 SWAP3 POP POP POP JUMP JUMPDEST PUSH1 0x0 DUP2 SWAP1 POP SWAP2 SWAP1 POP JUMP JUMPDEST PUSH1 0x0 PUSH2 0x11A9 PUSH2 0x11A4 PUSH2 0x119F DUP5 PUSH2 0xC4F JUMP JUMPDEST PUSH2 0x1184 JUMP JUMPDEST PUSH2 0xC4F JUMP JUMPDEST SWAP1 POP SWAP2 SWAP1 POP JUMP JUMPDEST PUSH1 0x0 DUP2 SWAP1 POP SWAP2 SWAP1 POP JUMP JUMPDEST PUSH2 0x11C3 DUP4 PUSH2 0x118E JUMP JUMPDEST PUSH2 0x11D7 PUSH2 0x11CF DUP3 PUSH2 0x11B0 JUMP JUMPDEST DUP5 DUP5 SLOAD PUSH2 0x1132 JUMP JUMPDEST DUP3 SSTORE POP POP POP POP JUMP JUMPDEST PUSH1 0x0 SWAP1 JUMP JUMPDEST PUSH2 0x11EC PUSH2 0x11DF JUMP JUMPDEST PUSH2 0x11F7 DUP2 DUP5 DUP5 PUSH2 0x11BA JUMP JUMPDEST POP POP POP JUMP JUMPDEST JUMPDEST DUP2 DUP2 LT ISZERO PUSH2 0x121B JUMPI PUSH2 0x1210 PUSH1 0x0 DUP3 PUSH2 0x11E4 JUMP JUMPDEST PUSH1 0x1 DUP2 ADD SWAP1 POP PUSH2 0x11FD JUMP JUMPDEST POP POP JUMP JUMPDEST PUSH1 0x1F DUP3 GT ISZERO PUSH2 0x1260 JUMPI PUSH2 0x1231 DUP2 PUSH2 0x1100 JUMP JUMPDEST PUSH2 0x123A DUP5 PUSH2 0x1115 JUMP JUMPDEST DUP2 ADD PUSH1 0x20 DUP6 LT ISZERO PUSH2 0x1249 JUMPI DUP2 SWAP1 POP JUMPDEST PUSH2 0x125D PUSH2 0x1255 DUP6 PUSH2 0x1115 JUMP JUMPDEST DUP4 ADD DUP3 PUSH2 0x11FC JUMP JUMPDEST POP POP JUMPDEST POP POP POP JUMP JUMPDEST PUSH1 0x0 DUP3 DUP3 SHR SWAP1 POP SWAP3 SWAP2 POP POP JUMP JUMPDEST PUSH1 0x0 PUSH2 0x1283 PUSH1 0x0 NOT DUP5 PUSH1 0x8 MUL PUSH2 0x1265 JUMP JUMPDEST NOT DUP1 DUP4 AND SWAP2 POP POP SWAP3 SWAP2 POP POP JUMP JUMPDEST PUSH1 0x0 PUSH2 0x129C DUP4 DUP4 PUSH2 0x1272 JUMP JUMPDEST SWAP2 POP DUP3 PUSH1 0x2 MUL DUP3 OR SWAP1 POP SWAP3 SWAP2 POP POP JUMP JUMPDEST PUSH2 0x12B5 DUP3 PUSH2 0xD38 JUMP JUMPDEST PUSH8 0xFFFFFFFFFFFFFFFF DUP2 GT ISZERO PUSH2 0x12CE JUMPI PUSH2 0x12CD PUSH2 0xB24 JUMP JUMPDEST JUMPDEST PUSH2 0x12D8 DUP3 SLOAD PUSH2 0x10CF JUMP JUMPDEST PUSH2 0x12E3 DUP3 DUP3 DUP6 PUSH2 0x121F JUMP JUMPDEST PUSH1 0x0 PUSH1 0x20 SWAP1 POP PUSH1 0x1F DUP4 GT PUSH1 0x1 DUP2 EQ PUSH2 0x1316 JUMPI PUSH1 0x0 DUP5 ISZERO PUSH2 0x1304 JUMPI DUP3 DUP8 ADD MLOAD SWAP1 POP JUMPDEST PUSH2 0x130E DUP6 DUP3 PUSH2 0x1290 JUMP JUMPDEST DUP7 SSTORE POP PUSH2 0x1376 JUMP JUMPDEST PUSH1 0x1F NOT DUP5 AND PUSH2 0x1324 DUP7 PUSH2 0x1100 JUMP JUMPDEST PUSH1 0x0 JUMPDEST DUP3 DUP2 LT ISZERO PUSH2 0x134C JUMPI DUP5 DUP10 ADD MLOAD DUP3 SSTORE PUSH1 0x1 DUP3 ADD SWAP2 POP PUSH1 0x20 DUP6 ADD SWAP5 POP PUSH1 0x20 DUP2 ADD SWAP1 POP PUSH2 0x1327 JUMP JUMPDEST DUP7 DUP4 LT ISZERO PUSH2 0x1369 JUMPI DUP5 DUP10 ADD MLOAD PUSH2 0x1365 PUSH1 0x1F DUP10 AND DUP3 PUSH2 0x1272 JUMP JUMPDEST DUP4 SSTORE POP JUMPDEST PUSH1 0x1 PUSH1 0x2 DUP9 MUL ADD DUP9 SSTORE POP POP POP JUMPDEST POP POP POP POP POP POP JUMP JUMPDEST PUSH32 0x4E487B7100000000000000000000000000000000000000000000000000000000 PUSH1 0x0 MSTORE PUSH1 0x11 PUSH1 0x4 MSTORE PUSH1 0x24 PUSH1 0x0 REVERT JUMPDEST PUSH1 0x0 PUSH2 0x13B8 DUP3 PUSH2 0xC4F JUMP JUMPDEST SWAP2 POP PUSH2 0x13C3 DUP4 PUSH2 0xC4F JUMP JUMPDEST SWAP3 POP DUP3 DUP3 ADD SWAP1 POP DUP1 DUP3 GT ISZERO PUSH2 0x13DB JUMPI PUSH2 0x13DA PUSH2 0x137E JUMP JUMPDEST JUMPDEST SWAP3 SWAP2 POP POP JUMP JUMPDEST PUSH1 0x0 DUP2 SWAP1 POP SWAP3 SWAP2 POP POP JUMP JUMPDEST PUSH1 0x0 PUSH2 0x13F7 DUP3 PUSH2 0xD38 JUMP JUMPDEST PUSH2 0x1401 DUP2 DUP6 PUSH2 0x13E1 JUMP JUMPDEST SWAP4 POP PUSH2 0x1411 DUP2 DUP6 PUSH1 0x20 DUP7 ADD PUSH2 0xD54 JUMP JUMPDEST DUP1 DUP5 ADD SWAP2 POP POP SWAP3 SWAP2 POP POP JUMP JUMPDEST PUSH1 0x0 PUSH2 0x1429 DUP3 DUP5 PUSH2 0x13EC JUMP JUMPDEST SWAP2 POP DUP2 SWAP1 POP SWAP3 SWAP2 POP POP JUMP JUMPDEST PUSH1 0x0 PUSH2 0x143F DUP3 PUSH2 0xC4F JUMP JUMPDEST SWAP2 POP PUSH2 0x144A DUP4 PUSH2 0xC4F JUMP JUMPDEST SWAP3 POP DUP3 DUP3 MUL PUSH2 0x1458 DUP2 PUSH2 0xC4F JUMP JUMPDEST SWAP2 POP DUP3 DUP3 DIV DUP5 EQ DUP4 ISZERO OR PUSH2 0x146F JUMPI PUSH2 0x146E PUSH2 0x137E JUMP JUMPDEST JUMPDEST POP SWAP3 SWAP2 POP POP JUMP JUMPDEST PUSH32 0x4E487B7100000000000000000000000000000000000000000000000000000000 PUSH1 0x0 MSTORE PUSH1 0x12 PUSH1 0x4 MSTORE PUSH1 0x24 PUSH1 0x0 REVERT JUMPDEST PUSH1 0x0 PUSH2 0x14B0 DUP3 PUSH2 0xC4F JUMP JUMPDEST SWAP2 POP PUSH2 0x14BB DUP4 PUSH2 0xC4F JUMP JUMPDEST SWAP3 POP DUP3 PUSH2 0x14CB JUMPI PUSH2 0x14CA PUSH2 0x1476 JUMP JUMPDEST JUMPDEST DUP3 DUP3 DIV SWAP1 POP SWAP3 SWAP2 POP POP JUMP JUMPDEST PUSH32 0x4F6E6C792074686520696E7374727563746F7220616E64205441732063616E20 PUSH1 0x0 DUP3 ADD MSTORE PUSH32 0x6164642067726164657300000000000000000000000000000000000000000000 PUSH1 0x20 DUP3 ADD MSTORE POP JUMP JUMPDEST PUSH1 0x0 PUSH2 0x1532 PUSH1 0x2A DUP4 PUSH2 0xD43 JUMP JUMPDEST SWAP2 POP PUSH2 0x153D DUP3 PUSH2 0x14D6 JUMP JUMPDEST PUSH1 0x40 DUP3 ADD SWAP1 POP SWAP2 SWAP1 POP JUMP JUMPDEST PUSH1 0x0 PUSH1 0x20 DUP3 ADD SWAP1 POP DUP2 DUP2 SUB PUSH1 0x0 DUP4 ADD MSTORE PUSH2 0x1561 DUP2 PUSH2 0x1525 JUMP JUMPDEST SWAP1 POP SWAP2 SWAP1 POP JUMP JUMPDEST PUSH32 0x496E76616C69642061737369676E6D656E742049440000000000000000000000 PUSH1 0x0 DUP3 ADD MSTORE POP JUMP JUMPDEST PUSH1 0x0 PUSH2 0x159E PUSH1 0x15 DUP4 PUSH2 0xD43 JUMP JUMPDEST SWAP2 POP PUSH2 0x15A9 DUP3 PUSH2 0x1568 JUMP JUMPDEST PUSH1 0x20 DUP3 ADD SWAP1 POP SWAP2 SWAP1 POP JUMP JUMPDEST PUSH1 0x0 PUSH1 0x20 DUP3 ADD SWAP1 POP DUP2 DUP2 SUB PUSH1 0x0 DUP4 ADD MSTORE PUSH2 0x15CD DUP2 PUSH2 0x1591 JUMP JUMPDEST SWAP1 POP SWAP2 SWAP1 POP JUMP JUMPDEST PUSH32 0x47726164652063616E277420626520686967686572207468616E20746865206D PUSH1 0x0 DUP3 ADD MSTORE PUSH32 0x61782073636F7265000000000000000000000000000000000000000000000000 PUSH1 0x20 DUP3 ADD MSTORE POP JUMP JUMPDEST PUSH1 0x0 PUSH2 0x1630 PUSH1 0x28 DUP4 PUSH2 0xD43 JUMP JUMPDEST SWAP2 POP PUSH2 0x163B DUP3 PUSH2 0x15D4 JUMP JUMPDEST PUSH1 0x40 DUP3 ADD SWAP1 POP SWAP2 SWAP1 POP JUMP JUMPDEST PUSH1 0x0 PUSH1 0x20 DUP3 ADD SWAP1 POP DUP2 DUP2 SUB PUSH1 0x0 DUP4 ADD MSTORE PUSH2 0x165F DUP2 PUSH2 0x1623 JUMP JUMPDEST SWAP1 POP SWAP2 SWAP1 POP JUMP JUMPDEST PUSH32 0x47726164652063616E27742062652061206E65676174697665206E756D626572 PUSH1 0x0 DUP3 ADD MSTORE POP JUMP JUMPDEST PUSH1 0x0 PUSH2 0x169C PUSH1 0x20 DUP4 PUSH2 0xD43 JUMP JUMPDEST SWAP2 POP PUSH2 0x16A7 DUP3 PUSH2 0x1666 JUMP JUMPDEST PUSH1 0x20 DUP3 ADD SWAP1 POP SWAP2 SWAP1 POP JUMP JUMPDEST PUSH1 0x0 PUSH1 0x20 DUP3 ADD SWAP1 POP DUP2 DUP2 SUB PUSH1 0x0 DUP4 ADD MSTORE PUSH2 0x16CB DUP2 PUSH2 0x168F JUMP JUMPDEST SWAP1 POP SWAP2 SWAP1 POP JUMP JUMPDEST PUSH32 0x4F6E6C792074686520696E7374727563746F722063616E2064657369676E6174 PUSH1 0x0 DUP3 ADD MSTORE PUSH32 0x6520544173000000000000000000000000000000000000000000000000000000 PUSH1 0x20 DUP3 ADD MSTORE POP JUMP JUMPDEST PUSH1 0x0 PUSH2 0x172E PUSH1 0x25 DUP4 PUSH2 0xD43 JUMP JUMPDEST SWAP2 POP PUSH2 0x1739 DUP3 PUSH2 0x16D2 JUMP JUMPDEST PUSH1 0x40 DUP3 ADD SWAP1 POP SWAP2 SWAP1 POP JUMP JUMPDEST PUSH1 0x0 PUSH1 0x20 DUP3 ADD SWAP1 POP DUP2 DUP2 SUB PUSH1 0x0 DUP4 ADD MSTORE PUSH2 0x175D DUP2 PUSH2 0x1721 JUMP JUMPDEST SWAP1 POP SWAP2 SWAP1 POP JUMP INVALID LOG2 PUSH5 0x6970667358 0x22 SLT KECCAK256 0xDA ADDRESS SAR 0xB9 EXP PUSH9 0xEE26B83F337EBB7486 MUL COINBASE 0xE 0xC 0x2F DUP14 0x4D POP 0xBF SHL 0xAC 0x23 0xB1 PUSH6 0xC6EAFB64736F PUSH13 0x63430008160033000000000000 "
				},
				"gasEstimates": {
					"creation": {
						"codeDepositCost": "1208400",
						"executionCost": "25520",
						"totalCost": "1233920"
					},
					"external": {
						"addAssignment(string,uint256)": "infinite",
						"addGrade(string,uint256,uint256)": "infinite",
						"assignment_names(uint256)": "infinite",
						"designateTA(address)": "27026",
						"getAverage(string)": "infinite",
						"instructor()": "2603",
						"max_scores(uint256)": "infinite",
						"num_assignments()": "2517",
						"requestTAAccess()": "24522",
						"scores(uint256,string)": "infinite",
						"supportsInterface(bytes4)": "682",
						"tas(address)": "2911"
					}
				},
				"methodIdentifiers": {
					"addAssignment(string,uint256)": "077f3b02",
					"addGrade(string,uint256,uint256)": "7241d75f",
					"assignment_names(uint256)": "53acf883",
					"designateTA(address)": "9cfeb679",
					"getAverage(string)": "65dd2f69",
					"instructor()": "71ae413d",
					"max_scores(uint256)": "dfd68b91",
					"num_assignments()": "c7a9f77b",
					"requestTAAccess()": "7fc29673",
					"scores(uint256,string)": "77ca2947",
					"supportsInterface(bytes4)": "01ffc9a7",
					"tas(address)": "a30254e7"
				}
			},
			"storageLayout": {
				"storage": [
					{
						"astId": 9,
						"contract": "P5_Gradebook/Gradebook.sol:Gradebook",
						"label": "tas",
						"offset": 0,
						"slot": "0",
						"type": "t_mapping(t_address,t_bool)"
					},
					{
						"astId": 14,
						"contract": "P5_Gradebook/Gradebook.sol:Gradebook",
						"label": "max_scores",
						"offset": 0,
						"slot": "1",
						"type": "t_mapping(t_uint256,t_uint256)"
					},
					{
						"astId": 18,
						"contract": "P5_Gradebook/Gradebook.sol:Gradebook",
						"label": "assignment_names",
						"offset": 0,
						"slot": "2",
						"type": "t_mapping(t_uint256,t_string_storage)"
					},
					{
						"astId": 25,
						"contract": "P5_Gradebook/Gradebook.sol:Gradebook",
						"label": "scores",
						"offset": 0,
						"slot": "3",
						"type": "t_mapping(t_uint256,t_mapping(t_string_memory_ptr,t_uint256))"
					},
					{
						"astId": 28,
						"contract": "P5_Gradebook/Gradebook.sol:Gradebook",
						"label": "num_assignments",
						"offset": 0,
						"slot": "4",
						"type": "t_uint256"
					},
					{
						"astId": 31,
						"contract": "P5_Gradebook/Gradebook.sol:Gradebook",
						"label": "instructor",
						"offset": 0,
						"slot": "5",
						"type": "t_address"
					}
				],
				"types": {
					"t_address": {
						"encoding": "inplace",
						"label": "address",
						"numberOfBytes": "20"
					},
					"t_bool": {
						"encoding": "inplace",
						"label": "bool",
						"numberOfBytes": "1"
					},
					"t_mapping(t_address,t_bool)": {
						"encoding": "mapping",
						"key": "t_address",
						"label": "mapping(address => bool)",
						"numberOfBytes": "32",
						"value": "t_bool"
					},
					"t_mapping(t_string_memory_ptr,t_uint256)": {
						"encoding": "mapping",
						"key": "t_string_memory_ptr",
						"label": "mapping(string => uint256)",
						"numberOfBytes": "32",
						"value": "t_uint256"
					},
					"t_mapping(t_uint256,t_mapping(t_string_memory_ptr,t_uint256))": {
						"encoding": "mapping",
						"key": "t_uint256",
						"label": "mapping(uint256 => mapping(string => uint256))",
						"numberOfBytes": "32",
						"value": "t_mapping(t_string_memory_ptr,t_uint256)"
					},
					"t_mapping(t_uint256,t_string_storage)": {
						"encoding": "mapping",
						"key": "t_uint256",
						"label": "mapping(uint256 => string)",
						"numberOfBytes": "32",
						"value": "t_string_storage"
					},
					"t_mapping(t_uint256,t_uint256)": {
						"encoding": "mapping",
						"key": "t_uint256",
						"label": "mapping(uint256 => uint256)",
						"numberOfBytes": "32",
						"value": "t_uint256"
					},
					"t_string_memory_ptr": {
						"encoding": "bytes",
						"label": "string",
						"numberOfBytes": "32"
					},
					"t_string_storage": {
						"encoding": "bytes",
						"label": "string",
						"numberOfBytes": "32"
					},
					"t_uint256": {
						"encoding": "inplace",
						"label": "uint256",
						"numberOfBytes": "32"
					}
				}
			},
			"userdoc": {
				"kind": "user",
				"methods": {},
				"version": 1
			}
		}
	}
}