{
	"data": {
		"bytecode": {
			"linkReferences": {},
			"object": "60806040523480156200001157600080fd5b50620000586040518060400160405280600781526020017f43656c73697573000000000000000000000000000000000000000000000000008152506200013060201b60201c565b6200009e6040518060400160405280600481526020017f42616e67000000000000000000000000000000000000000000000000000000008152506200013060201b60201c565b620000e46040518060400160405280600781526020017f52656462756c6c000000000000000000000000000000000000000000000000008152506200013060201b60201c565b6200012a6040518060400160405280600581526020017f5072696d650000000000000000000000000000000000000000000000000000008152506200013060201b60201c565b620005bb565b60405180606001604052806002548152602001828152602001600081525060016000600254815260200190815260200160002060008201518160000155602082015181600101908162000184919062000458565b50604082015181600201559050506002547f8c289382d6fd42a02a06e885da5a69cb0f21294bbfc7acc91d5cf3ced61ca0c460405160405180910390a260026000815480929190620001d6906200056e565b919050555050565b600081519050919050565b7f4e487b7100000000000000000000000000000000000000000000000000000000600052604160045260246000fd5b7f4e487b7100000000000000000000000000000000000000000000000000000000600052602260045260246000fd5b600060028204905060018216806200026057607f821691505b60208210810362000276576200027562000218565b5b50919050565b60008190508160005260206000209050919050565b60006020601f8301049050919050565b600082821b905092915050565b600060088302620002e07fffffffffffffffffffffffffffffffffffffffffffffffffffffffffffffffff82620002a1565b620002ec8683620002a1565b95508019841693508086168417925050509392505050565b6000819050919050565b6000819050919050565b600062000339620003336200032d8462000304565b6200030e565b62000304565b9050919050565b6000819050919050565b620003558362000318565b6200036d620003648262000340565b848454620002ae565b825550505050565b600090565b6200038462000375565b620003918184846200034a565b505050565b5b81811015620003b957620003ad6000826200037a565b60018101905062000397565b5050565b601f8211156200040857620003d2816200027c565b620003dd8462000291565b81016020851015620003ed578190505b62000405620003fc8562000291565b83018262000396565b50505b505050565b600082821c905092915050565b60006200042d600019846008026200040d565b1980831691505092915050565b60006200044883836200041a565b9150826002028217905092915050565b6200046382620001de565b67ffffffffffffffff8111156200047f576200047e620001e9565b5b6200048b825462000247565b62000498828285620003bd565b600060209050601f831160018114620004d05760008415620004bb578287015190505b620004c785826200043a565b86555062000537565b601f198416620004e0866200027c565b60005b828110156200050a57848901518255600182019150602085019450602081019050620004e3565b868310156200052a578489015162000526601f8916826200041a565b8355505b6001600288020188555050505b505050505050565b7f4e487b7100000000000000000000000000000000000000000000000000000000600052601160045260246000fd5b60006200057b8262000304565b91507fffffffffffffffffffffffffffffffffffffffffffffffffffffffffffffffff8203620005b057620005af6200053f565b5b600182019050919050565b610fc680620005cb6000396000f3fe608060405234801561001057600080fd5b50600436106100885760003560e01c806370740aab1161005b57806370740aab14610113578063aec2ccae14610131578063dc899a0714610161578063f6fd7fde1461017f57610088565b80630121b93f1461008d57806301ffc9a7146100a9578063251760b7146100d95780635fa520bb146100f7575b600080fd5b6100a760048036038101906100a291906106a9565b6101af565b005b6100c360048036038101906100be919061072e565b61033f565b6040516100d09190610776565b60405180910390f35b6100e16103d9565b6040516100ee91906107a0565b60405180910390f35b610111600480360381019061010c9190610901565b6103df565b005b61011b610489565b60405161012891906109c9565b60405180910390f35b61014b60048036038101906101469190610a49565b6104a5565b6040516101589190610776565b60405180910390f35b6101696104c5565b60405161017691906109c9565b60405180910390f35b610199600480360381019061019491906106a9565b61056b565b6040516101a69190610b1f565b60405180910390f35b6000803373ffffffffffffffffffffffffffffffffffffffff1673ffffffffffffffffffffffffffffffffffffffff16815260200190815260200160002060009054906101000a900460ff161561023b576040517f08c379a000000000000000000000000000000000000000000000000000000000815260040161023290610b8d565b60405180910390fd5b6000811015801561024d575060025481105b61028c576040517f08c379a000000000000000000000000000000000000000000000000000000000815260040161028390610bf9565b60405180910390fd5b60016000803373ffffffffffffffffffffffffffffffffffffffff1673ffffffffffffffffffffffffffffffffffffffff16815260200190815260200160002060006101000a81548160ff02191690831515021790555060016000828152602001908152602001600020600201600081548092919061030a90610c48565b9190505550807ffff3c900d938d21d0990d786e819f29b8d05c1ef587b462b939609625b684b1660405160405180910390a250565b60007f5227894f000000000000000000000000000000000000000000000000000000007bffffffffffffffffffffffffffffffffffffffffffffffffffffffff1916827bffffffffffffffffffffffffffffffffffffffffffffffffffffffff191614806103d257506301ffc9a760e01b827bffffffffffffffffffffffffffffffffffffffffffffffffffffffff1916145b9050919050565b60025481565b6040518060600160405280600254815260200182815260200160008152506001600060025481526020019081526020016000206000820151816000015560208201518160010190816104319190610e9c565b50604082015181600201559050506002547f8c289382d6fd42a02a06e885da5a69cb0f21294bbfc7acc91d5cf3ced61ca0c460405160405180910390a26002600081548092919061048190610c48565b919050555050565b604051806060016040528060228152602001610f6f6022913981565b60006020528060005260406000206000915054906101000a900460ff1681565b60606001600080815260200190815260200160002060010180546104e890610cbf565b80601f016020809104026020016040519081016040528092919081815260200182805461051490610cbf565b80156105615780601f1061053657610100808354040283529160200191610561565b820191906000526020600020905b81548152906001019060200180831161054457829003601f168201915b5050505050905090565b61057361063e565b60016000838152602001908152602001600020604051806060016040529081600082015481526020016001820180546105ab90610cbf565b80601f01602080910402602001604051908101604052809291908181526020018280546105d790610cbf565b80156106245780601f106105f957610100808354040283529160200191610624565b820191906000526020600020905b81548152906001019060200180831161060757829003601f168201915b505050505081526020016002820154815250509050919050565b60405180606001604052806000815260200160608152602001600081525090565b6000604051905090565b600080fd5b600080fd5b6000819050919050565b61068681610673565b811461069157600080fd5b50565b6000813590506106a38161067d565b92915050565b6000602082840312156106bf576106be610669565b5b60006106cd84828501610694565b91505092915050565b60007fffffffff0000000000000000000000000000000000000000000000000000000082169050919050565b61070b816106d6565b811461071657600080fd5b50565b60008135905061072881610702565b92915050565b60006020828403121561074457610743610669565b5b600061075284828501610719565b91505092915050565b60008115159050919050565b6107708161075b565b82525050565b600060208201905061078b6000830184610767565b92915050565b61079a81610673565b82525050565b60006020820190506107b56000830184610791565b92915050565b600080fd5b600080fd5b6000601f19601f8301169050919050565b7f4e487b7100000000000000000000000000000000000000000000000000000000600052604160045260246000fd5b61080e826107c5565b810181811067ffffffffffffffff8211171561082d5761082c6107d6565b5b80604052505050565b600061084061065f565b905061084c8282610805565b919050565b600067ffffffffffffffff82111561086c5761086b6107d6565b5b610875826107c5565b9050602081019050919050565b82818337600083830152505050565b60006108a461089f84610851565b610836565b9050828152602081018484840111156108c0576108bf6107c0565b5b6108cb848285610882565b509392505050565b600082601f8301126108e8576108e76107bb565b5b81356108f8848260208601610891565b91505092915050565b60006020828403121561091757610916610669565b5b600082013567ffffffffffffffff8111156109355761093461066e565b5b610941848285016108d3565b91505092915050565b600081519050919050565b600082825260208201905092915050565b60005b83811015610984578082015181840152602081019050610969565b60008484015250505050565b600061099b8261094a565b6109a58185610955565b93506109b5818560208601610966565b6109be816107c5565b840191505092915050565b600060208201905081810360008301526109e38184610990565b905092915050565b600073ffffffffffffffffffffffffffffffffffffffff82169050919050565b6000610a16826109eb565b9050919050565b610a2681610a0b565b8114610a3157600080fd5b50565b600081359050610a4381610a1d565b92915050565b600060208284031215610a5f57610a5e610669565b5b6000610a6d84828501610a34565b91505092915050565b610a7f81610673565b82525050565b600082825260208201905092915050565b6000610aa18261094a565b610aab8185610a85565b9350610abb818560208601610966565b610ac4816107c5565b840191505092915050565b6000606083016000830151610ae76000860182610a76565b5060208301518482036020860152610aff8282610a96565b9150506040830151610b146040860182610a76565b508091505092915050565b60006020820190508181036000830152610b398184610acf565b905092915050565b7f73656e6465722068617320616c726561647920766f7465640000000000000000600082015250565b6000610b77601883610955565b9150610b8282610b41565b602082019050919050565b60006020820190508181036000830152610ba681610b6a565b9050919050565b7f696e76616c696420766f74652073656c656374696f6e00000000000000000000600082015250565b6000610be3601683610955565b9150610bee82610bad565b602082019050919050565b60006020820190508181036000830152610c1281610bd6565b9050919050565b7f4e487b7100000000000000000000000000000000000000000000000000000000600052601160045260246000fd5b6000610c5382610673565b91507fffffffffffffffffffffffffffffffffffffffffffffffffffffffffffffffff8203610c8557610c84610c19565b5b600182019050919050565b7f4e487b7100000000000000000000000000000000000000000000000000000000600052602260045260246000fd5b60006002820490506001821680610cd757607f821691505b602082108103610cea57610ce9610c90565b5b50919050565b60008190508160005260206000209050919050565b60006020601f8301049050919050565b600082821b905092915050565b600060088302610d527fffffffffffffffffffffffffffffffffffffffffffffffffffffffffffffffff82610d15565b610d5c8683610d15565b95508019841693508086168417925050509392505050565b6000819050919050565b6000610d99610d94610d8f84610673565b610d74565b610673565b9050919050565b6000819050919050565b610db383610d7e565b610dc7610dbf82610da0565b848454610d22565b825550505050565b600090565b610ddc610dcf565b610de7818484610daa565b505050565b5b81811015610e0b57610e00600082610dd4565b600181019050610ded565b5050565b601f821115610e5057610e2181610cf0565b610e2a84610d05565b81016020851015610e39578190505b610e4d610e4585610d05565b830182610dec565b50505b505050565b600082821c905092915050565b6000610e7360001984600802610e55565b1980831691505092915050565b6000610e8c8383610e62565b9150826002028217905092915050565b610ea58261094a565b67ffffffffffffffff811115610ebe57610ebd6107d6565b5b610ec88254610cbf565b610ed3828285610e0f565b600060209050601f831160018114610f065760008415610ef4578287015190505b610efe8582610e80565b865550610f66565b601f198416610f1486610cf0565b60005b82811015610f3c57848901518255600182019150602085019450602081019050610f17565b86831015610f595784890151610f55601f891682610e62565b8355505b6001600288020188555050505b50505050505056fe566f7465206f6e20796f7572206661766f7269746520656e65726779206472696e6ba264697066735822122046ca0de08dee6fde916fad68df3f7fa72276d4956930eb5db5e0260174939c3864736f6c63430008160033",
			"opcodes": "PUSH1 0x80 PUSH1 0x40 MSTORE CALLVALUE DUP1 ISZERO PUSH3 0x11 JUMPI PUSH1 0x0 DUP1 REVERT JUMPDEST POP PUSH3 0x58 PUSH1 0x40 MLOAD DUP1 PUSH1 0x40 ADD PUSH1 0x40 MSTORE DUP1 PUSH1 0x7 DUP2 MSTORE PUSH1 0x20 ADD PUSH32 0x43656C7369757300000000000000000000000000000000000000000000000000 DUP2 MSTORE POP PUSH3 0x130 PUSH1 0x20 SHL PUSH1 0x20 SHR JUMP JUMPDEST PUSH3 0x9E PUSH1 0x40 MLOAD DUP1 PUSH1 0x40 ADD PUSH1 0x40 MSTORE DUP1 PUSH1 0x4 DUP2 MSTORE PUSH1 0x20 ADD PUSH32 0x42616E6700000000000000000000000000000000000000000000000000000000 DUP2 MSTORE POP PUSH3 0x130 PUSH1 0x20 SHL PUSH1 0x20 SHR JUMP JUMPDEST PUSH3 0xE4 PUSH1 0x40 MLOAD DUP1 PUSH1 0x40 ADD PUSH1 0x40 MSTORE DUP1 PUSH1 0x7 DUP2 MSTORE PUSH1 0x20 ADD PUSH32 0x52656462756C6C00000000000000000000000000000000000000000000000000 DUP2 MSTORE POP PUSH3 0x130 PUSH1 0x20 SHL PUSH1 0x20 SHR JUMP JUMPDEST PUSH3 0x12A PUSH1 0x40 MLOAD DUP1 PUSH1 0x40 ADD PUSH1 0x40 MSTORE DUP1 PUSH1 0x5 DUP2 MSTORE PUSH1 0x20 ADD PUSH32 0x5072696D65000000000000000000000000000000000000000000000000000000 DUP2 MSTORE POP PUSH3 0x130 PUSH1 0x20 SHL PUSH1 0x20 SHR JUMP JUMPDEST PUSH3 0x5BB JUMP JUMPDEST PUSH1 0x40 MLOAD DUP1 PUSH1 0x60 ADD PUSH1 0x40 MSTORE DUP1 PUSH1 0x2 SLOAD DUP2 MSTORE PUSH1 0x20 ADD DUP3 DUP2 MSTORE PUSH1 0x20 ADD PUSH1 0x0 DUP2 MSTORE POP PUSH1 0x1 PUSH1 0x0 PUSH1 0x2 SLOAD DUP2 MSTORE PUSH1 0x20 ADD SWAP1 DUP2 MSTORE PUSH1 0x20 ADD PUSH1 0x0 KECCAK256 PUSH1 0x0 DUP3 ADD MLOAD DUP2 PUSH1 0x0 ADD SSTORE PUSH1 0x20 DUP3 ADD MLOAD DUP2 PUSH1 0x1 ADD SWAP1 DUP2 PUSH3 0x184 SWAP2 SWAP1 PUSH3 0x458 JUMP JUMPDEST POP PUSH1 0x40 DUP3 ADD MLOAD DUP2 PUSH1 0x2 ADD SSTORE SWAP1 POP POP PUSH1 0x2 SLOAD PUSH32 0x8C289382D6FD42A02A06E885DA5A69CB0F21294BBFC7ACC91D5CF3CED61CA0C4 PUSH1 0x40 MLOAD PUSH1 0x40 MLOAD DUP1 SWAP2 SUB SWAP1 LOG2 PUSH1 0x2 PUSH1 0x0 DUP2 SLOAD DUP1 SWAP3 SWAP2 SWAP1 PUSH3 0x1D6 SWAP1 PUSH3 0x56E JUMP JUMPDEST SWAP2 SWAP1 POP SSTORE POP POP JUMP JUMPDEST PUSH1 0x0 DUP2 MLOAD SWAP1 POP SWAP2 SWAP1 POP JUMP JUMPDEST PUSH32 0x4E487B7100000000000000000000000000000000000000000000000000000000 PUSH1 0x0 MSTORE PUSH1 0x41 PUSH1 0x4 MSTORE PUSH1 0x24 PUSH1 0x0 REVERT JUMPDEST PUSH32 0x4E487B7100000000000000000000000000000000000000000000000000000000 PUSH1 0x0 MSTORE PUSH1 0x22 PUSH1 0x4 MSTORE PUSH1 0x24 PUSH1 0x0 REVERT JUMPDEST PUSH1 0x0 PUSH1 0x2 DUP3 DIV SWAP1 POP PUSH1 0x1 DUP3 AND DUP1 PUSH3 0x260 JUMPI PUSH1 0x7F DUP3 AND SWAP2 POP JUMPDEST PUSH1 0x20 DUP3 LT DUP2 SUB PUSH3 0x276 JUMPI PUSH3 0x275 PUSH3 0x218 JUMP JUMPDEST JUMPDEST POP SWAP2 SWAP1 POP JUMP JUMPDEST PUSH1 0x0 DUP2 SWAP1 POP DUP2 PUSH1 0x0 MSTORE PUSH1 0x20 PUSH1 0x0 KECCAK256 SWAP1 POP SWAP2 SWAP1 POP JUMP JUMPDEST PUSH1 0x0 PUSH1 0x20 PUSH1 0x1F DUP4 ADD DIV SWAP1 POP SWAP2 SWAP1 POP JUMP JUMPDEST PUSH1 0x0 DUP3 DUP3 SHL SWAP1 POP SWAP3 SWAP2 POP POP JUMP JUMPDEST PUSH1 0x0 PUSH1 0x8 DUP4 MUL PUSH3 0x2E0 PUSH32 0xFFFFFFFFFFFFFFFFFFFFFFFFFFFFFFFFFFFFFFFFFFFFFFFFFFFFFFFFFFFFFFFF DUP3 PUSH3 0x2A1 JUMP JUMPDEST PUSH3 0x2EC DUP7 DUP4 PUSH3 0x2A1 JUMP JUMPDEST SWAP6 POP DUP1 NOT DUP5 AND SWAP4 POP DUP1 DUP7 AND DUP5 OR SWAP3 POP POP POP SWAP4 SWAP3 POP POP POP JUMP JUMPDEST PUSH1 0x0 DUP2 SWAP1 POP SWAP2 SWAP1 POP JUMP JUMPDEST PUSH1 0x0 DUP2 SWAP1 POP SWAP2 SWAP1 POP JUMP JUMPDEST PUSH1 0x0 PUSH3 0x339 PUSH3 0x333 PUSH3 0x32D DUP5 PUSH3 0x304 JUMP JUMPDEST PUSH3 0x30E JUMP JUMPDEST PUSH3 0x304 JUMP JUMPDEST SWAP1 POP SWAP2 SWAP1 POP JUMP JUMPDEST PUSH1 0x0 DUP2 SWAP1 POP SWAP2 SWAP1 POP JUMP JUMPDEST PUSH3 0x355 DUP4 PUSH3 0x318 JUMP JUMPDEST PUSH3 0x36D PUSH3 0x364 DUP3 PUSH3 0x340 JUMP JUMPDEST DUP5 DUP5 SLOAD PUSH3 0x2AE JUMP JUMPDEST DUP3 SSTORE POP POP POP POP JUMP JUMPDEST PUSH1 0x0 SWAP1 JUMP JUMPDEST PUSH3 0x384 PUSH3 0x375 JUMP JUMPDEST PUSH3 0x391 DUP2 DUP5 DUP5 PUSH3 0x34A JUMP JUMPDEST POP POP POP JUMP JUMPDEST JUMPDEST DUP2 DUP2 LT ISZERO PUSH3 0x3B9 JUMPI PUSH3 0x3AD PUSH1 0x0 DUP3 PUSH3 0x37A JUMP JUMPDEST PUSH1 0x1 DUP2 ADD SWAP1 POP PUSH3 0x397 JUMP JUMPDEST POP POP JUMP JUMPDEST PUSH1 0x1F DUP3 GT ISZERO PUSH3 0x408 JUMPI PUSH3 0x3D2 DUP2 PUSH3 0x27C JUMP JUMPDEST PUSH3 0x3DD DUP5 PUSH3 0x291 JUMP JUMPDEST DUP2 ADD PUSH1 0x20 DUP6 LT ISZERO PUSH3 0x3ED JUMPI DUP2 SWAP1 POP JUMPDEST PUSH3 0x405 PUSH3 0x3FC DUP6 PUSH3 0x291 JUMP JUMPDEST DUP4 ADD DUP3 PUSH3 0x396 JUMP JUMPDEST POP POP JUMPDEST POP POP POP JUMP JUMPDEST PUSH1 0x0 DUP3 DUP3 SHR SWAP1 POP SWAP3 SWAP2 POP POP JUMP JUMPDEST PUSH1 0x0 PUSH3 0x42D PUSH1 0x0 NOT DUP5 PUSH1 0x8 MUL PUSH3 0x40D JUMP JUMPDEST NOT DUP1 DUP4 AND SWAP2 POP POP SWAP3 SWAP2 POP POP JUMP JUMPDEST PUSH1 0x0 PUSH3 0x448 DUP4 DUP4 PUSH3 0x41A JUMP JUMPDEST SWAP2 POP DUP3 PUSH1 0x2 MUL DUP3 OR SWAP1 POP SWAP3 SWAP2 POP POP JUMP JUMPDEST PUSH3 0x463 DUP3 PUSH3 0x1DE JUMP JUMPDEST PUSH8 0xFFFFFFFFFFFFFFFF DUP2 GT ISZERO PUSH3 0x47F JUMPI PUSH3 0x47E PUSH3 0x1E9 JUMP JUMPDEST JUMPDEST PUSH3 0x48B DUP3 SLOAD PUSH3 0x247 JUMP JUMPDEST PUSH3 0x498 DUP3 DUP3 DUP6 PUSH3 0x3BD JUMP JUMPDEST PUSH1 0x0 PUSH1 0x20 SWAP1 POP PUSH1 0x1F DUP4 GT PUSH1 0x1 DUP2 EQ PUSH3 0x4D0 JUMPI PUSH1 0x0 DUP5 ISZERO PUSH3 0x4BB JUMPI DUP3 DUP8 ADD MLOAD SWAP1 POP JUMPDEST PUSH3 0x4C7 DUP6 DUP3 PUSH3 0x43A JUMP JUMPDEST DUP7 SSTORE POP PUSH3 0x537 JUMP JUMPDEST PUSH1 0x1F NOT DUP5 AND PUSH3 0x4E0 DUP7 PUSH3 0x27C JUMP JUMPDEST PUSH1 0x0 JUMPDEST DUP3 DUP2 LT ISZERO PUSH3 0x50A JUMPI DUP5 DUP10 ADD MLOAD DUP3 SSTORE PUSH1 0x1 DUP3 ADD SWAP2 POP PUSH1 0x20 DUP6 ADD SWAP5 POP PUSH1 0x20 DUP2 ADD SWAP1 POP PUSH3 0x4E3 JUMP JUMPDEST DUP7 DUP4 LT ISZERO PUSH3 0x52A JUMPI DUP5 DUP10 ADD MLOAD PUSH3 0x526 PUSH1 0x1F DUP10 AND DUP3 PUSH3 0x41A JUMP JUMPDEST DUP4 SSTORE POP JUMPDEST PUSH1 0x1 PUSH1 0x2 DUP9 MUL ADD DUP9 SSTORE POP POP POP JUMPDEST POP POP POP POP POP POP JUMP JUMPDEST PUSH32 0x4E487B7100000000000000000000000000000000000000000000000000000000 PUSH1 0x0 MSTORE PUSH1 0x11 PUSH1 0x4 MSTORE PUSH1 0x24 PUSH1 0x0 REVERT JUMPDEST PUSH1 0x0 PUSH3 0x57B DUP3 PUSH3 0x304 JUMP JUMPDEST SWAP2 POP PUSH32 0xFFFFFFFFFFFFFFFFFFFFFFFFFFFFFFFFFFFFFFFFFFFFFFFFFFFFFFFFFFFFFFFF DUP3 SUB PUSH3 0x5B0 JUMPI PUSH3 0x5AF PUSH3 0x53F JUMP JUMPDEST JUMPDEST PUSH1 0x1 DUP3 ADD SWAP1 POP SWAP2 SWAP1 POP JUMP JUMPDEST PUSH2 0xFC6 DUP1 PUSH3 0x5CB PUSH1 0x0 CODECOPY PUSH1 0x0 RETURN INVALID PUSH1 0x80 PUSH1 0x40 MSTORE CALLVALUE DUP1 ISZERO PUSH2 0x10 JUMPI PUSH1 0x0 DUP1 REVERT JUMPDEST POP PUSH1 0x4 CALLDATASIZE LT PUSH2 0x88 JUMPI PUSH1 0x0 CALLDATALOAD PUSH1 0xE0 SHR DUP1 PUSH4 0x70740AAB GT PUSH2 0x5B JUMPI DUP1 PUSH4 0x70740AAB EQ PUSH2 0x113 JUMPI DUP1 PUSH4 0xAEC2CCAE EQ PUSH2 0x131 JUMPI DUP1 PUSH4 0xDC899A07 EQ PUSH2 0x161 JUMPI DUP1 PUSH4 0xF6FD7FDE EQ PUSH2 0x17F JUMPI PUSH2 0x88 JUMP JUMPDEST DUP1 PUSH4 0x121B93F EQ PUSH2 0x8D JUMPI DUP1 PUSH4 0x1FFC9A7 EQ PUSH2 0xA9 JUMPI DUP1 PUSH4 0x251760B7 EQ PUSH2 0xD9 JUMPI DUP1 PUSH4 0x5FA520BB EQ PUSH2 0xF7 JUMPI JUMPDEST PUSH1 0x0 DUP1 REVERT JUMPDEST PUSH2 0xA7 PUSH1 0x4 DUP1 CALLDATASIZE SUB DUP2 ADD SWAP1 PUSH2 0xA2 SWAP2 SWAP1 PUSH2 0x6A9 JUMP JUMPDEST PUSH2 0x1AF JUMP JUMPDEST STOP JUMPDEST PUSH2 0xC3 PUSH1 0x4 DUP1 CALLDATASIZE SUB DUP2 ADD SWAP1 PUSH2 0xBE SWAP2 SWAP1 PUSH2 0x72E JUMP JUMPDEST PUSH2 0x33F JUMP JUMPDEST PUSH1 0x40 MLOAD PUSH2 0xD0 SWAP2 SWAP1 PUSH2 0x776 JUMP JUMPDEST PUSH1 0x40 MLOAD DUP1 SWAP2 SUB SWAP1 RETURN JUMPDEST PUSH2 0xE1 PUSH2 0x3D9 JUMP JUMPDEST PUSH1 0x40 MLOAD PUSH2 0xEE SWAP2 SWAP1 PUSH2 0x7A0 JUMP JUMPDEST PUSH1 0x40 MLOAD DUP1 SWAP2 SUB SWAP1 RETURN JUMPDEST PUSH2 0x111 PUSH1 0x4 DUP1 CALLDATASIZE SUB DUP2 ADD SWAP1 PUSH2 0x10C SWAP2 SWAP1 PUSH2 0x901 JUMP JUMPDEST PUSH2 0x3DF JUMP JUMPDEST STOP JUMPDEST PUSH2 0x11B PUSH2 0x489 JUMP JUMPDEST PUSH1 0x40 MLOAD PUSH2 0x128 SWAP2 SWAP1 PUSH2 0x9C9 JUMP JUMPDEST PUSH1 0x40 MLOAD DUP1 SWAP2 SUB SWAP1 RETURN JUMPDEST PUSH2 0x14B PUSH1 0x4 DUP1 CALLDATASIZE SUB DUP2 ADD SWAP1 PUSH2 0x146 SWAP2 SWAP1 PUSH2 0xA49 JUMP JUMPDEST PUSH2 0x4A5 JUMP JUMPDEST PUSH1 0x40 MLOAD PUSH2 0x158 SWAP2 SWAP1 PUSH2 0x776 JUMP JUMPDEST PUSH1 0x40 MLOAD DUP1 SWAP2 SUB SWAP1 RETURN JUMPDEST PUSH2 0x169 PUSH2 0x4C5 JUMP JUMPDEST PUSH1 0x40 MLOAD PUSH2 0x176 SWAP2 SWAP1 PUSH2 0x9C9 JUMP JUMPDEST PUSH1 0x40 MLOAD DUP1 SWAP2 SUB SWAP1 RETURN JUMPDEST PUSH2 0x199 PUSH1 0x4 DUP1 CALLDATASIZE SUB DUP2 ADD SWAP1 PUSH2 0x194 SWAP2 SWAP1 PUSH2 0x6A9 JUMP JUMPDEST PUSH2 0x56B JUMP JUMPDEST PUSH1 0x40 MLOAD PUSH2 0x1A6 SWAP2 SWAP1 PUSH2 0xB1F JUMP JUMPDEST PUSH1 0x40 MLOAD DUP1 SWAP2 SUB SWAP1 RETURN JUMPDEST PUSH1 0x0 DUP1 CALLER PUSH20 0xFFFFFFFFFFFFFFFFFFFFFFFFFFFFFFFFFFFFFFFF AND PUSH20 0xFFFFFFFFFFFFFFFFFFFFFFFFFFFFFFFFFFFFFFFF AND DUP2 MSTORE PUSH1 0x20 ADD SWAP1 DUP2 MSTORE PUSH1 0x20 ADD PUSH1 0x0 KECCAK256 PUSH1 0x0 SWAP1 SLOAD SWAP1 PUSH2 0x100 EXP SWAP1 DIV PUSH1 0xFF AND ISZERO PUSH2 0x23B JUMPI PUSH1 0x40 MLOAD PUSH32 0x8C379A000000000000000000000000000000000000000000000000000000000 DUP2 MSTORE PUSH1 0x4 ADD PUSH2 0x232 SWAP1 PUSH2 0xB8D JUMP JUMPDEST PUSH1 0x40 MLOAD DUP1 SWAP2 SUB SWAP1 REVERT JUMPDEST PUSH1 0x0 DUP2 LT ISZERO DUP1 ISZERO PUSH2 0x24D JUMPI POP PUSH1 0x2 SLOAD DUP2 LT JUMPDEST PUSH2 0x28C JUMPI PUSH1 0x40 MLOAD PUSH32 0x8C379A000000000000000000000000000000000000000000000000000000000 DUP2 MSTORE PUSH1 0x4 ADD PUSH2 0x283 SWAP1 PUSH2 0xBF9 JUMP JUMPDEST PUSH1 0x40 MLOAD DUP1 SWAP2 SUB SWAP1 REVERT JUMPDEST PUSH1 0x1 PUSH1 0x0 DUP1 CALLER PUSH20 0xFFFFFFFFFFFFFFFFFFFFFFFFFFFFFFFFFFFFFFFF AND PUSH20 0xFFFFFFFFFFFFFFFFFFFFFFFFFFFFFFFFFFFFFFFF AND DUP2 MSTORE PUSH1 0x20 ADD SWAP1 DUP2 MSTORE PUSH1 0x20 ADD PUSH1 0x0 KECCAK256 PUSH1 0x0 PUSH2 0x100 EXP DUP2 SLOAD DUP2 PUSH1 0xFF MUL NOT AND SWAP1 DUP4 ISZERO ISZERO MUL OR SWAP1 SSTORE POP PUSH1 0x1 PUSH1 0x0 DUP3 DUP2 MSTORE PUSH1 0x20 ADD SWAP1 DUP2 MSTORE PUSH1 0x20 ADD PUSH1 0x0 KECCAK256 PUSH1 0x2 ADD PUSH1 0x0 DUP2 SLOAD DUP1 SWAP3 SWAP2 SWAP1 PUSH2 0x30A SWAP1 PUSH2 0xC48 JUMP JUMPDEST SWAP2 SWAP1 POP SSTORE POP DUP1 PUSH32 0xFFF3C900D938D21D0990D786E819F29B8D05C1EF587B462B939609625B684B16 PUSH1 0x40 MLOAD PUSH1 0x40 MLOAD DUP1 SWAP2 SUB SWAP1 LOG2 POP JUMP JUMPDEST PUSH1 0x0 PUSH32 0x5227894F00000000000000000000000000000000000000000000000000000000 PUSH28 0xFFFFFFFFFFFFFFFFFFFFFFFFFFFFFFFFFFFFFFFFFFFFFFFFFFFFFFFF NOT AND DUP3 PUSH28 0xFFFFFFFFFFFFFFFFFFFFFFFFFFFFFFFFFFFFFFFFFFFFFFFFFFFFFFFF NOT AND EQ DUP1 PUSH2 0x3D2 JUMPI POP PUSH4 0x1FFC9A7 PUSH1 0xE0 SHL DUP3 PUSH28 0xFFFFFFFFFFFFFFFFFFFFFFFFFFFFFFFFFFFFFFFFFFFFFFFFFFFFFFFF NOT AND EQ JUMPDEST SWAP1 POP SWAP2 SWAP1 POP JUMP JUMPDEST PUSH1 0x2 SLOAD DUP2 JUMP JUMPDEST PUSH1 0x40 MLOAD DUP1 PUSH1 0x60 ADD PUSH1 0x40 MSTORE DUP1 PUSH1 0x2 SLOAD DUP2 MSTORE PUSH1 0x20 ADD DUP3 DUP2 MSTORE PUSH1 0x20 ADD PUSH1 0x0 DUP2 MSTORE POP PUSH1 0x1 PUSH1 0x0 PUSH1 0x2 SLOAD DUP2 MSTORE PUSH1 0x20 ADD SWAP1 DUP2 MSTORE PUSH1 0x20 ADD PUSH1 0x0 KECCAK256 PUSH1 0x0 DUP3 ADD MLOAD DUP2 PUSH1 0x0 ADD SSTORE PUSH1 0x20 DUP3 ADD MLOAD DUP2 PUSH1 0x1 ADD SWAP1 DUP2 PUSH2 0x431 SWAP2 SWAP1 PUSH2 0xE9C JUMP JUMPDEST POP PUSH1 0x40 DUP3 ADD MLOAD DUP2 PUSH1 0x2 ADD SSTORE SWAP1 POP POP PUSH1 0x2 SLOAD PUSH32 0x8C289382D6FD42A02A06E885DA5A69CB0F21294BBFC7ACC91D5CF3CED61CA0C4 PUSH1 0x40 MLOAD PUSH1 0x40 MLOAD DUP1 SWAP2 SUB SWAP1 LOG2 PUSH1 0x2 PUSH1 0x0 DUP2 SLOAD DUP1 SWAP3 SWAP2 SWAP1 PUSH2 0x481 SWAP1 PUSH2 0xC48 JUMP JUMPDEST SWAP2 SWAP1 POP SSTORE POP POP JUMP JUMPDEST PUSH1 0x40 MLOAD DUP1 PUSH1 0x60 ADD PUSH1 0x40 MSTORE DUP1 PUSH1 0x22 DUP2 MSTORE PUSH1 0x20 ADD PUSH2 0xF6F PUSH1 0x22 SWAP2 CODECOPY DUP2 JUMP JUMPDEST PUSH1 0x0 PUSH1 0x20 MSTORE DUP1 PUSH1 0x0 MSTORE PUSH1 0x40 PUSH1 0x0 KECCAK256 PUSH1 0x0 SWAP2 POP SLOAD SWAP1 PUSH2 0x100 EXP SWAP1 DIV PUSH1 0xFF AND DUP2 JUMP JUMPDEST PUSH1 0x60 PUSH1 0x1 PUSH1 0x0 DUP1 DUP2 MSTORE PUSH1 0x20 ADD SWAP1 DUP2 MSTORE PUSH1 0x20 ADD PUSH1 0x0 KECCAK256 PUSH1 0x1 ADD DUP1 SLOAD PUSH2 0x4E8 SWAP1 PUSH2 0xCBF JUMP JUMPDEST DUP1 PUSH1 0x1F ADD PUSH1 0x20 DUP1 SWAP2 DIV MUL PUSH1 0x20 ADD PUSH1 0x40 MLOAD SWAP1 DUP2 ADD PUSH1 0x40 MSTORE DUP1 SWAP3 SWAP2 SWAP1 DUP2 DUP2 MSTORE PUSH1 0x20 ADD DUP3 DUP1 SLOAD PUSH2 0x514 SWAP1 PUSH2 0xCBF JUMP JUMPDEST DUP1 ISZERO PUSH2 0x561 JUMPI DUP1 PUSH1 0x1F LT PUSH2 0x536 JUMPI PUSH2 0x100 DUP1 DUP4 SLOAD DIV MUL DUP4 MSTORE SWAP2 PUSH1 0x20 ADD SWAP2 PUSH2 0x561 JUMP JUMPDEST DUP3 ADD SWAP2 SWAP1 PUSH1 0x0 MSTORE PUSH1 0x20 PUSH1 0x0 KECCAK256 SWAP1 JUMPDEST DUP2 SLOAD DUP2 MSTORE SWAP1 PUSH1 0x1 ADD SWAP1 PUSH1 0x20 ADD DUP1 DUP4 GT PUSH2 0x544 JUMPI DUP3 SWAP1 SUB PUSH1 0x1F AND DUP3 ADD SWAP2 JUMPDEST POP POP POP POP POP SWAP1 POP SWAP1 JUMP JUMPDEST PUSH2 0x573 PUSH2 0x63E JUMP JUMPDEST PUSH1 0x1 PUSH1 0x0 DUP4 DUP2 MSTORE PUSH1 0x20 ADD SWAP1 DUP2 MSTORE PUSH1 0x20 ADD PUSH1 0x0 KECCAK256 PUSH1 0x40 MLOAD DUP1 PUSH1 0x60 ADD PUSH1 0x40 MSTORE SWAP1 DUP2 PUSH1 0x0 DUP3 ADD SLOAD DUP2 MSTORE PUSH1 0x20 ADD PUSH1 0x1 DUP3 ADD DUP1 SLOAD PUSH2 0x5AB SWAP1 PUSH2 0xCBF JUMP JUMPDEST DUP1 PUSH1 0x1F ADD PUSH1 0x20 DUP1 SWAP2 DIV MUL PUSH1 0x20 ADD PUSH1 0x40 MLOAD SWAP1 DUP2 ADD PUSH1 0x40 MSTORE DUP1 SWAP3 SWAP2 SWAP1 DUP2 DUP2 MSTORE PUSH1 0x20 ADD DUP3 DUP1 SLOAD PUSH2 0x5D7 SWAP1 PUSH2 0xCBF JUMP JUMPDEST DUP1 ISZERO PUSH2 0x624 JUMPI DUP1 PUSH1 0x1F LT PUSH2 0x5F9 JUMPI PUSH2 0x100 DUP1 DUP4 SLOAD DIV MUL DUP4 MSTORE SWAP2 PUSH1 0x20 ADD SWAP2 PUSH2 0x624 JUMP JUMPDEST DUP3 ADD SWAP2 SWAP1 PUSH1 0x0 MSTORE PUSH1 0x20 PUSH1 0x0 KECCAK256 SWAP1 JUMPDEST DUP2 SLOAD DUP2 MSTORE SWAP1 PUSH1 0x1 ADD SWAP1 PUSH1 0x20 ADD DUP1 DUP4 GT PUSH2 0x607 JUMPI DUP3 SWAP1 SUB PUSH1 0x1F AND DUP3 ADD SWAP2 JUMPDEST POP POP POP POP POP DUP2 MSTORE PUSH1 0x20 ADD PUSH1 0x2 DUP3 ADD SLOAD DUP2 MSTORE POP POP SWAP1 POP SWAP2 SWAP1 POP JUMP JUMPDEST PUSH1 0x40 MLOAD DUP1 PUSH1 0x60 ADD PUSH1 0x40 MSTORE DUP1 PUSH1 0x0 DUP2 MSTORE PUSH1 0x20 ADD PUSH1 0x60 DUP2 MSTORE PUSH1 0x20 ADD PUSH1 0x0 DUP2 MSTORE POP SWAP1 JUMP JUMPDEST PUSH1 0x0 PUSH1 0x40 MLOAD SWAP1 POP SWAP1 JUMP JUMPDEST PUSH1 0x0 DUP1 REVERT JUMPDEST PUSH1 0x0 DUP1 REVERT JUMPDEST PUSH1 0x0 DUP2 SWAP1 POP SWAP2 SWAP1 POP JUMP JUMPDEST PUSH2 0x686 DUP2 PUSH2 0x673 JUMP JUMPDEST DUP2 EQ PUSH2 0x691 JUMPI PUSH1 0x0 DUP1 REVERT JUMPDEST POP JUMP JUMPDEST PUSH1 0x0 DUP2 CALLDATALOAD SWAP1 POP PUSH2 0x6A3 DUP2 PUSH2 0x67D JUMP JUMPDEST SWAP3 SWAP2 POP POP JUMP JUMPDEST PUSH1 0x0 PUSH1 0x20 DUP3 DUP5 SUB SLT ISZERO PUSH2 0x6BF JUMPI PUSH2 0x6BE PUSH2 0x669 JUMP JUMPDEST JUMPDEST PUSH1 0x0 PUSH2 0x6CD DUP5 DUP3 DUP6 ADD PUSH2 0x694 JUMP JUMPDEST SWAP2 POP POP SWAP3 SWAP2 POP POP JUMP JUMPDEST PUSH1 0x0 PUSH32 0xFFFFFFFF00000000000000000000000000000000000000000000000000000000 DUP3 AND SWAP1 POP SWAP2 SWAP1 POP JUMP JUMPDEST PUSH2 0x70B DUP2 PUSH2 0x6D6 JUMP JUMPDEST DUP2 EQ PUSH2 0x716 JUMPI PUSH1 0x0 DUP1 REVERT JUMPDEST POP JUMP JUMPDEST PUSH1 0x0 DUP2 CALLDATALOAD SWAP1 POP PUSH2 0x728 DUP2 PUSH2 0x702 JUMP JUMPDEST SWAP3 SWAP2 POP POP JUMP JUMPDEST PUSH1 0x0 PUSH1 0x20 DUP3 DUP5 SUB SLT ISZERO PUSH2 0x744 JUMPI PUSH2 0x743 PUSH2 0x669 JUMP JUMPDEST JUMPDEST PUSH1 0x0 PUSH2 0x752 DUP5 DUP3 DUP6 ADD PUSH2 0x719 JUMP JUMPDEST SWAP2 POP POP SWAP3 SWAP2 POP POP JUMP JUMPDEST PUSH1 0x0 DUP2 ISZERO ISZERO SWAP1 POP SWAP2 SWAP1 POP JUMP JUMPDEST PUSH2 0x770 DUP2 PUSH2 0x75B JUMP JUMPDEST DUP3 MSTORE POP POP JUMP JUMPDEST PUSH1 0x0 PUSH1 0x20 DUP3 ADD SWAP1 POP PUSH2 0x78B PUSH1 0x0 DUP4 ADD DUP5 PUSH2 0x767 JUMP JUMPDEST SWAP3 SWAP2 POP POP JUMP JUMPDEST PUSH2 0x79A DUP2 PUSH2 0x673 JUMP JUMPDEST DUP3 MSTORE POP POP JUMP JUMPDEST PUSH1 0x0 PUSH1 0x20 DUP3 ADD SWAP1 POP PUSH2 0x7B5 PUSH1 0x0 DUP4 ADD DUP5 PUSH2 0x791 JUMP JUMPDEST SWAP3 SWAP2 POP POP JUMP JUMPDEST PUSH1 0x0 DUP1 REVERT JUMPDEST PUSH1 0x0 DUP1 REVERT JUMPDEST PUSH1 0x0 PUSH1 0x1F NOT PUSH1 0x1F DUP4 ADD AND SWAP1 POP SWAP2 SWAP1 POP JUMP JUMPDEST PUSH32 0x4E487B7100000000000000000000000000000000000000000000000000000000 PUSH1 0x0 MSTORE PUSH1 0x41 PUSH1 0x4 MSTORE PUSH1 0x24 PUSH1 0x0 REVERT JUMPDEST PUSH2 0x80E DUP3 PUSH2 0x7C5 JUMP JUMPDEST DUP2 ADD DUP2 DUP2 LT PUSH8 0xFFFFFFFFFFFFFFFF DUP3 GT OR ISZERO PUSH2 0x82D JUMPI PUSH2 0x82C PUSH2 0x7D6 JUMP JUMPDEST JUMPDEST DUP1 PUSH1 0x40 MSTORE POP POP POP JUMP JUMPDEST PUSH1 0x0 PUSH2 0x840 PUSH2 0x65F JUMP JUMPDEST SWAP1 POP PUSH2 0x84C DUP3 DUP3 PUSH2 0x805 JUMP JUMPDEST SWAP2 SWAP1 POP JUMP JUMPDEST PUSH1 0x0 PUSH8 0xFFFFFFFFFFFFFFFF DUP3 GT ISZERO PUSH2 0x86C JUMPI PUSH2 0x86B PUSH2 0x7D6 JUMP JUMPDEST JUMPDEST PUSH2 0x875 DUP3 PUSH2 0x7C5 JUMP JUMPDEST SWAP1 POP PUSH1 0x20 DUP2 ADD SWAP1 POP SWAP2 SWAP1 POP JUMP JUMPDEST DUP3 DUP2 DUP4 CALLDATACOPY PUSH1 0x0 DUP4 DUP4 ADD MSTORE POP POP POP JUMP JUMPDEST PUSH1 0x0 PUSH2 0x8A4 PUSH2 0x89F DUP5 PUSH2 0x851 JUMP JUMPDEST PUSH2 0x836 JUMP JUMPDEST SWAP1 POP DUP3 DUP2 MSTORE PUSH1 0x20 DUP2 ADD DUP5 DUP5 DUP5 ADD GT ISZERO PUSH2 0x8C0 JUMPI PUSH2 0x8BF PUSH2 0x7C0 JUMP JUMPDEST JUMPDEST PUSH2 0x8CB DUP5 DUP3 DUP6 PUSH2 0x882 JUMP JUMPDEST POP SWAP4 SWAP3 POP POP POP JUMP JUMPDEST PUSH1 0x0 DUP3 PUSH1 0x1F DUP4 ADD SLT PUSH2 0x8E8 JUMPI PUSH2 0x8E7 PUSH2 0x7BB JUMP JUMPDEST JUMPDEST DUP2 CALLDATALOAD PUSH2 0x8F8 DUP5 DUP3 PUSH1 0x20 DUP7 ADD PUSH2 0x891 JUMP JUMPDEST SWAP2 POP POP SWAP3 SWAP2 POP POP JUMP JUMPDEST PUSH1 0x0 PUSH1 0x20 DUP3 DUP5 SUB SLT ISZERO PUSH2 0x917 JUMPI PUSH2 0x916 PUSH2 0x669 JUMP JUMPDEST JUMPDEST PUSH1 0x0 DUP3 ADD CALLDATALOAD PUSH8 0xFFFFFFFFFFFFFFFF DUP2 GT ISZERO PUSH2 0x935 JUMPI PUSH2 0x934 PUSH2 0x66E JUMP JUMPDEST JUMPDEST PUSH2 0x941 DUP5 DUP3 DUP6 ADD PUSH2 0x8D3 JUMP JUMPDEST SWAP2 POP POP SWAP3 SWAP2 POP POP JUMP JUMPDEST PUSH1 0x0 DUP2 MLOAD SWAP1 POP SWAP2 SWAP1 POP JUMP JUMPDEST PUSH1 0x0 DUP3 DUP3 MSTORE PUSH1 0x20 DUP3 ADD SWAP1 POP SWAP3 SWAP2 POP POP JUMP JUMPDEST PUSH1 0x0 JUMPDEST DUP4 DUP2 LT ISZERO PUSH2 0x984 JUMPI DUP1 DUP3 ADD MLOAD DUP2 DUP5 ADD MSTORE PUSH1 0x20 DUP2 ADD SWAP1 POP PUSH2 0x969 JUMP JUMPDEST PUSH1 0x0 DUP5 DUP5 ADD MSTORE POP POP POP POP JUMP JUMPDEST PUSH1 0x0 PUSH2 0x99B DUP3 PUSH2 0x94A JUMP JUMPDEST PUSH2 0x9A5 DUP2 DUP6 PUSH2 0x955 JUMP JUMPDEST SWAP4 POP PUSH2 0x9B5 DUP2 DUP6 PUSH1 0x20 DUP7 ADD PUSH2 0x966 JUMP JUMPDEST PUSH2 0x9BE DUP2 PUSH2 0x7C5 JUMP JUMPDEST DUP5 ADD SWAP2 POP POP SWAP3 SWAP2 POP POP JUMP JUMPDEST PUSH1 0x0 PUSH1 0x20 DUP3 ADD SWAP1 POP DUP2 DUP2 SUB PUSH1 0x0 DUP4 ADD MSTORE PUSH2 0x9E3 DUP2 DUP5 PUSH2 0x990 JUMP JUMPDEST SWAP1 POP SWAP3 SWAP2 POP POP JUMP JUMPDEST PUSH1 0x0 PUSH20 0xFFFFFFFFFFFFFFFFFFFFFFFFFFFFFFFFFFFFFFFF DUP3 AND SWAP1 POP SWAP2 SWAP1 POP JUMP JUMPDEST PUSH1 0x0 PUSH2 0xA16 DUP3 PUSH2 0x9EB JUMP JUMPDEST SWAP1 POP SWAP2 SWAP1 POP JUMP JUMPDEST PUSH2 0xA26 DUP2 PUSH2 0xA0B JUMP JUMPDEST DUP2 EQ PUSH2 0xA31 JUMPI PUSH1 0x0 DUP1 REVERT JUMPDEST POP JUMP JUMPDEST PUSH1 0x0 DUP2 CALLDATALOAD SWAP1 POP PUSH2 0xA43 DUP2 PUSH2 0xA1D JUMP JUMPDEST SWAP3 SWAP2 POP POP JUMP JUMPDEST PUSH1 0x0 PUSH1 0x20 DUP3 DUP5 SUB SLT ISZERO PUSH2 0xA5F JUMPI PUSH2 0xA5E PUSH2 0x669 JUMP JUMPDEST JUMPDEST PUSH1 0x0 PUSH2 0xA6D DUP5 DUP3 DUP6 ADD PUSH2 0xA34 JUMP JUMPDEST SWAP2 POP POP SWAP3 SWAP2 POP POP JUMP JUMPDEST PUSH2 0xA7F DUP2 PUSH2 0x673 JUMP JUMPDEST DUP3 MSTORE POP POP JUMP JUMPDEST PUSH1 0x0 DUP3 DUP3 MSTORE PUSH1 0x20 DUP3 ADD SWAP1 POP SWAP3 SWAP2 POP POP JUMP JUMPDEST PUSH1 0x0 PUSH2 0xAA1 DUP3 PUSH2 0x94A JUMP JUMPDEST PUSH2 0xAAB DUP2 DUP6 PUSH2 0xA85 JUMP JUMPDEST SWAP4 POP PUSH2 0xABB DUP2 DUP6 PUSH1 0x20 DUP7 ADD PUSH2 0x966 JUMP JUMPDEST PUSH2 0xAC4 DUP2 PUSH2 0x7C5 JUMP JUMPDEST DUP5 ADD SWAP2 POP POP SWAP3 SWAP2 POP POP JUMP JUMPDEST PUSH1 0x0 PUSH1 0x60 DUP4 ADD PUSH1 0x0 DUP4 ADD MLOAD PUSH2 0xAE7 PUSH1 0x0 DUP7 ADD DUP3 PUSH2 0xA76 JUMP JUMPDEST POP PUSH1 0x20 DUP4 ADD MLOAD DUP5 DUP3 SUB PUSH1 0x20 DUP7 ADD MSTORE PUSH2 0xAFF DUP3 DUP3 PUSH2 0xA96 JUMP JUMPDEST SWAP2 POP POP PUSH1 0x40 DUP4 ADD MLOAD PUSH2 0xB14 PUSH1 0x40 DUP7 ADD DUP3 PUSH2 0xA76 JUMP JUMPDEST POP DUP1 SWAP2 POP POP SWAP3 SWAP2 POP POP JUMP JUMPDEST PUSH1 0x0 PUSH1 0x20 DUP3 ADD SWAP1 POP DUP2 DUP2 SUB PUSH1 0x0 DUP4 ADD MSTORE PUSH2 0xB39 DUP2 DUP5 PUSH2 0xACF JUMP JUMPDEST SWAP1 POP SWAP3 SWAP2 POP POP JUMP JUMPDEST PUSH32 0x73656E6465722068617320616C726561647920766F7465640000000000000000 PUSH1 0x0 DUP3 ADD MSTORE POP JUMP JUMPDEST PUSH1 0x0 PUSH2 0xB77 PUSH1 0x18 DUP4 PUSH2 0x955 JUMP JUMPDEST SWAP2 POP PUSH2 0xB82 DUP3 PUSH2 0xB41 JUMP JUMPDEST PUSH1 0x20 DUP3 ADD SWAP1 POP SWAP2 SWAP1 POP JUMP JUMPDEST PUSH1 0x0 PUSH1 0x20 DUP3 ADD SWAP1 POP DUP2 DUP2 SUB PUSH1 0x0 DUP4 ADD MSTORE PUSH2 0xBA6 DUP2 PUSH2 0xB6A JUMP JUMPDEST SWAP1 POP SWAP2 SWAP1 POP JUMP JUMPDEST PUSH32 0x696E76616C696420766F74652073656C656374696F6E00000000000000000000 PUSH1 0x0 DUP3 ADD MSTORE POP JUMP JUMPDEST PUSH1 0x0 PUSH2 0xBE3 PUSH1 0x16 DUP4 PUSH2 0x955 JUMP JUMPDEST SWAP2 POP PUSH2 0xBEE DUP3 PUSH2 0xBAD JUMP JUMPDEST PUSH1 0x20 DUP3 ADD SWAP1 POP SWAP2 SWAP1 POP JUMP JUMPDEST PUSH1 0x0 PUSH1 0x20 DUP3 ADD SWAP1 POP DUP2 DUP2 SUB PUSH1 0x0 DUP4 ADD MSTORE PUSH2 0xC12 DUP2 PUSH2 0xBD6 JUMP JUMPDEST SWAP1 POP SWAP2 SWAP1 POP JUMP JUMPDEST PUSH32 0x4E487B7100000000000000000000000000000000000000000000000000000000 PUSH1 0x0 MSTORE PUSH1 0x11 PUSH1 0x4 MSTORE PUSH1 0x24 PUSH1 0x0 REVERT JUMPDEST PUSH1 0x0 PUSH2 0xC53 DUP3 PUSH2 0x673 JUMP JUMPDEST SWAP2 POP PUSH32 0xFFFFFFFFFFFFFFFFFFFFFFFFFFFFFFFFFFFFFFFFFFFFFFFFFFFFFFFFFFFFFFFF DUP3 SUB PUSH2 0xC85 JUMPI PUSH2 0xC84 PUSH2 0xC19 JUMP JUMPDEST JUMPDEST PUSH1 0x1 DUP3 ADD SWAP1 POP SWAP2 SWAP1 POP JUMP JUMPDEST PUSH32 0x4E487B7100000000000000000000000000000000000000000000000000000000 PUSH1 0x0 MSTORE PUSH1 0x22 PUSH1 0x4 MSTORE PUSH1 0x24 PUSH1 0x0 REVERT JUMPDEST PUSH1 0x0 PUSH1 0x2 DUP3 DIV SWAP1 POP PUSH1 0x1 DUP3 AND DUP1 PUSH2 0xCD7 JUMPI PUSH1 0x7F DUP3 AND SWAP2 POP JUMPDEST PUSH1 0x20 DUP3 LT DUP2 SUB PUSH2 0xCEA JUMPI PUSH2 0xCE9 PUSH2 0xC90 JUMP JUMPDEST JUMPDEST POP SWAP2 SWAP1 POP JUMP JUMPDEST PUSH1 0x0 DUP2 SWAP1 POP DUP2 PUSH1 0x0 MSTORE PUSH1 0x20 PUSH1 0x0 KECCAK256 SWAP1 POP SWAP2 SWAP1 POP JUMP JUMPDEST PUSH1 0x0 PUSH1 0x20 PUSH1 0x1F DUP4 ADD DIV SWAP1 POP SWAP2 SWAP1 POP JUMP JUMPDEST PUSH1 0x0 DUP3 DUP3 SHL SWAP1 POP SWAP3 SWAP2 POP POP JUMP JUMPDEST PUSH1 0x0 PUSH1 0x8 DUP4 MUL PUSH2 0xD52 PUSH32 0xFFFFFFFFFFFFFFFFFFFFFFFFFFFFFFFFFFFFFFFFFFFFFFFFFFFFFFFFFFFFFFFF DUP3 PUSH2 0xD15 JUMP JUMPDEST PUSH2 0xD5C DUP7 DUP4 PUSH2 0xD15 JUMP JUMPDEST SWAP6 POP DUP1 NOT DUP5 AND SWAP4 POP DUP1 DUP7 AND DUP5 OR SWAP3 POP POP POP SWAP4 SWAP3 POP POP POP JUMP JUMPDEST PUSH1 0x0 DUP2 SWAP1 POP SWAP2 SWAP1 POP JUMP JUMPDEST PUSH1 0x0 PUSH2 0xD99 PUSH2 0xD94 PUSH2 0xD8F DUP5 PUSH2 0x673 JUMP JUMPDEST PUSH2 0xD74 JUMP JUMPDEST PUSH2 0x673 JUMP JUMPDEST SWAP1 POP SWAP2 SWAP1 POP JUMP JUMPDEST PUSH1 0x0 DUP2 SWAP1 POP SWAP2 SWAP1 POP JUMP JUMPDEST PUSH2 0xDB3 DUP4 PUSH2 0xD7E JUMP JUMPDEST PUSH2 0xDC7 PUSH2 0xDBF DUP3 PUSH2 0xDA0 JUMP JUMPDEST DUP5 DUP5 SLOAD PUSH2 0xD22 JUMP JUMPDEST DUP3 SSTORE POP POP POP POP JUMP JUMPDEST PUSH1 0x0 SWAP1 JUMP JUMPDEST PUSH2 0xDDC PUSH2 0xDCF JUMP JUMPDEST PUSH2 0xDE7 DUP2 DUP5 DUP5 PUSH2 0xDAA JUMP JUMPDEST POP POP POP JUMP JUMPDEST JUMPDEST DUP2 DUP2 LT ISZERO PUSH2 0xE0B JUMPI PUSH2 0xE00 PUSH1 0x0 DUP3 PUSH2 0xDD4 JUMP JUMPDEST PUSH1 0x1 DUP2 ADD SWAP1 POP PUSH2 0xDED JUMP JUMPDEST POP POP JUMP JUMPDEST PUSH1 0x1F DUP3 GT ISZERO PUSH2 0xE50 JUMPI PUSH2 0xE21 DUP2 PUSH2 0xCF0 JUMP JUMPDEST PUSH2 0xE2A DUP5 PUSH2 0xD05 JUMP JUMPDEST DUP2 ADD PUSH1 0x20 DUP6 LT ISZERO PUSH2 0xE39 JUMPI DUP2 SWAP1 POP JUMPDEST PUSH2 0xE4D PUSH2 0xE45 DUP6 PUSH2 0xD05 JUMP JUMPDEST DUP4 ADD DUP3 PUSH2 0xDEC JUMP JUMPDEST POP POP JUMPDEST POP POP POP JUMP JUMPDEST PUSH1 0x0 DUP3 DUP3 SHR SWAP1 POP SWAP3 SWAP2 POP POP JUMP JUMPDEST PUSH1 0x0 PUSH2 0xE73 PUSH1 0x0 NOT DUP5 PUSH1 0x8 MUL PUSH2 0xE55 JUMP JUMPDEST NOT DUP1 DUP4 AND SWAP2 POP POP SWAP3 SWAP2 POP POP JUMP JUMPDEST PUSH1 0x0 PUSH2 0xE8C DUP4 DUP4 PUSH2 0xE62 JUMP JUMPDEST SWAP2 POP DUP3 PUSH1 0x2 MUL DUP3 OR SWAP1 POP SWAP3 SWAP2 POP POP JUMP JUMPDEST PUSH2 0xEA5 DUP3 PUSH2 0x94A JUMP JUMPDEST PUSH8 0xFFFFFFFFFFFFFFFF DUP2 GT ISZERO PUSH2 0xEBE JUMPI PUSH2 0xEBD PUSH2 0x7D6 JUMP JUMPDEST JUMPDEST PUSH2 0xEC8 DUP3 SLOAD PUSH2 0xCBF JUMP JUMPDEST PUSH2 0xED3 DUP3 DUP3 DUP6 PUSH2 0xE0F JUMP JUMPDEST PUSH1 0x0 PUSH1 0x20 SWAP1 POP PUSH1 0x1F DUP4 GT PUSH1 0x1 DUP2 EQ PUSH2 0xF06 JUMPI PUSH1 0x0 DUP5 ISZERO PUSH2 0xEF4 JUMPI DUP3 DUP8 ADD MLOAD SWAP1 POP JUMPDEST PUSH2 0xEFE DUP6 DUP3 PUSH2 0xE80 JUMP JUMPDEST DUP7 SSTORE POP PUSH2 0xF66 JUMP JUMPDEST PUSH1 0x1F NOT DUP5 AND PUSH2 0xF14 DUP7 PUSH2 0xCF0 JUMP JUMPDEST PUSH1 0x0 JUMPDEST DUP3 DUP2 LT ISZERO PUSH2 0xF3C JUMPI DUP5 DUP10 ADD MLOAD DUP3 SSTORE PUSH1 0x1 DUP3 ADD SWAP2 POP PUSH1 0x20 DUP6 ADD SWAP5 POP PUSH1 0x20 DUP2 ADD SWAP1 POP PUSH2 0xF17 JUMP JUMPDEST DUP7 DUP4 LT ISZERO PUSH2 0xF59 JUMPI DUP5 DUP10 ADD MLOAD PUSH2 0xF55 PUSH1 0x1F DUP10 AND DUP3 PUSH2 0xE62 JUMP JUMPDEST DUP4 SSTORE POP JUMPDEST PUSH1 0x1 PUSH1 0x2 DUP9 MUL ADD DUP9 SSTORE POP POP POP JUMPDEST POP POP POP POP POP POP JUMP INVALID JUMP PUSH16 0x7465206F6E20796F7572206661766F72 PUSH10 0x746520656E6572677920 PUSH5 0x72696E6BA2 PUSH5 0x6970667358 0x22 SLT KECCAK256 CHAINID 0xCA 0xD 0xE0 DUP14 0xEE PUSH16 0xDE916FAD68DF3F7FA72276D4956930EB 0x5D 0xB5 0xE0 0x26 ADD PUSH21 0x939C3864736F6C6343000816003300000000000000 "
		},
		"gasEstimates": {
			"creation": {
				"codeDepositCost": "807600",
				"executionCost": "infinite",
				"totalCost": "infinite"
			},
			"external": {
				"addChoice(string)": "infinite",
				"choices(uint256)": "infinite",
				"num_choices()": "2474",
				"purpose()": "infinite",
				"supportsInterface(bytes4)": "704",
				"unnecessaryFunction()": "infinite",
				"vote(uint256)": "infinite",
				"voted(address)": "2867"
			}
		},
		"methodIdentifiers": {
			"addChoice(string)": "5fa520bb",
			"choices(uint256)": "f6fd7fde",
			"num_choices()": "251760b7",
			"purpose()": "70740aab",
			"supportsInterface(bytes4)": "01ffc9a7",
			"unnecessaryFunction()": "dc899a07",
			"vote(uint256)": "0121b93f",
			"voted(address)": "aec2ccae"
		}
	},
	"abi": [
		{
			"inputs": [],
			"stateMutability": "nonpayable",
			"type": "constructor"
		},
		{
			"anonymous": false,
			"inputs": [
				{
					"indexed": true,
					"internalType": "uint256",
					"name": "_id",
					"type": "uint256"
				}
			],
			"name": "choiceAddedEvent",
			"type": "event"
		},
		{
			"anonymous": false,
			"inputs": [
				{
					"indexed": true,
					"internalType": "uint256",
					"name": "_id",
					"type": "uint256"
				}
			],
			"name": "votedEvent",
			"type": "event"
		},
		{
			"inputs": [
				{
					"internalType": "string",
					"name": "_name",
					"type": "string"
				}
			],
			"name": "addChoice",
			"outputs": [],
			"stateMutability": "nonpayable",
			"type": "function"
		},
		{
			"inputs": [
				{
					"internalType": "uint256",
					"name": "i",
					"type": "uint256"
				}
			],
			"name": "choices",
			"outputs": [
				{
					"components": [
						{
							"internalType": "uint256",
							"name": "id",
							"type": "uint256"
						},
						{
							"internalType": "string",
							"name": "name",
							"type": "string"
						},
						{
							"internalType": "uint256",
							"name": "votes",
							"type": "uint256"
						}
					],
					"internalType": "struct IPoll.Choice",
					"name": "",
					"type": "tuple"
				}
			],
			"stateMutability": "view",
			"type": "function"
		},
		{
			"inputs": [],
			"name": "num_choices",
			"outputs": [
				{
					"internalType": "uint256",
					"name": "",
					"type": "uint256"
				}
			],
			"stateMutability": "view",
			"type": "function"
		},
		{
			"inputs": [],
			"name": "purpose",
			"outputs": [
				{
					"internalType": "string",
					"name": "",
					"type": "string"
				}
			],
			"stateMutability": "view",
			"type": "function"
		},
		{
			"inputs": [
				{
					"internalType": "bytes4",
					"name": "interfaceId",
					"type": "bytes4"
				}
			],
			"name": "supportsInterface",
			"outputs": [
				{
					"internalType": "bool",
					"name": "",
					"type": "bool"
				}
			],
			"stateMutability": "pure",
			"type": "function"
		},
		{
			"inputs": [],
			"name": "unnecessaryFunction",
			"outputs": [
				{
					"internalType": "string",
					"name": "",
					"type": "string"
				}
			],
			"stateMutability": "view",
			"type": "function"
		},
		{
			"inputs": [
				{
					"internalType": "uint256",
					"name": "_id",
					"type": "uint256"
				}
			],
			"name": "vote",
			"outputs": [],
			"stateMutability": "nonpayable",
			"type": "function"
		},
		{
			"inputs": [
				{
					"internalType": "address",
					"name": "",
					"type": "address"
				}
			],
			"name": "voted",
			"outputs": [
				{
					"internalType": "bool",
					"name": "",
					"type": "bool"
				}
			],
			"stateMutability": "view",
			"type": "function"
		}
	]
}